{
  "address": "0x7DA33e974B0EE1dFf9324e9F74D01D330369799F",
  "abi": [
    {
      "inputs": [
        {
          "internalType": "address",
          "name": "token_",
          "type": "address"
        },
        {
          "internalType": "address",
          "name": "funding_",
          "type": "address"
        }
      ],
      "stateMutability": "nonpayable",
      "type": "constructor"
    },
    {
      "anonymous": false,
      "inputs": [
        {
          "indexed": true,
          "internalType": "address",
          "name": "funding",
          "type": "address"
        }
      ],
      "name": "Funding",
      "type": "event"
    },
    {
      "anonymous": false,
      "inputs": [
        {
          "indexed": true,
          "internalType": "uint256",
          "name": "vestingSchedID",
          "type": "uint256"
        },
        {
          "indexed": true,
          "internalType": "address",
          "name": "beneficiary",
          "type": "address"
        },
        {
          "indexed": true,
          "internalType": "uint256",
          "name": "amount",
          "type": "uint256"
        }
      ],
      "name": "Grant",
      "type": "event"
    },
    {
      "anonymous": false,
      "inputs": [
        {
          "indexed": true,
          "internalType": "bytes32",
          "name": "role",
          "type": "bytes32"
        },
        {
          "indexed": true,
          "internalType": "bytes32",
          "name": "previousAdminRole",
          "type": "bytes32"
        },
        {
          "indexed": true,
          "internalType": "bytes32",
          "name": "newAdminRole",
          "type": "bytes32"
        }
      ],
      "name": "RoleAdminChanged",
      "type": "event"
    },
    {
      "anonymous": false,
      "inputs": [
        {
          "indexed": true,
          "internalType": "bytes32",
          "name": "role",
          "type": "bytes32"
        },
        {
          "indexed": true,
          "internalType": "address",
          "name": "account",
          "type": "address"
        },
        {
          "indexed": true,
          "internalType": "address",
          "name": "sender",
          "type": "address"
        }
      ],
      "name": "RoleGranted",
      "type": "event"
    },
    {
      "anonymous": false,
      "inputs": [
        {
          "indexed": true,
          "internalType": "bytes32",
          "name": "role",
          "type": "bytes32"
        },
        {
          "indexed": true,
          "internalType": "address",
          "name": "account",
          "type": "address"
        },
        {
          "indexed": true,
          "internalType": "address",
          "name": "sender",
          "type": "address"
        }
      ],
      "name": "RoleRevoked",
      "type": "event"
    },
    {
      "anonymous": false,
      "inputs": [
        {
          "indexed": true,
          "internalType": "uint256",
          "name": "vestingSchedID",
          "type": "uint256"
        },
        {
          "indexed": true,
          "internalType": "address",
          "name": "from",
          "type": "address"
        },
        {
          "indexed": true,
          "internalType": "address",
          "name": "to",
          "type": "address"
        },
        {
          "indexed": false,
          "internalType": "uint256",
          "name": "amount",
          "type": "uint256"
        }
      ],
      "name": "Transfer",
      "type": "event"
    },
    {
      "anonymous": false,
      "inputs": [
        {
          "indexed": true,
          "internalType": "uint256",
          "name": "vestingSchedID",
          "type": "uint256"
        },
        {
          "indexed": false,
          "internalType": "string",
          "name": "name",
          "type": "string"
        },
        {
          "indexed": false,
          "internalType": "uint256",
          "name": "vestingTime",
          "type": "uint256"
        }
      ],
      "name": "Vesting",
      "type": "event"
    },
    {
      "anonymous": false,
      "inputs": [
        {
          "indexed": true,
          "internalType": "uint256",
          "name": "vestingSchedID",
          "type": "uint256"
        },
        {
          "indexed": true,
          "internalType": "address",
          "name": "from",
          "type": "address"
        },
        {
          "indexed": true,
          "internalType": "address",
          "name": "beneficiary",
          "type": "address"
        },
        {
          "indexed": false,
          "internalType": "uint256",
          "name": "amount",
          "type": "uint256"
        }
      ],
      "name": "Withdraw",
      "type": "event"
    },
    {
      "inputs": [],
      "name": "ADMIN_ROLE",
      "outputs": [
        {
          "internalType": "bytes32",
          "name": "",
          "type": "bytes32"
        }
      ],
      "stateMutability": "view",
      "type": "function"
    },
    {
      "inputs": [],
      "name": "BLACKLISTER_ROLE",
      "outputs": [
        {
          "internalType": "bytes32",
          "name": "",
          "type": "bytes32"
        }
      ],
      "stateMutability": "view",
      "type": "function"
    },
    {
      "inputs": [],
      "name": "BURNER_ROLE",
      "outputs": [
        {
          "internalType": "bytes32",
          "name": "",
          "type": "bytes32"
        }
      ],
      "stateMutability": "view",
      "type": "function"
    },
    {
      "inputs": [],
      "name": "DEFAULT_ADMIN_ROLE",
      "outputs": [
        {
          "internalType": "bytes32",
          "name": "",
          "type": "bytes32"
        }
      ],
      "stateMutability": "view",
      "type": "function"
    },
    {
      "inputs": [],
      "name": "GRANTER_ROLE",
      "outputs": [
        {
          "internalType": "bytes32",
          "name": "",
          "type": "bytes32"
        }
      ],
      "stateMutability": "view",
      "type": "function"
    },
    {
      "inputs": [],
      "name": "MINTER_ROLE",
      "outputs": [
        {
          "internalType": "bytes32",
          "name": "",
          "type": "bytes32"
        }
      ],
      "stateMutability": "view",
      "type": "function"
    },
    {
      "inputs": [
        {
          "internalType": "bytes32",
          "name": "role",
          "type": "bytes32"
        },
        {
          "internalType": "address",
          "name": "member",
          "type": "address"
        }
      ],
      "name": "addRoleMember",
      "outputs": [
        {
          "internalType": "bool",
          "name": "",
          "type": "bool"
        }
      ],
      "stateMutability": "nonpayable",
      "type": "function"
    },
    {
      "inputs": [
        {
          "internalType": "address",
          "name": "beneficiary",
          "type": "address"
        }
      ],
      "name": "allSoloVestings",
      "outputs": [
        {
          "components": [
            {
              "internalType": "uint256",
              "name": "vestingID",
              "type": "uint256"
            },
            {
              "internalType": "address",
              "name": "beneficiary",
              "type": "address"
            },
            {
              "internalType": "uint256",
              "name": "grantAmount",
              "type": "uint256"
            },
            {
              "internalType": "uint256",
              "name": "withdrawAmount",
              "type": "uint256"
            }
          ],
          "internalType": "struct TokenVesting.SoloVesting[]",
          "name": "",
          "type": "tuple[]"
        }
      ],
      "stateMutability": "view",
      "type": "function"
    },
    {
      "inputs": [],
      "name": "allVestingScheds",
      "outputs": [
        {
          "components": [
            {
              "internalType": "uint256",
              "name": "id",
              "type": "uint256"
            },
            {
              "internalType": "string",
              "name": "name",
              "type": "string"
            },
            {
              "internalType": "uint256",
              "name": "vestingTime",
              "type": "uint256"
            },
            {
              "internalType": "uint256",
              "name": "grantAmount",
              "type": "uint256"
            },
            {
              "internalType": "uint256",
              "name": "withdrawAmount",
              "type": "uint256"
            }
          ],
          "internalType": "struct TokenVesting.VestingSched[]",
          "name": "",
          "type": "tuple[]"
        }
      ],
      "stateMutability": "view",
      "type": "function"
    },
    {
      "inputs": [],
      "name": "funding",
      "outputs": [
        {
          "internalType": "address",
          "name": "",
          "type": "address"
        }
      ],
      "stateMutability": "view",
      "type": "function"
    },
    {
      "inputs": [
        {
          "internalType": "bytes32",
          "name": "role",
          "type": "bytes32"
        }
      ],
      "name": "getRoleAdmin",
      "outputs": [
        {
          "internalType": "bytes32",
          "name": "",
          "type": "bytes32"
        }
      ],
      "stateMutability": "view",
      "type": "function"
    },
    {
      "inputs": [
        {
          "internalType": "bytes32",
          "name": "role",
          "type": "bytes32"
        },
        {
          "internalType": "uint256",
          "name": "index",
          "type": "uint256"
        }
      ],
      "name": "getRoleMember",
      "outputs": [
        {
          "internalType": "address",
          "name": "",
          "type": "address"
        }
      ],
      "stateMutability": "view",
      "type": "function"
    },
    {
      "inputs": [
        {
          "internalType": "bytes32",
          "name": "role",
          "type": "bytes32"
        }
      ],
      "name": "getRoleMemberCount",
      "outputs": [
        {
          "internalType": "uint256",
          "name": "",
          "type": "uint256"
        }
      ],
      "stateMutability": "view",
      "type": "function"
    },
    {
      "inputs": [
        {
          "internalType": "bytes32",
          "name": "role",
          "type": "bytes32"
        }
      ],
      "name": "getRoleMembers",
      "outputs": [
        {
          "internalType": "address[]",
          "name": "",
          "type": "address[]"
        }
      ],
      "stateMutability": "view",
      "type": "function"
    },
    {
      "inputs": [],
      "name": "getRoles",
      "outputs": [
        {
          "components": [
            {
              "internalType": "bytes32",
              "name": "role",
              "type": "bytes32"
            },
            {
              "internalType": "string",
              "name": "describe",
              "type": "string"
            }
          ],
          "internalType": "struct RoleAccess.Role[]",
          "name": "",
          "type": "tuple[]"
        }
      ],
      "stateMutability": "pure",
      "type": "function"
    },
    {
      "inputs": [
        {
          "internalType": "uint256",
          "name": "vestingSchedID_",
          "type": "uint256"
        },
        {
          "internalType": "address[]",
          "name": "beneficiaries",
          "type": "address[]"
        },
        {
          "internalType": "uint256[]",
          "name": "grantAmounts",
          "type": "uint256[]"
        }
      ],
      "name": "grant",
      "outputs": [
        {
          "internalType": "bool",
          "name": "",
          "type": "bool"
        }
      ],
      "stateMutability": "nonpayable",
      "type": "function"
    },
    {
      "inputs": [
        {
          "internalType": "address",
          "name": "blacklister",
          "type": "address"
        }
      ],
      "name": "grantBlacklister",
      "outputs": [
        {
          "internalType": "bool",
          "name": "",
          "type": "bool"
        }
      ],
      "stateMutability": "nonpayable",
      "type": "function"
    },
    {
      "inputs": [
        {
          "internalType": "address",
          "name": "burner",
          "type": "address"
        }
      ],
      "name": "grantBurner",
      "outputs": [
        {
          "internalType": "bool",
          "name": "",
          "type": "bool"
        }
      ],
      "stateMutability": "nonpayable",
      "type": "function"
    },
    {
      "inputs": [
        {
          "internalType": "address",
          "name": "granter",
          "type": "address"
        }
      ],
      "name": "grantGranter",
      "outputs": [
        {
          "internalType": "bool",
          "name": "",
          "type": "bool"
        }
      ],
      "stateMutability": "nonpayable",
      "type": "function"
    },
    {
      "inputs": [
        {
          "internalType": "address",
          "name": "minter",
          "type": "address"
        }
      ],
      "name": "grantMinter",
      "outputs": [
        {
          "internalType": "bool",
          "name": "",
          "type": "bool"
        }
      ],
      "stateMutability": "nonpayable",
      "type": "function"
    },
    {
      "inputs": [
        {
          "internalType": "bytes32",
          "name": "role",
          "type": "bytes32"
        },
        {
          "internalType": "address",
          "name": "account",
          "type": "address"
        }
      ],
      "name": "grantRole",
      "outputs": [],
      "stateMutability": "nonpayable",
      "type": "function"
    },
    {
      "inputs": [
        {
          "internalType": "bytes32",
          "name": "role",
          "type": "bytes32"
        },
        {
          "internalType": "address",
          "name": "account",
          "type": "address"
        }
      ],
      "name": "hasRole",
      "outputs": [
        {
          "internalType": "bool",
          "name": "",
          "type": "bool"
        }
      ],
      "stateMutability": "view",
      "type": "function"
    },
    {
      "inputs": [
        {
          "internalType": "string",
          "name": "name",
          "type": "string"
        },
        {
          "internalType": "uint256",
          "name": "vestingTime",
          "type": "uint256"
        }
      ],
      "name": "newVestingSched",
      "outputs": [
        {
          "internalType": "uint256",
          "name": "",
          "type": "uint256"
        }
      ],
      "stateMutability": "nonpayable",
      "type": "function"
    },
    {
      "inputs": [
        {
          "internalType": "bytes32",
          "name": "role",
          "type": "bytes32"
        },
        {
          "internalType": "address",
          "name": "member",
          "type": "address"
        }
      ],
      "name": "removeRoleMember",
      "outputs": [
        {
          "internalType": "bool",
          "name": "",
          "type": "bool"
        }
      ],
      "stateMutability": "nonpayable",
      "type": "function"
    },
    {
      "inputs": [
        {
          "internalType": "bytes32",
          "name": "role",
          "type": "bytes32"
        },
        {
          "internalType": "address",
          "name": "account",
          "type": "address"
        }
      ],
      "name": "renounceRole",
      "outputs": [],
      "stateMutability": "nonpayable",
      "type": "function"
    },
    {
      "inputs": [
        {
          "internalType": "address",
          "name": "blacklister",
          "type": "address"
        }
      ],
      "name": "revokeBlacklister",
      "outputs": [
        {
          "internalType": "bool",
          "name": "",
          "type": "bool"
        }
      ],
      "stateMutability": "nonpayable",
      "type": "function"
    },
    {
      "inputs": [
        {
          "internalType": "address",
          "name": "burner",
          "type": "address"
        }
      ],
      "name": "revokeBurner",
      "outputs": [
        {
          "internalType": "bool",
          "name": "",
          "type": "bool"
        }
      ],
      "stateMutability": "nonpayable",
      "type": "function"
    },
    {
      "inputs": [
        {
          "internalType": "address",
          "name": "granter",
          "type": "address"
        }
      ],
      "name": "revokeGranter",
      "outputs": [
        {
          "internalType": "bool",
          "name": "",
          "type": "bool"
        }
      ],
      "stateMutability": "nonpayable",
      "type": "function"
    },
    {
      "inputs": [
        {
          "internalType": "address",
          "name": "minter",
          "type": "address"
        }
      ],
      "name": "revokeMinter",
      "outputs": [
        {
          "internalType": "bool",
          "name": "",
          "type": "bool"
        }
      ],
      "stateMutability": "nonpayable",
      "type": "function"
    },
    {
      "inputs": [
        {
          "internalType": "bytes32",
          "name": "role",
          "type": "bytes32"
        },
        {
          "internalType": "address",
          "name": "account",
          "type": "address"
        }
      ],
      "name": "revokeRole",
      "outputs": [],
      "stateMutability": "nonpayable",
      "type": "function"
    },
    {
      "inputs": [
        {
          "internalType": "uint256",
          "name": "vestingSchedID_",
          "type": "uint256"
        },
        {
          "internalType": "address",
          "name": "beneficiary",
          "type": "address"
        }
      ],
      "name": "soloVesting",
      "outputs": [
        {
          "components": [
            {
              "internalType": "uint256",
              "name": "vestingID",
              "type": "uint256"
            },
            {
              "internalType": "address",
              "name": "beneficiary",
              "type": "address"
            },
            {
              "internalType": "uint256",
              "name": "grantAmount",
              "type": "uint256"
            },
            {
              "internalType": "uint256",
              "name": "withdrawAmount",
              "type": "uint256"
            }
          ],
          "internalType": "struct TokenVesting.SoloVesting",
          "name": "",
          "type": "tuple"
        }
      ],
      "stateMutability": "view",
      "type": "function"
    },
    {
      "inputs": [
        {
          "internalType": "bytes4",
          "name": "interfaceId",
          "type": "bytes4"
        }
      ],
      "name": "supportsInterface",
      "outputs": [
        {
          "internalType": "bool",
          "name": "",
          "type": "bool"
        }
      ],
      "stateMutability": "view",
      "type": "function"
    },
    {
      "inputs": [],
      "name": "token",
      "outputs": [
        {
          "internalType": "address",
          "name": "",
          "type": "address"
        }
      ],
      "stateMutability": "view",
      "type": "function"
    },
    {
      "inputs": [
        {
          "internalType": "uint256",
          "name": "vestingSchedID_",
          "type": "uint256"
        },
        {
          "internalType": "address",
          "name": "beneficiary",
          "type": "address"
        },
        {
          "internalType": "uint256",
          "name": "amount",
          "type": "uint256"
        }
      ],
      "name": "transfer",
      "outputs": [
        {
          "internalType": "bool",
          "name": "",
          "type": "bool"
        }
      ],
      "stateMutability": "nonpayable",
      "type": "function"
    },
    {
      "inputs": [
        {
          "internalType": "address",
          "name": "newfunding",
          "type": "address"
        }
      ],
      "name": "updateFunding",
      "outputs": [],
      "stateMutability": "nonpayable",
      "type": "function"
    },
    {
      "inputs": [
        {
          "internalType": "uint256",
          "name": "vestingSchedID_",
          "type": "uint256"
        }
      ],
      "name": "vestingSched",
      "outputs": [
        {
          "components": [
            {
              "internalType": "uint256",
              "name": "id",
              "type": "uint256"
            },
            {
              "internalType": "string",
              "name": "name",
              "type": "string"
            },
            {
              "internalType": "uint256",
              "name": "vestingTime",
              "type": "uint256"
            },
            {
              "internalType": "uint256",
              "name": "grantAmount",
              "type": "uint256"
            },
            {
              "internalType": "uint256",
              "name": "withdrawAmount",
              "type": "uint256"
            }
          ],
          "internalType": "struct TokenVesting.VestingSched",
          "name": "",
          "type": "tuple"
        }
      ],
      "stateMutability": "view",
      "type": "function"
    },
    {
      "inputs": [],
      "name": "vestingSchedID",
      "outputs": [
        {
          "internalType": "uint256",
          "name": "_value",
          "type": "uint256"
        }
      ],
      "stateMutability": "view",
      "type": "function"
    },
    {
      "inputs": [
        {
          "internalType": "uint256",
          "name": "vestingSchedID_",
          "type": "uint256"
        },
        {
          "internalType": "uint256",
          "name": "amount",
          "type": "uint256"
        }
      ],
      "name": "withdraw",
      "outputs": [
        {
          "internalType": "bool",
          "name": "",
          "type": "bool"
        }
      ],
      "stateMutability": "nonpayable",
      "type": "function"
    },
    {
      "inputs": [
        {
          "internalType": "uint256",
          "name": "vestingSchedID_",
          "type": "uint256"
        },
        {
          "internalType": "uint256",
          "name": "amount",
          "type": "uint256"
        },
        {
          "internalType": "address",
          "name": "beneficiary",
          "type": "address"
        }
      ],
      "name": "withdrawTo",
      "outputs": [
        {
          "internalType": "bool",
          "name": "",
          "type": "bool"
        }
      ],
      "stateMutability": "nonpayable",
      "type": "function"
    }
  ],
  "transactionHash": "0x021eb52de5b8863e396b3bfc7995ef7de614e1ed891a5f002f0e6ea8d5ff52fd",
  "args": [
    "0x1a452c2Cc79Ae585EDD34dF1c52F1496A78e3A99",
    "0x2619Ee7d56BBB11EFc656f75Dd8Ff9866e36089E"
  ],
  "solcInputHash": "2ab031a69a776e1e7bc9362d6292d78d",
  "bytecode": "0x60806040523480156200001157600080fd5b5060405162002e3138038062002e3183398101604081905262000034916200025a565b600280546001600160a01b038085166001600160a01b0319928316179092556003805492841692909116919091179055620000786000620000723390565b620000d8565b620000a47fa49807205ce4d355092ef5a8a18f56e8913cf4a201fbe287825b095693c2177533620000d8565b620000d07f2dee5dd865e09c7ce6788d674a03682994f0b44339403ca07ac129a9de4bed6a33620000d8565b505062000292565b620000e48282620000e8565b5050565b620000ff82826200012b60201b620019af1760201c565b60008281526001602090815260409091206200012691839062001a33620001cb821b17901c565b505050565b6000828152602081815260408083206001600160a01b038516845290915290205460ff16620000e4576000828152602081815260408083206001600160a01b03851684529091529020805460ff19166001179055620001873390565b6001600160a01b0316816001600160a01b0316837f2f8788117e7eff1d82e926ec794901d17c78024a50270940304540a733656f0d60405160405180910390a45050565b6000620001e2836001600160a01b038416620001eb565b90505b92915050565b60008181526001830160205260408120546200023457508154600181810184556000848152602080822090930184905584548482528286019093526040902091909155620001e5565b506000620001e5565b80516001600160a01b03811681146200025557600080fd5b919050565b600080604083850312156200026e57600080fd5b62000279836200023d565b915062000289602084016200023d565b90509250929050565b612b8f80620002a26000396000f3fe608060405234801561001057600080fd5b506004361061023d5760003560e01c80639010d07c1161013b578063d2c11f26116100b8578063ee76d7a91161007c578063ee76d7a914610532578063f515e6f214610552578063f8548e3614610567578063f94c0a111461057a578063fc0c546a1461058f57600080fd5b8063d2c11f26146104cf578063d5391393146104e4578063d547741f146104f9578063d5fe00371461050c578063e5071bc11461051f57600080fd5b8063b55467ae116100ff578063b55467ae14610470578063b6b5b72114610483578063ca15c87314610496578063cb4c86b7146104a9578063cfbd4885146104bc57600080fd5b80639010d07c146103ea57806391d14854146104155780639ba25fce14610428578063a217fddf14610448578063a3246ad31461045057600080fd5b8063261707fa116101c95780634dd8fac81161018d5780634dd8fac81461038757806357f0ebcd1461039a5780636568df03146103ad57806371061398146103c057806375b238fc146103d557600080fd5b8063261707fa14610324578063282c51f3146103375780632f2ff15d1461034c57806336568abe14610361578063441a3e701461037457600080fd5b806310511f961161021057806310511f96146102a857806314cd70e4146102bb5780631b65471f146102ce57806323739562146102e1578063248a9ca31461030157600080fd5b806301ffc9a71461024257806302587da21461026a5780630900cc33146102825780630ad0580914610295575b600080fd5b61025561025036600461238b565b6105a2565b60405190151581526020015b60405180910390f35b6004546102749081565b604051908152602001610261565b6102556102903660046123cc565b6105cd565b6102556102a3366004612433565b61062d565b6102556102b63660046123cc565b610929565b6102556102c93660046124ad565b610977565b6102556102dc3660046124e2565b61098c565b6102f46102ef36600461250e565b6109d5565b60405161026191906125c8565b61027461030f36600461250e565b60009081526020819052604090206001015490565b6102556103323660046123cc565b610ae6565b610274600080516020612aba83398151915281565b61035f61035a3660046124e2565b610b30565b005b61035f61036f3660046124e2565b610b5b565b6102556103823660046125db565b610bd9565b6102556103953660046124e2565b610bed565b6102746103a83660046125fd565b610c3c565b6102556103bb3660046123cc565b610d74565b6103c8610dc2565b6040516102619190612675565b610274600080516020612b3a83398151915281565b6103fd6103f83660046125db565b611045565b6040516001600160a01b039091168152602001610261565b6102556104233660046124e2565b61105d565b61043b6104363660046123cc565b611086565b60405161026191906126e9565b610274600081565b61046361045e36600461250e565b61127b565b604051610261919061275e565b61025561047e3660046123cc565b611322565b6102556104913660046123cc565b611370565b6102746104a436600461250e565b6113be565b6003546103fd906001600160a01b031681565b6102556104ca3660046123cc565b6113d5565b6104d7611423565b604051610261919061279f565b610274600080516020612afa83398151915281565b61035f6105073660046124e2565b6115c9565b61035f61051a3660046123cc565b6115ef565b61025561052d3660046123cc565b61166d565b6105456105403660046124e2565b6116bb565b6040516102619190612801565b610274600080516020612b1a83398151915281565b610255610575366004612835565b611776565b610274600080516020612ada83398151915281565b6002546103fd906001600160a01b031681565b60006001600160e01b03198216635a05180f60e01b14806105c757506105c782611a48565b92915050565b60006105e7600080516020612b3a8339815191523361105d565b61060c5760405162461bcd60e51b81526004016106039061286a565b60405180910390fd5b610624600080516020612aba833981519152836115c9565b5060015b919050565b6000610647600080516020612ada8339815191523361105d565b6106935760405162461bcd60e51b815260206004820152601760248201527f43616c6c6572206973206e6f742061206772616e7465720000000000000000006044820152606401610603565b6000868152600560205260409020600201546106c15760405162461bcd60e51b815260040161060390612899565b8382146107095760405162461bcd60e51b815260206004820152601660248201527508ee4c2dce840c2dadeeadce8e640dad2e6dac2e8c6d60531b6044820152606401610603565b6000805b85811015610869576000878783818110610729576107296128c9565b905060200201602081019061073e91906123cc565b90506000868684818110610754576107546128c9565b60200291909101359150506001600160a01b0382166107b55760405162461bcd60e51b815260206004820152601d60248201527f43616e206e6f74206772616e7420746f206e756c6c20616464726573730000006044820152606401610603565b600081116108055760405162461bcd60e51b815260206004820152601c60248201527f53686f756c64206772616e74206e6f6e2d7a65726f20616d6f756e74000000006044820152606401610603565b61080f81856128f5565b935061081c8a8383611a7d565b80826001600160a01b03168b7f3e38a7272680c978d8255418e1729d3092ba064f5a3880c96e4827f94111bc8f60405160405180910390a4505080806108619061290d565b91505061070d565b506000878152600560205260408120600301805483929061088b9084906128f5565b90915550506002546003546040516323b872dd60e01b81526001600160a01b039182166004820152306024820152604481018490529116906323b872dd90606401602060405180830381600087803b1580156108e657600080fd5b505af11580156108fa573d6000803e3d6000fd5b505050506040513d601f19601f8201168201806040525081019061091e9190612928565b979650505050505050565b6000610943600080516020612b3a8339815191523361105d565b61095f5760405162461bcd60e51b81526004016106039061286a565b610624600080516020612aba83398151915283610b30565b6000610984848385611ba4565b949350505050565b60006109a6600080516020612b3a8339815191523361105d565b6109c25760405162461bcd60e51b81526004016106039061286a565b6109cc8383610b30565b50600192915050565b610a076040518060a0016040528060008152602001606081526020016000815260200160008152602001600081525090565b600560008381526020019081526020016000206040518060a001604052908160008201548152602001600182018054610a3f9061294a565b80601f0160208091040260200160405190810160405280929190818152602001828054610a6b9061294a565b8015610ab85780601f10610a8d57610100808354040283529160200191610ab8565b820191906000526020600020905b815481529060010190602001808311610a9b57829003601f168201915b5050505050815260200160028201548152602001600382015481526020016004820154815250509050919050565b6000610b00600080516020612b3a8339815191523361105d565b610b1c5760405162461bcd60e51b81526004016106039061286a565b610624600080516020612afa833981519152835b600082815260208190526040902060010154610b4c8133611eb2565b610b568383611f16565b505050565b6001600160a01b0381163314610bcb5760405162461bcd60e51b815260206004820152602f60248201527f416363657373436f6e74726f6c3a2063616e206f6e6c792072656e6f756e636560448201526e103937b632b9903337b91039b2b63360891b6064820152608401610603565b610bd58282611f38565b5050565b6000610be6833384611ba4565b9392505050565b6000610c07600080516020612b3a8339815191523361105d565b610c235760405162461bcd60e51b81526004016106039061286a565b610c2d838361105d565b156109cc576109cc83836115c9565b6000610c56600080516020612b3a8339815191523361105d565b610c725760405162461bcd60e51b81526004016106039061286a565b6000610c7d60045490565b90506040518060a0016040528082815260200186868080601f016020809104026020016040519081016040528093929190818152602001838380828437600092018290525093855250505060208083018790526040808401839052606090930182905284825260058152919020825181558282015180519192610d08926001850192909101906122f2565b50604082015160028201556060820151600382015560809091015160049182015580546001019055807f7557dda9604341e8e0878b722c2f0812b541f6856b778b89f71da8aea2ca997b868686604051610d649392919061297f565b60405180910390a2949350505050565b6000610d8e600080516020612b3a8339815191523361105d565b610daa5760405162461bcd60e51b81526004016106039061286a565b610624600080516020612ada83398151915283610b30565b60408051600580825260c0820190925260609160009190816020015b604080518082019091526000815260606020820152815260200190600190039081610dde5790505090506040518060400160405280600080516020612b3a83398151915281526020016040518060400160405280601681526020017518591b5a5b88199bdc881d1a194818dbdb9d1c9858dd60521b81525081525081600181518110610e6c57610e6c6128c9565b60200260200101819052506040518060400160405280600080516020612afa83398151915281526020016040518060400160405280601981526020017f6d696e7465722063616e206d696e74206e657720636f696e730000000000000081525081525081600281518110610ee257610ee26128c9565b60200260200101819052506040518060400160405280600080516020612aba8339815191528152602001604051806040016040528060158152602001746275726e65722063616e206275726e20636f696e7360581b81525081525081600381518110610f5057610f506128c9565b60200260200101819052506040518060400160405280600080516020612ada8339815191528152602001604051806040016040528060168152602001756772616e7465722063616e206275726e20636f696e7360501b81525081525081600481518110610fbf57610fbf6128c9565b60200260200101819052506040518060400160405280600080516020612b1a83398151915281526020016040518060400160405280602081526020017f626c61636b6c69737465722063616e2075706461746520626c61636b6c69737481525081525081600581518110611035576110356128c9565b6020908102919091010152919050565b6000828152600160205260408120610be69083611f5a565b6000918252602082815260408084206001600160a01b0393909316845291905290205460ff1690565b60606000805b60045481101561110e57600081856040516020016110bd9291909182526001600160a01b0316602082015260400190565b60408051601f19818403018152918152815160209283012060008181526006909352912060020154909150156110fb576110f86001846128f5565b92505b50806111068161290d565b91505061108c565b5060008167ffffffffffffffff81111561112a5761112a6129b8565b60405190808252806020026020018201604052801561118f57816020015b61117c60405180608001604052806000815260200160006001600160a01b0316815260200160008152602001600081525090565b8152602001906001900390816111485790505b50905060005b60045481101561127357600081866040516020016111c69291909182526001600160a01b0316602082015260400190565b60408051601f19818403018152918152815160209283012060008181526006909352912060020154909150156112605760008181526006602090815260409182902082516080810184528154815260018201546001600160a01b03169281019290925260028101549282019290925260039091015460608201528351849084908110611254576112546128c9565b60200260200101819052505b508061126b8161290d565b915050611195565b509392505050565b60606000611288836113be565b905060008167ffffffffffffffff8111156112a5576112a56129b8565b6040519080825280602002602001820160405280156112ce578160200160208202803683370190505b50905060005b82811015611273576112e68582611045565b8282815181106112f8576112f86128c9565b6001600160a01b03909216602092830291909101909101528061131a8161290d565b9150506112d4565b600061133c600080516020612b3a8339815191523361105d565b6113585760405162461bcd60e51b81526004016106039061286a565b610624600080516020612b1a833981519152836115c9565b600061138a600080516020612b3a8339815191523361105d565b6113a65760405162461bcd60e51b81526004016106039061286a565b610624600080516020612ada833981519152836115c9565b60008181526001602052604081206105c790611f66565b60006113ef600080516020612b3a8339815191523361105d565b61140b5760405162461bcd60e51b81526004016106039061286a565b610624600080516020612afa833981519152836115c9565b6060600061143060045490565b67ffffffffffffffff811115611448576114486129b8565b6040519080825280602002602001820160405280156114ab57816020015b6114986040518060a0016040528060008152602001606081526020016000815260200160008152602001600081525090565b8152602001906001900390816114665790505b50905060005b6004548110156115c357600560008281526020019081526020016000206040518060a0016040529081600082015481526020016001820180546114f39061294a565b80601f016020809104026020016040519081016040528092919081815260200182805461151f9061294a565b801561156c5780601f106115415761010080835404028352916020019161156c565b820191906000526020600020905b81548152906001019060200180831161154f57829003601f168201915b5050505050815260200160028201548152602001600382015481526020016004820154815250508282815181106115a5576115a56128c9565b602002602001018190525080806115bb9061290d565b9150506114b1565b50919050565b6000828152602081905260409020600101546115e58133611eb2565b610b568383611f38565b611607600080516020612b3a8339815191523361105d565b6116235760405162461bcd60e51b81526004016106039061286a565b600380546001600160a01b0319166001600160a01b0383169081179091556040517f74fd33b93b98017671fda1e0c45b783f7e31895388503a3959006c338043daf590600090a250565b6000611687600080516020612b3a8339815191523361105d565b6116a35760405162461bcd60e51b81526004016106039061286a565b610624600080516020612b1a83398151915283610b30565b6116ef60405180608001604052806000815260200160006001600160a01b0316815260200160008152602001600081525090565b600083836040516020016117169291909182526001600160a01b0316602082015260400190565b60408051808303601f1901815282825280516020918201206000908152600682528290206080840183528054845260018101546001600160a01b031691840191909152600281015491830191909152600301546060820152949350505050565b6000838152600560205260408120600201546117a45760405162461bcd60e51b815260040161060390612899565b6001600160a01b0383166117fa5760405162461bcd60e51b815260206004820181905260248201527f43616e206e6f74207472616e7366657220746f206e756c6c20616464726573736044820152606401610603565b600082116118555760405162461bcd60e51b815260206004820152602260248201527f5472616e7366657220616d6f756e742073686f756c64206265206e6f6e2d7a65604482015261726f60f01b6064820152608401610603565b6040805160208082018790523382840152825180830384018152606083018085528151918301919091206000818152600690935284832060e085019095528454825260018501546001600160a01b03166080850152600285015460a0850181905260039095015460c09094018490529390926118d0916129ce565b9050848110156119225760405162461bcd60e51b815260206004820181905260248201527f4e6f742073756666696369656e742066756e6420666f72207472616e736665726044820152606401610603565b600083815260066020526040812060020180548792906119439084906129ce565b909155506119549050878787611a7d565b6001600160a01b038616336001600160a01b0316887ff2dbd98d79f00f7aff338b824931d607bfcc63d47307162470f25a055102d3b08860405161199a91815260200190565b60405180910390a45060019695505050505050565b6119b9828261105d565b610bd5576000828152602081815260408083206001600160a01b03851684529091529020805460ff191660011790556119ef3390565b6001600160a01b0316816001600160a01b0316837f2f8788117e7eff1d82e926ec794901d17c78024a50270940304540a733656f0d60405160405180910390a45050565b6000610be6836001600160a01b038416611f70565b60006001600160e01b03198216637965db0b60e01b14806105c757506301ffc9a760e01b6001600160e01b03198316146105c7565b600083815260056020526040902060020154611aab5760405162461bcd60e51b815260040161060390612899565b60008383604051602001611ad29291909182526001600160a01b0316602082015260400190565b60408051601f198184030181529181528151602092830120600081815260069093529120600101549091506001600160a01b0316611b7757604080516080810182528581526001600160a01b0385811660208084019182528385018781526000606086018181528882526006909352959095209351845590516001840180546001600160a01b0319169190931617909155915160028201559051600390910155611b9e565b60008181526006602052604081206002018054849290611b989084906128f5565b90915550505b50505050565b600083815260056020526040812060020154611bd25760405162461bcd60e51b815260040161060390612899565b6001600160a01b038316611c285760405162461bcd60e51b815260206004820181905260248201527f43616e206e6f7420776974686472617720746f206e756c6c20616464726573736044820152606401610603565b60008211611c835760405162461bcd60e51b815260206004820152602260248201527f576974686472617720616d6f756e742073686f756c64206265206e6f6e2d7a65604482015261726f60f01b6064820152608401610603565b6000848152600560205260409020600201544211611cf25760405162461bcd60e51b815260206004820152602660248201527f43616e206e6f74207769746864726177206265666f72652076657374696e672060448201526573746172747360d01b6064820152608401610603565b6040805160208082018790523382840152825180830384018152606083018085528151918301919091206000818152600690935284832060e085019095528454825260018501546001600160a01b03166080850152600285015460a0850181905260039095015460c0909401849052939092611d6d916129ce565b905084811015611dca5760405162461bcd60e51b815260206004820152602260248201527f4e6f742073756666696369656e742066756e6420666f72207769746864726177604482015261185b60f21b6064820152608401610603565b60008381526006602052604081206003018054879290611deb9084906128f5565b909155505060008781526005602052604081206004018054879290611e119084906128f5565b90915550506001600160a01b038616336001600160a01b0316887ffeb2000dca3e617cd6f3a8bbb63014bb54a124aac6ccbf73ee7229b4cd01f12088604051611e5c91815260200190565b60405180910390a460025460405163a9059cbb60e01b81526001600160a01b038881166004830152602482018890529091169063a9059cbb90604401602060405180830381600087803b1580156108e657600080fd5b611ebc828261105d565b610bd557611ed4816001600160a01b03166014611fbf565b611edf836020611fbf565b604051602001611ef09291906129e5565b60408051601f198184030181529082905262461bcd60e51b825261060391600401612a5a565b611f2082826119af565b6000828152600160205260409020610b569082611a33565b611f42828261215b565b6000828152600160205260409020610b5690826121c0565b6000610be683836121d5565b60006105c7825490565b6000818152600183016020526040812054611fb7575081546001818101845560008481526020808220909301849055845484825282860190935260409020919091556105c7565b5060006105c7565b60606000611fce836002612a6d565b611fd99060026128f5565b67ffffffffffffffff811115611ff157611ff16129b8565b6040519080825280601f01601f19166020018201604052801561201b576020820181803683370190505b509050600360fc1b81600081518110612036576120366128c9565b60200101906001600160f81b031916908160001a905350600f60fb1b81600181518110612065576120656128c9565b60200101906001600160f81b031916908160001a9053506000612089846002612a6d565b6120949060016128f5565b90505b600181111561210c576f181899199a1a9b1b9c1cb0b131b232b360811b85600f16601081106120c8576120c86128c9565b1a60f81b8282815181106120de576120de6128c9565b60200101906001600160f81b031916908160001a90535060049490941c9361210581612a8c565b9050612097565b508315610be65760405162461bcd60e51b815260206004820181905260248201527f537472696e67733a20686578206c656e67746820696e73756666696369656e746044820152606401610603565b612165828261105d565b15610bd5576000828152602081815260408083206001600160a01b0385168085529252808320805460ff1916905551339285917ff6391f5c32d9c69d2a47ea670b442974b53935d1edc7fd64eb21e047a839171b9190a45050565b6000610be6836001600160a01b0384166121ff565b60008260000182815481106121ec576121ec6128c9565b9060005260206000200154905092915050565b600081815260018301602052604081205480156122e85760006122236001836129ce565b8554909150600090612237906001906129ce565b905081811461229c576000866000018281548110612257576122576128c9565b906000526020600020015490508087600001848154811061227a5761227a6128c9565b6000918252602080832090910192909255918252600188019052604090208390555b85548690806122ad576122ad612aa3565b6001900381819060005260206000200160009055905585600101600086815260200190815260200160002060009055600193505050506105c7565b60009150506105c7565b8280546122fe9061294a565b90600052602060002090601f0160209004810192826123205760008555612366565b82601f1061233957805160ff1916838001178555612366565b82800160010185558215612366579182015b8281111561236657825182559160200191906001019061234b565b50612372929150612376565b5090565b5b808211156123725760008155600101612377565b60006020828403121561239d57600080fd5b81356001600160e01b031981168114610be657600080fd5b80356001600160a01b038116811461062857600080fd5b6000602082840312156123de57600080fd5b610be6826123b5565b60008083601f8401126123f957600080fd5b50813567ffffffffffffffff81111561241157600080fd5b6020830191508360208260051b850101111561242c57600080fd5b9250929050565b60008060008060006060868803121561244b57600080fd5b85359450602086013567ffffffffffffffff8082111561246a57600080fd5b61247689838a016123e7565b9096509450604088013591508082111561248f57600080fd5b5061249c888289016123e7565b969995985093965092949392505050565b6000806000606084860312156124c257600080fd5b83359250602084013591506124d9604085016123b5565b90509250925092565b600080604083850312156124f557600080fd5b82359150612505602084016123b5565b90509250929050565b60006020828403121561252057600080fd5b5035919050565b60005b8381101561254257818101518382015260200161252a565b83811115611b9e5750506000910152565b6000815180845261256b816020860160208601612527565b601f01601f19169290920160200192915050565b805182526000602082015160a0602085015261259e60a0850182612553565b90506040830151604085015260608301516060850152608083015160808501528091505092915050565b602081526000610be6602083018461257f565b600080604083850312156125ee57600080fd5b50508035926020909101359150565b60008060006040848603121561261257600080fd5b833567ffffffffffffffff8082111561262a57600080fd5b818601915086601f83011261263e57600080fd5b81358181111561264d57600080fd5b87602082850101111561265f57600080fd5b6020928301989097509590910135949350505050565b60006020808301818452808551808352604092508286019150828160051b87010184880160005b838110156126db57888303603f190185528151805184528701518784018790526126c887850182612553565b958801959350509086019060010161269c565b509098975050505050505050565b6020808252825182820181905260009190848201906040850190845b818110156127525761273f838551805182526020808201516001600160a01b03169083015260408082015190830152606090810151910152565b9284019260809290920191600101612705565b50909695505050505050565b6020808252825182820181905260009190848201906040850190845b818110156127525783516001600160a01b03168352928401929184019160010161277a565b6000602080830181845280855180835260408601915060408160051b870101925083870160005b828110156127f457603f198886030184526127e285835161257f565b945092850192908501906001016127c6565b5092979650505050505050565b815181526020808301516001600160a01b0316908201526040808301519082015260608083015190820152608081016105c7565b60008060006060848603121561284a57600080fd5b8335925061285a602085016123b5565b9150604084013590509250925092565b60208082526015908201527421b0b63632b91034b9903737ba10309030b236b4b760591b604082015260600190565b60208082526016908201527515995cdd1a5b99c8191bd95cc81b9bdd08195e1a5cdd60521b604082015260600190565b634e487b7160e01b600052603260045260246000fd5b634e487b7160e01b600052601160045260246000fd5b60008219821115612908576129086128df565b500190565b6000600019821415612921576129216128df565b5060010190565b60006020828403121561293a57600080fd5b81518015158114610be657600080fd5b600181811c9082168061295e57607f821691505b602082108114156115c357634e487b7160e01b600052602260045260246000fd5b604081528260408201528284606083013760006060848301015260006060601f19601f8601168301019050826020830152949350505050565b634e487b7160e01b600052604160045260246000fd5b6000828210156129e0576129e06128df565b500390565b7f416363657373436f6e74726f6c3a206163636f756e7420000000000000000000815260008351612a1d816017850160208801612527565b7001034b99036b4b9b9b4b733903937b6329607d1b6017918401918201528351612a4e816028840160208801612527565b01602801949350505050565b602081526000610be66020830184612553565b6000816000190483118215151615612a8757612a876128df565b500290565b600081612a9b57612a9b6128df565b506000190190565b634e487b7160e01b600052603160045260246000fdfe3c11d16cbaffd01df69ce1c404f6340ee057498f5f00246190ea54220576a8482dee5dd865e09c7ce6788d674a03682994f0b44339403ca07ac129a9de4bed6a9f2df0fed2c77648de5860a4cc508cd0818c85b8b8a1ab4ceeef8d981c8956a698db8a220cd0f09badce9f22d0ba7e93edb3d404448cc3560d391ab096ad16e9a49807205ce4d355092ef5a8a18f56e8913cf4a201fbe287825b095693c21775a26469706673582212208e6e1afce68d1f519cc72ddb36839b00eb51a13349cf581d29d8e62188e90c8c64736f6c63430008090033",
  "devdoc": {
    "kind": "dev",
    "methods": {
      "allSoloVestings(address)": {
        "params": {
          "beneficiary": "User's address"
        }
      },
      "getRoleAdmin(bytes32)": {
        "details": "Returns the admin role that controls `role`. See {grantRole} and {revokeRole}. To change a role's admin, use {_setRoleAdmin}."
      },
      "getRoleMember(bytes32,uint256)": {
        "details": "Returns one of the accounts that have `role`. `index` must be a value between 0 and {getRoleMemberCount}, non-inclusive. Role bearers are not sorted in any particular way, and their ordering may change at any point. WARNING: When using {getRoleMember} and {getRoleMemberCount}, make sure you perform all queries on the same block. See the following https://forum.openzeppelin.com/t/iterating-over-elements-on-enumerableset-in-openzeppelin-contracts/2296[forum post] for more information."
      },
      "getRoleMemberCount(bytes32)": {
        "details": "Returns the number of accounts that have `role`. Can be used together with {getRoleMember} to enumerate all bearers of a role."
      },
      "grant(uint256,address[],uint256[])": {
        "params": {
          "beneficiaries": "A list of beneficiaries addresses",
          "grantAmounts": "A list of token amounts that each beneficiary will be granted",
          "vestingSchedID_": "The vesting schedule of the token grant"
        },
        "returns": {
          "_0": "Return true if the function is called without any issue."
        }
      },
      "grantRole(bytes32,address)": {
        "details": "Grants `role` to `account`. If `account` had not been already granted `role`, emits a {RoleGranted} event. Requirements: - the caller must have ``role``'s admin role."
      },
      "hasRole(bytes32,address)": {
        "details": "Returns `true` if `account` has been granted `role`."
      },
      "newVestingSched(string,uint256)": {
        "params": {
          "name": "The name of the vesting schedule, such as \"3-month vesting schedule\"",
          "vestingTime": "The timestamp in seconds of the beginning of the vesting period."
        },
        "returns": {
          "_0": "The id of the created new vesting schedule."
        }
      },
      "renounceRole(bytes32,address)": {
        "details": "Revokes `role` from the calling account. Roles are often managed via {grantRole} and {revokeRole}: this function's purpose is to provide a mechanism for accounts to lose their privileges if they are compromised (such as when a trusted device is misplaced). If the calling account had been revoked `role`, emits a {RoleRevoked} event. Requirements: - the caller must be `account`."
      },
      "revokeRole(bytes32,address)": {
        "details": "Revokes `role` from `account`. If `account` had been granted `role`, emits a {RoleRevoked} event. Requirements: - the caller must have ``role``'s admin role."
      },
      "soloVesting(uint256,address)": {
        "params": {
          "beneficiary": "The beneficiary's account",
          "vestingSchedID_": "The ID of the vesting schedule."
        }
      },
      "supportsInterface(bytes4)": {
        "details": "See {IERC165-supportsInterface}."
      },
      "transfer(uint256,address,uint256)": {
        "params": {
          "amount": "The amount of transfered grants.",
          "beneficiary": "The beneficiary that will receive the transfered grants.",
          "vestingSchedID_": "The ID of the vesting schedule to withdraw token from."
        }
      },
      "updateFunding(address)": {
        "params": {
          "newfunding": "The new address of the funding source account"
        }
      },
      "vestingSched(uint256)": {
        "params": {
          "vestingSchedID_": "a single vesting schedule by ID"
        }
      },
      "withdraw(uint256,uint256)": {
        "params": {
          "amount": "Amount of token to withdraw.",
          "vestingSchedID_": "ID of the vesting schedule to withdraw token from."
        }
      },
      "withdrawTo(uint256,uint256,address)": {
        "params": {
          "amount": "Amount of token to withdraw.",
          "beneficiary": "The address that will receive the withdrawed tokens.",
          "vestingSchedID_": "The ID of the vesting schedule to withdraw token from."
        }
      }
    },
    "version": 1
  },
  "userdoc": {
    "kind": "user",
    "methods": {
      "allSoloVestings(address)": {
        "notice": "Return all vesting schedules for a single user."
      },
      "allVestingScheds()": {
        "notice": "Return all vesting schedules."
      },
      "grant(uint256,address[],uint256[])": {
        "notice": "Grant a list of beneficiaries tokens for a vesting schedule"
      },
      "newVestingSched(string,uint256)": {
        "notice": "Create new vesting schedule"
      },
      "soloVesting(uint256,address)": {
        "notice": "Return beneficiary's vesting for a certain vesting schedule."
      },
      "transfer(uint256,address,uint256)": {
        "notice": "Transfer vesting between beneficiaries"
      },
      "updateFunding(address)": {
        "notice": "Update the funding source of vesting schedules"
      },
      "vestingSched(uint256)": {
        "notice": "Return a single vesting schedules."
      },
      "withdraw(uint256,uint256)": {
        "notice": "Withdraw granted tokens into caller's address"
      },
      "withdrawTo(uint256,uint256,address)": {
        "notice": "Withdraw granted tokens into beneficiary's address"
      }
    },
    "version": 1
  },
  "storageLayout": {
    "storage": [
      {
        "astId": 24,
        "contract": "contracts/vesting.sol:TokenVesting",
        "label": "_roles",
        "offset": 0,
        "slot": "0",
        "type": "t_mapping(t_bytes32,t_struct(RoleData)19_storage)"
      },
      {
        "astId": 327,
        "contract": "contracts/vesting.sol:TokenVesting",
        "label": "_roleMembers",
        "offset": 0,
        "slot": "1",
        "type": "t_mapping(t_bytes32,t_struct(AddressSet)3083_storage)"
      },
      {
        "astId": 4121,
        "contract": "contracts/vesting.sol:TokenVesting",
        "label": "token",
        "offset": 0,
        "slot": "2",
        "type": "t_address"
      },
      {
        "astId": 4123,
        "contract": "contracts/vesting.sol:TokenVesting",
        "label": "funding",
        "offset": 0,
        "slot": "3",
        "type": "t_address"
      },
      {
        "astId": 4126,
        "contract": "contracts/vesting.sol:TokenVesting",
        "label": "vestingSchedID",
        "offset": 0,
        "slot": "4",
        "type": "t_struct(Counter)1591_storage"
      },
      {
        "astId": 4131,
        "contract": "contracts/vesting.sol:TokenVesting",
        "label": "vestingScheds",
        "offset": 0,
        "slot": "5",
        "type": "t_mapping(t_uint256,t_struct(VestingSched)4070_storage)"
      },
      {
        "astId": 4136,
        "contract": "contracts/vesting.sol:TokenVesting",
        "label": "soloVestings",
        "offset": 0,
        "slot": "6",
        "type": "t_mapping(t_bytes32,t_struct(SoloVesting)4079_storage)"
      }
    ],
    "types": {
      "t_address": {
        "encoding": "inplace",
        "label": "address",
        "numberOfBytes": "20"
      },
      "t_array(t_bytes32)dyn_storage": {
        "base": "t_bytes32",
        "encoding": "dynamic_array",
        "label": "bytes32[]",
        "numberOfBytes": "32"
      },
      "t_bool": {
        "encoding": "inplace",
        "label": "bool",
        "numberOfBytes": "1"
      },
      "t_bytes32": {
        "encoding": "inplace",
        "label": "bytes32",
        "numberOfBytes": "32"
      },
      "t_mapping(t_address,t_bool)": {
        "encoding": "mapping",
        "key": "t_address",
        "label": "mapping(address => bool)",
        "numberOfBytes": "32",
        "value": "t_bool"
      },
      "t_mapping(t_bytes32,t_struct(AddressSet)3083_storage)": {
        "encoding": "mapping",
        "key": "t_bytes32",
        "label": "mapping(bytes32 => struct EnumerableSet.AddressSet)",
        "numberOfBytes": "32",
        "value": "t_struct(AddressSet)3083_storage"
      },
      "t_mapping(t_bytes32,t_struct(RoleData)19_storage)": {
        "encoding": "mapping",
        "key": "t_bytes32",
        "label": "mapping(bytes32 => struct AccessControl.RoleData)",
        "numberOfBytes": "32",
        "value": "t_struct(RoleData)19_storage"
      },
      "t_mapping(t_bytes32,t_struct(SoloVesting)4079_storage)": {
        "encoding": "mapping",
        "key": "t_bytes32",
        "label": "mapping(bytes32 => struct TokenVesting.SoloVesting)",
        "numberOfBytes": "32",
        "value": "t_struct(SoloVesting)4079_storage"
      },
      "t_mapping(t_bytes32,t_uint256)": {
        "encoding": "mapping",
        "key": "t_bytes32",
        "label": "mapping(bytes32 => uint256)",
        "numberOfBytes": "32",
        "value": "t_uint256"
      },
      "t_mapping(t_uint256,t_struct(VestingSched)4070_storage)": {
        "encoding": "mapping",
        "key": "t_uint256",
        "label": "mapping(uint256 => struct TokenVesting.VestingSched)",
        "numberOfBytes": "32",
        "value": "t_struct(VestingSched)4070_storage"
      },
      "t_string_storage": {
        "encoding": "bytes",
        "label": "string",
        "numberOfBytes": "32"
      },
      "t_struct(AddressSet)3083_storage": {
        "encoding": "inplace",
        "label": "struct EnumerableSet.AddressSet",
        "members": [
          {
            "astId": 3082,
            "contract": "contracts/vesting.sol:TokenVesting",
            "label": "_inner",
            "offset": 0,
            "slot": "0",
            "type": "t_struct(Set)2782_storage"
          }
        ],
        "numberOfBytes": "64"
      },
      "t_struct(Counter)1591_storage": {
        "encoding": "inplace",
        "label": "struct Counters.Counter",
        "members": [
          {
            "astId": 1590,
            "contract": "contracts/vesting.sol:TokenVesting",
            "label": "_value",
            "offset": 0,
            "slot": "0",
            "type": "t_uint256"
          }
        ],
        "numberOfBytes": "32"
      },
      "t_struct(RoleData)19_storage": {
        "encoding": "inplace",
        "label": "struct AccessControl.RoleData",
        "members": [
          {
            "astId": 16,
            "contract": "contracts/vesting.sol:TokenVesting",
            "label": "members",
            "offset": 0,
            "slot": "0",
            "type": "t_mapping(t_address,t_bool)"
          },
          {
            "astId": 18,
            "contract": "contracts/vesting.sol:TokenVesting",
            "label": "adminRole",
            "offset": 0,
            "slot": "1",
            "type": "t_bytes32"
          }
        ],
        "numberOfBytes": "64"
      },
      "t_struct(Set)2782_storage": {
        "encoding": "inplace",
        "label": "struct EnumerableSet.Set",
        "members": [
          {
            "astId": 2777,
            "contract": "contracts/vesting.sol:TokenVesting",
            "label": "_values",
            "offset": 0,
            "slot": "0",
            "type": "t_array(t_bytes32)dyn_storage"
          },
          {
            "astId": 2781,
            "contract": "contracts/vesting.sol:TokenVesting",
            "label": "_indexes",
            "offset": 0,
            "slot": "1",
            "type": "t_mapping(t_bytes32,t_uint256)"
          }
        ],
        "numberOfBytes": "64"
      },
      "t_struct(SoloVesting)4079_storage": {
        "encoding": "inplace",
        "label": "struct TokenVesting.SoloVesting",
        "members": [
          {
            "astId": 4072,
            "contract": "contracts/vesting.sol:TokenVesting",
            "label": "vestingID",
            "offset": 0,
            "slot": "0",
            "type": "t_uint256"
          },
          {
            "astId": 4074,
            "contract": "contracts/vesting.sol:TokenVesting",
            "label": "beneficiary",
            "offset": 0,
            "slot": "1",
            "type": "t_address"
          },
          {
            "astId": 4076,
            "contract": "contracts/vesting.sol:TokenVesting",
            "label": "grantAmount",
            "offset": 0,
            "slot": "2",
            "type": "t_uint256"
          },
          {
            "astId": 4078,
            "contract": "contracts/vesting.sol:TokenVesting",
            "label": "withdrawAmount",
            "offset": 0,
            "slot": "3",
            "type": "t_uint256"
          }
        ],
        "numberOfBytes": "128"
      },
      "t_struct(VestingSched)4070_storage": {
        "encoding": "inplace",
        "label": "struct TokenVesting.VestingSched",
        "members": [
          {
            "astId": 4061,
            "contract": "contracts/vesting.sol:TokenVesting",
            "label": "id",
            "offset": 0,
            "slot": "0",
            "type": "t_uint256"
          },
          {
            "astId": 4063,
            "contract": "contracts/vesting.sol:TokenVesting",
            "label": "name",
            "offset": 0,
            "slot": "1",
            "type": "t_string_storage"
          },
          {
            "astId": 4065,
            "contract": "contracts/vesting.sol:TokenVesting",
            "label": "vestingTime",
            "offset": 0,
            "slot": "2",
            "type": "t_uint256"
          },
          {
            "astId": 4067,
            "contract": "contracts/vesting.sol:TokenVesting",
            "label": "grantAmount",
            "offset": 0,
            "slot": "3",
            "type": "t_uint256"
          },
          {
            "astId": 4069,
            "contract": "contracts/vesting.sol:TokenVesting",
            "label": "withdrawAmount",
            "offset": 0,
            "slot": "4",
            "type": "t_uint256"
          }
        ],
        "numberOfBytes": "160"
      },
      "t_uint256": {
        "encoding": "inplace",
        "label": "uint256",
        "numberOfBytes": "32"
      }
    }
  }
}