{
  "address": "0xe7f1725E7734CE288F8367e1Bb143E90bb3F0512",
  "abi": [
    {
      "inputs": [
        {
          "internalType": "address",
          "name": "token_",
          "type": "address"
        },
        {
          "internalType": "address",
          "name": "funding_",
          "type": "address"
        }
      ],
      "stateMutability": "nonpayable",
      "type": "constructor"
    },
    {
      "anonymous": false,
      "inputs": [
        {
          "indexed": true,
          "internalType": "uint256",
          "name": "vestingSchedID",
          "type": "uint256"
        },
        {
          "indexed": true,
          "internalType": "address",
          "name": "owner",
          "type": "address"
        },
        {
          "indexed": true,
          "internalType": "address",
          "name": "spender",
          "type": "address"
        },
        {
          "indexed": false,
          "internalType": "uint256",
          "name": "amount",
          "type": "uint256"
        }
      ],
      "name": "Approval",
      "type": "event"
    },
    {
      "anonymous": false,
      "inputs": [
        {
          "indexed": true,
          "internalType": "address",
          "name": "funding",
          "type": "address"
        }
      ],
      "name": "Funding",
      "type": "event"
    },
    {
      "anonymous": false,
      "inputs": [
        {
          "indexed": true,
          "internalType": "uint256",
          "name": "vestingSchedID",
          "type": "uint256"
        },
        {
          "indexed": true,
          "internalType": "address",
          "name": "beneficiary",
          "type": "address"
        },
        {
          "indexed": true,
          "internalType": "uint256",
          "name": "amount",
          "type": "uint256"
        }
      ],
      "name": "Grant",
      "type": "event"
    },
    {
      "anonymous": false,
      "inputs": [
        {
          "indexed": true,
          "internalType": "bytes32",
          "name": "role",
          "type": "bytes32"
        },
        {
          "indexed": true,
          "internalType": "bytes32",
          "name": "previousAdminRole",
          "type": "bytes32"
        },
        {
          "indexed": true,
          "internalType": "bytes32",
          "name": "newAdminRole",
          "type": "bytes32"
        }
      ],
      "name": "RoleAdminChanged",
      "type": "event"
    },
    {
      "anonymous": false,
      "inputs": [
        {
          "indexed": true,
          "internalType": "bytes32",
          "name": "role",
          "type": "bytes32"
        },
        {
          "indexed": true,
          "internalType": "address",
          "name": "account",
          "type": "address"
        },
        {
          "indexed": true,
          "internalType": "address",
          "name": "sender",
          "type": "address"
        }
      ],
      "name": "RoleGranted",
      "type": "event"
    },
    {
      "anonymous": false,
      "inputs": [
        {
          "indexed": true,
          "internalType": "bytes32",
          "name": "role",
          "type": "bytes32"
        },
        {
          "indexed": true,
          "internalType": "address",
          "name": "account",
          "type": "address"
        },
        {
          "indexed": true,
          "internalType": "address",
          "name": "sender",
          "type": "address"
        }
      ],
      "name": "RoleRevoked",
      "type": "event"
    },
    {
      "anonymous": false,
      "inputs": [
        {
          "indexed": true,
          "internalType": "uint256",
          "name": "vestingSchedID",
          "type": "uint256"
        },
        {
          "indexed": true,
          "internalType": "address",
          "name": "from",
          "type": "address"
        },
        {
          "indexed": true,
          "internalType": "address",
          "name": "to",
          "type": "address"
        },
        {
          "indexed": false,
          "internalType": "uint256",
          "name": "amount",
          "type": "uint256"
        }
      ],
      "name": "Transfer",
      "type": "event"
    },
    {
      "anonymous": false,
      "inputs": [
        {
          "indexed": true,
          "internalType": "uint256",
          "name": "vestingSchedID",
          "type": "uint256"
        },
        {
          "indexed": false,
          "internalType": "string",
          "name": "name",
          "type": "string"
        },
        {
          "indexed": false,
          "internalType": "uint256",
          "name": "vestingTime",
          "type": "uint256"
        }
      ],
      "name": "Vesting",
      "type": "event"
    },
    {
      "anonymous": false,
      "inputs": [
        {
          "indexed": true,
          "internalType": "uint256",
          "name": "vestingSchedID",
          "type": "uint256"
        },
        {
          "indexed": true,
          "internalType": "address",
          "name": "from",
          "type": "address"
        },
        {
          "indexed": true,
          "internalType": "address",
          "name": "beneficiary",
          "type": "address"
        },
        {
          "indexed": false,
          "internalType": "uint256",
          "name": "amount",
          "type": "uint256"
        }
      ],
      "name": "Withdraw",
      "type": "event"
    },
    {
      "inputs": [],
      "name": "ADMIN_ROLE",
      "outputs": [
        {
          "internalType": "bytes32",
          "name": "",
          "type": "bytes32"
        }
      ],
      "stateMutability": "view",
      "type": "function"
    },
    {
      "inputs": [],
      "name": "BLACKLISTER_ROLE",
      "outputs": [
        {
          "internalType": "bytes32",
          "name": "",
          "type": "bytes32"
        }
      ],
      "stateMutability": "view",
      "type": "function"
    },
    {
      "inputs": [],
      "name": "BURNER_ROLE",
      "outputs": [
        {
          "internalType": "bytes32",
          "name": "",
          "type": "bytes32"
        }
      ],
      "stateMutability": "view",
      "type": "function"
    },
    {
      "inputs": [],
      "name": "DEFAULT_ADMIN_ROLE",
      "outputs": [
        {
          "internalType": "bytes32",
          "name": "",
          "type": "bytes32"
        }
      ],
      "stateMutability": "view",
      "type": "function"
    },
    {
      "inputs": [],
      "name": "GRANTER_ROLE",
      "outputs": [
        {
          "internalType": "bytes32",
          "name": "",
          "type": "bytes32"
        }
      ],
      "stateMutability": "view",
      "type": "function"
    },
    {
      "inputs": [],
      "name": "MINTER_ROLE",
      "outputs": [
        {
          "internalType": "bytes32",
          "name": "",
          "type": "bytes32"
        }
      ],
      "stateMutability": "view",
      "type": "function"
    },
    {
      "inputs": [
        {
          "internalType": "bytes32",
          "name": "role",
          "type": "bytes32"
        },
        {
          "internalType": "address",
          "name": "member",
          "type": "address"
        }
      ],
      "name": "addRoleMember",
      "outputs": [
        {
          "internalType": "bool",
          "name": "",
          "type": "bool"
        }
      ],
      "stateMutability": "nonpayable",
      "type": "function"
    },
    {
      "inputs": [
        {
          "internalType": "address",
          "name": "beneficiary",
          "type": "address"
        }
      ],
      "name": "allSoloVestings",
      "outputs": [
        {
          "components": [
            {
              "internalType": "uint256",
              "name": "vestingID",
              "type": "uint256"
            },
            {
              "internalType": "address",
              "name": "beneficiary",
              "type": "address"
            },
            {
              "internalType": "uint256",
              "name": "grantAmount",
              "type": "uint256"
            },
            {
              "internalType": "uint256",
              "name": "withdrawAmount",
              "type": "uint256"
            }
          ],
          "internalType": "struct TokenVesting.SoloVesting[]",
          "name": "",
          "type": "tuple[]"
        }
      ],
      "stateMutability": "view",
      "type": "function"
    },
    {
      "inputs": [],
      "name": "allVestingScheds",
      "outputs": [
        {
          "components": [
            {
              "internalType": "uint256",
              "name": "id",
              "type": "uint256"
            },
            {
              "internalType": "string",
              "name": "name",
              "type": "string"
            },
            {
              "internalType": "uint256",
              "name": "vestingTime",
              "type": "uint256"
            },
            {
              "internalType": "uint256",
              "name": "grantAmount",
              "type": "uint256"
            },
            {
              "internalType": "uint256",
              "name": "withdrawAmount",
              "type": "uint256"
            }
          ],
          "internalType": "struct TokenVesting.VestingSched[]",
          "name": "",
          "type": "tuple[]"
        }
      ],
      "stateMutability": "view",
      "type": "function"
    },
    {
      "inputs": [
        {
          "internalType": "address",
          "name": "spender",
          "type": "address"
        },
        {
          "internalType": "uint256",
          "name": "vestingSchedID_",
          "type": "uint256"
        },
        {
          "internalType": "uint256",
          "name": "amount",
          "type": "uint256"
        }
      ],
      "name": "approve",
      "outputs": [
        {
          "internalType": "bool",
          "name": "",
          "type": "bool"
        }
      ],
      "stateMutability": "nonpayable",
      "type": "function"
    },
    {
      "inputs": [],
      "name": "funding",
      "outputs": [
        {
          "internalType": "address",
          "name": "",
          "type": "address"
        }
      ],
      "stateMutability": "view",
      "type": "function"
    },
    {
      "inputs": [
        {
          "internalType": "bytes32",
          "name": "role",
          "type": "bytes32"
        }
      ],
      "name": "getRoleAdmin",
      "outputs": [
        {
          "internalType": "bytes32",
          "name": "",
          "type": "bytes32"
        }
      ],
      "stateMutability": "view",
      "type": "function"
    },
    {
      "inputs": [
        {
          "internalType": "bytes32",
          "name": "role",
          "type": "bytes32"
        },
        {
          "internalType": "uint256",
          "name": "index",
          "type": "uint256"
        }
      ],
      "name": "getRoleMember",
      "outputs": [
        {
          "internalType": "address",
          "name": "",
          "type": "address"
        }
      ],
      "stateMutability": "view",
      "type": "function"
    },
    {
      "inputs": [
        {
          "internalType": "bytes32",
          "name": "role",
          "type": "bytes32"
        }
      ],
      "name": "getRoleMemberCount",
      "outputs": [
        {
          "internalType": "uint256",
          "name": "",
          "type": "uint256"
        }
      ],
      "stateMutability": "view",
      "type": "function"
    },
    {
      "inputs": [
        {
          "internalType": "bytes32",
          "name": "role",
          "type": "bytes32"
        }
      ],
      "name": "getRoleMembers",
      "outputs": [
        {
          "internalType": "address[]",
          "name": "",
          "type": "address[]"
        }
      ],
      "stateMutability": "view",
      "type": "function"
    },
    {
      "inputs": [],
      "name": "getRoles",
      "outputs": [
        {
          "components": [
            {
              "internalType": "bytes32",
              "name": "role",
              "type": "bytes32"
            },
            {
              "internalType": "string",
              "name": "describe",
              "type": "string"
            }
          ],
          "internalType": "struct RoleAccess.Role[]",
          "name": "",
          "type": "tuple[]"
        }
      ],
      "stateMutability": "pure",
      "type": "function"
    },
    {
      "inputs": [
        {
          "internalType": "uint256",
          "name": "vestingSchedID_",
          "type": "uint256"
        },
        {
          "internalType": "address[]",
          "name": "beneficiaries",
          "type": "address[]"
        },
        {
          "internalType": "uint256[]",
          "name": "grantAmounts",
          "type": "uint256[]"
        }
      ],
      "name": "grant",
      "outputs": [
        {
          "internalType": "bool",
          "name": "",
          "type": "bool"
        }
      ],
      "stateMutability": "nonpayable",
      "type": "function"
    },
    {
      "inputs": [
        {
          "internalType": "address",
          "name": "blacklister",
          "type": "address"
        }
      ],
      "name": "grantBlacklister",
      "outputs": [
        {
          "internalType": "bool",
          "name": "",
          "type": "bool"
        }
      ],
      "stateMutability": "nonpayable",
      "type": "function"
    },
    {
      "inputs": [
        {
          "internalType": "address",
          "name": "burner",
          "type": "address"
        }
      ],
      "name": "grantBurner",
      "outputs": [
        {
          "internalType": "bool",
          "name": "",
          "type": "bool"
        }
      ],
      "stateMutability": "nonpayable",
      "type": "function"
    },
    {
      "inputs": [
        {
          "internalType": "address",
          "name": "granter",
          "type": "address"
        }
      ],
      "name": "grantGranter",
      "outputs": [
        {
          "internalType": "bool",
          "name": "",
          "type": "bool"
        }
      ],
      "stateMutability": "nonpayable",
      "type": "function"
    },
    {
      "inputs": [
        {
          "internalType": "address",
          "name": "minter",
          "type": "address"
        }
      ],
      "name": "grantMinter",
      "outputs": [
        {
          "internalType": "bool",
          "name": "",
          "type": "bool"
        }
      ],
      "stateMutability": "nonpayable",
      "type": "function"
    },
    {
      "inputs": [
        {
          "internalType": "bytes32",
          "name": "role",
          "type": "bytes32"
        },
        {
          "internalType": "address",
          "name": "account",
          "type": "address"
        }
      ],
      "name": "grantRole",
      "outputs": [],
      "stateMutability": "nonpayable",
      "type": "function"
    },
    {
      "inputs": [
        {
          "internalType": "bytes32",
          "name": "role",
          "type": "bytes32"
        },
        {
          "internalType": "address",
          "name": "account",
          "type": "address"
        }
      ],
      "name": "hasRole",
      "outputs": [
        {
          "internalType": "bool",
          "name": "",
          "type": "bool"
        }
      ],
      "stateMutability": "view",
      "type": "function"
    },
    {
      "inputs": [
        {
          "internalType": "string",
          "name": "name",
          "type": "string"
        },
        {
          "internalType": "uint256",
          "name": "vestingTime",
          "type": "uint256"
        }
      ],
      "name": "newVestingSched",
      "outputs": [
        {
          "internalType": "uint256",
          "name": "",
          "type": "uint256"
        }
      ],
      "stateMutability": "nonpayable",
      "type": "function"
    },
    {
      "inputs": [
        {
          "internalType": "bytes32",
          "name": "role",
          "type": "bytes32"
        },
        {
          "internalType": "address",
          "name": "member",
          "type": "address"
        }
      ],
      "name": "removeRoleMember",
      "outputs": [
        {
          "internalType": "bool",
          "name": "",
          "type": "bool"
        }
      ],
      "stateMutability": "nonpayable",
      "type": "function"
    },
    {
      "inputs": [
        {
          "internalType": "bytes32",
          "name": "role",
          "type": "bytes32"
        },
        {
          "internalType": "address",
          "name": "account",
          "type": "address"
        }
      ],
      "name": "renounceRole",
      "outputs": [],
      "stateMutability": "nonpayable",
      "type": "function"
    },
    {
      "inputs": [
        {
          "internalType": "address",
          "name": "blacklister",
          "type": "address"
        }
      ],
      "name": "revokeBlacklister",
      "outputs": [
        {
          "internalType": "bool",
          "name": "",
          "type": "bool"
        }
      ],
      "stateMutability": "nonpayable",
      "type": "function"
    },
    {
      "inputs": [
        {
          "internalType": "address",
          "name": "burner",
          "type": "address"
        }
      ],
      "name": "revokeBurner",
      "outputs": [
        {
          "internalType": "bool",
          "name": "",
          "type": "bool"
        }
      ],
      "stateMutability": "nonpayable",
      "type": "function"
    },
    {
      "inputs": [
        {
          "internalType": "address",
          "name": "granter",
          "type": "address"
        }
      ],
      "name": "revokeGranter",
      "outputs": [
        {
          "internalType": "bool",
          "name": "",
          "type": "bool"
        }
      ],
      "stateMutability": "nonpayable",
      "type": "function"
    },
    {
      "inputs": [
        {
          "internalType": "address",
          "name": "minter",
          "type": "address"
        }
      ],
      "name": "revokeMinter",
      "outputs": [
        {
          "internalType": "bool",
          "name": "",
          "type": "bool"
        }
      ],
      "stateMutability": "nonpayable",
      "type": "function"
    },
    {
      "inputs": [
        {
          "internalType": "bytes32",
          "name": "role",
          "type": "bytes32"
        },
        {
          "internalType": "address",
          "name": "account",
          "type": "address"
        }
      ],
      "name": "revokeRole",
      "outputs": [],
      "stateMutability": "nonpayable",
      "type": "function"
    },
    {
      "inputs": [
        {
          "internalType": "uint256",
          "name": "vestingSchedID_",
          "type": "uint256"
        },
        {
          "internalType": "address",
          "name": "beneficiary",
          "type": "address"
        }
      ],
      "name": "soloVesting",
      "outputs": [
        {
          "components": [
            {
              "internalType": "uint256",
              "name": "vestingID",
              "type": "uint256"
            },
            {
              "internalType": "address",
              "name": "beneficiary",
              "type": "address"
            },
            {
              "internalType": "uint256",
              "name": "grantAmount",
              "type": "uint256"
            },
            {
              "internalType": "uint256",
              "name": "withdrawAmount",
              "type": "uint256"
            }
          ],
          "internalType": "struct TokenVesting.SoloVesting",
          "name": "",
          "type": "tuple"
        }
      ],
      "stateMutability": "view",
      "type": "function"
    },
    {
      "inputs": [
        {
          "internalType": "bytes4",
          "name": "interfaceId",
          "type": "bytes4"
        }
      ],
      "name": "supportsInterface",
      "outputs": [
        {
          "internalType": "bool",
          "name": "",
          "type": "bool"
        }
      ],
      "stateMutability": "view",
      "type": "function"
    },
    {
      "inputs": [],
      "name": "token",
      "outputs": [
        {
          "internalType": "address",
          "name": "",
          "type": "address"
        }
      ],
      "stateMutability": "view",
      "type": "function"
    },
    {
      "inputs": [
        {
          "internalType": "address",
          "name": "beneficiary",
          "type": "address"
        },
        {
          "internalType": "uint256",
          "name": "vestingSchedID_",
          "type": "uint256"
        },
        {
          "internalType": "uint256",
          "name": "amount",
          "type": "uint256"
        }
      ],
      "name": "transfer",
      "outputs": [
        {
          "internalType": "bool",
          "name": "",
          "type": "bool"
        }
      ],
      "stateMutability": "nonpayable",
      "type": "function"
    },
    {
      "inputs": [
        {
          "internalType": "address",
          "name": "from",
          "type": "address"
        },
        {
          "internalType": "address",
          "name": "beneficiary",
          "type": "address"
        },
        {
          "internalType": "uint256",
          "name": "vestingSchedID_",
          "type": "uint256"
        },
        {
          "internalType": "uint256",
          "name": "amount",
          "type": "uint256"
        }
      ],
      "name": "transferFrom",
      "outputs": [
        {
          "internalType": "bool",
          "name": "",
          "type": "bool"
        }
      ],
      "stateMutability": "nonpayable",
      "type": "function"
    },
    {
      "inputs": [
        {
          "internalType": "address",
          "name": "newfunding",
          "type": "address"
        }
      ],
      "name": "updateFunding",
      "outputs": [],
      "stateMutability": "nonpayable",
      "type": "function"
    },
    {
      "inputs": [
        {
          "internalType": "uint256",
          "name": "vestingSchedID_",
          "type": "uint256"
        }
      ],
      "name": "vestingSched",
      "outputs": [
        {
          "components": [
            {
              "internalType": "uint256",
              "name": "id",
              "type": "uint256"
            },
            {
              "internalType": "string",
              "name": "name",
              "type": "string"
            },
            {
              "internalType": "uint256",
              "name": "vestingTime",
              "type": "uint256"
            },
            {
              "internalType": "uint256",
              "name": "grantAmount",
              "type": "uint256"
            },
            {
              "internalType": "uint256",
              "name": "withdrawAmount",
              "type": "uint256"
            }
          ],
          "internalType": "struct TokenVesting.VestingSched",
          "name": "",
          "type": "tuple"
        }
      ],
      "stateMutability": "view",
      "type": "function"
    },
    {
      "inputs": [],
      "name": "vestingSchedID",
      "outputs": [
        {
          "internalType": "uint256",
          "name": "_value",
          "type": "uint256"
        }
      ],
      "stateMutability": "view",
      "type": "function"
    },
    {
      "inputs": [
        {
          "internalType": "uint256",
          "name": "vestingSchedID_",
          "type": "uint256"
        },
        {
          "internalType": "uint256",
          "name": "amount",
          "type": "uint256"
        }
      ],
      "name": "withdraw",
      "outputs": [
        {
          "internalType": "bool",
          "name": "",
          "type": "bool"
        }
      ],
      "stateMutability": "nonpayable",
      "type": "function"
    },
    {
      "inputs": [
        {
          "internalType": "uint256",
          "name": "vestingSchedID_",
          "type": "uint256"
        },
        {
          "internalType": "uint256",
          "name": "amount",
          "type": "uint256"
        },
        {
          "internalType": "address",
          "name": "beneficiary",
          "type": "address"
        }
      ],
      "name": "withdrawTo",
      "outputs": [
        {
          "internalType": "bool",
          "name": "",
          "type": "bool"
        }
      ],
      "stateMutability": "nonpayable",
      "type": "function"
    }
  ],
  "transactionHash": "0x7ce013e677da0555396b31f25ae5f9538f9e6fee9456eee575873053c51454c5",
  "args": [
    "0x5FbDB2315678afecb367f032d93F642f64180aa3",
    "0x3C44CdDdB6a900fa2b585dd299e03d12FA4293BC"
  ],
  "numDeployments": 1,
  "solcInputHash": "011ce5f4d72803fdaa70ff1520d1cb82",
  "bytecode": "0x60806040523480156200001157600080fd5b50604051620030e4380380620030e483398101604081905262000034916200025a565b600280546001600160a01b038085166001600160a01b0319928316179092556003805492841692909116919091179055620000786000620000723390565b620000d8565b620000a47fa49807205ce4d355092ef5a8a18f56e8913cf4a201fbe287825b095693c2177533620000d8565b620000d07f2dee5dd865e09c7ce6788d674a03682994f0b44339403ca07ac129a9de4bed6a33620000d8565b505062000292565b620000e48282620000e8565b5050565b620000ff82826200012b60201b6200180d1760201c565b60008281526001602090815260409091206200012691839062001891620001cb821b17901c565b505050565b6000828152602081815260408083206001600160a01b038516845290915290205460ff16620000e4576000828152602081815260408083206001600160a01b03851684529091529020805460ff19166001179055620001873390565b6001600160a01b0316816001600160a01b0316837f2f8788117e7eff1d82e926ec794901d17c78024a50270940304540a733656f0d60405160405180910390a45050565b6000620001e2836001600160a01b038416620001eb565b90505b92915050565b60008181526001830160205260408120546200023457508154600181810184556000848152602080822090930184905584548482528286019093526040902091909155620001e5565b506000620001e5565b80516001600160a01b03811681146200025557600080fd5b919050565b600080604083850312156200026e57600080fd5b62000279836200023d565b915062000289602084016200023d565b90509250929050565b612e4280620002a26000396000f3fe608060405234801561001057600080fd5b50600436106102535760003560e01c806375b238fc11610146578063cfbd4885116100c3578063e5071bc111610087578063e5071bc11461055b578063ee76d7a91461056e578063f515e6f21461058e578063f94c0a11146105a3578063fc0c546a146105b8578063fe99049a146105cb57600080fd5b8063cfbd4885146104f8578063d2c11f261461050b578063d539139314610520578063d547741f14610535578063d5fe00371461054857600080fd5b8063a3246ad31161010a578063a3246ad31461048c578063b55467ae146104ac578063b6b5b721146104bf578063ca15c873146104d2578063cb4c86b7146104e557600080fd5b806375b238fc146104115780639010d07c1461042657806391d14854146104515780639ba25fce14610464578063a217fddf1461048457600080fd5b8063261707fa116101d4578063441a3e7011610198578063441a3e70146103b05780634dd8fac8146103c357806357f0ebcd146103d65780636568df03146103e957806371061398146103fc57600080fd5b8063261707fa1461034d578063282c51f3146103605780632f2ff15d1461037557806336568abe1461038a578063426a84931461039d57600080fd5b806310511f961161021b57806310511f96146102d157806314cd70e4146102e45780631b65471f146102f7578063237395621461030a578063248a9ca31461032a57600080fd5b806301ffc9a71461025857806302587da2146102805780630900cc3314610298578063095bcdb6146102ab5780630ad05809146102be575b600080fd5b61026b6102663660046125fe565b6105de565b60405190151581526020015b60405180910390f35b60045461028a9081565b604051908152602001610277565b61026b6102a636600461263f565b610609565b61026b6102b936600461265a565b610669565b61026b6102cc3660046126d9565b610684565b61026b6102df36600461263f565b610980565b61026b6102f2366004612753565b6109ce565b61026b610305366004612788565b6109e3565b61031d6103183660046127b4565b610a2c565b604051610277919061286e565b61028a6103383660046127b4565b60009081526020819052604090206001015490565b61026b61035b36600461263f565b610b3d565b61028a600080516020612d6d83398151915281565b610388610383366004612788565b610b87565b005b610388610398366004612788565b610bb1565b61026b6103ab36600461265a565b610c2f565b61026b6103be366004612881565b610c49565b61026b6103d1366004612788565b610c5d565b61028a6103e43660046128a3565b610cac565b61026b6103f736600461263f565b610de4565b610404610e32565b604051610277919061291b565b61028a600080516020612ded83398151915281565b610439610434366004612881565b6110b5565b6040516001600160a01b039091168152602001610277565b61026b61045f366004612788565b6110cd565b61047761047236600461263f565b6110f6565b604051610277919061298f565b61028a600081565b61049f61049a3660046127b4565b6112eb565b6040516102779190612a04565b61026b6104ba36600461263f565b611392565b61026b6104cd36600461263f565b6113e0565b61028a6104e03660046127b4565b61142e565b600354610439906001600160a01b031681565b61026b61050636600461263f565b611445565b610513611493565b6040516102779190612a45565b61028a600080516020612dad83398151915281565b610388610543366004612788565b611639565b61038861055636600461263f565b61165e565b61026b61056936600461263f565b6116dc565b61058161057c366004612788565b61172a565b6040516102779190612aa7565b61028a600080516020612dcd83398151915281565b61028a600080516020612d8d83398151915281565b600254610439906001600160a01b031681565b61026b6105d9366004612adb565b6117e5565b60006001600160e01b03198216635a05180f60e01b14806106035750610603826118a6565b92915050565b6000610623600080516020612ded833981519152336110cd565b6106485760405162461bcd60e51b815260040161063f90612b1d565b60405180910390fd5b610660600080516020612d6d83398151915283611639565b5060015b919050565b600033610678818686866118db565b50600195945050505050565b600061069e600080516020612d8d833981519152336110cd565b6106ea5760405162461bcd60e51b815260206004820152601760248201527f43616c6c6572206973206e6f742061206772616e746572000000000000000000604482015260640161063f565b6000868152600560205260409020600201546107185760405162461bcd60e51b815260040161063f90612b4c565b8382146107605760405162461bcd60e51b815260206004820152601660248201527508ee4c2dce840c2dadeeadce8e640dad2e6dac2e8c6d60531b604482015260640161063f565b6000805b858110156108c057600087878381811061078057610780612b7c565b9050602002016020810190610795919061263f565b905060008686848181106107ab576107ab612b7c565b60200291909101359150506001600160a01b03821661080c5760405162461bcd60e51b815260206004820152601d60248201527f43616e206e6f74206772616e7420746f206e756c6c2061646472657373000000604482015260640161063f565b6000811161085c5760405162461bcd60e51b815260206004820152601c60248201527f53686f756c64206772616e74206e6f6e2d7a65726f20616d6f756e7400000000604482015260640161063f565b6108668185612ba8565b93506108738a8383611b2b565b80826001600160a01b03168b7f3e38a7272680c978d8255418e1729d3092ba064f5a3880c96e4827f94111bc8f60405160405180910390a4505080806108b890612bc0565b915050610764565b50600087815260056020526040812060030180548392906108e2908490612ba8565b90915550506002546003546040516323b872dd60e01b81526001600160a01b039182166004820152306024820152604481018490529116906323b872dd90606401602060405180830381600087803b15801561093d57600080fd5b505af1158015610951573d6000803e3d6000fd5b505050506040513d601f19601f820116820180604052508101906109759190612bdb565b979650505050505050565b600061099a600080516020612ded833981519152336110cd565b6109b65760405162461bcd60e51b815260040161063f90612b1d565b610660600080516020612d6d83398151915283610b87565b60006109db848385611c52565b949350505050565b60006109fd600080516020612ded833981519152336110cd565b610a195760405162461bcd60e51b815260040161063f90612b1d565b610a238383610b87565b50600192915050565b610a5e6040518060a0016040528060008152602001606081526020016000815260200160008152602001600081525090565b600560008381526020019081526020016000206040518060a001604052908160008201548152602001600182018054610a9690612bfd565b80601f0160208091040260200160405190810160405280929190818152602001828054610ac290612bfd565b8015610b0f5780601f10610ae457610100808354040283529160200191610b0f565b820191906000526020600020905b815481529060010190602001808311610af257829003601f168201915b5050505050815260200160028201548152602001600382015481526020016004820154815250509050919050565b6000610b57600080516020612ded833981519152336110cd565b610b735760405162461bcd60e51b815260040161063f90612b1d565b610660600080516020612dad833981519152835b600082815260208190526040902060010154610ba281611f60565b610bac8383611f6d565b505050565b6001600160a01b0381163314610c215760405162461bcd60e51b815260206004820152602f60248201527f416363657373436f6e74726f6c3a2063616e206f6e6c792072656e6f756e636560448201526e103937b632b9903337b91039b2b63360891b606482015260840161063f565b610c2b8282611f8f565b5050565b600033610c3e81868686611fb1565b506001949350505050565b6000610c56833384611c52565b9392505050565b6000610c77600080516020612ded833981519152336110cd565b610c935760405162461bcd60e51b815260040161063f90612b1d565b610c9d83836110cd565b15610a2357610a238383611639565b6000610cc6600080516020612ded833981519152336110cd565b610ce25760405162461bcd60e51b815260040161063f90612b1d565b6000610ced60045490565b90506040518060a0016040528082815260200186868080601f016020809104026020016040519081016040528093929190818152602001838380828437600092018290525093855250505060208083018790526040808401839052606090930182905284825260058152919020825181558282015180519192610d7892600185019290910190612565565b50604082015160028201556060820151600382015560809091015160049182015580546001019055807f7557dda9604341e8e0878b722c2f0812b541f6856b778b89f71da8aea2ca997b868686604051610dd493929190612c32565b60405180910390a2949350505050565b6000610dfe600080516020612ded833981519152336110cd565b610e1a5760405162461bcd60e51b815260040161063f90612b1d565b610660600080516020612d8d83398151915283610b87565b60408051600580825260c0820190925260609160009190816020015b604080518082019091526000815260606020820152815260200190600190039081610e4e5790505090506040518060400160405280600080516020612ded83398151915281526020016040518060400160405280601681526020017518591b5a5b88199bdc881d1a194818dbdb9d1c9858dd60521b81525081525081600181518110610edc57610edc612b7c565b60200260200101819052506040518060400160405280600080516020612dad83398151915281526020016040518060400160405280601981526020017f6d696e7465722063616e206d696e74206e657720636f696e730000000000000081525081525081600281518110610f5257610f52612b7c565b60200260200101819052506040518060400160405280600080516020612d6d8339815191528152602001604051806040016040528060158152602001746275726e65722063616e206275726e20636f696e7360581b81525081525081600381518110610fc057610fc0612b7c565b60200260200101819052506040518060400160405280600080516020612d8d8339815191528152602001604051806040016040528060168152602001756772616e7465722063616e206275726e20636f696e7360501b8152508152508160048151811061102f5761102f612b7c565b60200260200101819052506040518060400160405280600080516020612dcd83398151915281526020016040518060400160405280602081526020017f626c61636b6c69737465722063616e2075706461746520626c61636b6c697374815250815250816005815181106110a5576110a5612b7c565b6020908102919091010152919050565b6000828152600160205260408120610c5690836120cc565b6000918252602082815260408084206001600160a01b0393909316845291905290205460ff1690565b60606000805b60045481101561117e576000818560405160200161112d9291909182526001600160a01b0316602082015260400190565b60408051601f198184030181529181528151602092830120600081815260069093529120600201549091501561116b57611168600184612ba8565b92505b508061117681612bc0565b9150506110fc565b5060008167ffffffffffffffff81111561119a5761119a612c6b565b6040519080825280602002602001820160405280156111ff57816020015b6111ec60405180608001604052806000815260200160006001600160a01b0316815260200160008152602001600081525090565b8152602001906001900390816111b85790505b50905060005b6004548110156112e357600081866040516020016112369291909182526001600160a01b0316602082015260400190565b60408051601f19818403018152918152815160209283012060008181526006909352912060020154909150156112d05760008181526006602090815260409182902082516080810184528154815260018201546001600160a01b031692810192909252600281015492820192909252600390910154606082015283518490849081106112c4576112c4612b7c565b60200260200101819052505b50806112db81612bc0565b915050611205565b509392505050565b606060006112f88361142e565b905060008167ffffffffffffffff81111561131557611315612c6b565b60405190808252806020026020018201604052801561133e578160200160208202803683370190505b50905060005b828110156112e35761135685826110b5565b82828151811061136857611368612b7c565b6001600160a01b03909216602092830291909101909101528061138a81612bc0565b915050611344565b60006113ac600080516020612ded833981519152336110cd565b6113c85760405162461bcd60e51b815260040161063f90612b1d565b610660600080516020612dcd83398151915283611639565b60006113fa600080516020612ded833981519152336110cd565b6114165760405162461bcd60e51b815260040161063f90612b1d565b610660600080516020612d8d83398151915283611639565b6000818152600160205260408120610603906120d8565b600061145f600080516020612ded833981519152336110cd565b61147b5760405162461bcd60e51b815260040161063f90612b1d565b610660600080516020612dad83398151915283611639565b606060006114a060045490565b67ffffffffffffffff8111156114b8576114b8612c6b565b60405190808252806020026020018201604052801561151b57816020015b6115086040518060a0016040528060008152602001606081526020016000815260200160008152602001600081525090565b8152602001906001900390816114d65790505b50905060005b60045481101561163357600560008281526020019081526020016000206040518060a00160405290816000820154815260200160018201805461156390612bfd565b80601f016020809104026020016040519081016040528092919081815260200182805461158f90612bfd565b80156115dc5780601f106115b1576101008083540402835291602001916115dc565b820191906000526020600020905b8154815290600101906020018083116115bf57829003601f168201915b50505050508152602001600282015481526020016003820154815260200160048201548152505082828151811061161557611615612b7c565b6020026020010181905250808061162b90612bc0565b915050611521565b50919050565b60008281526020819052604090206001015461165481611f60565b610bac8383611f8f565b611676600080516020612ded833981519152336110cd565b6116925760405162461bcd60e51b815260040161063f90612b1d565b600380546001600160a01b0319166001600160a01b0383169081179091556040517f74fd33b93b98017671fda1e0c45b783f7e31895388503a3959006c338043daf590600090a250565b60006116f6600080516020612ded833981519152336110cd565b6117125760405162461bcd60e51b815260040161063f90612b1d565b610660600080516020612dcd83398151915283610b87565b61175e60405180608001604052806000815260200160006001600160a01b0316815260200160008152602001600081525090565b600083836040516020016117859291909182526001600160a01b0316602082015260400190565b60408051808303601f1901815282825280516020918201206000908152600682528290206080840183528054845260018101546001600160a01b031691840191909152600281015491830191909152600301546060820152949350505050565b6000336117f4868286866120e2565b611800868686866118db565b5060019695505050505050565b61181782826110cd565b610c2b576000828152602081815260408083206001600160a01b03851684529091529020805460ff1916600117905561184d3390565b6001600160a01b0316816001600160a01b0316837f2f8788117e7eff1d82e926ec794901d17c78024a50270940304540a733656f0d60405160405180910390a45050565b6000610c56836001600160a01b038416612178565b60006001600160e01b03198216637965db0b60e01b148061060357506301ffc9a760e01b6001600160e01b0319831614610603565b6000828152600560205260408120600201546119095760405162461bcd60e51b815260040161063f90612b4c565b6001600160a01b03841661195f5760405162461bcd60e51b815260206004820181905260248201527f43616e206e6f74207472616e7366657220746f206e756c6c2061646472657373604482015260640161063f565b600082116119ba5760405162461bcd60e51b815260206004820152602260248201527f5472616e7366657220616d6f756e742073686f756c64206265206e6f6e2d7a65604482015261726f60f01b606482015260840161063f565b600083866040516020016119e19291909182526001600160a01b0316602082015260400190565b60408051601f1981840301815282825280516020918201206000818152600683528381206080860185528054865260018101546001600160a01b0316938601939093526002830154938501849052600390920154606085018190529094509091611a4b9190612c81565b905084811015611a9d5760405162461bcd60e51b815260206004820181905260248201527f4e6f742073756666696369656e742066756e6420666f72207472616e73666572604482015260640161063f565b60008381526006602052604081206002018054879290611abe908490612c81565b90915550611acf9050868887611b2b565b866001600160a01b0316886001600160a01b0316877ff2dbd98d79f00f7aff338b824931d607bfcc63d47307162470f25a055102d3b088604051611b1591815260200190565b60405180910390a4506001979650505050505050565b600083815260056020526040902060020154611b595760405162461bcd60e51b815260040161063f90612b4c565b60008383604051602001611b809291909182526001600160a01b0316602082015260400190565b60408051601f198184030181529181528151602092830120600081815260069093529120600101549091506001600160a01b0316611c2557604080516080810182528581526001600160a01b0385811660208084019182528385018781526000606086018181528882526006909352959095209351845590516001840180546001600160a01b0319169190931617909155915160028201559051600390910155611c4c565b60008181526006602052604081206002018054849290611c46908490612ba8565b90915550505b50505050565b600083815260056020526040812060020154611c805760405162461bcd60e51b815260040161063f90612b4c565b6001600160a01b038316611cd65760405162461bcd60e51b815260206004820181905260248201527f43616e206e6f7420776974686472617720746f206e756c6c2061646472657373604482015260640161063f565b60008211611d315760405162461bcd60e51b815260206004820152602260248201527f576974686472617720616d6f756e742073686f756c64206265206e6f6e2d7a65604482015261726f60f01b606482015260840161063f565b6000848152600560205260409020600201544211611da05760405162461bcd60e51b815260206004820152602660248201527f43616e206e6f74207769746864726177206265666f72652076657374696e672060448201526573746172747360d01b606482015260840161063f565b6040805160208082018790523382840152825180830384018152606083018085528151918301919091206000818152600690935284832060e085019095528454825260018501546001600160a01b03166080850152600285015460a0850181905260039095015460c0909401849052939092611e1b91612c81565b905084811015611e785760405162461bcd60e51b815260206004820152602260248201527f4e6f742073756666696369656e742066756e6420666f72207769746864726177604482015261185b60f21b606482015260840161063f565b60008381526006602052604081206003018054879290611e99908490612ba8565b909155505060008781526005602052604081206004018054879290611ebf908490612ba8565b90915550506001600160a01b038616336001600160a01b0316887ffeb2000dca3e617cd6f3a8bbb63014bb54a124aac6ccbf73ee7229b4cd01f12088604051611f0a91815260200190565b60405180910390a460025460405163a9059cbb60e01b81526001600160a01b038881166004830152602482018890529091169063a9059cbb90604401602060405180830381600087803b15801561093d57600080fd5b611f6a81336121c7565b50565b611f77828261180d565b6000828152600160205260409020610bac9082611891565b611f998282612220565b6000828152600160205260409020610bac9082612285565b6001600160a01b0384166120075760405162461bcd60e51b815260206004820152601d60248201527f617070726f76652066726f6d20746865207a65726f2061646472657373000000604482015260640161063f565b6001600160a01b03831661205d5760405162461bcd60e51b815260206004820152601b60248201527f617070726f766520746f20746865207a65726f20616464726573730000000000604482015260640161063f565b60008281526007602090815260408083206001600160a01b03888116808652918452828520908816808652908452938290208590559051848152909185917f69e4aaf23f9318cf40839ac20453d8fbedaac2955eb08a27ae5189cc71925716910160405180910390a450505050565b6000610c56838361229a565b6000610603825490565b60008281526007602090815260408083206001600160a01b0380891685529083528184209087168452909152902054600019811461217157818110156121635760405162461bcd60e51b8152602060048201526016602482015275696e73756666696369656e7420616c6c6f77616e636560501b604482015260640161063f565b612171858585858503611fb1565b5050505050565b60008181526001830160205260408120546121bf57508154600181810184556000848152602080822090930184905584548482528286019093526040902091909155610603565b506000610603565b6121d182826110cd565b610c2b576121de816122c4565b6121e98360206122d6565b6040516020016121fa929190612c98565b60408051601f198184030181529082905262461bcd60e51b825261063f91600401612d0d565b61222a82826110cd565b15610c2b576000828152602081815260408083206001600160a01b0385168085529252808320805460ff1916905551339285917ff6391f5c32d9c69d2a47ea670b442974b53935d1edc7fd64eb21e047a839171b9190a45050565b6000610c56836001600160a01b038416612472565b60008260000182815481106122b1576122b1612b7c565b9060005260206000200154905092915050565b60606106036001600160a01b03831660145b606060006122e5836002612d20565b6122f0906002612ba8565b67ffffffffffffffff81111561230857612308612c6b565b6040519080825280601f01601f191660200182016040528015612332576020820181803683370190505b509050600360fc1b8160008151811061234d5761234d612b7c565b60200101906001600160f81b031916908160001a905350600f60fb1b8160018151811061237c5761237c612b7c565b60200101906001600160f81b031916908160001a90535060006123a0846002612d20565b6123ab906001612ba8565b90505b6001811115612423576f181899199a1a9b1b9c1cb0b131b232b360811b85600f16601081106123df576123df612b7c565b1a60f81b8282815181106123f5576123f5612b7c565b60200101906001600160f81b031916908160001a90535060049490941c9361241c81612d3f565b90506123ae565b508315610c565760405162461bcd60e51b815260206004820181905260248201527f537472696e67733a20686578206c656e67746820696e73756666696369656e74604482015260640161063f565b6000818152600183016020526040812054801561255b576000612496600183612c81565b85549091506000906124aa90600190612c81565b905081811461250f5760008660000182815481106124ca576124ca612b7c565b90600052602060002001549050808760000184815481106124ed576124ed612b7c565b6000918252602080832090910192909255918252600188019052604090208390555b855486908061252057612520612d56565b600190038181906000526020600020016000905590558560010160008681526020019081526020016000206000905560019350505050610603565b6000915050610603565b82805461257190612bfd565b90600052602060002090601f01602090048101928261259357600085556125d9565b82601f106125ac57805160ff19168380011785556125d9565b828001600101855582156125d9579182015b828111156125d95782518255916020019190600101906125be565b506125e59291506125e9565b5090565b5b808211156125e557600081556001016125ea565b60006020828403121561261057600080fd5b81356001600160e01b031981168114610c5657600080fd5b80356001600160a01b038116811461066457600080fd5b60006020828403121561265157600080fd5b610c5682612628565b60008060006060848603121561266f57600080fd5b61267884612628565b95602085013595506040909401359392505050565b60008083601f84011261269f57600080fd5b50813567ffffffffffffffff8111156126b757600080fd5b6020830191508360208260051b85010111156126d257600080fd5b9250929050565b6000806000806000606086880312156126f157600080fd5b85359450602086013567ffffffffffffffff8082111561271057600080fd5b61271c89838a0161268d565b9096509450604088013591508082111561273557600080fd5b506127428882890161268d565b969995985093965092949392505050565b60008060006060848603121561276857600080fd5b833592506020840135915061277f60408501612628565b90509250925092565b6000806040838503121561279b57600080fd5b823591506127ab60208401612628565b90509250929050565b6000602082840312156127c657600080fd5b5035919050565b60005b838110156127e85781810151838201526020016127d0565b83811115611c4c5750506000910152565b600081518084526128118160208601602086016127cd565b601f01601f19169290920160200192915050565b805182526000602082015160a0602085015261284460a08501826127f9565b90506040830151604085015260608301516060850152608083015160808501528091505092915050565b602081526000610c566020830184612825565b6000806040838503121561289457600080fd5b50508035926020909101359150565b6000806000604084860312156128b857600080fd5b833567ffffffffffffffff808211156128d057600080fd5b818601915086601f8301126128e457600080fd5b8135818111156128f357600080fd5b87602082850101111561290557600080fd5b6020928301989097509590910135949350505050565b60006020808301818452808551808352604092508286019150828160051b87010184880160005b8381101561298157888303603f1901855281518051845287015187840187905261296e878501826127f9565b9588019593505090860190600101612942565b509098975050505050505050565b6020808252825182820181905260009190848201906040850190845b818110156129f8576129e5838551805182526020808201516001600160a01b03169083015260408082015190830152606090810151910152565b92840192608092909201916001016129ab565b50909695505050505050565b6020808252825182820181905260009190848201906040850190845b818110156129f85783516001600160a01b031683529284019291840191600101612a20565b6000602080830181845280855180835260408601915060408160051b870101925083870160005b82811015612a9a57603f19888603018452612a88858351612825565b94509285019290850190600101612a6c565b5092979650505050505050565b815181526020808301516001600160a01b031690820152604080830151908201526060808301519082015260808101610603565b60008060008060808587031215612af157600080fd5b612afa85612628565b9350612b0860208601612628565b93969395505050506040820135916060013590565b60208082526015908201527421b0b63632b91034b9903737ba10309030b236b4b760591b604082015260600190565b60208082526016908201527515995cdd1a5b99c8191bd95cc81b9bdd08195e1a5cdd60521b604082015260600190565b634e487b7160e01b600052603260045260246000fd5b634e487b7160e01b600052601160045260246000fd5b60008219821115612bbb57612bbb612b92565b500190565b6000600019821415612bd457612bd4612b92565b5060010190565b600060208284031215612bed57600080fd5b81518015158114610c5657600080fd5b600181811c90821680612c1157607f821691505b6020821081141561163357634e487b7160e01b600052602260045260246000fd5b604081528260408201528284606083013760006060848301015260006060601f19601f8601168301019050826020830152949350505050565b634e487b7160e01b600052604160045260246000fd5b600082821015612c9357612c93612b92565b500390565b7f416363657373436f6e74726f6c3a206163636f756e7420000000000000000000815260008351612cd08160178501602088016127cd565b7001034b99036b4b9b9b4b733903937b6329607d1b6017918401918201528351612d018160288401602088016127cd565b01602801949350505050565b602081526000610c5660208301846127f9565b6000816000190483118215151615612d3a57612d3a612b92565b500290565b600081612d4e57612d4e612b92565b506000190190565b634e487b7160e01b600052603160045260246000fdfe3c11d16cbaffd01df69ce1c404f6340ee057498f5f00246190ea54220576a8482dee5dd865e09c7ce6788d674a03682994f0b44339403ca07ac129a9de4bed6a9f2df0fed2c77648de5860a4cc508cd0818c85b8b8a1ab4ceeef8d981c8956a698db8a220cd0f09badce9f22d0ba7e93edb3d404448cc3560d391ab096ad16e9a49807205ce4d355092ef5a8a18f56e8913cf4a201fbe287825b095693c21775a26469706673582212204b89a847a3cedf1dc4f500cca59a5c1d82d983b408018801f2ff9b197e6fff1564736f6c63430008090033",
  "devdoc": {
    "kind": "dev",
    "methods": {
      "allSoloVestings(address)": {
        "params": {
          "beneficiary": "User's address"
        }
      },
      "approve(address,uint256,uint256)": {
        "params": {
          "amount": "The amount of transfered grants.",
          "spender": "The beneficiary that will be approved.",
          "vestingSchedID_": "The ID of the vesting schedule to withdraw token from."
        }
      },
      "getRoleAdmin(bytes32)": {
        "details": "Returns the admin role that controls `role`. See {grantRole} and {revokeRole}. To change a role's admin, use {_setRoleAdmin}."
      },
      "getRoleMember(bytes32,uint256)": {
        "details": "Returns one of the accounts that have `role`. `index` must be a value between 0 and {getRoleMemberCount}, non-inclusive. Role bearers are not sorted in any particular way, and their ordering may change at any point. WARNING: When using {getRoleMember} and {getRoleMemberCount}, make sure you perform all queries on the same block. See the following https://forum.openzeppelin.com/t/iterating-over-elements-on-enumerableset-in-openzeppelin-contracts/2296[forum post] for more information."
      },
      "getRoleMemberCount(bytes32)": {
        "details": "Returns the number of accounts that have `role`. Can be used together with {getRoleMember} to enumerate all bearers of a role."
      },
      "grant(uint256,address[],uint256[])": {
        "params": {
          "beneficiaries": "A list of beneficiaries addresses",
          "grantAmounts": "A list of token amounts that each beneficiary will be granted",
          "vestingSchedID_": "The vesting schedule of the token grant"
        },
        "returns": {
          "_0": "Return true if the function is called without any issue."
        }
      },
      "grantRole(bytes32,address)": {
        "details": "Grants `role` to `account`. If `account` had not been already granted `role`, emits a {RoleGranted} event. Requirements: - the caller must have ``role``'s admin role. May emit a {RoleGranted} event."
      },
      "hasRole(bytes32,address)": {
        "details": "Returns `true` if `account` has been granted `role`."
      },
      "newVestingSched(string,uint256)": {
        "params": {
          "name": "The name of the vesting schedule, such as \"3-month vesting schedule\"",
          "vestingTime": "The timestamp in seconds of the beginning of the vesting period."
        },
        "returns": {
          "_0": "The id of the created new vesting schedule."
        }
      },
      "renounceRole(bytes32,address)": {
        "details": "Revokes `role` from the calling account. Roles are often managed via {grantRole} and {revokeRole}: this function's purpose is to provide a mechanism for accounts to lose their privileges if they are compromised (such as when a trusted device is misplaced). If the calling account had been revoked `role`, emits a {RoleRevoked} event. Requirements: - the caller must be `account`. May emit a {RoleRevoked} event."
      },
      "revokeRole(bytes32,address)": {
        "details": "Revokes `role` from `account`. If `account` had been granted `role`, emits a {RoleRevoked} event. Requirements: - the caller must have ``role``'s admin role. May emit a {RoleRevoked} event."
      },
      "soloVesting(uint256,address)": {
        "params": {
          "beneficiary": "The beneficiary's account",
          "vestingSchedID_": "The ID of the vesting schedule."
        }
      },
      "supportsInterface(bytes4)": {
        "details": "See {IERC165-supportsInterface}."
      },
      "transfer(address,uint256,uint256)": {
        "params": {
          "amount": "The amount of transfered grants.",
          "beneficiary": "The beneficiary that will receive the transfered grants.",
          "vestingSchedID_": "The ID of the vesting schedule to withdraw token from."
        }
      },
      "transferFrom(address,address,uint256,uint256)": {
        "params": {
          "amount": "The amount of transfered grants.",
          "beneficiary": "The beneficiary that will receive the transfered grants.",
          "from": "The source account of the token transfer.",
          "vestingSchedID_": "The ID of the vesting schedule to withdraw token from."
        }
      },
      "updateFunding(address)": {
        "params": {
          "newfunding": "The new address of the funding source account"
        }
      },
      "vestingSched(uint256)": {
        "params": {
          "vestingSchedID_": "a single vesting schedule by ID"
        }
      },
      "withdraw(uint256,uint256)": {
        "params": {
          "amount": "Amount of token to withdraw.",
          "vestingSchedID_": "ID of the vesting schedule to withdraw token from."
        }
      },
      "withdrawTo(uint256,uint256,address)": {
        "params": {
          "amount": "Amount of token to withdraw.",
          "beneficiary": "The address that will receive the withdrawed tokens.",
          "vestingSchedID_": "The ID of the vesting schedule to withdraw token from."
        }
      }
    },
    "version": 1
  },
  "userdoc": {
    "kind": "user",
    "methods": {
      "allSoloVestings(address)": {
        "notice": "Return all vesting schedules for a single user."
      },
      "allVestingScheds()": {
        "notice": "Return all vesting schedules."
      },
      "approve(address,uint256,uint256)": {
        "notice": "Allow the spender to transfer up to certain amount of token from owner's vesting"
      },
      "grant(uint256,address[],uint256[])": {
        "notice": "Grant a list of beneficiaries tokens for a vesting schedule"
      },
      "newVestingSched(string,uint256)": {
        "notice": "Create new vesting schedule"
      },
      "soloVesting(uint256,address)": {
        "notice": "Return beneficiary's vesting for a certain vesting schedule."
      },
      "transfer(address,uint256,uint256)": {
        "notice": "Transfer vesting between beneficiaries"
      },
      "transferFrom(address,address,uint256,uint256)": {
        "notice": "Transfer vesting between beneficiaries after approval"
      },
      "updateFunding(address)": {
        "notice": "Update the funding source of vesting schedules"
      },
      "vestingSched(uint256)": {
        "notice": "Return a single vesting schedules."
      },
      "withdraw(uint256,uint256)": {
        "notice": "Withdraw granted tokens into caller's address"
      },
      "withdrawTo(uint256,uint256,address)": {
        "notice": "Withdraw granted tokens into beneficiary's address"
      }
    },
    "version": 1
  },
  "storageLayout": {
    "storage": [
      {
        "astId": 24,
        "contract": "contracts/vesting.sol:TokenVesting",
        "label": "_roles",
        "offset": 0,
        "slot": "0",
        "type": "t_mapping(t_bytes32,t_struct(RoleData)19_storage)"
      },
      {
        "astId": 334,
        "contract": "contracts/vesting.sol:TokenVesting",
        "label": "_roleMembers",
        "offset": 0,
        "slot": "1",
        "type": "t_mapping(t_bytes32,t_struct(AddressSet)2586_storage)"
      },
      {
        "astId": 3357,
        "contract": "contracts/vesting.sol:TokenVesting",
        "label": "token",
        "offset": 0,
        "slot": "2",
        "type": "t_address"
      },
      {
        "astId": 3359,
        "contract": "contracts/vesting.sol:TokenVesting",
        "label": "funding",
        "offset": 0,
        "slot": "3",
        "type": "t_address"
      },
      {
        "astId": 3362,
        "contract": "contracts/vesting.sol:TokenVesting",
        "label": "vestingSchedID",
        "offset": 0,
        "slot": "4",
        "type": "t_struct(Counter)644_storage"
      },
      {
        "astId": 3367,
        "contract": "contracts/vesting.sol:TokenVesting",
        "label": "_vestingScheds",
        "offset": 0,
        "slot": "5",
        "type": "t_mapping(t_uint256,t_struct(VestingSched)3296_storage)"
      },
      {
        "astId": 3372,
        "contract": "contracts/vesting.sol:TokenVesting",
        "label": "_soloVestings",
        "offset": 0,
        "slot": "6",
        "type": "t_mapping(t_bytes32,t_struct(SoloVesting)3305_storage)"
      },
      {
        "astId": 3380,
        "contract": "contracts/vesting.sol:TokenVesting",
        "label": "_allowances",
        "offset": 0,
        "slot": "7",
        "type": "t_mapping(t_uint256,t_mapping(t_address,t_mapping(t_address,t_uint256)))"
      }
    ],
    "types": {
      "t_address": {
        "encoding": "inplace",
        "label": "address",
        "numberOfBytes": "20"
      },
      "t_array(t_bytes32)dyn_storage": {
        "base": "t_bytes32",
        "encoding": "dynamic_array",
        "label": "bytes32[]",
        "numberOfBytes": "32"
      },
      "t_bool": {
        "encoding": "inplace",
        "label": "bool",
        "numberOfBytes": "1"
      },
      "t_bytes32": {
        "encoding": "inplace",
        "label": "bytes32",
        "numberOfBytes": "32"
      },
      "t_mapping(t_address,t_bool)": {
        "encoding": "mapping",
        "key": "t_address",
        "label": "mapping(address => bool)",
        "numberOfBytes": "32",
        "value": "t_bool"
      },
      "t_mapping(t_address,t_mapping(t_address,t_uint256))": {
        "encoding": "mapping",
        "key": "t_address",
        "label": "mapping(address => mapping(address => uint256))",
        "numberOfBytes": "32",
        "value": "t_mapping(t_address,t_uint256)"
      },
      "t_mapping(t_address,t_uint256)": {
        "encoding": "mapping",
        "key": "t_address",
        "label": "mapping(address => uint256)",
        "numberOfBytes": "32",
        "value": "t_uint256"
      },
      "t_mapping(t_bytes32,t_struct(AddressSet)2586_storage)": {
        "encoding": "mapping",
        "key": "t_bytes32",
        "label": "mapping(bytes32 => struct EnumerableSet.AddressSet)",
        "numberOfBytes": "32",
        "value": "t_struct(AddressSet)2586_storage"
      },
      "t_mapping(t_bytes32,t_struct(RoleData)19_storage)": {
        "encoding": "mapping",
        "key": "t_bytes32",
        "label": "mapping(bytes32 => struct AccessControl.RoleData)",
        "numberOfBytes": "32",
        "value": "t_struct(RoleData)19_storage"
      },
      "t_mapping(t_bytes32,t_struct(SoloVesting)3305_storage)": {
        "encoding": "mapping",
        "key": "t_bytes32",
        "label": "mapping(bytes32 => struct TokenVesting.SoloVesting)",
        "numberOfBytes": "32",
        "value": "t_struct(SoloVesting)3305_storage"
      },
      "t_mapping(t_bytes32,t_uint256)": {
        "encoding": "mapping",
        "key": "t_bytes32",
        "label": "mapping(bytes32 => uint256)",
        "numberOfBytes": "32",
        "value": "t_uint256"
      },
      "t_mapping(t_uint256,t_mapping(t_address,t_mapping(t_address,t_uint256)))": {
        "encoding": "mapping",
        "key": "t_uint256",
        "label": "mapping(uint256 => mapping(address => mapping(address => uint256)))",
        "numberOfBytes": "32",
        "value": "t_mapping(t_address,t_mapping(t_address,t_uint256))"
      },
      "t_mapping(t_uint256,t_struct(VestingSched)3296_storage)": {
        "encoding": "mapping",
        "key": "t_uint256",
        "label": "mapping(uint256 => struct TokenVesting.VestingSched)",
        "numberOfBytes": "32",
        "value": "t_struct(VestingSched)3296_storage"
      },
      "t_string_storage": {
        "encoding": "bytes",
        "label": "string",
        "numberOfBytes": "32"
      },
      "t_struct(AddressSet)2586_storage": {
        "encoding": "inplace",
        "label": "struct EnumerableSet.AddressSet",
        "members": [
          {
            "astId": 2585,
            "contract": "contracts/vesting.sol:TokenVesting",
            "label": "_inner",
            "offset": 0,
            "slot": "0",
            "type": "t_struct(Set)2271_storage"
          }
        ],
        "numberOfBytes": "64"
      },
      "t_struct(Counter)644_storage": {
        "encoding": "inplace",
        "label": "struct Counters.Counter",
        "members": [
          {
            "astId": 643,
            "contract": "contracts/vesting.sol:TokenVesting",
            "label": "_value",
            "offset": 0,
            "slot": "0",
            "type": "t_uint256"
          }
        ],
        "numberOfBytes": "32"
      },
      "t_struct(RoleData)19_storage": {
        "encoding": "inplace",
        "label": "struct AccessControl.RoleData",
        "members": [
          {
            "astId": 16,
            "contract": "contracts/vesting.sol:TokenVesting",
            "label": "members",
            "offset": 0,
            "slot": "0",
            "type": "t_mapping(t_address,t_bool)"
          },
          {
            "astId": 18,
            "contract": "contracts/vesting.sol:TokenVesting",
            "label": "adminRole",
            "offset": 0,
            "slot": "1",
            "type": "t_bytes32"
          }
        ],
        "numberOfBytes": "64"
      },
      "t_struct(Set)2271_storage": {
        "encoding": "inplace",
        "label": "struct EnumerableSet.Set",
        "members": [
          {
            "astId": 2266,
            "contract": "contracts/vesting.sol:TokenVesting",
            "label": "_values",
            "offset": 0,
            "slot": "0",
            "type": "t_array(t_bytes32)dyn_storage"
          },
          {
            "astId": 2270,
            "contract": "contracts/vesting.sol:TokenVesting",
            "label": "_indexes",
            "offset": 0,
            "slot": "1",
            "type": "t_mapping(t_bytes32,t_uint256)"
          }
        ],
        "numberOfBytes": "64"
      },
      "t_struct(SoloVesting)3305_storage": {
        "encoding": "inplace",
        "label": "struct TokenVesting.SoloVesting",
        "members": [
          {
            "astId": 3298,
            "contract": "contracts/vesting.sol:TokenVesting",
            "label": "vestingID",
            "offset": 0,
            "slot": "0",
            "type": "t_uint256"
          },
          {
            "astId": 3300,
            "contract": "contracts/vesting.sol:TokenVesting",
            "label": "beneficiary",
            "offset": 0,
            "slot": "1",
            "type": "t_address"
          },
          {
            "astId": 3302,
            "contract": "contracts/vesting.sol:TokenVesting",
            "label": "grantAmount",
            "offset": 0,
            "slot": "2",
            "type": "t_uint256"
          },
          {
            "astId": 3304,
            "contract": "contracts/vesting.sol:TokenVesting",
            "label": "withdrawAmount",
            "offset": 0,
            "slot": "3",
            "type": "t_uint256"
          }
        ],
        "numberOfBytes": "128"
      },
      "t_struct(VestingSched)3296_storage": {
        "encoding": "inplace",
        "label": "struct TokenVesting.VestingSched",
        "members": [
          {
            "astId": 3287,
            "contract": "contracts/vesting.sol:TokenVesting",
            "label": "id",
            "offset": 0,
            "slot": "0",
            "type": "t_uint256"
          },
          {
            "astId": 3289,
            "contract": "contracts/vesting.sol:TokenVesting",
            "label": "name",
            "offset": 0,
            "slot": "1",
            "type": "t_string_storage"
          },
          {
            "astId": 3291,
            "contract": "contracts/vesting.sol:TokenVesting",
            "label": "vestingTime",
            "offset": 0,
            "slot": "2",
            "type": "t_uint256"
          },
          {
            "astId": 3293,
            "contract": "contracts/vesting.sol:TokenVesting",
            "label": "grantAmount",
            "offset": 0,
            "slot": "3",
            "type": "t_uint256"
          },
          {
            "astId": 3295,
            "contract": "contracts/vesting.sol:TokenVesting",
            "label": "withdrawAmount",
            "offset": 0,
            "slot": "4",
            "type": "t_uint256"
          }
        ],
        "numberOfBytes": "160"
      },
      "t_uint256": {
        "encoding": "inplace",
        "label": "uint256",
        "numberOfBytes": "32"
      }
    }
  }
}