{
  "address": "0x5FbDB2315678afecb367f032d93F642f64180aa3",
  "abi": [
    {
      "inputs": [
        {
          "internalType": "string",
          "name": "name",
          "type": "string"
        },
        {
          "internalType": "string",
          "name": "symbol",
          "type": "string"
        },
        {
          "internalType": "uint256",
          "name": "cap_",
          "type": "uint256"
        }
      ],
      "stateMutability": "nonpayable",
      "type": "constructor"
    },
    {
      "inputs": [],
      "name": "InvalidShortString",
      "type": "error"
    },
    {
      "inputs": [
        {
          "internalType": "string",
          "name": "str",
          "type": "string"
        }
      ],
      "name": "StringTooLong",
      "type": "error"
    },
    {
      "anonymous": false,
      "inputs": [
        {
          "indexed": true,
          "internalType": "address",
          "name": "owner",
          "type": "address"
        },
        {
          "indexed": true,
          "internalType": "address",
          "name": "spender",
          "type": "address"
        },
        {
          "indexed": false,
          "internalType": "uint256",
          "name": "value",
          "type": "uint256"
        }
      ],
      "name": "Approval",
      "type": "event"
    },
    {
      "anonymous": false,
      "inputs": [],
      "name": "EIP712DomainChanged",
      "type": "event"
    },
    {
      "anonymous": false,
      "inputs": [
        {
          "indexed": false,
          "internalType": "address",
          "name": "account",
          "type": "address"
        }
      ],
      "name": "Paused",
      "type": "event"
    },
    {
      "anonymous": false,
      "inputs": [
        {
          "indexed": true,
          "internalType": "bytes32",
          "name": "role",
          "type": "bytes32"
        },
        {
          "indexed": true,
          "internalType": "bytes32",
          "name": "previousAdminRole",
          "type": "bytes32"
        },
        {
          "indexed": true,
          "internalType": "bytes32",
          "name": "newAdminRole",
          "type": "bytes32"
        }
      ],
      "name": "RoleAdminChanged",
      "type": "event"
    },
    {
      "anonymous": false,
      "inputs": [
        {
          "indexed": true,
          "internalType": "bytes32",
          "name": "role",
          "type": "bytes32"
        },
        {
          "indexed": true,
          "internalType": "address",
          "name": "account",
          "type": "address"
        },
        {
          "indexed": true,
          "internalType": "address",
          "name": "sender",
          "type": "address"
        }
      ],
      "name": "RoleGranted",
      "type": "event"
    },
    {
      "anonymous": false,
      "inputs": [
        {
          "indexed": true,
          "internalType": "bytes32",
          "name": "role",
          "type": "bytes32"
        },
        {
          "indexed": true,
          "internalType": "address",
          "name": "account",
          "type": "address"
        },
        {
          "indexed": true,
          "internalType": "address",
          "name": "sender",
          "type": "address"
        }
      ],
      "name": "RoleRevoked",
      "type": "event"
    },
    {
      "anonymous": false,
      "inputs": [
        {
          "indexed": true,
          "internalType": "address",
          "name": "from",
          "type": "address"
        },
        {
          "indexed": true,
          "internalType": "address",
          "name": "to",
          "type": "address"
        },
        {
          "indexed": false,
          "internalType": "uint256",
          "name": "value",
          "type": "uint256"
        }
      ],
      "name": "Transfer",
      "type": "event"
    },
    {
      "anonymous": false,
      "inputs": [
        {
          "indexed": false,
          "internalType": "address",
          "name": "account",
          "type": "address"
        }
      ],
      "name": "Unpaused",
      "type": "event"
    },
    {
      "inputs": [],
      "name": "ADMIN_ROLE",
      "outputs": [
        {
          "internalType": "bytes32",
          "name": "",
          "type": "bytes32"
        }
      ],
      "stateMutability": "view",
      "type": "function"
    },
    {
      "inputs": [],
      "name": "BLACKLISTER_ROLE",
      "outputs": [
        {
          "internalType": "bytes32",
          "name": "",
          "type": "bytes32"
        }
      ],
      "stateMutability": "view",
      "type": "function"
    },
    {
      "inputs": [],
      "name": "BURNER_ROLE",
      "outputs": [
        {
          "internalType": "bytes32",
          "name": "",
          "type": "bytes32"
        }
      ],
      "stateMutability": "view",
      "type": "function"
    },
    {
      "inputs": [],
      "name": "DEFAULT_ADMIN_ROLE",
      "outputs": [
        {
          "internalType": "bytes32",
          "name": "",
          "type": "bytes32"
        }
      ],
      "stateMutability": "view",
      "type": "function"
    },
    {
      "inputs": [],
      "name": "DOMAIN_SEPARATOR",
      "outputs": [
        {
          "internalType": "bytes32",
          "name": "",
          "type": "bytes32"
        }
      ],
      "stateMutability": "view",
      "type": "function"
    },
    {
      "inputs": [],
      "name": "GRANTER_ROLE",
      "outputs": [
        {
          "internalType": "bytes32",
          "name": "",
          "type": "bytes32"
        }
      ],
      "stateMutability": "view",
      "type": "function"
    },
    {
      "inputs": [],
      "name": "MINTER_ROLE",
      "outputs": [
        {
          "internalType": "bytes32",
          "name": "",
          "type": "bytes32"
        }
      ],
      "stateMutability": "view",
      "type": "function"
    },
    {
      "inputs": [
        {
          "internalType": "bytes32",
          "name": "role",
          "type": "bytes32"
        },
        {
          "internalType": "address",
          "name": "member",
          "type": "address"
        }
      ],
      "name": "addRoleMember",
      "outputs": [
        {
          "internalType": "bool",
          "name": "",
          "type": "bool"
        }
      ],
      "stateMutability": "nonpayable",
      "type": "function"
    },
    {
      "inputs": [
        {
          "internalType": "address",
          "name": "owner",
          "type": "address"
        },
        {
          "internalType": "address",
          "name": "spender",
          "type": "address"
        }
      ],
      "name": "allowance",
      "outputs": [
        {
          "internalType": "uint256",
          "name": "",
          "type": "uint256"
        }
      ],
      "stateMutability": "view",
      "type": "function"
    },
    {
      "inputs": [
        {
          "internalType": "address",
          "name": "spender",
          "type": "address"
        },
        {
          "internalType": "uint256",
          "name": "amount",
          "type": "uint256"
        }
      ],
      "name": "approve",
      "outputs": [
        {
          "internalType": "bool",
          "name": "",
          "type": "bool"
        }
      ],
      "stateMutability": "nonpayable",
      "type": "function"
    },
    {
      "inputs": [
        {
          "internalType": "address",
          "name": "account",
          "type": "address"
        }
      ],
      "name": "balanceOf",
      "outputs": [
        {
          "internalType": "uint256",
          "name": "",
          "type": "uint256"
        }
      ],
      "stateMutability": "view",
      "type": "function"
    },
    {
      "inputs": [
        {
          "internalType": "uint256",
          "name": "amount",
          "type": "uint256"
        }
      ],
      "name": "burn",
      "outputs": [],
      "stateMutability": "nonpayable",
      "type": "function"
    },
    {
      "inputs": [
        {
          "internalType": "address",
          "name": "account",
          "type": "address"
        },
        {
          "internalType": "uint256",
          "name": "amount",
          "type": "uint256"
        }
      ],
      "name": "burnFrom",
      "outputs": [],
      "stateMutability": "nonpayable",
      "type": "function"
    },
    {
      "inputs": [],
      "name": "cap",
      "outputs": [
        {
          "internalType": "uint256",
          "name": "",
          "type": "uint256"
        }
      ],
      "stateMutability": "view",
      "type": "function"
    },
    {
      "inputs": [],
      "name": "decimals",
      "outputs": [
        {
          "internalType": "uint8",
          "name": "",
          "type": "uint8"
        }
      ],
      "stateMutability": "view",
      "type": "function"
    },
    {
      "inputs": [
        {
          "internalType": "address",
          "name": "spender",
          "type": "address"
        },
        {
          "internalType": "uint256",
          "name": "subtractedValue",
          "type": "uint256"
        }
      ],
      "name": "decreaseAllowance",
      "outputs": [
        {
          "internalType": "bool",
          "name": "",
          "type": "bool"
        }
      ],
      "stateMutability": "nonpayable",
      "type": "function"
    },
    {
      "inputs": [
        {
          "internalType": "address",
          "name": "account",
          "type": "address"
        }
      ],
      "name": "defrost",
      "outputs": [],
      "stateMutability": "nonpayable",
      "type": "function"
    },
    {
      "inputs": [],
      "name": "eip712Domain",
      "outputs": [
        {
          "internalType": "bytes1",
          "name": "fields",
          "type": "bytes1"
        },
        {
          "internalType": "string",
          "name": "name",
          "type": "string"
        },
        {
          "internalType": "string",
          "name": "version",
          "type": "string"
        },
        {
          "internalType": "uint256",
          "name": "chainId",
          "type": "uint256"
        },
        {
          "internalType": "address",
          "name": "verifyingContract",
          "type": "address"
        },
        {
          "internalType": "bytes32",
          "name": "salt",
          "type": "bytes32"
        },
        {
          "internalType": "uint256[]",
          "name": "extensions",
          "type": "uint256[]"
        }
      ],
      "stateMutability": "view",
      "type": "function"
    },
    {
      "inputs": [
        {
          "internalType": "address",
          "name": "account",
          "type": "address"
        }
      ],
      "name": "freeze",
      "outputs": [],
      "stateMutability": "nonpayable",
      "type": "function"
    },
    {
      "inputs": [
        {
          "internalType": "bytes32",
          "name": "role",
          "type": "bytes32"
        }
      ],
      "name": "getRoleAdmin",
      "outputs": [
        {
          "internalType": "bytes32",
          "name": "",
          "type": "bytes32"
        }
      ],
      "stateMutability": "view",
      "type": "function"
    },
    {
      "inputs": [
        {
          "internalType": "bytes32",
          "name": "role",
          "type": "bytes32"
        },
        {
          "internalType": "uint256",
          "name": "index",
          "type": "uint256"
        }
      ],
      "name": "getRoleMember",
      "outputs": [
        {
          "internalType": "address",
          "name": "",
          "type": "address"
        }
      ],
      "stateMutability": "view",
      "type": "function"
    },
    {
      "inputs": [
        {
          "internalType": "bytes32",
          "name": "role",
          "type": "bytes32"
        }
      ],
      "name": "getRoleMemberCount",
      "outputs": [
        {
          "internalType": "uint256",
          "name": "",
          "type": "uint256"
        }
      ],
      "stateMutability": "view",
      "type": "function"
    },
    {
      "inputs": [
        {
          "internalType": "bytes32",
          "name": "role",
          "type": "bytes32"
        }
      ],
      "name": "getRoleMembers",
      "outputs": [
        {
          "internalType": "address[]",
          "name": "",
          "type": "address[]"
        }
      ],
      "stateMutability": "view",
      "type": "function"
    },
    {
      "inputs": [],
      "name": "getRoles",
      "outputs": [
        {
          "components": [
            {
              "internalType": "bytes32",
              "name": "role",
              "type": "bytes32"
            },
            {
              "internalType": "string",
              "name": "describe",
              "type": "string"
            }
          ],
          "internalType": "struct RoleAccess.Role[]",
          "name": "",
          "type": "tuple[]"
        }
      ],
      "stateMutability": "pure",
      "type": "function"
    },
    {
      "inputs": [
        {
          "internalType": "address",
          "name": "blacklister",
          "type": "address"
        }
      ],
      "name": "grantBlacklister",
      "outputs": [
        {
          "internalType": "bool",
          "name": "",
          "type": "bool"
        }
      ],
      "stateMutability": "nonpayable",
      "type": "function"
    },
    {
      "inputs": [
        {
          "internalType": "address",
          "name": "burner",
          "type": "address"
        }
      ],
      "name": "grantBurner",
      "outputs": [
        {
          "internalType": "bool",
          "name": "",
          "type": "bool"
        }
      ],
      "stateMutability": "nonpayable",
      "type": "function"
    },
    {
      "inputs": [
        {
          "internalType": "address",
          "name": "granter",
          "type": "address"
        }
      ],
      "name": "grantGranter",
      "outputs": [
        {
          "internalType": "bool",
          "name": "",
          "type": "bool"
        }
      ],
      "stateMutability": "nonpayable",
      "type": "function"
    },
    {
      "inputs": [
        {
          "internalType": "address",
          "name": "minter",
          "type": "address"
        }
      ],
      "name": "grantMinter",
      "outputs": [
        {
          "internalType": "bool",
          "name": "",
          "type": "bool"
        }
      ],
      "stateMutability": "nonpayable",
      "type": "function"
    },
    {
      "inputs": [
        {
          "internalType": "bytes32",
          "name": "role",
          "type": "bytes32"
        },
        {
          "internalType": "address",
          "name": "account",
          "type": "address"
        }
      ],
      "name": "grantRole",
      "outputs": [],
      "stateMutability": "nonpayable",
      "type": "function"
    },
    {
      "inputs": [
        {
          "internalType": "bytes32",
          "name": "role",
          "type": "bytes32"
        },
        {
          "internalType": "address",
          "name": "account",
          "type": "address"
        }
      ],
      "name": "hasRole",
      "outputs": [
        {
          "internalType": "bool",
          "name": "",
          "type": "bool"
        }
      ],
      "stateMutability": "view",
      "type": "function"
    },
    {
      "inputs": [
        {
          "internalType": "address",
          "name": "spender",
          "type": "address"
        },
        {
          "internalType": "uint256",
          "name": "addedValue",
          "type": "uint256"
        }
      ],
      "name": "increaseAllowance",
      "outputs": [
        {
          "internalType": "bool",
          "name": "",
          "type": "bool"
        }
      ],
      "stateMutability": "nonpayable",
      "type": "function"
    },
    {
      "inputs": [
        {
          "internalType": "address",
          "name": "account",
          "type": "address"
        },
        {
          "internalType": "uint256",
          "name": "amount",
          "type": "uint256"
        }
      ],
      "name": "mint",
      "outputs": [],
      "stateMutability": "nonpayable",
      "type": "function"
    },
    {
      "inputs": [],
      "name": "name",
      "outputs": [
        {
          "internalType": "string",
          "name": "",
          "type": "string"
        }
      ],
      "stateMutability": "view",
      "type": "function"
    },
    {
      "inputs": [
        {
          "internalType": "address",
          "name": "owner",
          "type": "address"
        }
      ],
      "name": "nonces",
      "outputs": [
        {
          "internalType": "uint256",
          "name": "",
          "type": "uint256"
        }
      ],
      "stateMutability": "view",
      "type": "function"
    },
    {
      "inputs": [],
      "name": "pause",
      "outputs": [],
      "stateMutability": "nonpayable",
      "type": "function"
    },
    {
      "inputs": [],
      "name": "paused",
      "outputs": [
        {
          "internalType": "bool",
          "name": "",
          "type": "bool"
        }
      ],
      "stateMutability": "view",
      "type": "function"
    },
    {
      "inputs": [
        {
          "internalType": "address",
          "name": "owner",
          "type": "address"
        },
        {
          "internalType": "address",
          "name": "spender",
          "type": "address"
        },
        {
          "internalType": "uint256",
          "name": "value",
          "type": "uint256"
        },
        {
          "internalType": "uint256",
          "name": "deadline",
          "type": "uint256"
        },
        {
          "internalType": "uint8",
          "name": "v",
          "type": "uint8"
        },
        {
          "internalType": "bytes32",
          "name": "r",
          "type": "bytes32"
        },
        {
          "internalType": "bytes32",
          "name": "s",
          "type": "bytes32"
        }
      ],
      "name": "permit",
      "outputs": [],
      "stateMutability": "nonpayable",
      "type": "function"
    },
    {
      "inputs": [
        {
          "internalType": "bytes32",
          "name": "role",
          "type": "bytes32"
        },
        {
          "internalType": "address",
          "name": "member",
          "type": "address"
        }
      ],
      "name": "removeRoleMember",
      "outputs": [
        {
          "internalType": "bool",
          "name": "",
          "type": "bool"
        }
      ],
      "stateMutability": "nonpayable",
      "type": "function"
    },
    {
      "inputs": [
        {
          "internalType": "bytes32",
          "name": "role",
          "type": "bytes32"
        },
        {
          "internalType": "address",
          "name": "account",
          "type": "address"
        }
      ],
      "name": "renounceRole",
      "outputs": [],
      "stateMutability": "nonpayable",
      "type": "function"
    },
    {
      "inputs": [
        {
          "internalType": "address",
          "name": "blacklister",
          "type": "address"
        }
      ],
      "name": "revokeBlacklister",
      "outputs": [
        {
          "internalType": "bool",
          "name": "",
          "type": "bool"
        }
      ],
      "stateMutability": "nonpayable",
      "type": "function"
    },
    {
      "inputs": [
        {
          "internalType": "address",
          "name": "burner",
          "type": "address"
        }
      ],
      "name": "revokeBurner",
      "outputs": [
        {
          "internalType": "bool",
          "name": "",
          "type": "bool"
        }
      ],
      "stateMutability": "nonpayable",
      "type": "function"
    },
    {
      "inputs": [
        {
          "internalType": "address",
          "name": "granter",
          "type": "address"
        }
      ],
      "name": "revokeGranter",
      "outputs": [
        {
          "internalType": "bool",
          "name": "",
          "type": "bool"
        }
      ],
      "stateMutability": "nonpayable",
      "type": "function"
    },
    {
      "inputs": [
        {
          "internalType": "address",
          "name": "minter",
          "type": "address"
        }
      ],
      "name": "revokeMinter",
      "outputs": [
        {
          "internalType": "bool",
          "name": "",
          "type": "bool"
        }
      ],
      "stateMutability": "nonpayable",
      "type": "function"
    },
    {
      "inputs": [
        {
          "internalType": "bytes32",
          "name": "role",
          "type": "bytes32"
        },
        {
          "internalType": "address",
          "name": "account",
          "type": "address"
        }
      ],
      "name": "revokeRole",
      "outputs": [],
      "stateMutability": "nonpayable",
      "type": "function"
    },
    {
      "inputs": [
        {
          "internalType": "uint256",
          "name": "cap_",
          "type": "uint256"
        }
      ],
      "name": "setCap",
      "outputs": [
        {
          "internalType": "uint256",
          "name": "",
          "type": "uint256"
        }
      ],
      "stateMutability": "nonpayable",
      "type": "function"
    },
    {
      "inputs": [
        {
          "internalType": "bytes4",
          "name": "interfaceId",
          "type": "bytes4"
        }
      ],
      "name": "supportsInterface",
      "outputs": [
        {
          "internalType": "bool",
          "name": "",
          "type": "bool"
        }
      ],
      "stateMutability": "view",
      "type": "function"
    },
    {
      "inputs": [],
      "name": "symbol",
      "outputs": [
        {
          "internalType": "string",
          "name": "",
          "type": "string"
        }
      ],
      "stateMutability": "view",
      "type": "function"
    },
    {
      "inputs": [],
      "name": "totalSupply",
      "outputs": [
        {
          "internalType": "uint256",
          "name": "",
          "type": "uint256"
        }
      ],
      "stateMutability": "view",
      "type": "function"
    },
    {
      "inputs": [
        {
          "internalType": "address",
          "name": "to",
          "type": "address"
        },
        {
          "internalType": "uint256",
          "name": "amount",
          "type": "uint256"
        }
      ],
      "name": "transfer",
      "outputs": [
        {
          "internalType": "bool",
          "name": "",
          "type": "bool"
        }
      ],
      "stateMutability": "nonpayable",
      "type": "function"
    },
    {
      "inputs": [
        {
          "internalType": "address",
          "name": "from",
          "type": "address"
        },
        {
          "internalType": "address",
          "name": "to",
          "type": "address"
        },
        {
          "internalType": "uint256",
          "name": "amount",
          "type": "uint256"
        }
      ],
      "name": "transferFrom",
      "outputs": [
        {
          "internalType": "bool",
          "name": "",
          "type": "bool"
        }
      ],
      "stateMutability": "nonpayable",
      "type": "function"
    },
    {
      "inputs": [],
      "name": "unpause",
      "outputs": [],
      "stateMutability": "nonpayable",
      "type": "function"
    }
  ],
  "transactionHash": "0xff3e8f132b57b2536167a028f399c67ea562512442e7ac5a20aca6c4f669a664",
  "args": [
    "Obosky Token",
    "OBO",
    "1000000000000000000000000000"
  ],
  "numDeployments": 1,
  "solcInputHash": "9c18516532ea9792cf7a5ef88777a5a0",
  "bytecode": "0x6101606040523480156200001257600080fd5b50604051620036af380380620036af8339810160408190526200003591620005d7565b6040805180820190915260018152603160f81b6020808301919091526000805460ff1916905584518592839290918391879162000079916006919085019062000457565b5080516200008f90600790602084019062000457565b505050620000ad6008836200027260201b620016801790919060201c565b61012052620000ca81600962000272602090811b6200168017901c565b61014052815160208084019190912060e052815190820120610100524660a0526200015860e05161010051604080517f8b73c3c69bb8fe3d512ecc4cf759cc79239f7b179b0ffacaa9a75d522b39400f60208201529081019290925260608201524660808201523060a082015260009060c00160405160208183030381529060405280519060200120905090565b60805250503060c0525080620001a75760405162461bcd60e51b815260206004820152600f60248201526e045524332303a20636170206973203608c1b60448201526064015b60405180910390fd5b600c819055620001b9600033620002c6565b620001e57fa49807205ce4d355092ef5a8a18f56e8913cf4a201fbe287825b095693c2177533620002c6565b620002117f9f2df0fed2c77648de5860a4cc508cd0818c85b8b8a1ab4ceeef8d981c8956a633620002c6565b6200023d7f3c11d16cbaffd01df69ce1c404f6340ee057498f5f00246190ea54220576a84833620002c6565b620002697f98db8a220cd0f09badce9f22d0ba7e93edb3d404448cc3560d391ab096ad16e933620002c6565b505050620006de565b600060208351101562000292576200028a83620002d6565b9050620002c0565b82620002a9836200031960201b620016b71760201c565b8151620002ba926020019062000457565b5060ff90505b92915050565b620002d282826200031c565b5050565b600080829050601f8151111562000304578260405163305a27a960e01b81526004016200019e91906200064a565b805162000311826200067f565b179392505050565b90565b6200033382826200035f60201b620016ba1760201c565b60008281526002602090815260409091206200035a91839062001725620003e7821b17901c565b505050565b60008281526001602090815260408083206001600160a01b038516845290915290205460ff16620002d25760008281526001602081815260408084206001600160a01b0386168086529252808420805460ff19169093179092559051339285917f2f8788117e7eff1d82e926ec794901d17c78024a50270940304540a733656f0d9190a45050565b6000620003fe836001600160a01b03841662000405565b9392505050565b60008181526001830160205260408120546200044e57508154600181810184556000848152602080822090930184905584548482528286019093526040902091909155620002c0565b506000620002c0565b8280546200046590620006a7565b90600052602060002090601f016020900481019282620004895760008555620004d4565b82601f10620004a457805160ff1916838001178555620004d4565b82800160010185558215620004d4579182015b82811115620004d4578251825591602001919060010190620004b7565b50620004e2929150620004e6565b5090565b5b80821115620004e25760008155600101620004e7565b634e487b7160e01b600052604160045260246000fd5b60005b838110156200053057818101518382015260200162000516565b8381111562000540576000848401525b50505050565b600082601f8301126200055857600080fd5b81516001600160401b0380821115620005755762000575620004fd565b604051601f8301601f19908116603f01168101908282118183101715620005a057620005a0620004fd565b81604052838152866020858801011115620005ba57600080fd5b620005cd84602083016020890162000513565b9695505050505050565b600080600060608486031215620005ed57600080fd5b83516001600160401b03808211156200060557600080fd5b620006138783880162000546565b945060208601519150808211156200062a57600080fd5b50620006398682870162000546565b925050604084015190509250925092565b60208152600082518060208401526200066b81604085016020870162000513565b601f01601f19169190910160400192915050565b80516020808301519190811015620006a1576000198160200360031b1b821691505b50919050565b600181811c90821680620006bc57607f821691505b60208210811415620006a157634e487b7160e01b600052602260045260246000fd5b60805160a05160c05160e051610100516101205161014051612f7662000739600039600061108e0152600061106301526000611bc901526000611ba101526000611afc01526000611b2601526000611b500152612f766000f3fe608060405234801561001057600080fd5b50600436106102f15760003560e01c8063710613981161019d578063a457c2d7116100e9578063d505accf116100a2578063dd62ed3e1161007c578063dd62ed3e14610699578063e5071bc1146106ac578063f515e6f2146106bf578063f94c0a11146106d457600080fd5b8063d505accf1461065e578063d539139314610671578063d547741f1461068657600080fd5b8063a457c2d7146105ec578063a9059cbb146105ff578063b55467ae14610612578063b6b5b72114610625578063ca15c87314610638578063cfbd48851461064b57600080fd5b806389fecd001161015657806391d148541161013057806391d14854146105a957806395d89b41146105bc578063a217fddf146105c4578063a3246ad3146105cc57600080fd5b806389fecd00146105585780638d1fdf2f1461056b5780639010d07c1461057e57600080fd5b806371061398146104e557806375b238fc146104fa57806379cc67901461050f5780637ecebe00146105225780638456cb591461053557806384b0196e1461053d57600080fd5b8063313ce5671161025c57806340c10f19116102155780634dd8fac8116101ef5780634dd8fac81461048b5780635c975abb1461049e5780636568df03146104a957806370a08231146104bc57600080fd5b806340c10f191461045257806342966c681461046557806347786d371461047857600080fd5b8063313ce56714610405578063355274ea146104145780633644e5151461041c57806336568abe1461042457806339509351146104375780633f4ba83a1461044a57600080fd5b80631b65471f116102ae5780631b65471f1461037e57806323b872dd14610391578063248a9ca3146103a4578063261707fa146103c8578063282c51f3146103db5780632f2ff15d146103f057600080fd5b806301ffc9a7146102f657806306fdde031461031e5780630900cc3314610333578063095ea7b31461034657806310511f961461035957806318160ddd1461036c575b600080fd5b61030961030436600461292d565b6106e9565b60405190151581526020015b60405180910390f35b610326610714565b60405161031591906129af565b6103096103413660046129d9565b6107a6565b6103096103543660046129f4565b610806565b6103096103673660046129d9565b61081e565b6005545b604051908152602001610315565b61030961038c366004612a1e565b61086c565b61030961039f366004612a4a565b6108b5565b6103706103b2366004612a86565b6000908152600160208190526040909120015490565b6103096103d63660046129d9565b6108d9565b610370600080516020612ea183398151915281565b6104036103fe366004612a1e565b610923565b005b60405160128152602001610315565b600c54610370565b61037061094e565b610403610432366004612a1e565b61095d565b6103096104453660046129f4565b6109db565b6104036109fd565b6104036104603660046129f4565b610a3b565b610403610473366004612a86565b610b0f565b610370610486366004612a86565b610b80565b610309610499366004612a1e565b610c6c565b60005460ff16610309565b6103096104b73660046129d9565b610cbb565b6103706104ca3660046129d9565b6001600160a01b031660009081526003602052604090205490565b6104ed610d09565b6040516103159190612a9f565b610370600080516020612f2183398151915281565b61040361051d3660046129f4565b610f8c565b6103706105303660046129d9565b610ffb565b610403611019565b610545611055565b6040516103159796959493929190612b13565b6104036105663660046129d9565b6110de565b6104036105793660046129d9565b611163565b61059161058c366004612ba9565b6111eb565b6040516001600160a01b039091168152602001610315565b6103096105b7366004612a1e565b61120a565b610326611235565b610370600081565b6105df6105da366004612a86565b611244565b6040516103159190612bcb565b6103096105fa3660046129f4565b6112f3565b61030961060d3660046129f4565b61136e565b6103096106203660046129d9565b61137c565b6103096106333660046129d9565b6113ca565b610370610646366004612a86565b611418565b6103096106593660046129d9565b61142f565b61040361066c366004612c18565b61147d565b610370600080516020612ee183398151915281565b610403610694366004612a1e565b6115e1565b6103706106a7366004612c8b565b611607565b6103096106ba3660046129d9565b611632565b610370600080516020612f0183398151915281565b610370600080516020612ec183398151915281565b60006001600160e01b03198216635a05180f60e01b148061070e575061070e8261173a565b92915050565b60606006805461072390612cb5565b80601f016020809104026020016040519081016040528092919081815260200182805461074f90612cb5565b801561079c5780601f106107715761010080835404028352916020019161079c565b820191906000526020600020905b81548152906001019060200180831161077f57829003601f168201915b5050505050905090565b60006107c0600080516020612f218339815191523361120a565b6107e55760405162461bcd60e51b81526004016107dc90612cea565b60405180910390fd5b6107fd600080516020612ea1833981519152836115e1565b5060015b919050565b60003361081481858561176f565b5060019392505050565b6000610838600080516020612f218339815191523361120a565b6108545760405162461bcd60e51b81526004016107dc90612cea565b6107fd600080516020612ea183398151915283610923565b6000610886600080516020612f218339815191523361120a565b6108a25760405162461bcd60e51b81526004016107dc90612cea565b6108ac8383610923565b50600192915050565b6000336108c3858285611893565b6108ce85858561190d565b506001949350505050565b60006108f3600080516020612f218339815191523361120a565b61090f5760405162461bcd60e51b81526004016107dc90612cea565b6107fd600080516020612ee1833981519152835b6000828152600160208190526040909120015461093f81611ac3565b6109498383611acd565b505050565b6000610958611aef565b905090565b6001600160a01b03811633146109cd5760405162461bcd60e51b815260206004820152602f60248201527f416363657373436f6e74726f6c3a2063616e206f6e6c792072656e6f756e636560448201526e103937b632b9903337b91039b2b63360891b60648201526084016107dc565b6109d78282611c1a565b5050565b6000336108148185856109ee8383611607565b6109f89190612d2f565b61176f565b610a15600080516020612f218339815191523361120a565b610a315760405162461bcd60e51b81526004016107dc90612cea565b610a39611c3c565b565b610a53600080516020612ee18339815191523361120a565b610a985760405162461bcd60e51b815260206004820152601660248201527521b0b63632b91034b9903737ba10309036b4b73a32b960511b60448201526064016107dc565b610aa0611c8e565b600c5481610aad60055490565b610ab79190612d2f565b1115610b055760405162461bcd60e51b815260206004820152601960248201527f45524332304361707065643a206361702065786365656465640000000000000060448201526064016107dc565b6109d78282611cd4565b610b27600080516020612ea18339815191523361120a565b610b6c5760405162461bcd60e51b815260206004820152601660248201527521b0b63632b91034b9903737ba103090313ab93732b960511b60448201526064016107dc565b610b74611c8e565b610b7d81611da1565b50565b6000610b9a600080516020612f218339815191523361120a565b610bb65760405162461bcd60e51b81526004016107dc90612cea565b60008211610bf85760405162461bcd60e51b815260206004820152600f60248201526e045524332303a20636170206973203608c1b60448201526064016107dc565b6005548211610c635760405162461bcd60e51b815260206004820152603160248201527f45524332303a206e6577206361702073686f756c64206265206c6172676572206044820152707468616e20746f74616c20737570706c7960781b60648201526084016107dc565b50600c81905590565b6000610c86600080516020612f218339815191523361120a565b610ca25760405162461bcd60e51b81526004016107dc90612cea565b610cac838361120a565b156108ac576108ac83836115e1565b6000610cd5600080516020612f218339815191523361120a565b610cf15760405162461bcd60e51b81526004016107dc90612cea565b6107fd600080516020612ec183398151915283610923565b60408051600580825260c0820190925260609160009190816020015b604080518082019091526000815260606020820152815260200190600190039081610d255790505090506040518060400160405280600080516020612f2183398151915281526020016040518060400160405280601681526020017518591b5a5b88199bdc881d1a194818dbdb9d1c9858dd60521b81525081525081600081518110610db357610db3612d5d565b60200260200101819052506040518060400160405280600080516020612ee183398151915281526020016040518060400160405280601981526020017f6d696e7465722063616e206d696e74206e657720636f696e730000000000000081525081525081600181518110610e2957610e29612d5d565b60200260200101819052506040518060400160405280600080516020612ea18339815191528152602001604051806040016040528060158152602001746275726e65722063616e206275726e20636f696e7360581b81525081525081600281518110610e9757610e97612d5d565b60200260200101819052506040518060400160405280600080516020612ec18339815191528152602001604051806040016040528060168152602001756772616e7465722063616e206275726e20636f696e7360501b81525081525081600381518110610f0657610f06612d5d565b60200260200101819052506040518060400160405280600080516020612f0183398151915281526020016040518060400160405280602081526020017f626c61636b6c69737465722063616e2075706461746520626c61636b6c69737481525081525081600481518110610f7c57610f7c612d5d565b6020908102919091010152919050565b610fa4600080516020612ea18339815191523361120a565b610fe95760405162461bcd60e51b815260206004820152601660248201527521b0b63632b91034b9903737ba103090313ab93732b960511b60448201526064016107dc565b610ff1611c8e565b6109d78282611dab565b6001600160a01b0381166000908152600a602052604081205461070e565b611031600080516020612f218339815191523361120a565b61104d5760405162461bcd60e51b81526004016107dc90612cea565b610a39611dc0565b6000606080828080836110897f00000000000000000000000000000000000000000000000000000000000000006008611dfd565b6110b47f00000000000000000000000000000000000000000000000000000000000000006009611dfd565b60408051600080825260208201909252600f60f81b9b939a50919850469750309650945092509050565b6110f6600080516020612f018339815191523361120a565b6111425760405162461bcd60e51b815260206004820152601b60248201527f43616c6c6572206973206e6f74206120626c61636b6c6973746572000000000060448201526064016107dc565b6001600160a01b03166000908152600d60205260409020805460ff19169055565b61117b600080516020612f018339815191523361120a565b6111c75760405162461bcd60e51b815260206004820152601b60248201527f43616c6c6572206973206e6f74206120626c61636b6c6973746572000000000060448201526064016107dc565b6001600160a01b03166000908152600d60205260409020805460ff19166001179055565b60008281526002602052604081206112039083611ea1565b9392505050565b60009182526001602090815260408084206001600160a01b0393909316845291905290205460ff1690565b60606007805461072390612cb5565b6060600061125183611418565b905060008167ffffffffffffffff81111561126e5761126e612d47565b604051908082528060200260200182016040528015611297578160200160208202803683370190505b50905060005b828110156112eb576112af85826111eb565b8282815181106112c1576112c1612d5d565b6001600160a01b0390921660209283029190910190910152806112e381612d73565b91505061129d565b509392505050565b600033816113018286611607565b9050838110156113615760405162461bcd60e51b815260206004820152602560248201527f45524332303a2064656372656173656420616c6c6f77616e63652062656c6f77604482015264207a65726f60d81b60648201526084016107dc565b6108ce828686840361176f565b60003361081481858561190d565b6000611396600080516020612f218339815191523361120a565b6113b25760405162461bcd60e51b81526004016107dc90612cea565b6107fd600080516020612f01833981519152836115e1565b60006113e4600080516020612f218339815191523361120a565b6114005760405162461bcd60e51b81526004016107dc90612cea565b6107fd600080516020612ec1833981519152836115e1565b600081815260026020526040812061070e90611ead565b6000611449600080516020612f218339815191523361120a565b6114655760405162461bcd60e51b81526004016107dc90612cea565b6107fd600080516020612ee1833981519152836115e1565b834211156114cd5760405162461bcd60e51b815260206004820152601d60248201527f45524332305065726d69743a206578706972656420646561646c696e6500000060448201526064016107dc565b60007f6e71edae12b1b97f4d1f60370fef10105fa2faae0126114a169c64845d6126c98888886114fc8c611eb7565b6040805160208101969096526001600160a01b0394851690860152929091166060840152608083015260a082015260c0810186905260e001604051602081830303815290604052805190602001209050600061155782611edf565b9050600061156782878787611f0c565b9050896001600160a01b0316816001600160a01b0316146115ca5760405162461bcd60e51b815260206004820152601e60248201527f45524332305065726d69743a20696e76616c6964207369676e6174757265000060448201526064016107dc565b6115d58a8a8a61176f565b50505050505050505050565b600082815260016020819052604090912001546115fd81611ac3565b6109498383611c1a565b6001600160a01b03918216600090815260046020908152604080832093909416825291909152205490565b600061164c600080516020612f218339815191523361120a565b6116685760405162461bcd60e51b81526004016107dc90612cea565b6107fd600080516020612f0183398151915283610923565b600060208351101561169c5761169583611f34565b905061070e565b828281516116ad9260200190612894565b5060ff905061070e565b90565b6116c4828261120a565b6109d75760008281526001602081815260408084206001600160a01b0386168086529252808420805460ff19169093179092559051339285917f2f8788117e7eff1d82e926ec794901d17c78024a50270940304540a733656f0d9190a45050565b6000611203836001600160a01b038416611f72565b60006001600160e01b03198216637965db0b60e01b148061070e57506301ffc9a760e01b6001600160e01b031983161461070e565b6001600160a01b0383166117d15760405162461bcd60e51b8152602060048201526024808201527f45524332303a20617070726f76652066726f6d20746865207a65726f206164646044820152637265737360e01b60648201526084016107dc565b6001600160a01b0382166118325760405162461bcd60e51b815260206004820152602260248201527f45524332303a20617070726f766520746f20746865207a65726f206164647265604482015261737360f01b60648201526084016107dc565b6001600160a01b0383811660008181526004602090815260408083209487168084529482529182902085905590518481527f8c5be1e5ebec7d5bd14f71427d1e84f3dd0314c0f7b2291e5b200ac8c7c3b925910160405180910390a3505050565b600061189f8484611607565b9050600019811461190757818110156118fa5760405162461bcd60e51b815260206004820152601d60248201527f45524332303a20696e73756666696369656e7420616c6c6f77616e636500000060448201526064016107dc565b611907848484840361176f565b50505050565b6001600160a01b0383166119715760405162461bcd60e51b815260206004820152602560248201527f45524332303a207472616e736665722066726f6d20746865207a65726f206164604482015264647265737360d81b60648201526084016107dc565b6001600160a01b0382166119d35760405162461bcd60e51b815260206004820152602360248201527f45524332303a207472616e7366657220746f20746865207a65726f206164647260448201526265737360e81b60648201526084016107dc565b6119de838383611fc1565b6001600160a01b03831660009081526003602052604090205481811015611a565760405162461bcd60e51b815260206004820152602660248201527f45524332303a207472616e7366657220616d6f756e7420657863656564732062604482015265616c616e636560d01b60648201526084016107dc565b6001600160a01b0380851660008181526003602052604080822086860390559286168082529083902080548601905591517fddf252ad1be2c89b69c2b068fc378daa952ba7f163c4a11628f55a4df523b3ef90611ab69086815260200190565b60405180910390a3611907565b610b7d81336120f2565b611ad782826116ba565b60008281526002602052604090206109499082611725565b6000306001600160a01b037f000000000000000000000000000000000000000000000000000000000000000016148015611b4857507f000000000000000000000000000000000000000000000000000000000000000046145b15611b7257507f000000000000000000000000000000000000000000000000000000000000000090565b610958604080517f8b73c3c69bb8fe3d512ecc4cf759cc79239f7b179b0ffacaa9a75d522b39400f60208201527f0000000000000000000000000000000000000000000000000000000000000000918101919091527f000000000000000000000000000000000000000000000000000000000000000060608201524660808201523060a082015260009060c00160405160208183030381529060405280519060200120905090565b611c24828261214b565b600082815260026020526040902061094990826121b2565b611c446121c7565b6000805460ff191690557f5db9ee0a495bf2e6ff9c91a7834c1ba4fdd244a5e8aa4e537bd38aeae4b073aa335b6040516001600160a01b03909116815260200160405180910390a1565b60005460ff1615610a395760405162461bcd60e51b815260206004820152601060248201526f14185d5cd8589b194e881c185d5cd95960821b60448201526064016107dc565b6001600160a01b038216611d2a5760405162461bcd60e51b815260206004820152601f60248201527f45524332303a206d696e7420746f20746865207a65726f20616464726573730060448201526064016107dc565b611d3660008383611fc1565b8060056000828254611d489190612d2f565b90915550506001600160a01b0382166000818152600360209081526040808320805486019055518481527fddf252ad1be2c89b69c2b068fc378daa952ba7f163c4a11628f55a4df523b3ef910160405180910390a35050565b610b7d3382612210565b611db6823383611893565b6109d78282612210565b611dc8611c8e565b6000805460ff191660011790557f62e78cea01bee320cd4e420270b5ea74000d11b0c9f74754ebdbfc544b05a258611c713390565b606060ff8314611e105761169583612350565b818054611e1c90612cb5565b80601f0160208091040260200160405190810160405280929190818152602001828054611e4890612cb5565b8015611e955780601f10611e6a57610100808354040283529160200191611e95565b820191906000526020600020905b815481529060010190602001808311611e7857829003601f168201915b5050505050905061070e565b6000611203838361238f565b600061070e825490565b6001600160a01b0381166000908152600a602052604090208054600181018255905b50919050565b600061070e611eec611aef565b8360405161190160f01b8152600281019290925260228201526042902090565b6000806000611f1d878787876123b9565b91509150611f2a8161247d565b5095945050505050565b600080829050601f81511115611f5f578260405163305a27a960e01b81526004016107dc91906129af565b8051611f6a82612d8e565b179392505050565b6000818152600183016020526040812054611fb95750815460018181018455600084815260208082209093018490558454848252828601909352604090209190915561070e565b50600061070e565b60005460ff16156120285760405162461bcd60e51b815260206004820152602b60248201527f4552433230205061757361626c653a20746f6b656e207472616e73666572207760448201526a1a1a5b19481c185d5cd95960aa1b60648201526084016107dc565b6001600160a01b0383166000908152600d602052604090205460ff16156120895760405162461bcd60e51b815260206004820152601560248201527429b7bab931b29030b1b1b7bab73a10333937bd32b760591b60448201526064016107dc565b6001600160a01b0382166000908152600d602052604090205460ff16156109495760405162461bcd60e51b815260206004820152601a60248201527f44657374696e6174696f6e206163636f756e742066726f7a656e00000000000060448201526064016107dc565b6120fc828261120a565b6109d757612109816125cb565b6121148360206125dd565b604051602001612125929190612db2565b60408051601f198184030181529082905262461bcd60e51b82526107dc916004016129af565b612155828261120a565b156109d75760008281526001602090815260408083206001600160a01b0385168085529252808320805460ff1916905551339285917ff6391f5c32d9c69d2a47ea670b442974b53935d1edc7fd64eb21e047a839171b9190a45050565b6000611203836001600160a01b038416612779565b60005460ff16610a395760405162461bcd60e51b815260206004820152601460248201527314185d5cd8589b194e881b9bdd081c185d5cd95960621b60448201526064016107dc565b6001600160a01b0382166122705760405162461bcd60e51b815260206004820152602160248201527f45524332303a206275726e2066726f6d20746865207a65726f206164647265736044820152607360f81b60648201526084016107dc565b61227c82600083611fc1565b6001600160a01b038216600090815260036020526040902054818110156122f05760405162461bcd60e51b815260206004820152602260248201527f45524332303a206275726e20616d6f756e7420657863656564732062616c616e604482015261636560f01b60648201526084016107dc565b6001600160a01b03831660008181526003602090815260408083208686039055600580548790039055518581529192917fddf252ad1be2c89b69c2b068fc378daa952ba7f163c4a11628f55a4df523b3ef910160405180910390a3505050565b6060600061235d8361286c565b604080516020808252818301909252919250600091906020820181803683375050509182525060208101929092525090565b60008260000182815481106123a6576123a6612d5d565b9060005260206000200154905092915050565b6000807f7fffffffffffffffffffffffffffffff5d576e7357a4501ddfe92f46681b20a08311156123f05750600090506003612474565b6040805160008082526020820180845289905260ff881692820192909252606081018690526080810185905260019060a0016020604051602081039080840390855afa158015612444573d6000803e3d6000fd5b5050604051601f1901519150506001600160a01b03811661246d57600060019250925050612474565b9150600090505b94509492505050565b600081600481111561249157612491612e27565b141561249a5750565b60018160048111156124ae576124ae612e27565b14156124fc5760405162461bcd60e51b815260206004820152601860248201527f45434453413a20696e76616c6964207369676e6174757265000000000000000060448201526064016107dc565b600281600481111561251057612510612e27565b141561255e5760405162461bcd60e51b815260206004820152601f60248201527f45434453413a20696e76616c6964207369676e6174757265206c656e6774680060448201526064016107dc565b600381600481111561257257612572612e27565b1415610b7d5760405162461bcd60e51b815260206004820152602260248201527f45434453413a20696e76616c6964207369676e6174757265202773272076616c604482015261756560f01b60648201526084016107dc565b606061070e6001600160a01b03831660145b606060006125ec836002612e3d565b6125f7906002612d2f565b67ffffffffffffffff81111561260f5761260f612d47565b6040519080825280601f01601f191660200182016040528015612639576020820181803683370190505b509050600360fc1b8160008151811061265457612654612d5d565b60200101906001600160f81b031916908160001a905350600f60fb1b8160018151811061268357612683612d5d565b60200101906001600160f81b031916908160001a90535060006126a7846002612e3d565b6126b2906001612d2f565b90505b600181111561272a576f181899199a1a9b1b9c1cb0b131b232b360811b85600f16601081106126e6576126e6612d5d565b1a60f81b8282815181106126fc576126fc612d5d565b60200101906001600160f81b031916908160001a90535060049490941c9361272381612e5c565b90506126b5565b5083156112035760405162461bcd60e51b815260206004820181905260248201527f537472696e67733a20686578206c656e67746820696e73756666696369656e7460448201526064016107dc565b6000818152600183016020526040812054801561286257600061279d600183612e73565b85549091506000906127b190600190612e73565b90508181146128165760008660000182815481106127d1576127d1612d5d565b90600052602060002001549050808760000184815481106127f4576127f4612d5d565b6000918252602080832090910192909255918252600188019052604090208390555b855486908061282757612827612e8a565b60019003818190600052602060002001600090559055856001016000868152602001908152602001600020600090556001935050505061070e565b600091505061070e565b600060ff8216601f81111561070e57604051632cd44ac360e21b815260040160405180910390fd5b8280546128a090612cb5565b90600052602060002090601f0160209004810192826128c25760008555612908565b82601f106128db57805160ff1916838001178555612908565b82800160010185558215612908579182015b828111156129085782518255916020019190600101906128ed565b50612914929150612918565b5090565b5b808211156129145760008155600101612919565b60006020828403121561293f57600080fd5b81356001600160e01b03198116811461120357600080fd5b60005b8381101561297257818101518382015260200161295a565b838111156119075750506000910152565b6000815180845261299b816020860160208601612957565b601f01601f19169290920160200192915050565b6020815260006112036020830184612983565b80356001600160a01b038116811461080157600080fd5b6000602082840312156129eb57600080fd5b611203826129c2565b60008060408385031215612a0757600080fd5b612a10836129c2565b946020939093013593505050565b60008060408385031215612a3157600080fd5b82359150612a41602084016129c2565b90509250929050565b600080600060608486031215612a5f57600080fd5b612a68846129c2565b9250612a76602085016129c2565b9150604084013590509250925092565b600060208284031215612a9857600080fd5b5035919050565b60006020808301818452808551808352604092508286019150828160051b87010184880160005b83811015612b0557888303603f19018552815180518452870151878401879052612af287850182612983565b9588019593505090860190600101612ac6565b509098975050505050505050565b60ff60f81b881681526000602060e081840152612b3360e084018a612983565b8381036040850152612b45818a612983565b606085018990526001600160a01b038816608086015260a0850187905284810360c0860152855180825283870192509083019060005b81811015612b9757835183529284019291840191600101612b7b565b50909c9b505050505050505050505050565b60008060408385031215612bbc57600080fd5b50508035926020909101359150565b6020808252825182820181905260009190848201906040850190845b81811015612c0c5783516001600160a01b031683529284019291840191600101612be7565b50909695505050505050565b600080600080600080600060e0888a031215612c3357600080fd5b612c3c886129c2565b9650612c4a602089016129c2565b95506040880135945060608801359350608088013560ff81168114612c6e57600080fd5b9699959850939692959460a0840135945060c09093013592915050565b60008060408385031215612c9e57600080fd5b612ca7836129c2565b9150612a41602084016129c2565b600181811c90821680612cc957607f821691505b60208210811415611ed957634e487b7160e01b600052602260045260246000fd5b60208082526015908201527421b0b63632b91034b9903737ba10309030b236b4b760591b604082015260600190565b634e487b7160e01b600052601160045260246000fd5b60008219821115612d4257612d42612d19565b500190565b634e487b7160e01b600052604160045260246000fd5b634e487b7160e01b600052603260045260246000fd5b6000600019821415612d8757612d87612d19565b5060010190565b80516020808301519190811015611ed95760001960209190910360031b1b16919050565b7f416363657373436f6e74726f6c3a206163636f756e7420000000000000000000815260008351612dea816017850160208801612957565b7001034b99036b4b9b9b4b733903937b6329607d1b6017918401918201528351612e1b816028840160208801612957565b01602801949350505050565b634e487b7160e01b600052602160045260246000fd5b6000816000190483118215151615612e5757612e57612d19565b500290565b600081612e6b57612e6b612d19565b506000190190565b600082821015612e8557612e85612d19565b500390565b634e487b7160e01b600052603160045260246000fdfe3c11d16cbaffd01df69ce1c404f6340ee057498f5f00246190ea54220576a8482dee5dd865e09c7ce6788d674a03682994f0b44339403ca07ac129a9de4bed6a9f2df0fed2c77648de5860a4cc508cd0818c85b8b8a1ab4ceeef8d981c8956a698db8a220cd0f09badce9f22d0ba7e93edb3d404448cc3560d391ab096ad16e9a49807205ce4d355092ef5a8a18f56e8913cf4a201fbe287825b095693c21775a2646970667358221220e63d2ac1133f08e6cef5261ccdda23c23d6f321a63e2027b22f6313ce5f898c464736f6c63430008090033",
  "devdoc": {
    "kind": "dev",
    "methods": {
      "DOMAIN_SEPARATOR()": {
        "details": "See {IERC20Permit-DOMAIN_SEPARATOR}."
      },
      "allowance(address,address)": {
        "details": "See {IERC20-allowance}."
      },
      "approve(address,uint256)": {
        "details": "See {IERC20-approve}. NOTE: If `amount` is the maximum `uint256`, the allowance is not updated on `transferFrom`. This is semantically equivalent to an infinite approval. Requirements: - `spender` cannot be the zero address."
      },
      "balanceOf(address)": {
        "details": "See {IERC20-balanceOf}."
      },
      "burn(uint256)": {
        "details": "Destroys `amount` tokens from the caller. See {ERC20-_burn}."
      },
      "burnFrom(address,uint256)": {
        "details": "Destroys `amount` tokens from `account`, deducting from the caller's allowance. See {ERC20-_burn} and {ERC20-allowance}. Requirements: - the caller must have allowance for ``accounts``'s tokens of at least `amount`."
      },
      "decimals()": {
        "details": "Returns the number of decimals used to get its user representation. For example, if `decimals` equals `2`, a balance of `505` tokens should be displayed to a user as `5.05` (`505 / 10 ** 2`). Tokens usually opt for a value of 18, imitating the relationship between Ether and Wei. This is the default value returned by this function, unless it's overridden. NOTE: This information is only used for _display_ purposes: it in no way affects any of the arithmetic of the contract, including {IERC20-balanceOf} and {IERC20-transfer}."
      },
      "decreaseAllowance(address,uint256)": {
        "details": "Atomically decreases the allowance granted to `spender` by the caller. This is an alternative to {approve} that can be used as a mitigation for problems described in {IERC20-approve}. Emits an {Approval} event indicating the updated allowance. Requirements: - `spender` cannot be the zero address. - `spender` must have allowance for the caller of at least `subtractedValue`."
      },
      "eip712Domain()": {
        "details": "See {EIP-5267}. _Available since v4.9._"
      },
      "getRoleAdmin(bytes32)": {
        "details": "Returns the admin role that controls `role`. See {grantRole} and {revokeRole}. To change a role's admin, use {_setRoleAdmin}."
      },
      "getRoleMember(bytes32,uint256)": {
        "details": "Returns one of the accounts that have `role`. `index` must be a value between 0 and {getRoleMemberCount}, non-inclusive. Role bearers are not sorted in any particular way, and their ordering may change at any point. WARNING: When using {getRoleMember} and {getRoleMemberCount}, make sure you perform all queries on the same block. See the following https://forum.openzeppelin.com/t/iterating-over-elements-on-enumerableset-in-openzeppelin-contracts/2296[forum post] for more information."
      },
      "getRoleMemberCount(bytes32)": {
        "details": "Returns the number of accounts that have `role`. Can be used together with {getRoleMember} to enumerate all bearers of a role."
      },
      "grantRole(bytes32,address)": {
        "details": "Grants `role` to `account`. If `account` had not been already granted `role`, emits a {RoleGranted} event. Requirements: - the caller must have ``role``'s admin role. May emit a {RoleGranted} event."
      },
      "hasRole(bytes32,address)": {
        "details": "Returns `true` if `account` has been granted `role`."
      },
      "increaseAllowance(address,uint256)": {
        "details": "Atomically increases the allowance granted to `spender` by the caller. This is an alternative to {approve} that can be used as a mitigation for problems described in {IERC20-approve}. Emits an {Approval} event indicating the updated allowance. Requirements: - `spender` cannot be the zero address."
      },
      "name()": {
        "details": "Returns the name of the token."
      },
      "nonces(address)": {
        "details": "See {IERC20Permit-nonces}."
      },
      "paused()": {
        "details": "Returns true if the contract is paused, and false otherwise."
      },
      "permit(address,address,uint256,uint256,uint8,bytes32,bytes32)": {
        "details": "See {IERC20Permit-permit}."
      },
      "renounceRole(bytes32,address)": {
        "details": "Revokes `role` from the calling account. Roles are often managed via {grantRole} and {revokeRole}: this function's purpose is to provide a mechanism for accounts to lose their privileges if they are compromised (such as when a trusted device is misplaced). If the calling account had been revoked `role`, emits a {RoleRevoked} event. Requirements: - the caller must be `account`. May emit a {RoleRevoked} event."
      },
      "revokeRole(bytes32,address)": {
        "details": "Revokes `role` from `account`. If `account` had been granted `role`, emits a {RoleRevoked} event. Requirements: - the caller must have ``role``'s admin role. May emit a {RoleRevoked} event."
      },
      "supportsInterface(bytes4)": {
        "details": "See {IERC165-supportsInterface}."
      },
      "symbol()": {
        "details": "Returns the symbol of the token, usually a shorter version of the name."
      },
      "totalSupply()": {
        "details": "See {IERC20-totalSupply}."
      },
      "transfer(address,uint256)": {
        "details": "See {IERC20-transfer}. Requirements: - `to` cannot be the zero address. - the caller must have a balance of at least `amount`."
      },
      "transferFrom(address,address,uint256)": {
        "details": "See {IERC20-transferFrom}. Emits an {Approval} event indicating the updated allowance. This is not required by the EIP. See the note at the beginning of {ERC20}. NOTE: Does not update the allowance if the current allowance is the maximum `uint256`. Requirements: - `from` and `to` cannot be the zero address. - `from` must have a balance of at least `amount`. - the caller must have allowance for ``from``'s tokens of at least `amount`."
      }
    },
    "version": 1
  },
  "userdoc": {
    "kind": "user",
    "methods": {},
    "version": 1
  },
  "storageLayout": {
    "storage": [
      {
        "astId": 581,
        "contract": "contracts/ERC20Token.sol:XToken",
        "label": "_paused",
        "offset": 0,
        "slot": "0",
        "type": "t_bool"
      },
      {
        "astId": 24,
        "contract": "contracts/ERC20Token.sol:XToken",
        "label": "_roles",
        "offset": 0,
        "slot": "1",
        "type": "t_mapping(t_bytes32,t_struct(RoleData)19_storage)"
      },
      {
        "astId": 334,
        "contract": "contracts/ERC20Token.sol:XToken",
        "label": "_roleMembers",
        "offset": 0,
        "slot": "2",
        "type": "t_mapping(t_bytes32,t_struct(AddressSet)4482_storage)"
      },
      {
        "astId": 687,
        "contract": "contracts/ERC20Token.sol:XToken",
        "label": "_balances",
        "offset": 0,
        "slot": "3",
        "type": "t_mapping(t_address,t_uint256)"
      },
      {
        "astId": 693,
        "contract": "contracts/ERC20Token.sol:XToken",
        "label": "_allowances",
        "offset": 0,
        "slot": "4",
        "type": "t_mapping(t_address,t_mapping(t_address,t_uint256))"
      },
      {
        "astId": 695,
        "contract": "contracts/ERC20Token.sol:XToken",
        "label": "_totalSupply",
        "offset": 0,
        "slot": "5",
        "type": "t_uint256"
      },
      {
        "astId": 697,
        "contract": "contracts/ERC20Token.sol:XToken",
        "label": "_name",
        "offset": 0,
        "slot": "6",
        "type": "t_string_storage"
      },
      {
        "astId": 699,
        "contract": "contracts/ERC20Token.sol:XToken",
        "label": "_symbol",
        "offset": 0,
        "slot": "7",
        "type": "t_string_storage"
      },
      {
        "astId": 2666,
        "contract": "contracts/ERC20Token.sol:XToken",
        "label": "_nameFallback",
        "offset": 0,
        "slot": "8",
        "type": "t_string_storage"
      },
      {
        "astId": 2668,
        "contract": "contracts/ERC20Token.sol:XToken",
        "label": "_versionFallback",
        "offset": 0,
        "slot": "9",
        "type": "t_string_storage"
      },
      {
        "astId": 1403,
        "contract": "contracts/ERC20Token.sol:XToken",
        "label": "_nonces",
        "offset": 0,
        "slot": "10",
        "type": "t_mapping(t_address,t_struct(Counter)1644_storage)"
      },
      {
        "astId": 1411,
        "contract": "contracts/ERC20Token.sol:XToken",
        "label": "_PERMIT_TYPEHASH_DEPRECATED_SLOT",
        "offset": 0,
        "slot": "11",
        "type": "t_bytes32"
      },
      {
        "astId": 4790,
        "contract": "contracts/ERC20Token.sol:XToken",
        "label": "_cap",
        "offset": 0,
        "slot": "12",
        "type": "t_uint256"
      },
      {
        "astId": 4794,
        "contract": "contracts/ERC20Token.sol:XToken",
        "label": "frozen",
        "offset": 0,
        "slot": "13",
        "type": "t_mapping(t_address,t_bool)"
      }
    ],
    "types": {
      "t_address": {
        "encoding": "inplace",
        "label": "address",
        "numberOfBytes": "20"
      },
      "t_array(t_bytes32)dyn_storage": {
        "base": "t_bytes32",
        "encoding": "dynamic_array",
        "label": "bytes32[]",
        "numberOfBytes": "32"
      },
      "t_bool": {
        "encoding": "inplace",
        "label": "bool",
        "numberOfBytes": "1"
      },
      "t_bytes32": {
        "encoding": "inplace",
        "label": "bytes32",
        "numberOfBytes": "32"
      },
      "t_mapping(t_address,t_bool)": {
        "encoding": "mapping",
        "key": "t_address",
        "label": "mapping(address => bool)",
        "numberOfBytes": "32",
        "value": "t_bool"
      },
      "t_mapping(t_address,t_mapping(t_address,t_uint256))": {
        "encoding": "mapping",
        "key": "t_address",
        "label": "mapping(address => mapping(address => uint256))",
        "numberOfBytes": "32",
        "value": "t_mapping(t_address,t_uint256)"
      },
      "t_mapping(t_address,t_struct(Counter)1644_storage)": {
        "encoding": "mapping",
        "key": "t_address",
        "label": "mapping(address => struct Counters.Counter)",
        "numberOfBytes": "32",
        "value": "t_struct(Counter)1644_storage"
      },
      "t_mapping(t_address,t_uint256)": {
        "encoding": "mapping",
        "key": "t_address",
        "label": "mapping(address => uint256)",
        "numberOfBytes": "32",
        "value": "t_uint256"
      },
      "t_mapping(t_bytes32,t_struct(AddressSet)4482_storage)": {
        "encoding": "mapping",
        "key": "t_bytes32",
        "label": "mapping(bytes32 => struct EnumerableSet.AddressSet)",
        "numberOfBytes": "32",
        "value": "t_struct(AddressSet)4482_storage"
      },
      "t_mapping(t_bytes32,t_struct(RoleData)19_storage)": {
        "encoding": "mapping",
        "key": "t_bytes32",
        "label": "mapping(bytes32 => struct AccessControl.RoleData)",
        "numberOfBytes": "32",
        "value": "t_struct(RoleData)19_storage"
      },
      "t_mapping(t_bytes32,t_uint256)": {
        "encoding": "mapping",
        "key": "t_bytes32",
        "label": "mapping(bytes32 => uint256)",
        "numberOfBytes": "32",
        "value": "t_uint256"
      },
      "t_string_storage": {
        "encoding": "bytes",
        "label": "string",
        "numberOfBytes": "32"
      },
      "t_struct(AddressSet)4482_storage": {
        "encoding": "inplace",
        "label": "struct EnumerableSet.AddressSet",
        "members": [
          {
            "astId": 4481,
            "contract": "contracts/ERC20Token.sol:XToken",
            "label": "_inner",
            "offset": 0,
            "slot": "0",
            "type": "t_struct(Set)4167_storage"
          }
        ],
        "numberOfBytes": "64"
      },
      "t_struct(Counter)1644_storage": {
        "encoding": "inplace",
        "label": "struct Counters.Counter",
        "members": [
          {
            "astId": 1643,
            "contract": "contracts/ERC20Token.sol:XToken",
            "label": "_value",
            "offset": 0,
            "slot": "0",
            "type": "t_uint256"
          }
        ],
        "numberOfBytes": "32"
      },
      "t_struct(RoleData)19_storage": {
        "encoding": "inplace",
        "label": "struct AccessControl.RoleData",
        "members": [
          {
            "astId": 16,
            "contract": "contracts/ERC20Token.sol:XToken",
            "label": "members",
            "offset": 0,
            "slot": "0",
            "type": "t_mapping(t_address,t_bool)"
          },
          {
            "astId": 18,
            "contract": "contracts/ERC20Token.sol:XToken",
            "label": "adminRole",
            "offset": 0,
            "slot": "1",
            "type": "t_bytes32"
          }
        ],
        "numberOfBytes": "64"
      },
      "t_struct(Set)4167_storage": {
        "encoding": "inplace",
        "label": "struct EnumerableSet.Set",
        "members": [
          {
            "astId": 4162,
            "contract": "contracts/ERC20Token.sol:XToken",
            "label": "_values",
            "offset": 0,
            "slot": "0",
            "type": "t_array(t_bytes32)dyn_storage"
          },
          {
            "astId": 4166,
            "contract": "contracts/ERC20Token.sol:XToken",
            "label": "_indexes",
            "offset": 0,
            "slot": "1",
            "type": "t_mapping(t_bytes32,t_uint256)"
          }
        ],
        "numberOfBytes": "64"
      },
      "t_uint256": {
        "encoding": "inplace",
        "label": "uint256",
        "numberOfBytes": "32"
      }
    }
  }
}