{
  "address": "0x5FbDB2315678afecb367f032d93F642f64180aa3",
  "abi": [
    {
      "inputs": [
        {
          "internalType": "string",
          "name": "name",
          "type": "string"
        },
        {
          "internalType": "string",
          "name": "symbol",
          "type": "string"
        },
        {
          "internalType": "uint256",
          "name": "cap_",
          "type": "uint256"
        }
      ],
      "stateMutability": "nonpayable",
      "type": "constructor"
    },
    {
      "inputs": [],
      "name": "InvalidShortString",
      "type": "error"
    },
    {
      "inputs": [
        {
          "internalType": "string",
          "name": "str",
          "type": "string"
        }
      ],
      "name": "StringTooLong",
      "type": "error"
    },
    {
      "anonymous": false,
      "inputs": [
        {
          "indexed": true,
          "internalType": "address",
          "name": "owner",
          "type": "address"
        },
        {
          "indexed": true,
          "internalType": "address",
          "name": "spender",
          "type": "address"
        },
        {
          "indexed": false,
          "internalType": "uint256",
          "name": "value",
          "type": "uint256"
        }
      ],
      "name": "Approval",
      "type": "event"
    },
    {
      "anonymous": false,
      "inputs": [],
      "name": "EIP712DomainChanged",
      "type": "event"
    },
    {
      "anonymous": false,
      "inputs": [
        {
          "indexed": false,
          "internalType": "address",
          "name": "account",
          "type": "address"
        }
      ],
      "name": "Paused",
      "type": "event"
    },
    {
      "anonymous": false,
      "inputs": [
        {
          "indexed": true,
          "internalType": "bytes32",
          "name": "role",
          "type": "bytes32"
        },
        {
          "indexed": true,
          "internalType": "bytes32",
          "name": "previousAdminRole",
          "type": "bytes32"
        },
        {
          "indexed": true,
          "internalType": "bytes32",
          "name": "newAdminRole",
          "type": "bytes32"
        }
      ],
      "name": "RoleAdminChanged",
      "type": "event"
    },
    {
      "anonymous": false,
      "inputs": [
        {
          "indexed": true,
          "internalType": "bytes32",
          "name": "role",
          "type": "bytes32"
        },
        {
          "indexed": true,
          "internalType": "address",
          "name": "account",
          "type": "address"
        },
        {
          "indexed": true,
          "internalType": "address",
          "name": "sender",
          "type": "address"
        }
      ],
      "name": "RoleGranted",
      "type": "event"
    },
    {
      "anonymous": false,
      "inputs": [
        {
          "indexed": true,
          "internalType": "bytes32",
          "name": "role",
          "type": "bytes32"
        },
        {
          "indexed": true,
          "internalType": "address",
          "name": "account",
          "type": "address"
        },
        {
          "indexed": true,
          "internalType": "address",
          "name": "sender",
          "type": "address"
        }
      ],
      "name": "RoleRevoked",
      "type": "event"
    },
    {
      "anonymous": false,
      "inputs": [
        {
          "indexed": true,
          "internalType": "address",
          "name": "from",
          "type": "address"
        },
        {
          "indexed": true,
          "internalType": "address",
          "name": "to",
          "type": "address"
        },
        {
          "indexed": false,
          "internalType": "uint256",
          "name": "value",
          "type": "uint256"
        }
      ],
      "name": "Transfer",
      "type": "event"
    },
    {
      "anonymous": false,
      "inputs": [
        {
          "indexed": false,
          "internalType": "address",
          "name": "account",
          "type": "address"
        }
      ],
      "name": "Unpaused",
      "type": "event"
    },
    {
      "inputs": [],
      "name": "ADMIN_ROLE",
      "outputs": [
        {
          "internalType": "bytes32",
          "name": "",
          "type": "bytes32"
        }
      ],
      "stateMutability": "view",
      "type": "function"
    },
    {
      "inputs": [],
      "name": "BLACKLISTER_ROLE",
      "outputs": [
        {
          "internalType": "bytes32",
          "name": "",
          "type": "bytes32"
        }
      ],
      "stateMutability": "view",
      "type": "function"
    },
    {
      "inputs": [],
      "name": "BURNER_ROLE",
      "outputs": [
        {
          "internalType": "bytes32",
          "name": "",
          "type": "bytes32"
        }
      ],
      "stateMutability": "view",
      "type": "function"
    },
    {
      "inputs": [],
      "name": "DEFAULT_ADMIN_ROLE",
      "outputs": [
        {
          "internalType": "bytes32",
          "name": "",
          "type": "bytes32"
        }
      ],
      "stateMutability": "view",
      "type": "function"
    },
    {
      "inputs": [],
      "name": "DOMAIN_SEPARATOR",
      "outputs": [
        {
          "internalType": "bytes32",
          "name": "",
          "type": "bytes32"
        }
      ],
      "stateMutability": "view",
      "type": "function"
    },
    {
      "inputs": [],
      "name": "GRANTER_ROLE",
      "outputs": [
        {
          "internalType": "bytes32",
          "name": "",
          "type": "bytes32"
        }
      ],
      "stateMutability": "view",
      "type": "function"
    },
    {
      "inputs": [],
      "name": "MINTER_ROLE",
      "outputs": [
        {
          "internalType": "bytes32",
          "name": "",
          "type": "bytes32"
        }
      ],
      "stateMutability": "view",
      "type": "function"
    },
    {
      "inputs": [
        {
          "internalType": "bytes32",
          "name": "role",
          "type": "bytes32"
        },
        {
          "internalType": "address",
          "name": "member",
          "type": "address"
        }
      ],
      "name": "addRoleMember",
      "outputs": [
        {
          "internalType": "bool",
          "name": "",
          "type": "bool"
        }
      ],
      "stateMutability": "nonpayable",
      "type": "function"
    },
    {
      "inputs": [
        {
          "internalType": "address",
          "name": "owner",
          "type": "address"
        },
        {
          "internalType": "address",
          "name": "spender",
          "type": "address"
        }
      ],
      "name": "allowance",
      "outputs": [
        {
          "internalType": "uint256",
          "name": "",
          "type": "uint256"
        }
      ],
      "stateMutability": "view",
      "type": "function"
    },
    {
      "inputs": [
        {
          "internalType": "address",
          "name": "spender",
          "type": "address"
        },
        {
          "internalType": "uint256",
          "name": "amount",
          "type": "uint256"
        }
      ],
      "name": "approve",
      "outputs": [
        {
          "internalType": "bool",
          "name": "",
          "type": "bool"
        }
      ],
      "stateMutability": "nonpayable",
      "type": "function"
    },
    {
      "inputs": [
        {
          "internalType": "address",
          "name": "account",
          "type": "address"
        }
      ],
      "name": "balanceOf",
      "outputs": [
        {
          "internalType": "uint256",
          "name": "",
          "type": "uint256"
        }
      ],
      "stateMutability": "view",
      "type": "function"
    },
    {
      "inputs": [
        {
          "internalType": "uint256",
          "name": "amount",
          "type": "uint256"
        }
      ],
      "name": "burn",
      "outputs": [],
      "stateMutability": "nonpayable",
      "type": "function"
    },
    {
      "inputs": [
        {
          "internalType": "address",
          "name": "account",
          "type": "address"
        },
        {
          "internalType": "uint256",
          "name": "amount",
          "type": "uint256"
        }
      ],
      "name": "burnFrom",
      "outputs": [],
      "stateMutability": "nonpayable",
      "type": "function"
    },
    {
      "inputs": [],
      "name": "cap",
      "outputs": [
        {
          "internalType": "uint256",
          "name": "",
          "type": "uint256"
        }
      ],
      "stateMutability": "view",
      "type": "function"
    },
    {
      "inputs": [],
      "name": "decimals",
      "outputs": [
        {
          "internalType": "uint8",
          "name": "",
          "type": "uint8"
        }
      ],
      "stateMutability": "view",
      "type": "function"
    },
    {
      "inputs": [
        {
          "internalType": "address",
          "name": "spender",
          "type": "address"
        },
        {
          "internalType": "uint256",
          "name": "subtractedValue",
          "type": "uint256"
        }
      ],
      "name": "decreaseAllowance",
      "outputs": [
        {
          "internalType": "bool",
          "name": "",
          "type": "bool"
        }
      ],
      "stateMutability": "nonpayable",
      "type": "function"
    },
    {
      "inputs": [
        {
          "internalType": "address",
          "name": "account",
          "type": "address"
        }
      ],
      "name": "defrost",
      "outputs": [],
      "stateMutability": "nonpayable",
      "type": "function"
    },
    {
      "inputs": [],
      "name": "eip712Domain",
      "outputs": [
        {
          "internalType": "bytes1",
          "name": "fields",
          "type": "bytes1"
        },
        {
          "internalType": "string",
          "name": "name",
          "type": "string"
        },
        {
          "internalType": "string",
          "name": "version",
          "type": "string"
        },
        {
          "internalType": "uint256",
          "name": "chainId",
          "type": "uint256"
        },
        {
          "internalType": "address",
          "name": "verifyingContract",
          "type": "address"
        },
        {
          "internalType": "bytes32",
          "name": "salt",
          "type": "bytes32"
        },
        {
          "internalType": "uint256[]",
          "name": "extensions",
          "type": "uint256[]"
        }
      ],
      "stateMutability": "view",
      "type": "function"
    },
    {
      "inputs": [
        {
          "internalType": "address",
          "name": "account",
          "type": "address"
        }
      ],
      "name": "freeze",
      "outputs": [],
      "stateMutability": "nonpayable",
      "type": "function"
    },
    {
      "inputs": [
        {
          "internalType": "bytes32",
          "name": "role",
          "type": "bytes32"
        }
      ],
      "name": "getRoleAdmin",
      "outputs": [
        {
          "internalType": "bytes32",
          "name": "",
          "type": "bytes32"
        }
      ],
      "stateMutability": "view",
      "type": "function"
    },
    {
      "inputs": [
        {
          "internalType": "bytes32",
          "name": "role",
          "type": "bytes32"
        },
        {
          "internalType": "uint256",
          "name": "index",
          "type": "uint256"
        }
      ],
      "name": "getRoleMember",
      "outputs": [
        {
          "internalType": "address",
          "name": "",
          "type": "address"
        }
      ],
      "stateMutability": "view",
      "type": "function"
    },
    {
      "inputs": [
        {
          "internalType": "bytes32",
          "name": "role",
          "type": "bytes32"
        }
      ],
      "name": "getRoleMemberCount",
      "outputs": [
        {
          "internalType": "uint256",
          "name": "",
          "type": "uint256"
        }
      ],
      "stateMutability": "view",
      "type": "function"
    },
    {
      "inputs": [
        {
          "internalType": "bytes32",
          "name": "role",
          "type": "bytes32"
        }
      ],
      "name": "getRoleMembers",
      "outputs": [
        {
          "internalType": "address[]",
          "name": "",
          "type": "address[]"
        }
      ],
      "stateMutability": "view",
      "type": "function"
    },
    {
      "inputs": [],
      "name": "getRoles",
      "outputs": [
        {
          "components": [
            {
              "internalType": "bytes32",
              "name": "role",
              "type": "bytes32"
            },
            {
              "internalType": "string",
              "name": "describe",
              "type": "string"
            }
          ],
          "internalType": "struct RoleAccess.Role[]",
          "name": "",
          "type": "tuple[]"
        }
      ],
      "stateMutability": "pure",
      "type": "function"
    },
    {
      "inputs": [
        {
          "internalType": "address",
          "name": "blacklister",
          "type": "address"
        }
      ],
      "name": "grantBlacklister",
      "outputs": [
        {
          "internalType": "bool",
          "name": "",
          "type": "bool"
        }
      ],
      "stateMutability": "nonpayable",
      "type": "function"
    },
    {
      "inputs": [
        {
          "internalType": "address",
          "name": "burner",
          "type": "address"
        }
      ],
      "name": "grantBurner",
      "outputs": [
        {
          "internalType": "bool",
          "name": "",
          "type": "bool"
        }
      ],
      "stateMutability": "nonpayable",
      "type": "function"
    },
    {
      "inputs": [
        {
          "internalType": "address",
          "name": "granter",
          "type": "address"
        }
      ],
      "name": "grantGranter",
      "outputs": [
        {
          "internalType": "bool",
          "name": "",
          "type": "bool"
        }
      ],
      "stateMutability": "nonpayable",
      "type": "function"
    },
    {
      "inputs": [
        {
          "internalType": "address",
          "name": "minter",
          "type": "address"
        }
      ],
      "name": "grantMinter",
      "outputs": [
        {
          "internalType": "bool",
          "name": "",
          "type": "bool"
        }
      ],
      "stateMutability": "nonpayable",
      "type": "function"
    },
    {
      "inputs": [
        {
          "internalType": "bytes32",
          "name": "role",
          "type": "bytes32"
        },
        {
          "internalType": "address",
          "name": "account",
          "type": "address"
        }
      ],
      "name": "grantRole",
      "outputs": [],
      "stateMutability": "nonpayable",
      "type": "function"
    },
    {
      "inputs": [
        {
          "internalType": "bytes32",
          "name": "role",
          "type": "bytes32"
        },
        {
          "internalType": "address",
          "name": "account",
          "type": "address"
        }
      ],
      "name": "hasRole",
      "outputs": [
        {
          "internalType": "bool",
          "name": "",
          "type": "bool"
        }
      ],
      "stateMutability": "view",
      "type": "function"
    },
    {
      "inputs": [
        {
          "internalType": "address",
          "name": "spender",
          "type": "address"
        },
        {
          "internalType": "uint256",
          "name": "addedValue",
          "type": "uint256"
        }
      ],
      "name": "increaseAllowance",
      "outputs": [
        {
          "internalType": "bool",
          "name": "",
          "type": "bool"
        }
      ],
      "stateMutability": "nonpayable",
      "type": "function"
    },
    {
      "inputs": [
        {
          "internalType": "address",
          "name": "account",
          "type": "address"
        },
        {
          "internalType": "uint256",
          "name": "amount",
          "type": "uint256"
        }
      ],
      "name": "mint",
      "outputs": [],
      "stateMutability": "nonpayable",
      "type": "function"
    },
    {
      "inputs": [],
      "name": "name",
      "outputs": [
        {
          "internalType": "string",
          "name": "",
          "type": "string"
        }
      ],
      "stateMutability": "view",
      "type": "function"
    },
    {
      "inputs": [
        {
          "internalType": "address",
          "name": "owner",
          "type": "address"
        }
      ],
      "name": "nonces",
      "outputs": [
        {
          "internalType": "uint256",
          "name": "",
          "type": "uint256"
        }
      ],
      "stateMutability": "view",
      "type": "function"
    },
    {
      "inputs": [],
      "name": "pause",
      "outputs": [],
      "stateMutability": "nonpayable",
      "type": "function"
    },
    {
      "inputs": [],
      "name": "paused",
      "outputs": [
        {
          "internalType": "bool",
          "name": "",
          "type": "bool"
        }
      ],
      "stateMutability": "view",
      "type": "function"
    },
    {
      "inputs": [
        {
          "internalType": "address",
          "name": "owner",
          "type": "address"
        },
        {
          "internalType": "address",
          "name": "spender",
          "type": "address"
        },
        {
          "internalType": "uint256",
          "name": "value",
          "type": "uint256"
        },
        {
          "internalType": "uint256",
          "name": "deadline",
          "type": "uint256"
        },
        {
          "internalType": "uint8",
          "name": "v",
          "type": "uint8"
        },
        {
          "internalType": "bytes32",
          "name": "r",
          "type": "bytes32"
        },
        {
          "internalType": "bytes32",
          "name": "s",
          "type": "bytes32"
        }
      ],
      "name": "permit",
      "outputs": [],
      "stateMutability": "nonpayable",
      "type": "function"
    },
    {
      "inputs": [
        {
          "internalType": "bytes32",
          "name": "role",
          "type": "bytes32"
        },
        {
          "internalType": "address",
          "name": "member",
          "type": "address"
        }
      ],
      "name": "removeRoleMember",
      "outputs": [
        {
          "internalType": "bool",
          "name": "",
          "type": "bool"
        }
      ],
      "stateMutability": "nonpayable",
      "type": "function"
    },
    {
      "inputs": [
        {
          "internalType": "bytes32",
          "name": "role",
          "type": "bytes32"
        },
        {
          "internalType": "address",
          "name": "account",
          "type": "address"
        }
      ],
      "name": "renounceRole",
      "outputs": [],
      "stateMutability": "nonpayable",
      "type": "function"
    },
    {
      "inputs": [
        {
          "internalType": "address",
          "name": "blacklister",
          "type": "address"
        }
      ],
      "name": "revokeBlacklister",
      "outputs": [
        {
          "internalType": "bool",
          "name": "",
          "type": "bool"
        }
      ],
      "stateMutability": "nonpayable",
      "type": "function"
    },
    {
      "inputs": [
        {
          "internalType": "address",
          "name": "burner",
          "type": "address"
        }
      ],
      "name": "revokeBurner",
      "outputs": [
        {
          "internalType": "bool",
          "name": "",
          "type": "bool"
        }
      ],
      "stateMutability": "nonpayable",
      "type": "function"
    },
    {
      "inputs": [
        {
          "internalType": "address",
          "name": "granter",
          "type": "address"
        }
      ],
      "name": "revokeGranter",
      "outputs": [
        {
          "internalType": "bool",
          "name": "",
          "type": "bool"
        }
      ],
      "stateMutability": "nonpayable",
      "type": "function"
    },
    {
      "inputs": [
        {
          "internalType": "address",
          "name": "minter",
          "type": "address"
        }
      ],
      "name": "revokeMinter",
      "outputs": [
        {
          "internalType": "bool",
          "name": "",
          "type": "bool"
        }
      ],
      "stateMutability": "nonpayable",
      "type": "function"
    },
    {
      "inputs": [
        {
          "internalType": "bytes32",
          "name": "role",
          "type": "bytes32"
        },
        {
          "internalType": "address",
          "name": "account",
          "type": "address"
        }
      ],
      "name": "revokeRole",
      "outputs": [],
      "stateMutability": "nonpayable",
      "type": "function"
    },
    {
      "inputs": [
        {
          "internalType": "uint256",
          "name": "cap_",
          "type": "uint256"
        }
      ],
      "name": "setCap",
      "outputs": [
        {
          "internalType": "uint256",
          "name": "",
          "type": "uint256"
        }
      ],
      "stateMutability": "nonpayable",
      "type": "function"
    },
    {
      "inputs": [
        {
          "internalType": "bytes4",
          "name": "interfaceId",
          "type": "bytes4"
        }
      ],
      "name": "supportsInterface",
      "outputs": [
        {
          "internalType": "bool",
          "name": "",
          "type": "bool"
        }
      ],
      "stateMutability": "view",
      "type": "function"
    },
    {
      "inputs": [],
      "name": "symbol",
      "outputs": [
        {
          "internalType": "string",
          "name": "",
          "type": "string"
        }
      ],
      "stateMutability": "view",
      "type": "function"
    },
    {
      "inputs": [],
      "name": "totalSupply",
      "outputs": [
        {
          "internalType": "uint256",
          "name": "",
          "type": "uint256"
        }
      ],
      "stateMutability": "view",
      "type": "function"
    },
    {
      "inputs": [
        {
          "internalType": "address",
          "name": "to",
          "type": "address"
        },
        {
          "internalType": "uint256",
          "name": "amount",
          "type": "uint256"
        }
      ],
      "name": "transfer",
      "outputs": [
        {
          "internalType": "bool",
          "name": "",
          "type": "bool"
        }
      ],
      "stateMutability": "nonpayable",
      "type": "function"
    },
    {
      "inputs": [
        {
          "internalType": "address",
          "name": "from",
          "type": "address"
        },
        {
          "internalType": "address",
          "name": "to",
          "type": "address"
        },
        {
          "internalType": "uint256",
          "name": "amount",
          "type": "uint256"
        }
      ],
      "name": "transferFrom",
      "outputs": [
        {
          "internalType": "bool",
          "name": "",
          "type": "bool"
        }
      ],
      "stateMutability": "nonpayable",
      "type": "function"
    },
    {
      "inputs": [],
      "name": "unpause",
      "outputs": [],
      "stateMutability": "nonpayable",
      "type": "function"
    }
  ],
  "transactionHash": "0x0022aca3c127af94cb41abd761badb01709b983daa90b8627dfd121cc3a058d9",
  "args": [
    "Obosky Token",
    "OBO",
    "1000000000000000000000000000"
  ],
  "numDeployments": 1,
  "solcInputHash": "f1da7802ddd63793100ef147de764075",
  "bytecode": "0x61016060405234801562000011575f80fd5b5060405162003465380380620034658339810160408190526200003491620004ad565b6040805180820190915260018152603160f81b60208201525f805460ff191690558390819081856006620000698382620005a6565b506007620000788282620005a6565b506200008a9150839050600862000241565b610120526200009b81600962000241565b61014052815160208084019190912060e052815190820120610100524660a0526200012860e05161010051604080517f8b73c3c69bb8fe3d512ecc4cf759cc79239f7b179b0ffacaa9a75d522b39400f60208201529081019290925260608201524660808201523060a08201525f9060c00160405160208183030381529060405280519060200120905090565b60805250503060c0525080620001775760405162461bcd60e51b815260206004820152600f60248201526e045524332303a20636170206973203608c1b60448201526064015b60405180910390fd5b600c819055620001885f3362000279565b620001b47fa49807205ce4d355092ef5a8a18f56e8913cf4a201fbe287825b095693c217753362000279565b620001e07f9f2df0fed2c77648de5860a4cc508cd0818c85b8b8a1ab4ceeef8d981c8956a63362000279565b6200020c7f3c11d16cbaffd01df69ce1c404f6340ee057498f5f00246190ea54220576a8483362000279565b620002387f98db8a220cd0f09badce9f22d0ba7e93edb3d404448cc3560d391ab096ad16e93362000279565b505050620006c6565b5f6020835110156200026057620002588362000289565b905062000273565b816200026d8482620005a6565b5060ff90505b92915050565b620002858282620002cb565b5050565b5f80829050601f81511115620002b6578260405163305a27a960e01b81526004016200016e91906200066e565b8051620002c382620006a2565b179392505050565b620002d78282620002f5565b5f828152600260205260409020620002f090826200037b565b505050565b5f8281526001602090815260408083206001600160a01b038516845290915290205460ff1662000285575f8281526001602081815260408084206001600160a01b0386168086529252808420805460ff19169093179092559051339285917f2f8788117e7eff1d82e926ec794901d17c78024a50270940304540a733656f0d9190a45050565b5f62000391836001600160a01b03841662000398565b9392505050565b5f818152600183016020526040812054620003df57508154600181810184555f84815260208082209093018490558454848252828601909352604090209190915562000273565b505f62000273565b634e487b7160e01b5f52604160045260245ffd5b5f5b8381101562000417578181015183820152602001620003fd565b50505f910152565b5f82601f8301126200042f575f80fd5b81516001600160401b03808211156200044c576200044c620003e7565b604051601f8301601f19908116603f01168101908282118183101715620004775762000477620003e7565b8160405283815286602085880101111562000490575f80fd5b620004a3846020830160208901620003fb565b9695505050505050565b5f805f60608486031215620004c0575f80fd5b83516001600160401b0380821115620004d7575f80fd5b620004e5878388016200041f565b94506020860151915080821115620004fb575f80fd5b506200050a868287016200041f565b925050604084015190509250925092565b600181811c908216806200053057607f821691505b6020821081036200054f57634e487b7160e01b5f52602260045260245ffd5b50919050565b601f821115620002f0575f81815260208120601f850160051c810160208610156200057d5750805b601f850160051c820191505b818110156200059e5782815560010162000589565b505050505050565b81516001600160401b03811115620005c257620005c2620003e7565b620005da81620005d384546200051b565b8462000555565b602080601f83116001811462000610575f8415620005f85750858301515b5f19600386901b1c1916600185901b1785556200059e565b5f85815260208120601f198616915b8281101562000640578886015182559484019460019091019084016200061f565b50858210156200065e57878501515f19600388901b60f8161c191681555b5050505050600190811b01905550565b602081525f82518060208401526200068e816040850160208701620003fb565b601f01601f19169190910160400192915050565b805160208083015191908110156200054f575f1960209190910360031b1b16919050565b60805160a05160c05160e051610100516101205161014051612d4d620007185f395f61104e01525f61102301525f611aa901525f611a8101525f6119dc01525f611a0601525f611a300152612d4d5ff3fe608060405234801561000f575f80fd5b50600436106102e5575f3560e01c80637106139811610195578063a457c2d7116100e4578063d505accf1161009e578063dd62ed3e11610079578063dd62ed3e14610685578063e5071bc114610698578063f515e6f2146106ab578063f94c0a11146106bf575f80fd5b8063d505accf1461064b578063d53913931461065e578063d547741f14610672575f80fd5b8063a457c2d7146105d9578063a9059cbb146105ec578063b55467ae146105ff578063b6b5b72114610612578063ca15c87314610625578063cfbd488514610638575f80fd5b806389fecd001161014f57806391d148541161012a57806391d148541461059757806395d89b41146105aa578063a217fddf146105b2578063a3246ad3146105b9575f80fd5b806389fecd00146105465780638d1fdf2f146105595780639010d07c1461056c575f80fd5b806371061398146104d457806375b238fc146104e957806379cc6790146104fd5780637ecebe00146105105780638456cb591461052357806384b0196e1461052b575f80fd5b8063313ce5671161025157806340c10f191161020b5780634dd8fac8116101e65780634dd8fac81461047c5780635c975abb1461048f5780636568df031461049957806370a08231146104ac575f80fd5b806340c10f191461044357806342966c681461045657806347786d3714610469575f80fd5b8063313ce567146103f6578063355274ea146104055780633644e5151461040d57806336568abe1461041557806339509351146104285780633f4ba83a1461043b575f80fd5b80631b65471f116102a25780631b65471f1461037157806323b872dd14610384578063248a9ca314610397578063261707fa146103ba578063282c51f3146103cd5780632f2ff15d146103e1575f80fd5b806301ffc9a7146102e957806306fdde03146103115780630900cc3314610326578063095ea7b31461033957806310511f961461034c57806318160ddd1461035f575b5f80fd5b6102fc6102f7366004612776565b6106d3565b60405190151581526020015b60405180910390f35b6103196106fd565b60405161030891906127ea565b6102fc610334366004612812565b61078d565b6102fc61034736600461282b565b6107ea565b6102fc61035a366004612812565b610801565b6005545b604051908152602001610308565b6102fc61037f366004612853565b61084c565b6102fc61039236600461287d565b610893565b6103636103a53660046128b6565b5f908152600160208190526040909120015490565b6102fc6103c8366004612812565b6108b6565b6103635f80516020612c7883398151915281565b6103f46103ef366004612853565b6108fd565b005b60405160128152602001610308565b600c54610363565b610363610927565b6103f4610423366004612853565b610935565b6102fc61043636600461282b565b6109b3565b6103f46109d4565b6103f461045136600461282b565b610a11565b6103f46104643660046128b6565b610ae4565b6103636104773660046128b6565b610b54565b6102fc61048a366004612853565b610c3d565b5f5460ff166102fc565b6102fc6104a7366004612812565b610c8a565b6103636104ba366004612812565b6001600160a01b03165f9081526003602052604090205490565b6104dc610cd5565b60405161030891906128cd565b6103635f80516020612cf883398151915281565b6103f461050b36600461282b565b610f50565b61036361051e366004612812565b610fbe565b6103f4610fdb565b610533611016565b604051610308979695949392919061293f565b6103f4610554366004612812565b61109d565b6103f4610567366004612812565b611120565b61057f61057a3660046129d3565b6111a6565b6040516001600160a01b039091168152602001610308565b6102fc6105a5366004612853565b6111c4565b6103196111ee565b6103635f81565b6105cc6105c73660046128b6565b6111fd565b60405161030891906129f3565b6102fc6105e736600461282b565b6112a9565b6102fc6105fa36600461282b565b611323565b6102fc61060d366004612812565b611330565b6102fc610620366004612812565b61137b565b6103636106333660046128b6565b6113c6565b6102fc610646366004612812565b6113dc565b6103f4610659366004612a3f565b611427565b6103635f80516020612cb883398151915281565b6103f4610680366004612853565b611588565b610363610693366004612aac565b6115ad565b6102fc6106a6366004612812565b6115d7565b6103635f80516020612cd883398151915281565b6103635f80516020612c9883398151915281565b5f6001600160e01b03198216635a05180f60e01b14806106f757506106f782611622565b92915050565b60606006805461070c90612ad4565b80601f016020809104026020016040519081016040528092919081815260200182805461073890612ad4565b80156107835780601f1061075a57610100808354040283529160200191610783565b820191905f5260205f20905b81548152906001019060200180831161076657829003601f168201915b5050505050905090565b5f6107a55f80516020612cf8833981519152336111c4565b6107ca5760405162461bcd60e51b81526004016107c190612b06565b60405180910390fd5b6107e15f80516020612c7883398151915283611588565b5060015b919050565b5f336107f7818585611656565b5060019392505050565b5f6108195f80516020612cf8833981519152336111c4565b6108355760405162461bcd60e51b81526004016107c190612b06565b6107e15f80516020612c78833981519152836108fd565b5f6108645f80516020612cf8833981519152336111c4565b6108805760405162461bcd60e51b81526004016107c190612b06565b61088a83836108fd565b50600192915050565b5f336108a0858285611779565b6108ab8585856117f1565b506001949350505050565b5f6108ce5f80516020612cf8833981519152336111c4565b6108ea5760405162461bcd60e51b81526004016107c190612b06565b6107e15f80516020612cb8833981519152835b5f8281526001602081905260409091200154610918816119a5565b61092283836119af565b505050565b5f6109306119d0565b905090565b6001600160a01b03811633146109a55760405162461bcd60e51b815260206004820152602f60248201527f416363657373436f6e74726f6c3a2063616e206f6e6c792072656e6f756e636560448201526e103937b632b9903337b91039b2b63360891b60648201526084016107c1565b6109af8282611af9565b5050565b5f336107f78185856109c583836115ad565b6109cf9190612b49565b611656565b6109eb5f80516020612cf8833981519152336111c4565b610a075760405162461bcd60e51b81526004016107c190612b06565b610a0f611b1a565b565b610a285f80516020612cb8833981519152336111c4565b610a6d5760405162461bcd60e51b815260206004820152601660248201527521b0b63632b91034b9903737ba10309036b4b73a32b960511b60448201526064016107c1565b610a75611b6b565b600c5481610a8260055490565b610a8c9190612b49565b1115610ada5760405162461bcd60e51b815260206004820152601960248201527f45524332304361707065643a206361702065786365656465640000000000000060448201526064016107c1565b6109af8282611bb0565b610afb5f80516020612c78833981519152336111c4565b610b405760405162461bcd60e51b815260206004820152601660248201527521b0b63632b91034b9903737ba103090313ab93732b960511b60448201526064016107c1565b610b48611b6b565b610b5181611c7a565b50565b5f610b6c5f80516020612cf8833981519152336111c4565b610b885760405162461bcd60e51b81526004016107c190612b06565b5f8211610bc95760405162461bcd60e51b815260206004820152600f60248201526e045524332303a20636170206973203608c1b60448201526064016107c1565b6005548211610c345760405162461bcd60e51b815260206004820152603160248201527f45524332303a206e6577206361702073686f756c64206265206c6172676572206044820152707468616e20746f74616c20737570706c7960781b60648201526084016107c1565b50600c81905590565b5f610c555f80516020612cf8833981519152336111c4565b610c715760405162461bcd60e51b81526004016107c190612b06565b610c7b83836111c4565b1561088a5761088a8383611588565b5f610ca25f80516020612cf8833981519152336111c4565b610cbe5760405162461bcd60e51b81526004016107c190612b06565b6107e15f80516020612c98833981519152836108fd565b60408051600580825260c082019092526060915f9190816020015b604080518082019091525f815260606020820152815260200190600190039081610cf057905050905060405180604001604052805f80516020612cf883398151915281526020016040518060400160405280601681526020017518591b5a5b88199bdc881d1a194818dbdb9d1c9858dd60521b815250815250815f81518110610d7b57610d7b612b70565b602002602001018190525060405180604001604052805f80516020612cb883398151915281526020016040518060400160405280601981526020017f6d696e7465722063616e206d696e74206e657720636f696e730000000000000081525081525081600181518110610df057610df0612b70565b602002602001018190525060405180604001604052805f80516020612c788339815191528152602001604051806040016040528060158152602001746275726e65722063616e206275726e20636f696e7360581b81525081525081600281518110610e5d57610e5d612b70565b602002602001018190525060405180604001604052805f80516020612c988339815191528152602001604051806040016040528060168152602001756772616e7465722063616e206275726e20636f696e7360501b81525081525081600381518110610ecb57610ecb612b70565b602002602001018190525060405180604001604052805f80516020612cd883398151915281526020016040518060400160405280602081526020017f626c61636b6c69737465722063616e2075706461746520626c61636b6c69737481525081525081600481518110610f4057610f40612b70565b6020908102919091010152919050565b610f675f80516020612c78833981519152336111c4565b610fac5760405162461bcd60e51b815260206004820152601660248201527521b0b63632b91034b9903737ba103090313ab93732b960511b60448201526064016107c1565b610fb4611b6b565b6109af8282611c84565b6001600160a01b0381165f908152600a60205260408120546106f7565b610ff25f80516020612cf8833981519152336111c4565b61100e5760405162461bcd60e51b81526004016107c190612b06565b610a0f611c99565b5f606080828080836110497f00000000000000000000000000000000000000000000000000000000000000006008611cd5565b6110747f00000000000000000000000000000000000000000000000000000000000000006009611cd5565b604080515f80825260208201909252600f60f81b9b939a50919850469750309650945092509050565b6110b45f80516020612cd8833981519152336111c4565b6111005760405162461bcd60e51b815260206004820152601b60248201527f43616c6c6572206973206e6f74206120626c61636b6c6973746572000000000060448201526064016107c1565b6001600160a01b03165f908152600d60205260409020805460ff19169055565b6111375f80516020612cd8833981519152336111c4565b6111835760405162461bcd60e51b815260206004820152601b60248201527f43616c6c6572206973206e6f74206120626c61636b6c6973746572000000000060448201526064016107c1565b6001600160a01b03165f908152600d60205260409020805460ff19166001179055565b5f8281526002602052604081206111bd9083611d7e565b9392505050565b5f9182526001602090815260408084206001600160a01b0393909316845291905290205460ff1690565b60606007805461070c90612ad4565b60605f611209836113c6565b90505f8167ffffffffffffffff81111561122557611225612b5c565b60405190808252806020026020018201604052801561124e578160200160208202803683370190505b5090505f5b828110156112a15761126585826111a6565b82828151811061127757611277612b70565b6001600160a01b03909216602092830291909101909101528061129981612b84565b915050611253565b509392505050565b5f33816112b682866115ad565b9050838110156113165760405162461bcd60e51b815260206004820152602560248201527f45524332303a2064656372656173656420616c6c6f77616e63652062656c6f77604482015264207a65726f60d81b60648201526084016107c1565b6108ab8286868403611656565b5f336107f78185856117f1565b5f6113485f80516020612cf8833981519152336111c4565b6113645760405162461bcd60e51b81526004016107c190612b06565b6107e15f80516020612cd883398151915283611588565b5f6113935f80516020612cf8833981519152336111c4565b6113af5760405162461bcd60e51b81526004016107c190612b06565b6107e15f80516020612c9883398151915283611588565b5f8181526002602052604081206106f790611d89565b5f6113f45f80516020612cf8833981519152336111c4565b6114105760405162461bcd60e51b81526004016107c190612b06565b6107e15f80516020612cb883398151915283611588565b834211156114775760405162461bcd60e51b815260206004820152601d60248201527f45524332305065726d69743a206578706972656420646561646c696e6500000060448201526064016107c1565b5f7f6e71edae12b1b97f4d1f60370fef10105fa2faae0126114a169c64845d6126c98888886114a58c611d92565b6040805160208101969096526001600160a01b0394851690860152929091166060840152608083015260a082015260c0810186905260e0016040516020818303038152906040528051906020012090505f6114ff82611db9565b90505f61150e82878787611de5565b9050896001600160a01b0316816001600160a01b0316146115715760405162461bcd60e51b815260206004820152601e60248201527f45524332305065726d69743a20696e76616c6964207369676e6174757265000060448201526064016107c1565b61157c8a8a8a611656565b50505050505050505050565b5f82815260016020819052604090912001546115a3816119a5565b6109228383611af9565b6001600160a01b039182165f90815260046020908152604080832093909416825291909152205490565b5f6115ef5f80516020612cf8833981519152336111c4565b61160b5760405162461bcd60e51b81526004016107c190612b06565b6107e15f80516020612cd8833981519152836108fd565b5f6001600160e01b03198216637965db0b60e01b14806106f757506301ffc9a760e01b6001600160e01b03198316146106f7565b6001600160a01b0383166116b85760405162461bcd60e51b8152602060048201526024808201527f45524332303a20617070726f76652066726f6d20746865207a65726f206164646044820152637265737360e01b60648201526084016107c1565b6001600160a01b0382166117195760405162461bcd60e51b815260206004820152602260248201527f45524332303a20617070726f766520746f20746865207a65726f206164647265604482015261737360f01b60648201526084016107c1565b6001600160a01b038381165f8181526004602090815260408083209487168084529482529182902085905590518481527f8c5be1e5ebec7d5bd14f71427d1e84f3dd0314c0f7b2291e5b200ac8c7c3b925910160405180910390a3505050565b5f61178484846115ad565b90505f1981146117eb57818110156117de5760405162461bcd60e51b815260206004820152601d60248201527f45524332303a20696e73756666696369656e7420616c6c6f77616e636500000060448201526064016107c1565b6117eb8484848403611656565b50505050565b6001600160a01b0383166118555760405162461bcd60e51b815260206004820152602560248201527f45524332303a207472616e736665722066726f6d20746865207a65726f206164604482015264647265737360d81b60648201526084016107c1565b6001600160a01b0382166118b75760405162461bcd60e51b815260206004820152602360248201527f45524332303a207472616e7366657220746f20746865207a65726f206164647260448201526265737360e81b60648201526084016107c1565b6118c2838383611e0b565b6001600160a01b0383165f90815260036020526040902054818110156119395760405162461bcd60e51b815260206004820152602660248201527f45524332303a207472616e7366657220616d6f756e7420657863656564732062604482015265616c616e636560d01b60648201526084016107c1565b6001600160a01b038085165f8181526003602052604080822086860390559286168082529083902080548601905591517fddf252ad1be2c89b69c2b068fc378daa952ba7f163c4a11628f55a4df523b3ef906119989086815260200190565b60405180910390a36117eb565b610b518133611f39565b6119b98282611f92565b5f8281526002602052604090206109229082611ffc565b5f306001600160a01b037f000000000000000000000000000000000000000000000000000000000000000016148015611a2857507f000000000000000000000000000000000000000000000000000000000000000046145b15611a5257507f000000000000000000000000000000000000000000000000000000000000000090565b610930604080517f8b73c3c69bb8fe3d512ecc4cf759cc79239f7b179b0ffacaa9a75d522b39400f60208201527f0000000000000000000000000000000000000000000000000000000000000000918101919091527f000000000000000000000000000000000000000000000000000000000000000060608201524660808201523060a08201525f9060c00160405160208183030381529060405280519060200120905090565b611b038282612010565b5f8281526002602052604090206109229082612076565b611b2261208a565b5f805460ff191690557f5db9ee0a495bf2e6ff9c91a7834c1ba4fdd244a5e8aa4e537bd38aeae4b073aa335b6040516001600160a01b03909116815260200160405180910390a1565b5f5460ff1615610a0f5760405162461bcd60e51b815260206004820152601060248201526f14185d5cd8589b194e881c185d5cd95960821b60448201526064016107c1565b6001600160a01b038216611c065760405162461bcd60e51b815260206004820152601f60248201527f45524332303a206d696e7420746f20746865207a65726f20616464726573730060448201526064016107c1565b611c115f8383611e0b565b8060055f828254611c229190612b49565b90915550506001600160a01b0382165f818152600360209081526040808320805486019055518481527fddf252ad1be2c89b69c2b068fc378daa952ba7f163c4a11628f55a4df523b3ef910160405180910390a35050565b610b5133826120d2565b611c8f823383611779565b6109af82826120d2565b611ca1611b6b565b5f805460ff191660011790557f62e78cea01bee320cd4e420270b5ea74000d11b0c9f74754ebdbfc544b05a258611b4e3390565b606060ff8314611cef57611ce88361220f565b90506106f7565b818054611cfb90612ad4565b80601f0160208091040260200160405190810160405280929190818152602001828054611d2790612ad4565b8015611d725780601f10611d4957610100808354040283529160200191611d72565b820191905f5260205f20905b815481529060010190602001808311611d5557829003601f168201915b505050505090506106f7565b5f6111bd838361224c565b5f6106f7825490565b6001600160a01b0381165f908152600a602052604090208054600181018255905b50919050565b5f6106f7611dc56119d0565b8360405161190160f01b8152600281019290925260228201526042902090565b5f805f611df487878787612272565b91509150611e018161232f565b5095945050505050565b5f5460ff1615611e715760405162461bcd60e51b815260206004820152602b60248201527f4552433230205061757361626c653a20746f6b656e207472616e73666572207760448201526a1a1a5b19481c185d5cd95960aa1b60648201526084016107c1565b6001600160a01b0383165f908152600d602052604090205460ff1615611ed15760405162461bcd60e51b815260206004820152601560248201527429b7bab931b29030b1b1b7bab73a10333937bd32b760591b60448201526064016107c1565b6001600160a01b0382165f908152600d602052604090205460ff16156109225760405162461bcd60e51b815260206004820152601a60248201527f44657374696e6174696f6e206163636f756e742066726f7a656e00000000000060448201526064016107c1565b611f4382826111c4565b6109af57611f5081612478565b611f5b83602061248a565b604051602001611f6c929190612b9c565b60408051601f198184030181529082905262461bcd60e51b82526107c1916004016127ea565b611f9c82826111c4565b6109af575f8281526001602081815260408084206001600160a01b0386168086529252808420805460ff19169093179092559051339285917f2f8788117e7eff1d82e926ec794901d17c78024a50270940304540a733656f0d9190a45050565b5f6111bd836001600160a01b038416612620565b61201a82826111c4565b156109af575f8281526001602090815260408083206001600160a01b0385168085529252808320805460ff1916905551339285917ff6391f5c32d9c69d2a47ea670b442974b53935d1edc7fd64eb21e047a839171b9190a45050565b5f6111bd836001600160a01b03841661266c565b5f5460ff16610a0f5760405162461bcd60e51b815260206004820152601460248201527314185d5cd8589b194e881b9bdd081c185d5cd95960621b60448201526064016107c1565b6001600160a01b0382166121325760405162461bcd60e51b815260206004820152602160248201527f45524332303a206275726e2066726f6d20746865207a65726f206164647265736044820152607360f81b60648201526084016107c1565b61213d825f83611e0b565b6001600160a01b0382165f90815260036020526040902054818110156121b05760405162461bcd60e51b815260206004820152602260248201527f45524332303a206275726e20616d6f756e7420657863656564732062616c616e604482015261636560f01b60648201526084016107c1565b6001600160a01b0383165f8181526003602090815260408083208686039055600580548790039055518581529192917fddf252ad1be2c89b69c2b068fc378daa952ba7f163c4a11628f55a4df523b3ef910160405180910390a3505050565b60605f61221b8361274f565b6040805160208082528183019092529192505f91906020820181803683375050509182525060208101929092525090565b5f825f01828154811061226157612261612b70565b905f5260205f200154905092915050565b5f807f7fffffffffffffffffffffffffffffff5d576e7357a4501ddfe92f46681b20a08311156122a757505f90506003612326565b604080515f8082526020820180845289905260ff881692820192909252606081018690526080810185905260019060a0016020604051602081039080840390855afa1580156122f8573d5f803e3d5ffd5b5050604051601f1901519150506001600160a01b038116612320575f60019250925050612326565b91505f90505b94509492505050565b5f81600481111561234257612342612c10565b0361234a5750565b600181600481111561235e5761235e612c10565b036123ab5760405162461bcd60e51b815260206004820152601860248201527f45434453413a20696e76616c6964207369676e6174757265000000000000000060448201526064016107c1565b60028160048111156123bf576123bf612c10565b0361240c5760405162461bcd60e51b815260206004820152601f60248201527f45434453413a20696e76616c6964207369676e6174757265206c656e6774680060448201526064016107c1565b600381600481111561242057612420612c10565b03610b515760405162461bcd60e51b815260206004820152602260248201527f45434453413a20696e76616c6964207369676e6174757265202773272076616c604482015261756560f01b60648201526084016107c1565b60606106f76001600160a01b03831660145b60605f612498836002612c24565b6124a3906002612b49565b67ffffffffffffffff8111156124bb576124bb612b5c565b6040519080825280601f01601f1916602001820160405280156124e5576020820181803683370190505b509050600360fc1b815f815181106124ff576124ff612b70565b60200101906001600160f81b03191690815f1a905350600f60fb1b8160018151811061252d5761252d612b70565b60200101906001600160f81b03191690815f1a9053505f61254f846002612c24565b61255a906001612b49565b90505b60018111156125d1576f181899199a1a9b1b9c1cb0b131b232b360811b85600f166010811061258e5761258e612b70565b1a60f81b8282815181106125a4576125a4612b70565b60200101906001600160f81b03191690815f1a90535060049490941c936125ca81612c3b565b905061255d565b5083156111bd5760405162461bcd60e51b815260206004820181905260248201527f537472696e67733a20686578206c656e67746820696e73756666696369656e7460448201526064016107c1565b5f81815260018301602052604081205461266557508154600181810184555f8481526020808220909301849055845484825282860190935260409020919091556106f7565b505f6106f7565b5f8181526001830160205260408120548015612746575f61268e600183612c50565b85549091505f906126a190600190612c50565b9050818114612700575f865f0182815481106126bf576126bf612b70565b905f5260205f200154905080875f0184815481106126df576126df612b70565b5f918252602080832090910192909255918252600188019052604090208390555b855486908061271157612711612c63565b600190038181905f5260205f20015f90559055856001015f8681526020019081526020015f205f9055600193505050506106f7565b5f9150506106f7565b5f60ff8216601f8111156106f757604051632cd44ac360e21b815260040160405180910390fd5b5f60208284031215612786575f80fd5b81356001600160e01b0319811681146111bd575f80fd5b5f5b838110156127b757818101518382015260200161279f565b50505f910152565b5f81518084526127d681602086016020860161279d565b601f01601f19169290920160200192915050565b602081525f6111bd60208301846127bf565b80356001600160a01b03811681146107e5575f80fd5b5f60208284031215612822575f80fd5b6111bd826127fc565b5f806040838503121561283c575f80fd5b612845836127fc565b946020939093013593505050565b5f8060408385031215612864575f80fd5b82359150612874602084016127fc565b90509250929050565b5f805f6060848603121561288f575f80fd5b612898846127fc565b92506128a6602085016127fc565b9150604084013590509250925092565b5f602082840312156128c6575f80fd5b5035919050565b5f6020808301818452808551808352604092508286019150828160051b8701018488015f5b8381101561293157888303603f1901855281518051845287015187840187905261291e878501826127bf565b95880195935050908601906001016128f2565b509098975050505050505050565b60ff60f81b881681525f602060e08184015261295e60e084018a6127bf565b8381036040850152612970818a6127bf565b606085018990526001600160a01b038816608086015260a0850187905284810360c086015285518082528387019250908301905f5b818110156129c1578351835292840192918401916001016129a5565b50909c9b505050505050505050505050565b5f80604083850312156129e4575f80fd5b50508035926020909101359150565b602080825282518282018190525f9190848201906040850190845b81811015612a335783516001600160a01b031683529284019291840191600101612a0e565b50909695505050505050565b5f805f805f805f60e0888a031215612a55575f80fd5b612a5e886127fc565b9650612a6c602089016127fc565b95506040880135945060608801359350608088013560ff81168114612a8f575f80fd5b9699959850939692959460a0840135945060c09093013592915050565b5f8060408385031215612abd575f80fd5b612ac6836127fc565b9150612874602084016127fc565b600181811c90821680612ae857607f821691505b602082108103611db357634e487b7160e01b5f52602260045260245ffd5b60208082526015908201527421b0b63632b91034b9903737ba10309030b236b4b760591b604082015260600190565b634e487b7160e01b5f52601160045260245ffd5b808201808211156106f7576106f7612b35565b634e487b7160e01b5f52604160045260245ffd5b634e487b7160e01b5f52603260045260245ffd5b5f60018201612b9557612b95612b35565b5060010190565b7f416363657373436f6e74726f6c3a206163636f756e742000000000000000000081525f8351612bd381601785016020880161279d565b7001034b99036b4b9b9b4b733903937b6329607d1b6017918401918201528351612c0481602884016020880161279d565b01602801949350505050565b634e487b7160e01b5f52602160045260245ffd5b80820281158282048414176106f7576106f7612b35565b5f81612c4957612c49612b35565b505f190190565b818103818111156106f7576106f7612b35565b634e487b7160e01b5f52603160045260245ffdfe3c11d16cbaffd01df69ce1c404f6340ee057498f5f00246190ea54220576a8482dee5dd865e09c7ce6788d674a03682994f0b44339403ca07ac129a9de4bed6a9f2df0fed2c77648de5860a4cc508cd0818c85b8b8a1ab4ceeef8d981c8956a698db8a220cd0f09badce9f22d0ba7e93edb3d404448cc3560d391ab096ad16e9a49807205ce4d355092ef5a8a18f56e8913cf4a201fbe287825b095693c21775a2646970667358221220274f1aa8acb076b2c480d920e23a338ca27e8b83882a369b8469f1c840ff3c5664736f6c63430008140033",
  "devdoc": {
    "events": {
      "Approval(address,address,uint256)": {
        "details": "Emitted when the allowance of a `spender` for an `owner` is set by a call to {approve}. `value` is the new allowance."
      },
      "EIP712DomainChanged()": {
        "details": "MAY be emitted to signal that the domain could have changed."
      },
      "Paused(address)": {
        "details": "Emitted when the pause is triggered by `account`."
      },
      "RoleAdminChanged(bytes32,bytes32,bytes32)": {
        "details": "Emitted when `newAdminRole` is set as ``role``'s admin role, replacing `previousAdminRole` `DEFAULT_ADMIN_ROLE` is the starting admin for all roles, despite {RoleAdminChanged} not being emitted signaling this. _Available since v3.1._"
      },
      "RoleGranted(bytes32,address,address)": {
        "details": "Emitted when `account` is granted `role`. `sender` is the account that originated the contract call, an admin role bearer except when using {AccessControl-_setupRole}."
      },
      "RoleRevoked(bytes32,address,address)": {
        "details": "Emitted when `account` is revoked `role`. `sender` is the account that originated the contract call:   - if using `revokeRole`, it is the admin role bearer   - if using `renounceRole`, it is the role bearer (i.e. `account`)"
      },
      "Transfer(address,address,uint256)": {
        "details": "Emitted when `value` tokens are moved from one account (`from`) to another (`to`). Note that `value` may be zero."
      },
      "Unpaused(address)": {
        "details": "Emitted when the pause is lifted by `account`."
      }
    },
    "kind": "dev",
    "methods": {
      "DOMAIN_SEPARATOR()": {
        "details": "See {IERC20Permit-DOMAIN_SEPARATOR}."
      },
      "allowance(address,address)": {
        "details": "See {IERC20-allowance}."
      },
      "approve(address,uint256)": {
        "details": "See {IERC20-approve}. NOTE: If `amount` is the maximum `uint256`, the allowance is not updated on `transferFrom`. This is semantically equivalent to an infinite approval. Requirements: - `spender` cannot be the zero address."
      },
      "balanceOf(address)": {
        "details": "See {IERC20-balanceOf}."
      },
      "burn(uint256)": {
        "details": "Destroys `amount` tokens from the caller. See {ERC20-_burn}."
      },
      "burnFrom(address,uint256)": {
        "details": "Destroys `amount` tokens from `account`, deducting from the caller's allowance. See {ERC20-_burn} and {ERC20-allowance}. Requirements: - the caller must have allowance for ``accounts``'s tokens of at least `amount`."
      },
      "decimals()": {
        "details": "Returns the number of decimals used to get its user representation. For example, if `decimals` equals `2`, a balance of `505` tokens should be displayed to a user as `5.05` (`505 / 10 ** 2`). Tokens usually opt for a value of 18, imitating the relationship between Ether and Wei. This is the default value returned by this function, unless it's overridden. NOTE: This information is only used for _display_ purposes: it in no way affects any of the arithmetic of the contract, including {IERC20-balanceOf} and {IERC20-transfer}."
      },
      "decreaseAllowance(address,uint256)": {
        "details": "Atomically decreases the allowance granted to `spender` by the caller. This is an alternative to {approve} that can be used as a mitigation for problems described in {IERC20-approve}. Emits an {Approval} event indicating the updated allowance. Requirements: - `spender` cannot be the zero address. - `spender` must have allowance for the caller of at least `subtractedValue`."
      },
      "eip712Domain()": {
        "details": "See {EIP-5267}. _Available since v4.9._"
      },
      "getRoleAdmin(bytes32)": {
        "details": "Returns the admin role that controls `role`. See {grantRole} and {revokeRole}. To change a role's admin, use {_setRoleAdmin}."
      },
      "getRoleMember(bytes32,uint256)": {
        "details": "Returns one of the accounts that have `role`. `index` must be a value between 0 and {getRoleMemberCount}, non-inclusive. Role bearers are not sorted in any particular way, and their ordering may change at any point. WARNING: When using {getRoleMember} and {getRoleMemberCount}, make sure you perform all queries on the same block. See the following https://forum.openzeppelin.com/t/iterating-over-elements-on-enumerableset-in-openzeppelin-contracts/2296[forum post] for more information."
      },
      "getRoleMemberCount(bytes32)": {
        "details": "Returns the number of accounts that have `role`. Can be used together with {getRoleMember} to enumerate all bearers of a role."
      },
      "grantRole(bytes32,address)": {
        "details": "Grants `role` to `account`. If `account` had not been already granted `role`, emits a {RoleGranted} event. Requirements: - the caller must have ``role``'s admin role. May emit a {RoleGranted} event."
      },
      "hasRole(bytes32,address)": {
        "details": "Returns `true` if `account` has been granted `role`."
      },
      "increaseAllowance(address,uint256)": {
        "details": "Atomically increases the allowance granted to `spender` by the caller. This is an alternative to {approve} that can be used as a mitigation for problems described in {IERC20-approve}. Emits an {Approval} event indicating the updated allowance. Requirements: - `spender` cannot be the zero address."
      },
      "name()": {
        "details": "Returns the name of the token."
      },
      "nonces(address)": {
        "details": "See {IERC20Permit-nonces}."
      },
      "paused()": {
        "details": "Returns true if the contract is paused, and false otherwise."
      },
      "permit(address,address,uint256,uint256,uint8,bytes32,bytes32)": {
        "details": "See {IERC20Permit-permit}."
      },
      "renounceRole(bytes32,address)": {
        "details": "Revokes `role` from the calling account. Roles are often managed via {grantRole} and {revokeRole}: this function's purpose is to provide a mechanism for accounts to lose their privileges if they are compromised (such as when a trusted device is misplaced). If the calling account had been revoked `role`, emits a {RoleRevoked} event. Requirements: - the caller must be `account`. May emit a {RoleRevoked} event."
      },
      "revokeRole(bytes32,address)": {
        "details": "Revokes `role` from `account`. If `account` had been granted `role`, emits a {RoleRevoked} event. Requirements: - the caller must have ``role``'s admin role. May emit a {RoleRevoked} event."
      },
      "supportsInterface(bytes4)": {
        "details": "See {IERC165-supportsInterface}."
      },
      "symbol()": {
        "details": "Returns the symbol of the token, usually a shorter version of the name."
      },
      "totalSupply()": {
        "details": "See {IERC20-totalSupply}."
      },
      "transfer(address,uint256)": {
        "details": "See {IERC20-transfer}. Requirements: - `to` cannot be the zero address. - the caller must have a balance of at least `amount`."
      },
      "transferFrom(address,address,uint256)": {
        "details": "See {IERC20-transferFrom}. Emits an {Approval} event indicating the updated allowance. This is not required by the EIP. See the note at the beginning of {ERC20}. NOTE: Does not update the allowance if the current allowance is the maximum `uint256`. Requirements: - `from` and `to` cannot be the zero address. - `from` must have a balance of at least `amount`. - the caller must have allowance for ``from``'s tokens of at least `amount`."
      }
    },
    "version": 1
  },
  "userdoc": {
    "kind": "user",
    "methods": {},
    "version": 1
  },
  "storageLayout": {
    "storage": [
      {
        "astId": 581,
        "contract": "contracts/ERC20Token.sol:XToken",
        "label": "_paused",
        "offset": 0,
        "slot": "0",
        "type": "t_bool"
      },
      {
        "astId": 24,
        "contract": "contracts/ERC20Token.sol:XToken",
        "label": "_roles",
        "offset": 0,
        "slot": "1",
        "type": "t_mapping(t_bytes32,t_struct(RoleData)19_storage)"
      },
      {
        "astId": 334,
        "contract": "contracts/ERC20Token.sol:XToken",
        "label": "_roleMembers",
        "offset": 0,
        "slot": "2",
        "type": "t_mapping(t_bytes32,t_struct(AddressSet)4482_storage)"
      },
      {
        "astId": 687,
        "contract": "contracts/ERC20Token.sol:XToken",
        "label": "_balances",
        "offset": 0,
        "slot": "3",
        "type": "t_mapping(t_address,t_uint256)"
      },
      {
        "astId": 693,
        "contract": "contracts/ERC20Token.sol:XToken",
        "label": "_allowances",
        "offset": 0,
        "slot": "4",
        "type": "t_mapping(t_address,t_mapping(t_address,t_uint256))"
      },
      {
        "astId": 695,
        "contract": "contracts/ERC20Token.sol:XToken",
        "label": "_totalSupply",
        "offset": 0,
        "slot": "5",
        "type": "t_uint256"
      },
      {
        "astId": 697,
        "contract": "contracts/ERC20Token.sol:XToken",
        "label": "_name",
        "offset": 0,
        "slot": "6",
        "type": "t_string_storage"
      },
      {
        "astId": 699,
        "contract": "contracts/ERC20Token.sol:XToken",
        "label": "_symbol",
        "offset": 0,
        "slot": "7",
        "type": "t_string_storage"
      },
      {
        "astId": 2666,
        "contract": "contracts/ERC20Token.sol:XToken",
        "label": "_nameFallback",
        "offset": 0,
        "slot": "8",
        "type": "t_string_storage"
      },
      {
        "astId": 2668,
        "contract": "contracts/ERC20Token.sol:XToken",
        "label": "_versionFallback",
        "offset": 0,
        "slot": "9",
        "type": "t_string_storage"
      },
      {
        "astId": 1403,
        "contract": "contracts/ERC20Token.sol:XToken",
        "label": "_nonces",
        "offset": 0,
        "slot": "10",
        "type": "t_mapping(t_address,t_struct(Counter)1644_storage)"
      },
      {
        "astId": 1411,
        "contract": "contracts/ERC20Token.sol:XToken",
        "label": "_PERMIT_TYPEHASH_DEPRECATED_SLOT",
        "offset": 0,
        "slot": "11",
        "type": "t_bytes32"
      },
      {
        "astId": 4790,
        "contract": "contracts/ERC20Token.sol:XToken",
        "label": "_cap",
        "offset": 0,
        "slot": "12",
        "type": "t_uint256"
      },
      {
        "astId": 4794,
        "contract": "contracts/ERC20Token.sol:XToken",
        "label": "frozen",
        "offset": 0,
        "slot": "13",
        "type": "t_mapping(t_address,t_bool)"
      }
    ],
    "types": {
      "t_address": {
        "encoding": "inplace",
        "label": "address",
        "numberOfBytes": "20"
      },
      "t_array(t_bytes32)dyn_storage": {
        "base": "t_bytes32",
        "encoding": "dynamic_array",
        "label": "bytes32[]",
        "numberOfBytes": "32"
      },
      "t_bool": {
        "encoding": "inplace",
        "label": "bool",
        "numberOfBytes": "1"
      },
      "t_bytes32": {
        "encoding": "inplace",
        "label": "bytes32",
        "numberOfBytes": "32"
      },
      "t_mapping(t_address,t_bool)": {
        "encoding": "mapping",
        "key": "t_address",
        "label": "mapping(address => bool)",
        "numberOfBytes": "32",
        "value": "t_bool"
      },
      "t_mapping(t_address,t_mapping(t_address,t_uint256))": {
        "encoding": "mapping",
        "key": "t_address",
        "label": "mapping(address => mapping(address => uint256))",
        "numberOfBytes": "32",
        "value": "t_mapping(t_address,t_uint256)"
      },
      "t_mapping(t_address,t_struct(Counter)1644_storage)": {
        "encoding": "mapping",
        "key": "t_address",
        "label": "mapping(address => struct Counters.Counter)",
        "numberOfBytes": "32",
        "value": "t_struct(Counter)1644_storage"
      },
      "t_mapping(t_address,t_uint256)": {
        "encoding": "mapping",
        "key": "t_address",
        "label": "mapping(address => uint256)",
        "numberOfBytes": "32",
        "value": "t_uint256"
      },
      "t_mapping(t_bytes32,t_struct(AddressSet)4482_storage)": {
        "encoding": "mapping",
        "key": "t_bytes32",
        "label": "mapping(bytes32 => struct EnumerableSet.AddressSet)",
        "numberOfBytes": "32",
        "value": "t_struct(AddressSet)4482_storage"
      },
      "t_mapping(t_bytes32,t_struct(RoleData)19_storage)": {
        "encoding": "mapping",
        "key": "t_bytes32",
        "label": "mapping(bytes32 => struct AccessControl.RoleData)",
        "numberOfBytes": "32",
        "value": "t_struct(RoleData)19_storage"
      },
      "t_mapping(t_bytes32,t_uint256)": {
        "encoding": "mapping",
        "key": "t_bytes32",
        "label": "mapping(bytes32 => uint256)",
        "numberOfBytes": "32",
        "value": "t_uint256"
      },
      "t_string_storage": {
        "encoding": "bytes",
        "label": "string",
        "numberOfBytes": "32"
      },
      "t_struct(AddressSet)4482_storage": {
        "encoding": "inplace",
        "label": "struct EnumerableSet.AddressSet",
        "members": [
          {
            "astId": 4481,
            "contract": "contracts/ERC20Token.sol:XToken",
            "label": "_inner",
            "offset": 0,
            "slot": "0",
            "type": "t_struct(Set)4167_storage"
          }
        ],
        "numberOfBytes": "64"
      },
      "t_struct(Counter)1644_storage": {
        "encoding": "inplace",
        "label": "struct Counters.Counter",
        "members": [
          {
            "astId": 1643,
            "contract": "contracts/ERC20Token.sol:XToken",
            "label": "_value",
            "offset": 0,
            "slot": "0",
            "type": "t_uint256"
          }
        ],
        "numberOfBytes": "32"
      },
      "t_struct(RoleData)19_storage": {
        "encoding": "inplace",
        "label": "struct AccessControl.RoleData",
        "members": [
          {
            "astId": 16,
            "contract": "contracts/ERC20Token.sol:XToken",
            "label": "members",
            "offset": 0,
            "slot": "0",
            "type": "t_mapping(t_address,t_bool)"
          },
          {
            "astId": 18,
            "contract": "contracts/ERC20Token.sol:XToken",
            "label": "adminRole",
            "offset": 0,
            "slot": "1",
            "type": "t_bytes32"
          }
        ],
        "numberOfBytes": "64"
      },
      "t_struct(Set)4167_storage": {
        "encoding": "inplace",
        "label": "struct EnumerableSet.Set",
        "members": [
          {
            "astId": 4162,
            "contract": "contracts/ERC20Token.sol:XToken",
            "label": "_values",
            "offset": 0,
            "slot": "0",
            "type": "t_array(t_bytes32)dyn_storage"
          },
          {
            "astId": 4166,
            "contract": "contracts/ERC20Token.sol:XToken",
            "label": "_indexes",
            "offset": 0,
            "slot": "1",
            "type": "t_mapping(t_bytes32,t_uint256)"
          }
        ],
        "numberOfBytes": "64"
      },
      "t_uint256": {
        "encoding": "inplace",
        "label": "uint256",
        "numberOfBytes": "32"
      }
    }
  }
}