{
  "address": "0xAC0F66379A6d7801D7726d5a943356A172549Adb",
  "abi": [
    {
      "inputs": [
        {
          "internalType": "string",
          "name": "name",
          "type": "string"
        },
        {
          "internalType": "string",
          "name": "symbol",
          "type": "string"
        },
        {
          "internalType": "uint256",
          "name": "cap_",
          "type": "uint256"
        }
      ],
      "stateMutability": "nonpayable",
      "type": "constructor"
    },
    {
      "anonymous": false,
      "inputs": [
        {
          "indexed": true,
          "internalType": "address",
          "name": "owner",
          "type": "address"
        },
        {
          "indexed": true,
          "internalType": "address",
          "name": "spender",
          "type": "address"
        },
        {
          "indexed": false,
          "internalType": "uint256",
          "name": "value",
          "type": "uint256"
        }
      ],
      "name": "Approval",
      "type": "event"
    },
    {
      "anonymous": false,
      "inputs": [
        {
          "indexed": false,
          "internalType": "address",
          "name": "account",
          "type": "address"
        }
      ],
      "name": "Paused",
      "type": "event"
    },
    {
      "anonymous": false,
      "inputs": [
        {
          "indexed": true,
          "internalType": "bytes32",
          "name": "role",
          "type": "bytes32"
        },
        {
          "indexed": true,
          "internalType": "bytes32",
          "name": "previousAdminRole",
          "type": "bytes32"
        },
        {
          "indexed": true,
          "internalType": "bytes32",
          "name": "newAdminRole",
          "type": "bytes32"
        }
      ],
      "name": "RoleAdminChanged",
      "type": "event"
    },
    {
      "anonymous": false,
      "inputs": [
        {
          "indexed": true,
          "internalType": "bytes32",
          "name": "role",
          "type": "bytes32"
        },
        {
          "indexed": true,
          "internalType": "address",
          "name": "account",
          "type": "address"
        },
        {
          "indexed": true,
          "internalType": "address",
          "name": "sender",
          "type": "address"
        }
      ],
      "name": "RoleGranted",
      "type": "event"
    },
    {
      "anonymous": false,
      "inputs": [
        {
          "indexed": true,
          "internalType": "bytes32",
          "name": "role",
          "type": "bytes32"
        },
        {
          "indexed": true,
          "internalType": "address",
          "name": "account",
          "type": "address"
        },
        {
          "indexed": true,
          "internalType": "address",
          "name": "sender",
          "type": "address"
        }
      ],
      "name": "RoleRevoked",
      "type": "event"
    },
    {
      "anonymous": false,
      "inputs": [
        {
          "indexed": true,
          "internalType": "address",
          "name": "from",
          "type": "address"
        },
        {
          "indexed": true,
          "internalType": "address",
          "name": "to",
          "type": "address"
        },
        {
          "indexed": false,
          "internalType": "uint256",
          "name": "value",
          "type": "uint256"
        }
      ],
      "name": "Transfer",
      "type": "event"
    },
    {
      "anonymous": false,
      "inputs": [
        {
          "indexed": false,
          "internalType": "address",
          "name": "account",
          "type": "address"
        }
      ],
      "name": "Unpaused",
      "type": "event"
    },
    {
      "inputs": [],
      "name": "ADMIN_ROLE",
      "outputs": [
        {
          "internalType": "bytes32",
          "name": "",
          "type": "bytes32"
        }
      ],
      "stateMutability": "view",
      "type": "function"
    },
    {
      "inputs": [],
      "name": "BLACKLISTER_ROLE",
      "outputs": [
        {
          "internalType": "bytes32",
          "name": "",
          "type": "bytes32"
        }
      ],
      "stateMutability": "view",
      "type": "function"
    },
    {
      "inputs": [],
      "name": "BURNER_ROLE",
      "outputs": [
        {
          "internalType": "bytes32",
          "name": "",
          "type": "bytes32"
        }
      ],
      "stateMutability": "view",
      "type": "function"
    },
    {
      "inputs": [],
      "name": "DEFAULT_ADMIN_ROLE",
      "outputs": [
        {
          "internalType": "bytes32",
          "name": "",
          "type": "bytes32"
        }
      ],
      "stateMutability": "view",
      "type": "function"
    },
    {
      "inputs": [],
      "name": "DOMAIN_SEPARATOR",
      "outputs": [
        {
          "internalType": "bytes32",
          "name": "",
          "type": "bytes32"
        }
      ],
      "stateMutability": "view",
      "type": "function"
    },
    {
      "inputs": [],
      "name": "MINTER_ROLE",
      "outputs": [
        {
          "internalType": "bytes32",
          "name": "",
          "type": "bytes32"
        }
      ],
      "stateMutability": "view",
      "type": "function"
    },
    {
      "inputs": [
        {
          "internalType": "bytes32",
          "name": "role",
          "type": "bytes32"
        },
        {
          "internalType": "address",
          "name": "member",
          "type": "address"
        }
      ],
      "name": "addRoleMember",
      "outputs": [
        {
          "internalType": "bool",
          "name": "",
          "type": "bool"
        }
      ],
      "stateMutability": "nonpayable",
      "type": "function"
    },
    {
      "inputs": [
        {
          "internalType": "address",
          "name": "owner",
          "type": "address"
        },
        {
          "internalType": "address",
          "name": "spender",
          "type": "address"
        }
      ],
      "name": "allowance",
      "outputs": [
        {
          "internalType": "uint256",
          "name": "",
          "type": "uint256"
        }
      ],
      "stateMutability": "view",
      "type": "function"
    },
    {
      "inputs": [
        {
          "internalType": "address",
          "name": "spender",
          "type": "address"
        },
        {
          "internalType": "uint256",
          "name": "amount",
          "type": "uint256"
        }
      ],
      "name": "approve",
      "outputs": [
        {
          "internalType": "bool",
          "name": "",
          "type": "bool"
        }
      ],
      "stateMutability": "nonpayable",
      "type": "function"
    },
    {
      "inputs": [
        {
          "internalType": "address",
          "name": "account",
          "type": "address"
        }
      ],
      "name": "balanceOf",
      "outputs": [
        {
          "internalType": "uint256",
          "name": "",
          "type": "uint256"
        }
      ],
      "stateMutability": "view",
      "type": "function"
    },
    {
      "inputs": [
        {
          "internalType": "uint256",
          "name": "amount",
          "type": "uint256"
        }
      ],
      "name": "burn",
      "outputs": [],
      "stateMutability": "nonpayable",
      "type": "function"
    },
    {
      "inputs": [
        {
          "internalType": "address",
          "name": "account",
          "type": "address"
        },
        {
          "internalType": "uint256",
          "name": "amount",
          "type": "uint256"
        }
      ],
      "name": "burnFrom",
      "outputs": [],
      "stateMutability": "nonpayable",
      "type": "function"
    },
    {
      "inputs": [],
      "name": "cap",
      "outputs": [
        {
          "internalType": "uint256",
          "name": "",
          "type": "uint256"
        }
      ],
      "stateMutability": "view",
      "type": "function"
    },
    {
      "inputs": [],
      "name": "decimals",
      "outputs": [
        {
          "internalType": "uint8",
          "name": "",
          "type": "uint8"
        }
      ],
      "stateMutability": "view",
      "type": "function"
    },
    {
      "inputs": [
        {
          "internalType": "address",
          "name": "spender",
          "type": "address"
        },
        {
          "internalType": "uint256",
          "name": "subtractedValue",
          "type": "uint256"
        }
      ],
      "name": "decreaseAllowance",
      "outputs": [
        {
          "internalType": "bool",
          "name": "",
          "type": "bool"
        }
      ],
      "stateMutability": "nonpayable",
      "type": "function"
    },
    {
      "inputs": [
        {
          "internalType": "address",
          "name": "account",
          "type": "address"
        }
      ],
      "name": "defrost",
      "outputs": [],
      "stateMutability": "nonpayable",
      "type": "function"
    },
    {
      "inputs": [
        {
          "internalType": "address",
          "name": "account",
          "type": "address"
        }
      ],
      "name": "freeze",
      "outputs": [],
      "stateMutability": "nonpayable",
      "type": "function"
    },
    {
      "inputs": [
        {
          "internalType": "bytes32",
          "name": "role",
          "type": "bytes32"
        }
      ],
      "name": "getRoleAdmin",
      "outputs": [
        {
          "internalType": "bytes32",
          "name": "",
          "type": "bytes32"
        }
      ],
      "stateMutability": "view",
      "type": "function"
    },
    {
      "inputs": [
        {
          "internalType": "bytes32",
          "name": "role",
          "type": "bytes32"
        },
        {
          "internalType": "uint256",
          "name": "index",
          "type": "uint256"
        }
      ],
      "name": "getRoleMember",
      "outputs": [
        {
          "internalType": "address",
          "name": "",
          "type": "address"
        }
      ],
      "stateMutability": "view",
      "type": "function"
    },
    {
      "inputs": [
        {
          "internalType": "bytes32",
          "name": "role",
          "type": "bytes32"
        }
      ],
      "name": "getRoleMemberCount",
      "outputs": [
        {
          "internalType": "uint256",
          "name": "",
          "type": "uint256"
        }
      ],
      "stateMutability": "view",
      "type": "function"
    },
    {
      "inputs": [
        {
          "internalType": "bytes32",
          "name": "role",
          "type": "bytes32"
        }
      ],
      "name": "getRoleMembers",
      "outputs": [
        {
          "internalType": "address[]",
          "name": "",
          "type": "address[]"
        }
      ],
      "stateMutability": "view",
      "type": "function"
    },
    {
      "inputs": [],
      "name": "getRoles",
      "outputs": [
        {
          "components": [
            {
              "internalType": "bytes32",
              "name": "role",
              "type": "bytes32"
            },
            {
              "internalType": "string",
              "name": "describe",
              "type": "string"
            }
          ],
          "internalType": "struct RoleAccess.Role[]",
          "name": "",
          "type": "tuple[]"
        }
      ],
      "stateMutability": "pure",
      "type": "function"
    },
    {
      "inputs": [
        {
          "internalType": "address",
          "name": "blacklister",
          "type": "address"
        }
      ],
      "name": "grantBlacklister",
      "outputs": [
        {
          "internalType": "bool",
          "name": "",
          "type": "bool"
        }
      ],
      "stateMutability": "nonpayable",
      "type": "function"
    },
    {
      "inputs": [
        {
          "internalType": "address",
          "name": "burner",
          "type": "address"
        }
      ],
      "name": "grantBurner",
      "outputs": [
        {
          "internalType": "bool",
          "name": "",
          "type": "bool"
        }
      ],
      "stateMutability": "nonpayable",
      "type": "function"
    },
    {
      "inputs": [
        {
          "internalType": "address",
          "name": "minter",
          "type": "address"
        }
      ],
      "name": "grantMinter",
      "outputs": [
        {
          "internalType": "bool",
          "name": "",
          "type": "bool"
        }
      ],
      "stateMutability": "nonpayable",
      "type": "function"
    },
    {
      "inputs": [
        {
          "internalType": "bytes32",
          "name": "role",
          "type": "bytes32"
        },
        {
          "internalType": "address",
          "name": "account",
          "type": "address"
        }
      ],
      "name": "grantRole",
      "outputs": [],
      "stateMutability": "nonpayable",
      "type": "function"
    },
    {
      "inputs": [
        {
          "internalType": "bytes32",
          "name": "role",
          "type": "bytes32"
        },
        {
          "internalType": "address",
          "name": "account",
          "type": "address"
        }
      ],
      "name": "hasRole",
      "outputs": [
        {
          "internalType": "bool",
          "name": "",
          "type": "bool"
        }
      ],
      "stateMutability": "view",
      "type": "function"
    },
    {
      "inputs": [
        {
          "internalType": "address",
          "name": "spender",
          "type": "address"
        },
        {
          "internalType": "uint256",
          "name": "addedValue",
          "type": "uint256"
        }
      ],
      "name": "increaseAllowance",
      "outputs": [
        {
          "internalType": "bool",
          "name": "",
          "type": "bool"
        }
      ],
      "stateMutability": "nonpayable",
      "type": "function"
    },
    {
      "inputs": [
        {
          "internalType": "address",
          "name": "account",
          "type": "address"
        },
        {
          "internalType": "uint256",
          "name": "amount",
          "type": "uint256"
        }
      ],
      "name": "mint",
      "outputs": [],
      "stateMutability": "nonpayable",
      "type": "function"
    },
    {
      "inputs": [],
      "name": "name",
      "outputs": [
        {
          "internalType": "string",
          "name": "",
          "type": "string"
        }
      ],
      "stateMutability": "view",
      "type": "function"
    },
    {
      "inputs": [
        {
          "internalType": "address",
          "name": "owner",
          "type": "address"
        }
      ],
      "name": "nonces",
      "outputs": [
        {
          "internalType": "uint256",
          "name": "",
          "type": "uint256"
        }
      ],
      "stateMutability": "view",
      "type": "function"
    },
    {
      "inputs": [],
      "name": "pause",
      "outputs": [],
      "stateMutability": "nonpayable",
      "type": "function"
    },
    {
      "inputs": [],
      "name": "paused",
      "outputs": [
        {
          "internalType": "bool",
          "name": "",
          "type": "bool"
        }
      ],
      "stateMutability": "view",
      "type": "function"
    },
    {
      "inputs": [
        {
          "internalType": "address",
          "name": "owner",
          "type": "address"
        },
        {
          "internalType": "address",
          "name": "spender",
          "type": "address"
        },
        {
          "internalType": "uint256",
          "name": "value",
          "type": "uint256"
        },
        {
          "internalType": "uint256",
          "name": "deadline",
          "type": "uint256"
        },
        {
          "internalType": "uint8",
          "name": "v",
          "type": "uint8"
        },
        {
          "internalType": "bytes32",
          "name": "r",
          "type": "bytes32"
        },
        {
          "internalType": "bytes32",
          "name": "s",
          "type": "bytes32"
        }
      ],
      "name": "permit",
      "outputs": [],
      "stateMutability": "nonpayable",
      "type": "function"
    },
    {
      "inputs": [
        {
          "internalType": "bytes32",
          "name": "role",
          "type": "bytes32"
        },
        {
          "internalType": "address",
          "name": "member",
          "type": "address"
        }
      ],
      "name": "removeRoleMember",
      "outputs": [
        {
          "internalType": "bool",
          "name": "",
          "type": "bool"
        }
      ],
      "stateMutability": "nonpayable",
      "type": "function"
    },
    {
      "inputs": [
        {
          "internalType": "bytes32",
          "name": "role",
          "type": "bytes32"
        },
        {
          "internalType": "address",
          "name": "account",
          "type": "address"
        }
      ],
      "name": "renounceRole",
      "outputs": [],
      "stateMutability": "nonpayable",
      "type": "function"
    },
    {
      "inputs": [
        {
          "internalType": "address",
          "name": "blacklister",
          "type": "address"
        }
      ],
      "name": "revokeBlacklister",
      "outputs": [
        {
          "internalType": "bool",
          "name": "",
          "type": "bool"
        }
      ],
      "stateMutability": "nonpayable",
      "type": "function"
    },
    {
      "inputs": [
        {
          "internalType": "address",
          "name": "burner",
          "type": "address"
        }
      ],
      "name": "revokeBurner",
      "outputs": [
        {
          "internalType": "bool",
          "name": "",
          "type": "bool"
        }
      ],
      "stateMutability": "nonpayable",
      "type": "function"
    },
    {
      "inputs": [
        {
          "internalType": "address",
          "name": "minter",
          "type": "address"
        }
      ],
      "name": "revokeMinter",
      "outputs": [
        {
          "internalType": "bool",
          "name": "",
          "type": "bool"
        }
      ],
      "stateMutability": "nonpayable",
      "type": "function"
    },
    {
      "inputs": [
        {
          "internalType": "bytes32",
          "name": "role",
          "type": "bytes32"
        },
        {
          "internalType": "address",
          "name": "account",
          "type": "address"
        }
      ],
      "name": "revokeRole",
      "outputs": [],
      "stateMutability": "nonpayable",
      "type": "function"
    },
    {
      "inputs": [
        {
          "internalType": "uint256",
          "name": "cap_",
          "type": "uint256"
        }
      ],
      "name": "setCap",
      "outputs": [
        {
          "internalType": "uint256",
          "name": "",
          "type": "uint256"
        }
      ],
      "stateMutability": "nonpayable",
      "type": "function"
    },
    {
      "inputs": [
        {
          "internalType": "bytes4",
          "name": "interfaceId",
          "type": "bytes4"
        }
      ],
      "name": "supportsInterface",
      "outputs": [
        {
          "internalType": "bool",
          "name": "",
          "type": "bool"
        }
      ],
      "stateMutability": "view",
      "type": "function"
    },
    {
      "inputs": [],
      "name": "symbol",
      "outputs": [
        {
          "internalType": "string",
          "name": "",
          "type": "string"
        }
      ],
      "stateMutability": "view",
      "type": "function"
    },
    {
      "inputs": [],
      "name": "totalSupply",
      "outputs": [
        {
          "internalType": "uint256",
          "name": "",
          "type": "uint256"
        }
      ],
      "stateMutability": "view",
      "type": "function"
    },
    {
      "inputs": [
        {
          "internalType": "address",
          "name": "to",
          "type": "address"
        },
        {
          "internalType": "uint256",
          "name": "amount",
          "type": "uint256"
        }
      ],
      "name": "transfer",
      "outputs": [
        {
          "internalType": "bool",
          "name": "",
          "type": "bool"
        }
      ],
      "stateMutability": "nonpayable",
      "type": "function"
    },
    {
      "inputs": [
        {
          "internalType": "address",
          "name": "from",
          "type": "address"
        },
        {
          "internalType": "address",
          "name": "to",
          "type": "address"
        },
        {
          "internalType": "uint256",
          "name": "amount",
          "type": "uint256"
        }
      ],
      "name": "transferFrom",
      "outputs": [
        {
          "internalType": "bool",
          "name": "",
          "type": "bool"
        }
      ],
      "stateMutability": "nonpayable",
      "type": "function"
    },
    {
      "inputs": [],
      "name": "unpause",
      "outputs": [],
      "stateMutability": "nonpayable",
      "type": "function"
    }
  ],
  "transactionHash": "0xce21fed10b66f84cbb565d182436dd22d39a697b4fc256a612a86d10dbff48dd",
  "args": [
    "Geodnet Token",
    "GEOD",
    "1000000000000000000000000000"
  ],
  "numDeployments": 1,
  "solcInputHash": "87f6c66524cc959d1a6bac2c9da1276a",
  "bytecode": "0x6101606040527f6e71edae12b1b97f4d1f60370fef10105fa2faae0126114a169c64845d6126c9610140523480156200003757600080fd5b50604051620031e9380380620031e98339810160408190526200005a9162000516565b6040805180820190915260018152603160f81b6020808301919091526000805460ff191690558451859283929091839187916200009e9160069190850190620003a3565b508051620000b4906007906020840190620003a3565b5050825160209384012082519284019290922060e08390526101008190524660a0818152604080517f8b73c3c69bb8fe3d512ecc4cf759cc79239f7b179b0ffacaa9a75d522b39400f818901819052818301979097526060810194909452608080850193909352308483018190528151808603909301835260c094850190915281519190960120905292909252610120525050806200018b5760405162461bcd60e51b815260206004820152600f60248201526e045524332303a20636170206973203608c1b604482015260640160405180910390fd5b60098190556200019d60003362000256565b620001c97fa49807205ce4d355092ef5a8a18f56e8913cf4a201fbe287825b095693c217753362000256565b620001f57f9f2df0fed2c77648de5860a4cc508cd0818c85b8b8a1ab4ceeef8d981c8956a63362000256565b620002217f3c11d16cbaffd01df69ce1c404f6340ee057498f5f00246190ea54220576a8483362000256565b6200024d7f98db8a220cd0f09badce9f22d0ba7e93edb3d404448cc3560d391ab096ad16e93362000256565b505050620005c6565b62000262828262000266565b5050565b6200027d8282620002a960201b620014bc1760201c565b6000828152600260209081526040909120620002a49183906200152762000331821b17901c565b505050565b60008281526001602090815260408083206001600160a01b038516845290915290205460ff16620002625760008281526001602081815260408084206001600160a01b0386168086529252808420805460ff19169093179092559051339285917f2f8788117e7eff1d82e926ec794901d17c78024a50270940304540a733656f0d9190a45050565b600062000348836001600160a01b03841662000351565b90505b92915050565b60008181526001830160205260408120546200039a575081546001818101845560008481526020808220909301849055845484825282860190935260409020919091556200034b565b5060006200034b565b828054620003b19062000589565b90600052602060002090601f016020900481019282620003d5576000855562000420565b82601f10620003f057805160ff191683800117855562000420565b8280016001018555821562000420579182015b828111156200042057825182559160200191906001019062000403565b506200042e92915062000432565b5090565b5b808211156200042e576000815560010162000433565b634e487b7160e01b600052604160045260246000fd5b600082601f8301126200047157600080fd5b81516001600160401b03808211156200048e576200048e62000449565b604051601f8301601f19908116603f01168101908282118183101715620004b957620004b962000449565b81604052838152602092508683858801011115620004d657600080fd5b600091505b83821015620004fa5785820183015181830184015290820190620004db565b838211156200050c5760008385830101525b9695505050505050565b6000806000606084860312156200052c57600080fd5b83516001600160401b03808211156200054457600080fd5b62000552878388016200045f565b945060208601519150808211156200056957600080fd5b5062000578868287016200045f565b925050604084015190509250925092565b600181811c908216806200059e57607f821691505b60208210811415620005c057634e487b7160e01b600052602260045260246000fd5b50919050565b60805160a05160c05160e051610100516101205161014051612bc862000621600039600061133701526000611a1001526000611a5f01526000611a3a01526000611993015260006119bd015260006119e70152612bc86000f3fe608060405234801561001057600080fd5b50600436106102955760003560e01c806370a0823111610167578063a3246ad3116100ce578063d505accf11610087578063d505accf146105c1578063d5391393146105d4578063d547741f146105e9578063dd62ed3e146105fc578063e5071bc114610635578063f515e6f21461064857600080fd5b8063a3246ad314610542578063a457c2d714610562578063a9059cbb14610575578063b55467ae14610588578063ca15c8731461059b578063cfbd4885146105ae57600080fd5b806389fecd001161012057806389fecd00146104ce5780638d1fdf2f146104e15780639010d07c146104f457806391d148541461051f57806395d89b4114610532578063a217fddf1461053a57600080fd5b806370a082311461044d578063710613981461047657806375b238fc1461048b57806379cc6790146104a05780637ecebe00146104b35780638456cb59146104c657600080fd5b80632f2ff15d1161020b5780633f4ba83a116101c45780633f4ba83a146103ee57806340c10f19146103f657806342966c681461040957806347786d371461041c5780634dd8fac81461042f5780635c975abb1461044257600080fd5b80632f2ff15d14610394578063313ce567146103a9578063355274ea146103b85780633644e515146103c057806336568abe146103c857806339509351146103db57600080fd5b806318160ddd1161025d57806318160ddd146103105780631b65471f1461032257806323b872dd14610335578063248a9ca314610348578063261707fa1461036c578063282c51f31461037f57600080fd5b806301ffc9a71461029a57806306fdde03146102c25780630900cc33146102d7578063095ea7b3146102ea57806310511f96146102fd575b600080fd5b6102ad6102a836600461262f565b61065d565b60405190151581526020015b60405180910390f35b6102ca610688565b6040516102b991906126b1565b6102ad6102e53660046126db565b61071a565b6102ad6102f83660046126f6565b61077a565b6102ad61030b3660046126db565b610792565b6005545b6040519081526020016102b9565b6102ad610330366004612720565b6107e0565b6102ad61034336600461274c565b610829565b610314610356366004612788565b6000908152600160208190526040909120015490565b6102ad61037a3660046126db565b61084d565b610314600080516020612b1383398151915281565b6103a76103a2366004612720565b610897565b005b604051601281526020016102b9565b600954610314565b6103146108c3565b6103a76103d6366004612720565b6108d2565b6102ad6103e93660046126f6565b610950565b6103a761098f565b6103a76104043660046126f6565b6109cd565b6103a7610417366004612788565b610abc565b61031461042a366004612788565b610b48565b6102ad61043d366004612720565b610c34565b60005460ff166102ad565b61031461045b3660046126db565b6001600160a01b031660009081526003602052604090205490565b61047e610c83565b6040516102b991906127a1565b610314600080516020612b7383398151915281565b6103a76104ae3660046126f6565b610e97565b6103146104c13660046126db565b610f21565b6103a7610f3f565b6103a76104dc3660046126db565b610f7b565b6103a76104ef3660046126db565b611000565b610507610502366004612815565b611088565b6040516001600160a01b0390911681526020016102b9565b6102ad61052d366004612720565b6110a7565b6102ca6110d2565b610314600081565b610555610550366004612788565b6110e1565b6040516102b99190612837565b6102ad6105703660046126f6565b611190565b6102ad6105833660046126f6565b611222565b6102ad6105963660046126db565b611230565b6103146105a9366004612788565b61127e565b6102ad6105bc3660046126db565b611295565b6103a76105cf366004612884565b6112e3565b610314600080516020612b3383398151915281565b6103a76105f7366004612720565b611447565b61031461060a3660046128f7565b6001600160a01b03918216600090815260046020908152604080832093909416825291909152205490565b6102ad6106433660046126db565b61146e565b610314600080516020612b5383398151915281565b60006001600160e01b03198216635a05180f60e01b148061068257506106828261153c565b92915050565b60606006805461069790612921565b80601f01602080910402602001604051908101604052809291908181526020018280546106c390612921565b80156107105780601f106106e557610100808354040283529160200191610710565b820191906000526020600020905b8154815290600101906020018083116106f357829003601f168201915b5050505050905090565b6000610734600080516020612b73833981519152336110a7565b6107595760405162461bcd60e51b815260040161075090612956565b60405180910390fd5b610771600080516020612b1383398151915283611447565b5060015b919050565b600033610788818585611571565b5060019392505050565b60006107ac600080516020612b73833981519152336110a7565b6107c85760405162461bcd60e51b815260040161075090612956565b610771600080516020612b1383398151915283610897565b60006107fa600080516020612b73833981519152336110a7565b6108165760405162461bcd60e51b815260040161075090612956565b6108208383610897565b50600192915050565b600033610837858285611695565b610842858585611727565b506001949350505050565b6000610867600080516020612b73833981519152336110a7565b6108835760405162461bcd60e51b815260040161075090612956565b610771600080516020612b33833981519152835b600082815260016020819052604090912001546108b48133611900565b6108be8383611964565b505050565b60006108cd611986565b905090565b6001600160a01b03811633146109425760405162461bcd60e51b815260206004820152602f60248201527f416363657373436f6e74726f6c3a2063616e206f6e6c792072656e6f756e636560448201526e103937b632b9903337b91039b2b63360891b6064820152608401610750565b61094c8282611aad565b5050565b3360008181526004602090815260408083206001600160a01b0387168452909152812054909190610788908290869061098a90879061299b565b611571565b6109a7600080516020612b73833981519152336110a7565b6109c35760405162461bcd60e51b815260040161075090612956565b6109cb611acf565b565b6109e5600080516020612b33833981519152336110a7565b610a2a5760405162461bcd60e51b815260206004820152601660248201527521b0b63632b91034b9903737ba10309036b4b73a32b960511b6044820152606401610750565b60005460ff1615610a4d5760405162461bcd60e51b8152600401610750906129b3565b60095481610a5a60055490565b610a64919061299b565b1115610ab25760405162461bcd60e51b815260206004820152601960248201527f45524332304361707065643a20636170206578636565646564000000000000006044820152606401610750565b61094c8282611b62565b610ad4600080516020612b13833981519152336110a7565b610b195760405162461bcd60e51b815260206004820152601660248201527521b0b63632b91034b9903737ba103090313ab93732b960511b6044820152606401610750565b60005460ff1615610b3c5760405162461bcd60e51b8152600401610750906129b3565b610b4581611c4d565b50565b6000610b62600080516020612b73833981519152336110a7565b610b7e5760405162461bcd60e51b815260040161075090612956565b60008211610bc05760405162461bcd60e51b815260206004820152600f60248201526e045524332303a20636170206973203608c1b6044820152606401610750565b6005548211610c2b5760405162461bcd60e51b815260206004820152603160248201527f45524332303a206e6577206361702073686f756c64206265206c6172676572206044820152707468616e20746f74616c20737570706c7960781b6064820152608401610750565b50600981905590565b6000610c4e600080516020612b73833981519152336110a7565b610c6a5760405162461bcd60e51b815260040161075090612956565b610c7483836110a7565b15610820576108208383611447565b60408051600480825260a0820190925260609160009190816020015b604080518082019091526000815260606020820152815260200190600190039081610c9f5790505090506040518060400160405280600080516020612b7383398151915281526020016040518060400160405280601681526020017518591b5a5b88199bdc881d1a194818dbdb9d1c9858dd60521b81525081525081600181518110610d2d57610d2d6129f3565b60200260200101819052506040518060400160405280600080516020612b3383398151915281526020016040518060400160405280601981526020017f6d696e7465722063616e206d696e74206e657720636f696e730000000000000081525081525081600281518110610da357610da36129f3565b60200260200101819052506040518060400160405280600080516020612b138339815191528152602001604051806040016040528060158152602001746275726e65722063616e206275726e20636f696e7360581b81525081525081600381518110610e1157610e116129f3565b60200260200101819052506040518060400160405280600080516020612b5383398151915281526020016040518060400160405280602081526020017f626c61636b6c69737465722063616e2075706461746520626c61636b6c69737481525081525081600481518110610e8757610e876129f3565b6020908102919091010152919050565b610eaf600080516020612b13833981519152336110a7565b610ef45760405162461bcd60e51b815260206004820152601660248201527521b0b63632b91034b9903737ba103090313ab93732b960511b6044820152606401610750565b60005460ff1615610f175760405162461bcd60e51b8152600401610750906129b3565b61094c8282611c57565b6001600160a01b038116600090815260086020526040812054610682565b610f57600080516020612b73833981519152336110a7565b610f735760405162461bcd60e51b815260040161075090612956565b6109cb611c6c565b610f93600080516020612b53833981519152336110a7565b610fdf5760405162461bcd60e51b815260206004820152601b60248201527f43616c6c6572206973206e6f74206120626c61636b6c697374657200000000006044820152606401610750565b6001600160a01b03166000908152600a60205260409020805460ff19169055565b611018600080516020612b53833981519152336110a7565b6110645760405162461bcd60e51b815260206004820152601b60248201527f43616c6c6572206973206e6f74206120626c61636b6c697374657200000000006044820152606401610750565b6001600160a01b03166000908152600a60205260409020805460ff19166001179055565b60008281526002602052604081206110a09083611cc4565b9392505050565b60009182526001602090815260408084206001600160a01b0393909316845291905290205460ff1690565b60606007805461069790612921565b606060006110ee8361127e565b905060008167ffffffffffffffff81111561110b5761110b6129dd565b604051908082528060200260200182016040528015611134578160200160208202803683370190505b50905060005b828110156111885761114c8582611088565b82828151811061115e5761115e6129f3565b6001600160a01b03909216602092830291909101909101528061118081612a09565b91505061113a565b509392505050565b3360008181526004602090815260408083206001600160a01b0387168452909152812054909190838110156112155760405162461bcd60e51b815260206004820152602560248201527f45524332303a2064656372656173656420616c6c6f77616e63652062656c6f77604482015264207a65726f60d81b6064820152608401610750565b6108428286868403611571565b600033610788818585611727565b600061124a600080516020612b73833981519152336110a7565b6112665760405162461bcd60e51b815260040161075090612956565b610771600080516020612b5383398151915283611447565b600081815260026020526040812061068290611cd0565b60006112af600080516020612b73833981519152336110a7565b6112cb5760405162461bcd60e51b815260040161075090612956565b610771600080516020612b3383398151915283611447565b834211156113335760405162461bcd60e51b815260206004820152601d60248201527f45524332305065726d69743a206578706972656420646561646c696e650000006044820152606401610750565b60007f00000000000000000000000000000000000000000000000000000000000000008888886113628c611cda565b6040805160208101969096526001600160a01b0394851690860152929091166060840152608083015260a082015260c0810186905260e00160405160208183030381529060405280519060200120905060006113bd82611d02565b905060006113cd82878787611d50565b9050896001600160a01b0316816001600160a01b0316146114305760405162461bcd60e51b815260206004820152601e60248201527f45524332305065726d69743a20696e76616c6964207369676e617475726500006044820152606401610750565b61143b8a8a8a611571565b50505050505050505050565b600082815260016020819052604090912001546114648133611900565b6108be8383611aad565b6000611488600080516020612b73833981519152336110a7565b6114a45760405162461bcd60e51b815260040161075090612956565b610771600080516020612b5383398151915283610897565b6114c682826110a7565b61094c5760008281526001602081815260408084206001600160a01b0386168086529252808420805460ff19169093179092559051339285917f2f8788117e7eff1d82e926ec794901d17c78024a50270940304540a733656f0d9190a45050565b60006110a0836001600160a01b038416611d78565b60006001600160e01b03198216637965db0b60e01b148061068257506301ffc9a760e01b6001600160e01b0319831614610682565b6001600160a01b0383166115d35760405162461bcd60e51b8152602060048201526024808201527f45524332303a20617070726f76652066726f6d20746865207a65726f206164646044820152637265737360e01b6064820152608401610750565b6001600160a01b0382166116345760405162461bcd60e51b815260206004820152602260248201527f45524332303a20617070726f766520746f20746865207a65726f206164647265604482015261737360f01b6064820152608401610750565b6001600160a01b0383811660008181526004602090815260408083209487168084529482529182902085905590518481527f8c5be1e5ebec7d5bd14f71427d1e84f3dd0314c0f7b2291e5b200ac8c7c3b925910160405180910390a3505050565b6001600160a01b03838116600090815260046020908152604080832093861683529290522054600019811461172157818110156117145760405162461bcd60e51b815260206004820152601d60248201527f45524332303a20696e73756666696369656e7420616c6c6f77616e63650000006044820152606401610750565b6117218484848403611571565b50505050565b6001600160a01b03831661178b5760405162461bcd60e51b815260206004820152602560248201527f45524332303a207472616e736665722066726f6d20746865207a65726f206164604482015264647265737360d81b6064820152608401610750565b6001600160a01b0382166117ed5760405162461bcd60e51b815260206004820152602360248201527f45524332303a207472616e7366657220746f20746865207a65726f206164647260448201526265737360e81b6064820152608401610750565b6117f8838383611dc7565b6001600160a01b038316600090815260036020526040902054818110156118705760405162461bcd60e51b815260206004820152602660248201527f45524332303a207472616e7366657220616d6f756e7420657863656564732062604482015265616c616e636560d01b6064820152608401610750565b6001600160a01b038085166000908152600360205260408082208585039055918516815290812080548492906118a790849061299b565b92505081905550826001600160a01b0316846001600160a01b03167fddf252ad1be2c89b69c2b068fc378daa952ba7f163c4a11628f55a4df523b3ef846040516118f391815260200190565b60405180910390a3611721565b61190a82826110a7565b61094c57611922816001600160a01b03166014611ef8565b61192d836020611ef8565b60405160200161193e929190612a24565b60408051601f198184030181529082905262461bcd60e51b8252610750916004016126b1565b61196e82826114bc565b60008281526002602052604090206108be9082611527565b6000306001600160a01b037f0000000000000000000000000000000000000000000000000000000000000000161480156119df57507f000000000000000000000000000000000000000000000000000000000000000046145b15611a0957507f000000000000000000000000000000000000000000000000000000000000000090565b50604080517f00000000000000000000000000000000000000000000000000000000000000006020808301919091527f0000000000000000000000000000000000000000000000000000000000000000828401527f000000000000000000000000000000000000000000000000000000000000000060608301524660808301523060a0808401919091528351808403909101815260c0909201909252805191012090565b611ab78282612094565b60008281526002602052604090206108be90826120fb565b60005460ff16611b185760405162461bcd60e51b815260206004820152601460248201527314185d5cd8589b194e881b9bdd081c185d5cd95960621b6044820152606401610750565b6000805460ff191690557f5db9ee0a495bf2e6ff9c91a7834c1ba4fdd244a5e8aa4e537bd38aeae4b073aa335b6040516001600160a01b03909116815260200160405180910390a1565b6001600160a01b038216611bb85760405162461bcd60e51b815260206004820152601f60248201527f45524332303a206d696e7420746f20746865207a65726f2061646472657373006044820152606401610750565b611bc460008383611dc7565b8060056000828254611bd6919061299b565b90915550506001600160a01b03821660009081526003602052604081208054839290611c0390849061299b565b90915550506040518181526001600160a01b038316906000907fddf252ad1be2c89b69c2b068fc378daa952ba7f163c4a11628f55a4df523b3ef9060200160405180910390a35050565b610b453382612110565b611c62823383611695565b61094c8282612110565b60005460ff1615611c8f5760405162461bcd60e51b8152600401610750906129b3565b6000805460ff191660011790557f62e78cea01bee320cd4e420270b5ea74000d11b0c9f74754ebdbfc544b05a258611b453390565b60006110a0838361226a565b6000610682825490565b6001600160a01b03811660009081526008602052604090208054600181018255905b50919050565b6000610682611d0f611986565b8360405161190160f01b6020820152602281018390526042810182905260009060620160405160208183030381529060405280519060200120905092915050565b6000806000611d6187878787612294565b91509150611d6e81612381565b5095945050505050565b6000818152600183016020526040812054611dbf57508154600181810184556000848152602080822090930184905584548482528286019093526040902091909155610682565b506000610682565b60005460ff1615611e2e5760405162461bcd60e51b815260206004820152602b60248201527f4552433230205061757361626c653a20746f6b656e207472616e73666572207760448201526a1a1a5b19481c185d5cd95960aa1b6064820152608401610750565b6001600160a01b0383166000908152600a602052604090205460ff1615611e8f5760405162461bcd60e51b815260206004820152601560248201527429b7bab931b29030b1b1b7bab73a10333937bd32b760591b6044820152606401610750565b6001600160a01b0382166000908152600a602052604090205460ff16156108be5760405162461bcd60e51b815260206004820152601a60248201527f44657374696e6174696f6e206163636f756e742066726f7a656e0000000000006044820152606401610750565b60606000611f07836002612a99565b611f1290600261299b565b67ffffffffffffffff811115611f2a57611f2a6129dd565b6040519080825280601f01601f191660200182016040528015611f54576020820181803683370190505b509050600360fc1b81600081518110611f6f57611f6f6129f3565b60200101906001600160f81b031916908160001a905350600f60fb1b81600181518110611f9e57611f9e6129f3565b60200101906001600160f81b031916908160001a9053506000611fc2846002612a99565b611fcd90600161299b565b90505b6001811115612045576f181899199a1a9b1b9c1cb0b131b232b360811b85600f1660108110612001576120016129f3565b1a60f81b828281518110612017576120176129f3565b60200101906001600160f81b031916908160001a90535060049490941c9361203e81612ab8565b9050611fd0565b5083156110a05760405162461bcd60e51b815260206004820181905260248201527f537472696e67733a20686578206c656e67746820696e73756666696369656e746044820152606401610750565b61209e82826110a7565b1561094c5760008281526001602090815260408083206001600160a01b0385168085529252808320805460ff1916905551339285917ff6391f5c32d9c69d2a47ea670b442974b53935d1edc7fd64eb21e047a839171b9190a45050565b60006110a0836001600160a01b03841661253c565b6001600160a01b0382166121705760405162461bcd60e51b815260206004820152602160248201527f45524332303a206275726e2066726f6d20746865207a65726f206164647265736044820152607360f81b6064820152608401610750565b61217c82600083611dc7565b6001600160a01b038216600090815260036020526040902054818110156121f05760405162461bcd60e51b815260206004820152602260248201527f45524332303a206275726e20616d6f756e7420657863656564732062616c616e604482015261636560f01b6064820152608401610750565b6001600160a01b038316600090815260036020526040812083830390556005805484929061221f908490612acf565b90915550506040518281526000906001600160a01b038516907fddf252ad1be2c89b69c2b068fc378daa952ba7f163c4a11628f55a4df523b3ef9060200160405180910390a3505050565b6000826000018281548110612281576122816129f3565b9060005260206000200154905092915050565b6000807f7fffffffffffffffffffffffffffffff5d576e7357a4501ddfe92f46681b20a08311156122cb5750600090506003612378565b8460ff16601b141580156122e357508460ff16601c14155b156122f45750600090506004612378565b6040805160008082526020820180845289905260ff881692820192909252606081018690526080810185905260019060a0016020604051602081039080840390855afa158015612348573d6000803e3d6000fd5b5050604051601f1901519150506001600160a01b03811661237157600060019250925050612378565b9150600090505b94509492505050565b600081600481111561239557612395612ae6565b141561239e5750565b60018160048111156123b2576123b2612ae6565b14156124005760405162461bcd60e51b815260206004820152601860248201527f45434453413a20696e76616c6964207369676e617475726500000000000000006044820152606401610750565b600281600481111561241457612414612ae6565b14156124625760405162461bcd60e51b815260206004820152601f60248201527f45434453413a20696e76616c6964207369676e6174757265206c656e677468006044820152606401610750565b600381600481111561247657612476612ae6565b14156124cf5760405162461bcd60e51b815260206004820152602260248201527f45434453413a20696e76616c6964207369676e6174757265202773272076616c604482015261756560f01b6064820152608401610750565b60048160048111156124e3576124e3612ae6565b1415610b455760405162461bcd60e51b815260206004820152602260248201527f45434453413a20696e76616c6964207369676e6174757265202776272076616c604482015261756560f01b6064820152608401610750565b60008181526001830160205260408120548015612625576000612560600183612acf565b855490915060009061257490600190612acf565b90508181146125d9576000866000018281548110612594576125946129f3565b90600052602060002001549050808760000184815481106125b7576125b76129f3565b6000918252602080832090910192909255918252600188019052604090208390555b85548690806125ea576125ea612afc565b600190038181906000526020600020016000905590558560010160008681526020019081526020016000206000905560019350505050610682565b6000915050610682565b60006020828403121561264157600080fd5b81356001600160e01b0319811681146110a057600080fd5b60005b8381101561267457818101518382015260200161265c565b838111156117215750506000910152565b6000815180845261269d816020860160208601612659565b601f01601f19169290920160200192915050565b6020815260006110a06020830184612685565b80356001600160a01b038116811461077557600080fd5b6000602082840312156126ed57600080fd5b6110a0826126c4565b6000806040838503121561270957600080fd5b612712836126c4565b946020939093013593505050565b6000806040838503121561273357600080fd5b82359150612743602084016126c4565b90509250929050565b60008060006060848603121561276157600080fd5b61276a846126c4565b9250612778602085016126c4565b9150604084013590509250925092565b60006020828403121561279a57600080fd5b5035919050565b60006020808301818452808551808352604092508286019150828160051b87010184880160005b8381101561280757888303603f190185528151805184528701518784018790526127f487850182612685565b95880195935050908601906001016127c8565b509098975050505050505050565b6000806040838503121561282857600080fd5b50508035926020909101359150565b6020808252825182820181905260009190848201906040850190845b818110156128785783516001600160a01b031683529284019291840191600101612853565b50909695505050505050565b600080600080600080600060e0888a03121561289f57600080fd5b6128a8886126c4565b96506128b6602089016126c4565b95506040880135945060608801359350608088013560ff811681146128da57600080fd5b9699959850939692959460a0840135945060c09093013592915050565b6000806040838503121561290a57600080fd5b612913836126c4565b9150612743602084016126c4565b600181811c9082168061293557607f821691505b60208210811415611cfc57634e487b7160e01b600052602260045260246000fd5b60208082526015908201527421b0b63632b91034b9903737ba10309030b236b4b760591b604082015260600190565b634e487b7160e01b600052601160045260246000fd5b600082198211156129ae576129ae612985565b500190565b60208082526010908201526f14185d5cd8589b194e881c185d5cd95960821b604082015260600190565b634e487b7160e01b600052604160045260246000fd5b634e487b7160e01b600052603260045260246000fd5b6000600019821415612a1d57612a1d612985565b5060010190565b7f416363657373436f6e74726f6c3a206163636f756e7420000000000000000000815260008351612a5c816017850160208801612659565b7001034b99036b4b9b9b4b733903937b6329607d1b6017918401918201528351612a8d816028840160208801612659565b01602801949350505050565b6000816000190483118215151615612ab357612ab3612985565b500290565b600081612ac757612ac7612985565b506000190190565b600082821015612ae157612ae1612985565b500390565b634e487b7160e01b600052602160045260246000fd5b634e487b7160e01b600052603160045260246000fdfe3c11d16cbaffd01df69ce1c404f6340ee057498f5f00246190ea54220576a8489f2df0fed2c77648de5860a4cc508cd0818c85b8b8a1ab4ceeef8d981c8956a698db8a220cd0f09badce9f22d0ba7e93edb3d404448cc3560d391ab096ad16e9a49807205ce4d355092ef5a8a18f56e8913cf4a201fbe287825b095693c21775a26469706673582212204d091ce66c2229207ee5941d06c46c5a60408d4b97eecb19f5c2297d3c7bfed264736f6c63430008090033",
  "devdoc": {
    "kind": "dev",
    "methods": {
      "DOMAIN_SEPARATOR()": {
        "details": "See {IERC20Permit-DOMAIN_SEPARATOR}."
      },
      "allowance(address,address)": {
        "details": "See {IERC20-allowance}."
      },
      "approve(address,uint256)": {
        "details": "See {IERC20-approve}. NOTE: If `amount` is the maximum `uint256`, the allowance is not updated on `transferFrom`. This is semantically equivalent to an infinite approval. Requirements: - `spender` cannot be the zero address."
      },
      "balanceOf(address)": {
        "details": "See {IERC20-balanceOf}."
      },
      "burn(uint256)": {
        "details": "Destroys `amount` tokens from the caller. See {ERC20-_burn}."
      },
      "burnFrom(address,uint256)": {
        "details": "Destroys `amount` tokens from `account`, deducting from the caller's allowance. See {ERC20-_burn} and {ERC20-allowance}. Requirements: - the caller must have allowance for ``accounts``'s tokens of at least `amount`."
      },
      "decimals()": {
        "details": "Returns the number of decimals used to get its user representation. For example, if `decimals` equals `2`, a balance of `505` tokens should be displayed to a user as `5.05` (`505 / 10 ** 2`). Tokens usually opt for a value of 18, imitating the relationship between Ether and Wei. This is the value {ERC20} uses, unless this function is overridden; NOTE: This information is only used for _display_ purposes: it in no way affects any of the arithmetic of the contract, including {IERC20-balanceOf} and {IERC20-transfer}."
      },
      "decreaseAllowance(address,uint256)": {
        "details": "Atomically decreases the allowance granted to `spender` by the caller. This is an alternative to {approve} that can be used as a mitigation for problems described in {IERC20-approve}. Emits an {Approval} event indicating the updated allowance. Requirements: - `spender` cannot be the zero address. - `spender` must have allowance for the caller of at least `subtractedValue`."
      },
      "getRoleAdmin(bytes32)": {
        "details": "Returns the admin role that controls `role`. See {grantRole} and {revokeRole}. To change a role's admin, use {_setRoleAdmin}."
      },
      "getRoleMember(bytes32,uint256)": {
        "details": "Returns one of the accounts that have `role`. `index` must be a value between 0 and {getRoleMemberCount}, non-inclusive. Role bearers are not sorted in any particular way, and their ordering may change at any point. WARNING: When using {getRoleMember} and {getRoleMemberCount}, make sure you perform all queries on the same block. See the following https://forum.openzeppelin.com/t/iterating-over-elements-on-enumerableset-in-openzeppelin-contracts/2296[forum post] for more information."
      },
      "getRoleMemberCount(bytes32)": {
        "details": "Returns the number of accounts that have `role`. Can be used together with {getRoleMember} to enumerate all bearers of a role."
      },
      "grantRole(bytes32,address)": {
        "details": "Grants `role` to `account`. If `account` had not been already granted `role`, emits a {RoleGranted} event. Requirements: - the caller must have ``role``'s admin role."
      },
      "hasRole(bytes32,address)": {
        "details": "Returns `true` if `account` has been granted `role`."
      },
      "increaseAllowance(address,uint256)": {
        "details": "Atomically increases the allowance granted to `spender` by the caller. This is an alternative to {approve} that can be used as a mitigation for problems described in {IERC20-approve}. Emits an {Approval} event indicating the updated allowance. Requirements: - `spender` cannot be the zero address."
      },
      "name()": {
        "details": "Returns the name of the token."
      },
      "nonces(address)": {
        "details": "See {IERC20Permit-nonces}."
      },
      "paused()": {
        "details": "Returns true if the contract is paused, and false otherwise."
      },
      "permit(address,address,uint256,uint256,uint8,bytes32,bytes32)": {
        "details": "See {IERC20Permit-permit}."
      },
      "renounceRole(bytes32,address)": {
        "details": "Revokes `role` from the calling account. Roles are often managed via {grantRole} and {revokeRole}: this function's purpose is to provide a mechanism for accounts to lose their privileges if they are compromised (such as when a trusted device is misplaced). If the calling account had been revoked `role`, emits a {RoleRevoked} event. Requirements: - the caller must be `account`."
      },
      "revokeRole(bytes32,address)": {
        "details": "Revokes `role` from `account`. If `account` had been granted `role`, emits a {RoleRevoked} event. Requirements: - the caller must have ``role``'s admin role."
      },
      "supportsInterface(bytes4)": {
        "details": "See {IERC165-supportsInterface}."
      },
      "symbol()": {
        "details": "Returns the symbol of the token, usually a shorter version of the name."
      },
      "totalSupply()": {
        "details": "See {IERC20-totalSupply}."
      },
      "transfer(address,uint256)": {
        "details": "See {IERC20-transfer}. Requirements: - `to` cannot be the zero address. - the caller must have a balance of at least `amount`."
      },
      "transferFrom(address,address,uint256)": {
        "details": "See {IERC20-transferFrom}. Emits an {Approval} event indicating the updated allowance. This is not required by the EIP. See the note at the beginning of {ERC20}. NOTE: Does not update the allowance if the current allowance is the maximum `uint256`. Requirements: - `from` and `to` cannot be the zero address. - `from` must have a balance of at least `amount`. - the caller must have allowance for ``from``'s tokens of at least `amount`."
      }
    },
    "version": 1
  },
  "userdoc": {
    "kind": "user",
    "methods": {},
    "version": 1
  },
  "storageLayout": {
    "storage": [
      {
        "astId": 549,
        "contract": "contracts/token.sol:XToken",
        "label": "_paused",
        "offset": 0,
        "slot": "0",
        "type": "t_bool"
      },
      {
        "astId": 24,
        "contract": "contracts/token.sol:XToken",
        "label": "_roles",
        "offset": 0,
        "slot": "1",
        "type": "t_mapping(t_bytes32,t_struct(RoleData)19_storage)"
      },
      {
        "astId": 327,
        "contract": "contracts/token.sol:XToken",
        "label": "_roleMembers",
        "offset": 0,
        "slot": "2",
        "type": "t_mapping(t_bytes32,t_struct(AddressSet)3083_storage)"
      },
      {
        "astId": 639,
        "contract": "contracts/token.sol:XToken",
        "label": "_balances",
        "offset": 0,
        "slot": "3",
        "type": "t_mapping(t_address,t_uint256)"
      },
      {
        "astId": 645,
        "contract": "contracts/token.sol:XToken",
        "label": "_allowances",
        "offset": 0,
        "slot": "4",
        "type": "t_mapping(t_address,t_mapping(t_address,t_uint256))"
      },
      {
        "astId": 647,
        "contract": "contracts/token.sol:XToken",
        "label": "_totalSupply",
        "offset": 0,
        "slot": "5",
        "type": "t_uint256"
      },
      {
        "astId": 649,
        "contract": "contracts/token.sol:XToken",
        "label": "_name",
        "offset": 0,
        "slot": "6",
        "type": "t_string_storage"
      },
      {
        "astId": 651,
        "contract": "contracts/token.sol:XToken",
        "label": "_symbol",
        "offset": 0,
        "slot": "7",
        "type": "t_string_storage"
      },
      {
        "astId": 1381,
        "contract": "contracts/token.sol:XToken",
        "label": "_nonces",
        "offset": 0,
        "slot": "8",
        "type": "t_mapping(t_address,t_struct(Counter)1591_storage)"
      },
      {
        "astId": 3727,
        "contract": "contracts/token.sol:XToken",
        "label": "_cap",
        "offset": 0,
        "slot": "9",
        "type": "t_uint256"
      },
      {
        "astId": 3731,
        "contract": "contracts/token.sol:XToken",
        "label": "frozen",
        "offset": 0,
        "slot": "10",
        "type": "t_mapping(t_address,t_bool)"
      }
    ],
    "types": {
      "t_address": {
        "encoding": "inplace",
        "label": "address",
        "numberOfBytes": "20"
      },
      "t_array(t_bytes32)dyn_storage": {
        "base": "t_bytes32",
        "encoding": "dynamic_array",
        "label": "bytes32[]",
        "numberOfBytes": "32"
      },
      "t_bool": {
        "encoding": "inplace",
        "label": "bool",
        "numberOfBytes": "1"
      },
      "t_bytes32": {
        "encoding": "inplace",
        "label": "bytes32",
        "numberOfBytes": "32"
      },
      "t_mapping(t_address,t_bool)": {
        "encoding": "mapping",
        "key": "t_address",
        "label": "mapping(address => bool)",
        "numberOfBytes": "32",
        "value": "t_bool"
      },
      "t_mapping(t_address,t_mapping(t_address,t_uint256))": {
        "encoding": "mapping",
        "key": "t_address",
        "label": "mapping(address => mapping(address => uint256))",
        "numberOfBytes": "32",
        "value": "t_mapping(t_address,t_uint256)"
      },
      "t_mapping(t_address,t_struct(Counter)1591_storage)": {
        "encoding": "mapping",
        "key": "t_address",
        "label": "mapping(address => struct Counters.Counter)",
        "numberOfBytes": "32",
        "value": "t_struct(Counter)1591_storage"
      },
      "t_mapping(t_address,t_uint256)": {
        "encoding": "mapping",
        "key": "t_address",
        "label": "mapping(address => uint256)",
        "numberOfBytes": "32",
        "value": "t_uint256"
      },
      "t_mapping(t_bytes32,t_struct(AddressSet)3083_storage)": {
        "encoding": "mapping",
        "key": "t_bytes32",
        "label": "mapping(bytes32 => struct EnumerableSet.AddressSet)",
        "numberOfBytes": "32",
        "value": "t_struct(AddressSet)3083_storage"
      },
      "t_mapping(t_bytes32,t_struct(RoleData)19_storage)": {
        "encoding": "mapping",
        "key": "t_bytes32",
        "label": "mapping(bytes32 => struct AccessControl.RoleData)",
        "numberOfBytes": "32",
        "value": "t_struct(RoleData)19_storage"
      },
      "t_mapping(t_bytes32,t_uint256)": {
        "encoding": "mapping",
        "key": "t_bytes32",
        "label": "mapping(bytes32 => uint256)",
        "numberOfBytes": "32",
        "value": "t_uint256"
      },
      "t_string_storage": {
        "encoding": "bytes",
        "label": "string",
        "numberOfBytes": "32"
      },
      "t_struct(AddressSet)3083_storage": {
        "encoding": "inplace",
        "label": "struct EnumerableSet.AddressSet",
        "members": [
          {
            "astId": 3082,
            "contract": "contracts/token.sol:XToken",
            "label": "_inner",
            "offset": 0,
            "slot": "0",
            "type": "t_struct(Set)2782_storage"
          }
        ],
        "numberOfBytes": "64"
      },
      "t_struct(Counter)1591_storage": {
        "encoding": "inplace",
        "label": "struct Counters.Counter",
        "members": [
          {
            "astId": 1590,
            "contract": "contracts/token.sol:XToken",
            "label": "_value",
            "offset": 0,
            "slot": "0",
            "type": "t_uint256"
          }
        ],
        "numberOfBytes": "32"
      },
      "t_struct(RoleData)19_storage": {
        "encoding": "inplace",
        "label": "struct AccessControl.RoleData",
        "members": [
          {
            "astId": 16,
            "contract": "contracts/token.sol:XToken",
            "label": "members",
            "offset": 0,
            "slot": "0",
            "type": "t_mapping(t_address,t_bool)"
          },
          {
            "astId": 18,
            "contract": "contracts/token.sol:XToken",
            "label": "adminRole",
            "offset": 0,
            "slot": "1",
            "type": "t_bytes32"
          }
        ],
        "numberOfBytes": "64"
      },
      "t_struct(Set)2782_storage": {
        "encoding": "inplace",
        "label": "struct EnumerableSet.Set",
        "members": [
          {
            "astId": 2777,
            "contract": "contracts/token.sol:XToken",
            "label": "_values",
            "offset": 0,
            "slot": "0",
            "type": "t_array(t_bytes32)dyn_storage"
          },
          {
            "astId": 2781,
            "contract": "contracts/token.sol:XToken",
            "label": "_indexes",
            "offset": 0,
            "slot": "1",
            "type": "t_mapping(t_bytes32,t_uint256)"
          }
        ],
        "numberOfBytes": "64"
      },
      "t_uint256": {
        "encoding": "inplace",
        "label": "uint256",
        "numberOfBytes": "32"
      }
    }
  }
}