{
  "address": "0x846Ec0C9aCF0107Ce557CA75734B6d3b2e43A39e",
  "abi": [
    {
      "inputs": [
        {
          "internalType": "string",
          "name": "name",
          "type": "string"
        },
        {
          "internalType": "string",
          "name": "symbol",
          "type": "string"
        },
        {
          "internalType": "uint256",
          "name": "cap_",
          "type": "uint256"
        }
      ],
      "stateMutability": "nonpayable",
      "type": "constructor"
    },
    {
      "anonymous": false,
      "inputs": [
        {
          "indexed": true,
          "internalType": "address",
          "name": "owner",
          "type": "address"
        },
        {
          "indexed": true,
          "internalType": "address",
          "name": "spender",
          "type": "address"
        },
        {
          "indexed": false,
          "internalType": "uint256",
          "name": "value",
          "type": "uint256"
        }
      ],
      "name": "Approval",
      "type": "event"
    },
    {
      "anonymous": false,
      "inputs": [
        {
          "indexed": false,
          "internalType": "address",
          "name": "account",
          "type": "address"
        }
      ],
      "name": "Paused",
      "type": "event"
    },
    {
      "anonymous": false,
      "inputs": [
        {
          "indexed": true,
          "internalType": "bytes32",
          "name": "role",
          "type": "bytes32"
        },
        {
          "indexed": true,
          "internalType": "bytes32",
          "name": "previousAdminRole",
          "type": "bytes32"
        },
        {
          "indexed": true,
          "internalType": "bytes32",
          "name": "newAdminRole",
          "type": "bytes32"
        }
      ],
      "name": "RoleAdminChanged",
      "type": "event"
    },
    {
      "anonymous": false,
      "inputs": [
        {
          "indexed": true,
          "internalType": "bytes32",
          "name": "role",
          "type": "bytes32"
        },
        {
          "indexed": true,
          "internalType": "address",
          "name": "account",
          "type": "address"
        },
        {
          "indexed": true,
          "internalType": "address",
          "name": "sender",
          "type": "address"
        }
      ],
      "name": "RoleGranted",
      "type": "event"
    },
    {
      "anonymous": false,
      "inputs": [
        {
          "indexed": true,
          "internalType": "bytes32",
          "name": "role",
          "type": "bytes32"
        },
        {
          "indexed": true,
          "internalType": "address",
          "name": "account",
          "type": "address"
        },
        {
          "indexed": true,
          "internalType": "address",
          "name": "sender",
          "type": "address"
        }
      ],
      "name": "RoleRevoked",
      "type": "event"
    },
    {
      "anonymous": false,
      "inputs": [
        {
          "indexed": true,
          "internalType": "address",
          "name": "from",
          "type": "address"
        },
        {
          "indexed": true,
          "internalType": "address",
          "name": "to",
          "type": "address"
        },
        {
          "indexed": false,
          "internalType": "uint256",
          "name": "value",
          "type": "uint256"
        }
      ],
      "name": "Transfer",
      "type": "event"
    },
    {
      "anonymous": false,
      "inputs": [
        {
          "indexed": false,
          "internalType": "address",
          "name": "account",
          "type": "address"
        }
      ],
      "name": "Unpaused",
      "type": "event"
    },
    {
      "inputs": [],
      "name": "ADMIN_ROLE",
      "outputs": [
        {
          "internalType": "bytes32",
          "name": "",
          "type": "bytes32"
        }
      ],
      "stateMutability": "view",
      "type": "function"
    },
    {
      "inputs": [],
      "name": "BLACKLISTER_ROLE",
      "outputs": [
        {
          "internalType": "bytes32",
          "name": "",
          "type": "bytes32"
        }
      ],
      "stateMutability": "view",
      "type": "function"
    },
    {
      "inputs": [],
      "name": "BURNER_ROLE",
      "outputs": [
        {
          "internalType": "bytes32",
          "name": "",
          "type": "bytes32"
        }
      ],
      "stateMutability": "view",
      "type": "function"
    },
    {
      "inputs": [],
      "name": "DEFAULT_ADMIN_ROLE",
      "outputs": [
        {
          "internalType": "bytes32",
          "name": "",
          "type": "bytes32"
        }
      ],
      "stateMutability": "view",
      "type": "function"
    },
    {
      "inputs": [],
      "name": "DOMAIN_SEPARATOR",
      "outputs": [
        {
          "internalType": "bytes32",
          "name": "",
          "type": "bytes32"
        }
      ],
      "stateMutability": "view",
      "type": "function"
    },
    {
      "inputs": [],
      "name": "GRANTER_ROLE",
      "outputs": [
        {
          "internalType": "bytes32",
          "name": "",
          "type": "bytes32"
        }
      ],
      "stateMutability": "view",
      "type": "function"
    },
    {
      "inputs": [],
      "name": "MINTER_ROLE",
      "outputs": [
        {
          "internalType": "bytes32",
          "name": "",
          "type": "bytes32"
        }
      ],
      "stateMutability": "view",
      "type": "function"
    },
    {
      "inputs": [
        {
          "internalType": "bytes32",
          "name": "role",
          "type": "bytes32"
        },
        {
          "internalType": "address",
          "name": "member",
          "type": "address"
        }
      ],
      "name": "addRoleMember",
      "outputs": [
        {
          "internalType": "bool",
          "name": "",
          "type": "bool"
        }
      ],
      "stateMutability": "nonpayable",
      "type": "function"
    },
    {
      "inputs": [
        {
          "internalType": "address",
          "name": "owner",
          "type": "address"
        },
        {
          "internalType": "address",
          "name": "spender",
          "type": "address"
        }
      ],
      "name": "allowance",
      "outputs": [
        {
          "internalType": "uint256",
          "name": "",
          "type": "uint256"
        }
      ],
      "stateMutability": "view",
      "type": "function"
    },
    {
      "inputs": [
        {
          "internalType": "address",
          "name": "spender",
          "type": "address"
        },
        {
          "internalType": "uint256",
          "name": "amount",
          "type": "uint256"
        }
      ],
      "name": "approve",
      "outputs": [
        {
          "internalType": "bool",
          "name": "",
          "type": "bool"
        }
      ],
      "stateMutability": "nonpayable",
      "type": "function"
    },
    {
      "inputs": [
        {
          "internalType": "address",
          "name": "account",
          "type": "address"
        }
      ],
      "name": "balanceOf",
      "outputs": [
        {
          "internalType": "uint256",
          "name": "",
          "type": "uint256"
        }
      ],
      "stateMutability": "view",
      "type": "function"
    },
    {
      "inputs": [
        {
          "internalType": "uint256",
          "name": "amount",
          "type": "uint256"
        }
      ],
      "name": "burn",
      "outputs": [],
      "stateMutability": "nonpayable",
      "type": "function"
    },
    {
      "inputs": [
        {
          "internalType": "address",
          "name": "account",
          "type": "address"
        },
        {
          "internalType": "uint256",
          "name": "amount",
          "type": "uint256"
        }
      ],
      "name": "burnFrom",
      "outputs": [],
      "stateMutability": "nonpayable",
      "type": "function"
    },
    {
      "inputs": [],
      "name": "cap",
      "outputs": [
        {
          "internalType": "uint256",
          "name": "",
          "type": "uint256"
        }
      ],
      "stateMutability": "view",
      "type": "function"
    },
    {
      "inputs": [],
      "name": "decimals",
      "outputs": [
        {
          "internalType": "uint8",
          "name": "",
          "type": "uint8"
        }
      ],
      "stateMutability": "view",
      "type": "function"
    },
    {
      "inputs": [
        {
          "internalType": "address",
          "name": "spender",
          "type": "address"
        },
        {
          "internalType": "uint256",
          "name": "subtractedValue",
          "type": "uint256"
        }
      ],
      "name": "decreaseAllowance",
      "outputs": [
        {
          "internalType": "bool",
          "name": "",
          "type": "bool"
        }
      ],
      "stateMutability": "nonpayable",
      "type": "function"
    },
    {
      "inputs": [
        {
          "internalType": "address",
          "name": "account",
          "type": "address"
        }
      ],
      "name": "defrost",
      "outputs": [],
      "stateMutability": "nonpayable",
      "type": "function"
    },
    {
      "inputs": [
        {
          "internalType": "address",
          "name": "account",
          "type": "address"
        }
      ],
      "name": "freeze",
      "outputs": [],
      "stateMutability": "nonpayable",
      "type": "function"
    },
    {
      "inputs": [
        {
          "internalType": "bytes32",
          "name": "role",
          "type": "bytes32"
        }
      ],
      "name": "getRoleAdmin",
      "outputs": [
        {
          "internalType": "bytes32",
          "name": "",
          "type": "bytes32"
        }
      ],
      "stateMutability": "view",
      "type": "function"
    },
    {
      "inputs": [
        {
          "internalType": "bytes32",
          "name": "role",
          "type": "bytes32"
        },
        {
          "internalType": "uint256",
          "name": "index",
          "type": "uint256"
        }
      ],
      "name": "getRoleMember",
      "outputs": [
        {
          "internalType": "address",
          "name": "",
          "type": "address"
        }
      ],
      "stateMutability": "view",
      "type": "function"
    },
    {
      "inputs": [
        {
          "internalType": "bytes32",
          "name": "role",
          "type": "bytes32"
        }
      ],
      "name": "getRoleMemberCount",
      "outputs": [
        {
          "internalType": "uint256",
          "name": "",
          "type": "uint256"
        }
      ],
      "stateMutability": "view",
      "type": "function"
    },
    {
      "inputs": [
        {
          "internalType": "bytes32",
          "name": "role",
          "type": "bytes32"
        }
      ],
      "name": "getRoleMembers",
      "outputs": [
        {
          "internalType": "address[]",
          "name": "",
          "type": "address[]"
        }
      ],
      "stateMutability": "view",
      "type": "function"
    },
    {
      "inputs": [],
      "name": "getRoles",
      "outputs": [
        {
          "components": [
            {
              "internalType": "bytes32",
              "name": "role",
              "type": "bytes32"
            },
            {
              "internalType": "string",
              "name": "describe",
              "type": "string"
            }
          ],
          "internalType": "struct RoleAccess.Role[]",
          "name": "",
          "type": "tuple[]"
        }
      ],
      "stateMutability": "pure",
      "type": "function"
    },
    {
      "inputs": [
        {
          "internalType": "address",
          "name": "blacklister",
          "type": "address"
        }
      ],
      "name": "grantBlacklister",
      "outputs": [
        {
          "internalType": "bool",
          "name": "",
          "type": "bool"
        }
      ],
      "stateMutability": "nonpayable",
      "type": "function"
    },
    {
      "inputs": [
        {
          "internalType": "address",
          "name": "burner",
          "type": "address"
        }
      ],
      "name": "grantBurner",
      "outputs": [
        {
          "internalType": "bool",
          "name": "",
          "type": "bool"
        }
      ],
      "stateMutability": "nonpayable",
      "type": "function"
    },
    {
      "inputs": [
        {
          "internalType": "address",
          "name": "granter",
          "type": "address"
        }
      ],
      "name": "grantGranter",
      "outputs": [
        {
          "internalType": "bool",
          "name": "",
          "type": "bool"
        }
      ],
      "stateMutability": "nonpayable",
      "type": "function"
    },
    {
      "inputs": [
        {
          "internalType": "address",
          "name": "minter",
          "type": "address"
        }
      ],
      "name": "grantMinter",
      "outputs": [
        {
          "internalType": "bool",
          "name": "",
          "type": "bool"
        }
      ],
      "stateMutability": "nonpayable",
      "type": "function"
    },
    {
      "inputs": [
        {
          "internalType": "bytes32",
          "name": "role",
          "type": "bytes32"
        },
        {
          "internalType": "address",
          "name": "account",
          "type": "address"
        }
      ],
      "name": "grantRole",
      "outputs": [],
      "stateMutability": "nonpayable",
      "type": "function"
    },
    {
      "inputs": [
        {
          "internalType": "bytes32",
          "name": "role",
          "type": "bytes32"
        },
        {
          "internalType": "address",
          "name": "account",
          "type": "address"
        }
      ],
      "name": "hasRole",
      "outputs": [
        {
          "internalType": "bool",
          "name": "",
          "type": "bool"
        }
      ],
      "stateMutability": "view",
      "type": "function"
    },
    {
      "inputs": [
        {
          "internalType": "address",
          "name": "spender",
          "type": "address"
        },
        {
          "internalType": "uint256",
          "name": "addedValue",
          "type": "uint256"
        }
      ],
      "name": "increaseAllowance",
      "outputs": [
        {
          "internalType": "bool",
          "name": "",
          "type": "bool"
        }
      ],
      "stateMutability": "nonpayable",
      "type": "function"
    },
    {
      "inputs": [
        {
          "internalType": "address",
          "name": "account",
          "type": "address"
        },
        {
          "internalType": "uint256",
          "name": "amount",
          "type": "uint256"
        }
      ],
      "name": "mint",
      "outputs": [],
      "stateMutability": "nonpayable",
      "type": "function"
    },
    {
      "inputs": [],
      "name": "name",
      "outputs": [
        {
          "internalType": "string",
          "name": "",
          "type": "string"
        }
      ],
      "stateMutability": "view",
      "type": "function"
    },
    {
      "inputs": [
        {
          "internalType": "address",
          "name": "owner",
          "type": "address"
        }
      ],
      "name": "nonces",
      "outputs": [
        {
          "internalType": "uint256",
          "name": "",
          "type": "uint256"
        }
      ],
      "stateMutability": "view",
      "type": "function"
    },
    {
      "inputs": [],
      "name": "pause",
      "outputs": [],
      "stateMutability": "nonpayable",
      "type": "function"
    },
    {
      "inputs": [],
      "name": "paused",
      "outputs": [
        {
          "internalType": "bool",
          "name": "",
          "type": "bool"
        }
      ],
      "stateMutability": "view",
      "type": "function"
    },
    {
      "inputs": [
        {
          "internalType": "address",
          "name": "owner",
          "type": "address"
        },
        {
          "internalType": "address",
          "name": "spender",
          "type": "address"
        },
        {
          "internalType": "uint256",
          "name": "value",
          "type": "uint256"
        },
        {
          "internalType": "uint256",
          "name": "deadline",
          "type": "uint256"
        },
        {
          "internalType": "uint8",
          "name": "v",
          "type": "uint8"
        },
        {
          "internalType": "bytes32",
          "name": "r",
          "type": "bytes32"
        },
        {
          "internalType": "bytes32",
          "name": "s",
          "type": "bytes32"
        }
      ],
      "name": "permit",
      "outputs": [],
      "stateMutability": "nonpayable",
      "type": "function"
    },
    {
      "inputs": [
        {
          "internalType": "bytes32",
          "name": "role",
          "type": "bytes32"
        },
        {
          "internalType": "address",
          "name": "member",
          "type": "address"
        }
      ],
      "name": "removeRoleMember",
      "outputs": [
        {
          "internalType": "bool",
          "name": "",
          "type": "bool"
        }
      ],
      "stateMutability": "nonpayable",
      "type": "function"
    },
    {
      "inputs": [
        {
          "internalType": "bytes32",
          "name": "role",
          "type": "bytes32"
        },
        {
          "internalType": "address",
          "name": "account",
          "type": "address"
        }
      ],
      "name": "renounceRole",
      "outputs": [],
      "stateMutability": "nonpayable",
      "type": "function"
    },
    {
      "inputs": [
        {
          "internalType": "address",
          "name": "blacklister",
          "type": "address"
        }
      ],
      "name": "revokeBlacklister",
      "outputs": [
        {
          "internalType": "bool",
          "name": "",
          "type": "bool"
        }
      ],
      "stateMutability": "nonpayable",
      "type": "function"
    },
    {
      "inputs": [
        {
          "internalType": "address",
          "name": "burner",
          "type": "address"
        }
      ],
      "name": "revokeBurner",
      "outputs": [
        {
          "internalType": "bool",
          "name": "",
          "type": "bool"
        }
      ],
      "stateMutability": "nonpayable",
      "type": "function"
    },
    {
      "inputs": [
        {
          "internalType": "address",
          "name": "granter",
          "type": "address"
        }
      ],
      "name": "revokeGranter",
      "outputs": [
        {
          "internalType": "bool",
          "name": "",
          "type": "bool"
        }
      ],
      "stateMutability": "nonpayable",
      "type": "function"
    },
    {
      "inputs": [
        {
          "internalType": "address",
          "name": "minter",
          "type": "address"
        }
      ],
      "name": "revokeMinter",
      "outputs": [
        {
          "internalType": "bool",
          "name": "",
          "type": "bool"
        }
      ],
      "stateMutability": "nonpayable",
      "type": "function"
    },
    {
      "inputs": [
        {
          "internalType": "bytes32",
          "name": "role",
          "type": "bytes32"
        },
        {
          "internalType": "address",
          "name": "account",
          "type": "address"
        }
      ],
      "name": "revokeRole",
      "outputs": [],
      "stateMutability": "nonpayable",
      "type": "function"
    },
    {
      "inputs": [
        {
          "internalType": "uint256",
          "name": "cap_",
          "type": "uint256"
        }
      ],
      "name": "setCap",
      "outputs": [
        {
          "internalType": "uint256",
          "name": "",
          "type": "uint256"
        }
      ],
      "stateMutability": "nonpayable",
      "type": "function"
    },
    {
      "inputs": [
        {
          "internalType": "bytes4",
          "name": "interfaceId",
          "type": "bytes4"
        }
      ],
      "name": "supportsInterface",
      "outputs": [
        {
          "internalType": "bool",
          "name": "",
          "type": "bool"
        }
      ],
      "stateMutability": "view",
      "type": "function"
    },
    {
      "inputs": [],
      "name": "symbol",
      "outputs": [
        {
          "internalType": "string",
          "name": "",
          "type": "string"
        }
      ],
      "stateMutability": "view",
      "type": "function"
    },
    {
      "inputs": [],
      "name": "totalSupply",
      "outputs": [
        {
          "internalType": "uint256",
          "name": "",
          "type": "uint256"
        }
      ],
      "stateMutability": "view",
      "type": "function"
    },
    {
      "inputs": [
        {
          "internalType": "address",
          "name": "to",
          "type": "address"
        },
        {
          "internalType": "uint256",
          "name": "amount",
          "type": "uint256"
        }
      ],
      "name": "transfer",
      "outputs": [
        {
          "internalType": "bool",
          "name": "",
          "type": "bool"
        }
      ],
      "stateMutability": "nonpayable",
      "type": "function"
    },
    {
      "inputs": [
        {
          "internalType": "address",
          "name": "from",
          "type": "address"
        },
        {
          "internalType": "address",
          "name": "to",
          "type": "address"
        },
        {
          "internalType": "uint256",
          "name": "amount",
          "type": "uint256"
        }
      ],
      "name": "transferFrom",
      "outputs": [
        {
          "internalType": "bool",
          "name": "",
          "type": "bool"
        }
      ],
      "stateMutability": "nonpayable",
      "type": "function"
    },
    {
      "inputs": [],
      "name": "unpause",
      "outputs": [],
      "stateMutability": "nonpayable",
      "type": "function"
    }
  ],
  "transactionHash": "0x56c8588af73670bb4d210e92537e410af97f91daa098c1f4be9860320cc9c8ec",
  "args": [
    "Obosky Token",
    "OBO",
    "1000000000000000000000000000"
  ],
  "solcInputHash": "9a3983140fcfdee3ab652c614a48b180",
  "bytecode": "0x6101606040527f6e71edae12b1b97f4d1f60370fef10105fa2faae0126114a169c64845d6126c9610140523480156200003757600080fd5b5060405162003390380380620033908339810160408190526200005a9162000516565b6040805180820190915260018152603160f81b6020808301919091526000805460ff191690558451859283929091839187916200009e9160069190850190620003a3565b508051620000b4906007906020840190620003a3565b5050825160209384012082519284019290922060e08390526101008190524660a0818152604080517f8b73c3c69bb8fe3d512ecc4cf759cc79239f7b179b0ffacaa9a75d522b39400f818901819052818301979097526060810194909452608080850193909352308483018190528151808603909301835260c094850190915281519190960120905292909252610120525050806200018b5760405162461bcd60e51b815260206004820152600f60248201526e045524332303a20636170206973203608c1b604482015260640160405180910390fd5b60098190556200019d60003362000256565b620001c97fa49807205ce4d355092ef5a8a18f56e8913cf4a201fbe287825b095693c217753362000256565b620001f57f9f2df0fed2c77648de5860a4cc508cd0818c85b8b8a1ab4ceeef8d981c8956a63362000256565b620002217f3c11d16cbaffd01df69ce1c404f6340ee057498f5f00246190ea54220576a8483362000256565b6200024d7f98db8a220cd0f09badce9f22d0ba7e93edb3d404448cc3560d391ab096ad16e93362000256565b505050620005c6565b62000262828262000266565b5050565b6200027d8282620002a960201b620016431760201c565b6000828152600260209081526040909120620002a4918390620016ae62000331821b17901c565b505050565b60008281526001602090815260408083206001600160a01b038516845290915290205460ff16620002625760008281526001602081815260408084206001600160a01b0386168086529252808420805460ff19169093179092559051339285917f2f8788117e7eff1d82e926ec794901d17c78024a50270940304540a733656f0d9190a45050565b600062000348836001600160a01b03841662000351565b90505b92915050565b60008181526001830160205260408120546200039a575081546001818101845560008481526020808220909301849055845484825282860190935260409020919091556200034b565b5060006200034b565b828054620003b19062000589565b90600052602060002090601f016020900481019282620003d5576000855562000420565b82601f10620003f057805160ff191683800117855562000420565b8280016001018555821562000420579182015b828111156200042057825182559160200191906001019062000403565b506200042e92915062000432565b5090565b5b808211156200042e576000815560010162000433565b634e487b7160e01b600052604160045260246000fd5b600082601f8301126200047157600080fd5b81516001600160401b03808211156200048e576200048e62000449565b604051601f8301601f19908116603f01168101908282118183101715620004b957620004b962000449565b81604052838152602092508683858801011115620004d657600080fd5b600091505b83821015620004fa5785820183015181830184015290820190620004db565b838211156200050c5760008385830101525b9695505050505050565b6000806000606084860312156200052c57600080fd5b83516001600160401b03808211156200054457600080fd5b62000552878388016200045f565b945060208601519150808211156200056957600080fd5b5062000578868287016200045f565b925050604084015190509250925092565b600181811c908216806200059e57607f821691505b60208210811415620005c057634e487b7160e01b600052602260045260246000fd5b50919050565b60805160a05160c05160e051610100516101205161014051612d6f6200062160003960006114be01526000611b9701526000611be601526000611bc101526000611b1a01526000611b4401526000611b6e0152612d6f6000f3fe608060405234801561001057600080fd5b50600436106102d65760003560e01c80637106139811610182578063a457c2d7116100e9578063d505accf116100a2578063dd62ed3e1161007c578063dd62ed3e14610663578063e5071bc11461069c578063f515e6f2146106af578063f94c0a11146106c457600080fd5b8063d505accf14610628578063d53913931461063b578063d547741f1461065057600080fd5b8063a457c2d7146105b6578063a9059cbb146105c9578063b55467ae146105dc578063b6b5b721146105ef578063ca15c87314610602578063cfbd48851461061557600080fd5b80638d1fdf2f1161013b5780638d1fdf2f146105355780639010d07c1461054857806391d148541461057357806395d89b4114610586578063a217fddf1461058e578063a3246ad31461059657600080fd5b806371061398146104ca57806375b238fc146104df57806379cc6790146104f45780637ecebe00146105075780638456cb591461051a57806389fecd001461052257600080fd5b8063313ce5671161024157806340c10f19116101fa5780634dd8fac8116101d45780634dd8fac8146104705780635c975abb146104835780636568df031461048e57806370a08231146104a157600080fd5b806340c10f191461043757806342966c681461044a57806347786d371461045d57600080fd5b8063313ce567146103ea578063355274ea146103f95780633644e5151461040157806336568abe14610409578063395093511461041c5780633f4ba83a1461042f57600080fd5b80631b65471f116102935780631b65471f1461036357806323b872dd14610376578063248a9ca314610389578063261707fa146103ad578063282c51f3146103c05780632f2ff15d146103d557600080fd5b806301ffc9a7146102db57806306fdde03146103035780630900cc3314610318578063095ea7b31461032b57806310511f961461033e57806318160ddd14610351575b600080fd5b6102ee6102e93660046127b6565b6106d9565b60405190151581526020015b60405180910390f35b61030b610704565b6040516102fa9190612838565b6102ee610326366004612862565b610796565b6102ee61033936600461287d565b6107f6565b6102ee61034c366004612862565b61080e565b6005545b6040519081526020016102fa565b6102ee6103713660046128a7565b61085c565b6102ee6103843660046128d3565b6108a5565b61035561039736600461290f565b6000908152600160208190526040909120015490565b6102ee6103bb366004612862565b6108c9565b610355600080516020612c9a83398151915281565b6103e86103e33660046128a7565b610913565b005b604051601281526020016102fa565b600954610355565b61035561093f565b6103e86104173660046128a7565b61094e565b6102ee61042a36600461287d565b6109cc565b6103e8610a0b565b6103e861044536600461287d565b610a49565b6103e861045836600461290f565b610b38565b61035561046b36600461290f565b610bc4565b6102ee61047e3660046128a7565b610cb0565b60005460ff166102ee565b6102ee61049c366004612862565b610cff565b6103556104af366004612862565b6001600160a01b031660009081526003602052604090205490565b6104d2610d4d565b6040516102fa9190612928565b610355600080516020612d1a83398151915281565b6103e861050236600461287d565b610fd0565b610355610515366004612862565b61105a565b6103e8611078565b6103e8610530366004612862565b6110b4565b6103e8610543366004612862565b611139565b61055b61055636600461299c565b6111c1565b6040516001600160a01b0390911681526020016102fa565b6102ee6105813660046128a7565b6111e0565b61030b61120b565b610355600081565b6105a96105a436600461290f565b61121a565b6040516102fa91906129be565b6102ee6105c436600461287d565b6112c9565b6102ee6105d736600461287d565b61135b565b6102ee6105ea366004612862565b611369565b6102ee6105fd366004612862565b6113b7565b61035561061036600461290f565b611405565b6102ee610623366004612862565b61141c565b6103e8610636366004612a0b565b61146a565b610355600080516020612cda83398151915281565b6103e861065e3660046128a7565b6115ce565b610355610671366004612a7e565b6001600160a01b03918216600090815260046020908152604080832093909416825291909152205490565b6102ee6106aa366004612862565b6115f5565b610355600080516020612cfa83398151915281565b610355600080516020612cba83398151915281565b60006001600160e01b03198216635a05180f60e01b14806106fe57506106fe826116c3565b92915050565b60606006805461071390612aa8565b80601f016020809104026020016040519081016040528092919081815260200182805461073f90612aa8565b801561078c5780601f106107615761010080835404028352916020019161078c565b820191906000526020600020905b81548152906001019060200180831161076f57829003601f168201915b5050505050905090565b60006107b0600080516020612d1a833981519152336111e0565b6107d55760405162461bcd60e51b81526004016107cc90612add565b60405180910390fd5b6107ed600080516020612c9a833981519152836115ce565b5060015b919050565b6000336108048185856116f8565b5060019392505050565b6000610828600080516020612d1a833981519152336111e0565b6108445760405162461bcd60e51b81526004016107cc90612add565b6107ed600080516020612c9a83398151915283610913565b6000610876600080516020612d1a833981519152336111e0565b6108925760405162461bcd60e51b81526004016107cc90612add565b61089c8383610913565b50600192915050565b6000336108b385828561181c565b6108be8585856118ae565b506001949350505050565b60006108e3600080516020612d1a833981519152336111e0565b6108ff5760405162461bcd60e51b81526004016107cc90612add565b6107ed600080516020612cda833981519152835b600082815260016020819052604090912001546109308133611a87565b61093a8383611aeb565b505050565b6000610949611b0d565b905090565b6001600160a01b03811633146109be5760405162461bcd60e51b815260206004820152602f60248201527f416363657373436f6e74726f6c3a2063616e206f6e6c792072656e6f756e636560448201526e103937b632b9903337b91039b2b63360891b60648201526084016107cc565b6109c88282611c34565b5050565b3360008181526004602090815260408083206001600160a01b03871684529091528120549091906108049082908690610a06908790612b22565b6116f8565b610a23600080516020612d1a833981519152336111e0565b610a3f5760405162461bcd60e51b81526004016107cc90612add565b610a47611c56565b565b610a61600080516020612cda833981519152336111e0565b610aa65760405162461bcd60e51b815260206004820152601660248201527521b0b63632b91034b9903737ba10309036b4b73a32b960511b60448201526064016107cc565b60005460ff1615610ac95760405162461bcd60e51b81526004016107cc90612b3a565b60095481610ad660055490565b610ae09190612b22565b1115610b2e5760405162461bcd60e51b815260206004820152601960248201527f45524332304361707065643a206361702065786365656465640000000000000060448201526064016107cc565b6109c88282611ce9565b610b50600080516020612c9a833981519152336111e0565b610b955760405162461bcd60e51b815260206004820152601660248201527521b0b63632b91034b9903737ba103090313ab93732b960511b60448201526064016107cc565b60005460ff1615610bb85760405162461bcd60e51b81526004016107cc90612b3a565b610bc181611dd4565b50565b6000610bde600080516020612d1a833981519152336111e0565b610bfa5760405162461bcd60e51b81526004016107cc90612add565b60008211610c3c5760405162461bcd60e51b815260206004820152600f60248201526e045524332303a20636170206973203608c1b60448201526064016107cc565b6005548211610ca75760405162461bcd60e51b815260206004820152603160248201527f45524332303a206e6577206361702073686f756c64206265206c6172676572206044820152707468616e20746f74616c20737570706c7960781b60648201526084016107cc565b50600981905590565b6000610cca600080516020612d1a833981519152336111e0565b610ce65760405162461bcd60e51b81526004016107cc90612add565b610cf083836111e0565b1561089c5761089c83836115ce565b6000610d19600080516020612d1a833981519152336111e0565b610d355760405162461bcd60e51b81526004016107cc90612add565b6107ed600080516020612cba83398151915283610913565b60408051600580825260c0820190925260609160009190816020015b604080518082019091526000815260606020820152815260200190600190039081610d695790505090506040518060400160405280600080516020612d1a83398151915281526020016040518060400160405280601681526020017518591b5a5b88199bdc881d1a194818dbdb9d1c9858dd60521b81525081525081600181518110610df757610df7612b7a565b60200260200101819052506040518060400160405280600080516020612cda83398151915281526020016040518060400160405280601981526020017f6d696e7465722063616e206d696e74206e657720636f696e730000000000000081525081525081600281518110610e6d57610e6d612b7a565b60200260200101819052506040518060400160405280600080516020612c9a8339815191528152602001604051806040016040528060158152602001746275726e65722063616e206275726e20636f696e7360581b81525081525081600381518110610edb57610edb612b7a565b60200260200101819052506040518060400160405280600080516020612cba8339815191528152602001604051806040016040528060168152602001756772616e7465722063616e206275726e20636f696e7360501b81525081525081600481518110610f4a57610f4a612b7a565b60200260200101819052506040518060400160405280600080516020612cfa83398151915281526020016040518060400160405280602081526020017f626c61636b6c69737465722063616e2075706461746520626c61636b6c69737481525081525081600581518110610fc057610fc0612b7a565b6020908102919091010152919050565b610fe8600080516020612c9a833981519152336111e0565b61102d5760405162461bcd60e51b815260206004820152601660248201527521b0b63632b91034b9903737ba103090313ab93732b960511b60448201526064016107cc565b60005460ff16156110505760405162461bcd60e51b81526004016107cc90612b3a565b6109c88282611dde565b6001600160a01b0381166000908152600860205260408120546106fe565b611090600080516020612d1a833981519152336111e0565b6110ac5760405162461bcd60e51b81526004016107cc90612add565b610a47611df3565b6110cc600080516020612cfa833981519152336111e0565b6111185760405162461bcd60e51b815260206004820152601b60248201527f43616c6c6572206973206e6f74206120626c61636b6c6973746572000000000060448201526064016107cc565b6001600160a01b03166000908152600a60205260409020805460ff19169055565b611151600080516020612cfa833981519152336111e0565b61119d5760405162461bcd60e51b815260206004820152601b60248201527f43616c6c6572206973206e6f74206120626c61636b6c6973746572000000000060448201526064016107cc565b6001600160a01b03166000908152600a60205260409020805460ff19166001179055565b60008281526002602052604081206111d99083611e4b565b9392505050565b60009182526001602090815260408084206001600160a01b0393909316845291905290205460ff1690565b60606007805461071390612aa8565b6060600061122783611405565b905060008167ffffffffffffffff81111561124457611244612b64565b60405190808252806020026020018201604052801561126d578160200160208202803683370190505b50905060005b828110156112c15761128585826111c1565b82828151811061129757611297612b7a565b6001600160a01b0390921660209283029190910190910152806112b981612b90565b915050611273565b509392505050565b3360008181526004602090815260408083206001600160a01b03871684529091528120549091908381101561134e5760405162461bcd60e51b815260206004820152602560248201527f45524332303a2064656372656173656420616c6c6f77616e63652062656c6f77604482015264207a65726f60d81b60648201526084016107cc565b6108be82868684036116f8565b6000336108048185856118ae565b6000611383600080516020612d1a833981519152336111e0565b61139f5760405162461bcd60e51b81526004016107cc90612add565b6107ed600080516020612cfa833981519152836115ce565b60006113d1600080516020612d1a833981519152336111e0565b6113ed5760405162461bcd60e51b81526004016107cc90612add565b6107ed600080516020612cba833981519152836115ce565b60008181526002602052604081206106fe90611e57565b6000611436600080516020612d1a833981519152336111e0565b6114525760405162461bcd60e51b81526004016107cc90612add565b6107ed600080516020612cda833981519152836115ce565b834211156114ba5760405162461bcd60e51b815260206004820152601d60248201527f45524332305065726d69743a206578706972656420646561646c696e6500000060448201526064016107cc565b60007f00000000000000000000000000000000000000000000000000000000000000008888886114e98c611e61565b6040805160208101969096526001600160a01b0394851690860152929091166060840152608083015260a082015260c0810186905260e001604051602081830303815290604052805190602001209050600061154482611e89565b9050600061155482878787611ed7565b9050896001600160a01b0316816001600160a01b0316146115b75760405162461bcd60e51b815260206004820152601e60248201527f45524332305065726d69743a20696e76616c6964207369676e6174757265000060448201526064016107cc565b6115c28a8a8a6116f8565b50505050505050505050565b600082815260016020819052604090912001546115eb8133611a87565b61093a8383611c34565b600061160f600080516020612d1a833981519152336111e0565b61162b5760405162461bcd60e51b81526004016107cc90612add565b6107ed600080516020612cfa83398151915283610913565b61164d82826111e0565b6109c85760008281526001602081815260408084206001600160a01b0386168086529252808420805460ff19169093179092559051339285917f2f8788117e7eff1d82e926ec794901d17c78024a50270940304540a733656f0d9190a45050565b60006111d9836001600160a01b038416611eff565b60006001600160e01b03198216637965db0b60e01b14806106fe57506301ffc9a760e01b6001600160e01b03198316146106fe565b6001600160a01b03831661175a5760405162461bcd60e51b8152602060048201526024808201527f45524332303a20617070726f76652066726f6d20746865207a65726f206164646044820152637265737360e01b60648201526084016107cc565b6001600160a01b0382166117bb5760405162461bcd60e51b815260206004820152602260248201527f45524332303a20617070726f766520746f20746865207a65726f206164647265604482015261737360f01b60648201526084016107cc565b6001600160a01b0383811660008181526004602090815260408083209487168084529482529182902085905590518481527f8c5be1e5ebec7d5bd14f71427d1e84f3dd0314c0f7b2291e5b200ac8c7c3b925910160405180910390a3505050565b6001600160a01b0383811660009081526004602090815260408083209386168352929052205460001981146118a8578181101561189b5760405162461bcd60e51b815260206004820152601d60248201527f45524332303a20696e73756666696369656e7420616c6c6f77616e636500000060448201526064016107cc565b6118a884848484036116f8565b50505050565b6001600160a01b0383166119125760405162461bcd60e51b815260206004820152602560248201527f45524332303a207472616e736665722066726f6d20746865207a65726f206164604482015264647265737360d81b60648201526084016107cc565b6001600160a01b0382166119745760405162461bcd60e51b815260206004820152602360248201527f45524332303a207472616e7366657220746f20746865207a65726f206164647260448201526265737360e81b60648201526084016107cc565b61197f838383611f4e565b6001600160a01b038316600090815260036020526040902054818110156119f75760405162461bcd60e51b815260206004820152602660248201527f45524332303a207472616e7366657220616d6f756e7420657863656564732062604482015265616c616e636560d01b60648201526084016107cc565b6001600160a01b03808516600090815260036020526040808220858503905591851681529081208054849290611a2e908490612b22565b92505081905550826001600160a01b0316846001600160a01b03167fddf252ad1be2c89b69c2b068fc378daa952ba7f163c4a11628f55a4df523b3ef84604051611a7a91815260200190565b60405180910390a36118a8565b611a9182826111e0565b6109c857611aa9816001600160a01b0316601461207f565b611ab483602061207f565b604051602001611ac5929190612bab565b60408051601f198184030181529082905262461bcd60e51b82526107cc91600401612838565b611af58282611643565b600082815260026020526040902061093a90826116ae565b6000306001600160a01b037f000000000000000000000000000000000000000000000000000000000000000016148015611b6657507f000000000000000000000000000000000000000000000000000000000000000046145b15611b9057507f000000000000000000000000000000000000000000000000000000000000000090565b50604080517f00000000000000000000000000000000000000000000000000000000000000006020808301919091527f0000000000000000000000000000000000000000000000000000000000000000828401527f000000000000000000000000000000000000000000000000000000000000000060608301524660808301523060a0808401919091528351808403909101815260c0909201909252805191012090565b611c3e828261221b565b600082815260026020526040902061093a9082612282565b60005460ff16611c9f5760405162461bcd60e51b815260206004820152601460248201527314185d5cd8589b194e881b9bdd081c185d5cd95960621b60448201526064016107cc565b6000805460ff191690557f5db9ee0a495bf2e6ff9c91a7834c1ba4fdd244a5e8aa4e537bd38aeae4b073aa335b6040516001600160a01b03909116815260200160405180910390a1565b6001600160a01b038216611d3f5760405162461bcd60e51b815260206004820152601f60248201527f45524332303a206d696e7420746f20746865207a65726f20616464726573730060448201526064016107cc565b611d4b60008383611f4e565b8060056000828254611d5d9190612b22565b90915550506001600160a01b03821660009081526003602052604081208054839290611d8a908490612b22565b90915550506040518181526001600160a01b038316906000907fddf252ad1be2c89b69c2b068fc378daa952ba7f163c4a11628f55a4df523b3ef9060200160405180910390a35050565b610bc13382612297565b611de982338361181c565b6109c88282612297565b60005460ff1615611e165760405162461bcd60e51b81526004016107cc90612b3a565b6000805460ff191660011790557f62e78cea01bee320cd4e420270b5ea74000d11b0c9f74754ebdbfc544b05a258611ccc3390565b60006111d983836123f1565b60006106fe825490565b6001600160a01b03811660009081526008602052604090208054600181018255905b50919050565b60006106fe611e96611b0d565b8360405161190160f01b6020820152602281018390526042810182905260009060620160405160208183030381529060405280519060200120905092915050565b6000806000611ee88787878761241b565b91509150611ef581612508565b5095945050505050565b6000818152600183016020526040812054611f46575081546001818101845560008481526020808220909301849055845484825282860190935260409020919091556106fe565b5060006106fe565b60005460ff1615611fb55760405162461bcd60e51b815260206004820152602b60248201527f4552433230205061757361626c653a20746f6b656e207472616e73666572207760448201526a1a1a5b19481c185d5cd95960aa1b60648201526084016107cc565b6001600160a01b0383166000908152600a602052604090205460ff16156120165760405162461bcd60e51b815260206004820152601560248201527429b7bab931b29030b1b1b7bab73a10333937bd32b760591b60448201526064016107cc565b6001600160a01b0382166000908152600a602052604090205460ff161561093a5760405162461bcd60e51b815260206004820152601a60248201527f44657374696e6174696f6e206163636f756e742066726f7a656e00000000000060448201526064016107cc565b6060600061208e836002612c20565b612099906002612b22565b67ffffffffffffffff8111156120b1576120b1612b64565b6040519080825280601f01601f1916602001820160405280156120db576020820181803683370190505b509050600360fc1b816000815181106120f6576120f6612b7a565b60200101906001600160f81b031916908160001a905350600f60fb1b8160018151811061212557612125612b7a565b60200101906001600160f81b031916908160001a9053506000612149846002612c20565b612154906001612b22565b90505b60018111156121cc576f181899199a1a9b1b9c1cb0b131b232b360811b85600f166010811061218857612188612b7a565b1a60f81b82828151811061219e5761219e612b7a565b60200101906001600160f81b031916908160001a90535060049490941c936121c581612c3f565b9050612157565b5083156111d95760405162461bcd60e51b815260206004820181905260248201527f537472696e67733a20686578206c656e67746820696e73756666696369656e7460448201526064016107cc565b61222582826111e0565b156109c85760008281526001602090815260408083206001600160a01b0385168085529252808320805460ff1916905551339285917ff6391f5c32d9c69d2a47ea670b442974b53935d1edc7fd64eb21e047a839171b9190a45050565b60006111d9836001600160a01b0384166126c3565b6001600160a01b0382166122f75760405162461bcd60e51b815260206004820152602160248201527f45524332303a206275726e2066726f6d20746865207a65726f206164647265736044820152607360f81b60648201526084016107cc565b61230382600083611f4e565b6001600160a01b038216600090815260036020526040902054818110156123775760405162461bcd60e51b815260206004820152602260248201527f45524332303a206275726e20616d6f756e7420657863656564732062616c616e604482015261636560f01b60648201526084016107cc565b6001600160a01b03831660009081526003602052604081208383039055600580548492906123a6908490612c56565b90915550506040518281526000906001600160a01b038516907fddf252ad1be2c89b69c2b068fc378daa952ba7f163c4a11628f55a4df523b3ef9060200160405180910390a3505050565b600082600001828154811061240857612408612b7a565b9060005260206000200154905092915050565b6000807f7fffffffffffffffffffffffffffffff5d576e7357a4501ddfe92f46681b20a083111561245257506000905060036124ff565b8460ff16601b1415801561246a57508460ff16601c14155b1561247b57506000905060046124ff565b6040805160008082526020820180845289905260ff881692820192909252606081018690526080810185905260019060a0016020604051602081039080840390855afa1580156124cf573d6000803e3d6000fd5b5050604051601f1901519150506001600160a01b0381166124f8576000600192509250506124ff565b9150600090505b94509492505050565b600081600481111561251c5761251c612c6d565b14156125255750565b600181600481111561253957612539612c6d565b14156125875760405162461bcd60e51b815260206004820152601860248201527f45434453413a20696e76616c6964207369676e6174757265000000000000000060448201526064016107cc565b600281600481111561259b5761259b612c6d565b14156125e95760405162461bcd60e51b815260206004820152601f60248201527f45434453413a20696e76616c6964207369676e6174757265206c656e6774680060448201526064016107cc565b60038160048111156125fd576125fd612c6d565b14156126565760405162461bcd60e51b815260206004820152602260248201527f45434453413a20696e76616c6964207369676e6174757265202773272076616c604482015261756560f01b60648201526084016107cc565b600481600481111561266a5761266a612c6d565b1415610bc15760405162461bcd60e51b815260206004820152602260248201527f45434453413a20696e76616c6964207369676e6174757265202776272076616c604482015261756560f01b60648201526084016107cc565b600081815260018301602052604081205480156127ac5760006126e7600183612c56565b85549091506000906126fb90600190612c56565b905081811461276057600086600001828154811061271b5761271b612b7a565b906000526020600020015490508087600001848154811061273e5761273e612b7a565b6000918252602080832090910192909255918252600188019052604090208390555b855486908061277157612771612c83565b6001900381819060005260206000200160009055905585600101600086815260200190815260200160002060009055600193505050506106fe565b60009150506106fe565b6000602082840312156127c857600080fd5b81356001600160e01b0319811681146111d957600080fd5b60005b838110156127fb5781810151838201526020016127e3565b838111156118a85750506000910152565b600081518084526128248160208601602086016127e0565b601f01601f19169290920160200192915050565b6020815260006111d9602083018461280c565b80356001600160a01b03811681146107f157600080fd5b60006020828403121561287457600080fd5b6111d98261284b565b6000806040838503121561289057600080fd5b6128998361284b565b946020939093013593505050565b600080604083850312156128ba57600080fd5b823591506128ca6020840161284b565b90509250929050565b6000806000606084860312156128e857600080fd5b6128f18461284b565b92506128ff6020850161284b565b9150604084013590509250925092565b60006020828403121561292157600080fd5b5035919050565b60006020808301818452808551808352604092508286019150828160051b87010184880160005b8381101561298e57888303603f1901855281518051845287015187840187905261297b8785018261280c565b958801959350509086019060010161294f565b509098975050505050505050565b600080604083850312156129af57600080fd5b50508035926020909101359150565b6020808252825182820181905260009190848201906040850190845b818110156129ff5783516001600160a01b0316835292840192918401916001016129da565b50909695505050505050565b600080600080600080600060e0888a031215612a2657600080fd5b612a2f8861284b565b9650612a3d6020890161284b565b95506040880135945060608801359350608088013560ff81168114612a6157600080fd5b9699959850939692959460a0840135945060c09093013592915050565b60008060408385031215612a9157600080fd5b612a9a8361284b565b91506128ca6020840161284b565b600181811c90821680612abc57607f821691505b60208210811415611e8357634e487b7160e01b600052602260045260246000fd5b60208082526015908201527421b0b63632b91034b9903737ba10309030b236b4b760591b604082015260600190565b634e487b7160e01b600052601160045260246000fd5b60008219821115612b3557612b35612b0c565b500190565b60208082526010908201526f14185d5cd8589b194e881c185d5cd95960821b604082015260600190565b634e487b7160e01b600052604160045260246000fd5b634e487b7160e01b600052603260045260246000fd5b6000600019821415612ba457612ba4612b0c565b5060010190565b7f416363657373436f6e74726f6c3a206163636f756e7420000000000000000000815260008351612be38160178501602088016127e0565b7001034b99036b4b9b9b4b733903937b6329607d1b6017918401918201528351612c148160288401602088016127e0565b01602801949350505050565b6000816000190483118215151615612c3a57612c3a612b0c565b500290565b600081612c4e57612c4e612b0c565b506000190190565b600082821015612c6857612c68612b0c565b500390565b634e487b7160e01b600052602160045260246000fd5b634e487b7160e01b600052603160045260246000fdfe3c11d16cbaffd01df69ce1c404f6340ee057498f5f00246190ea54220576a8482dee5dd865e09c7ce6788d674a03682994f0b44339403ca07ac129a9de4bed6a9f2df0fed2c77648de5860a4cc508cd0818c85b8b8a1ab4ceeef8d981c8956a698db8a220cd0f09badce9f22d0ba7e93edb3d404448cc3560d391ab096ad16e9a49807205ce4d355092ef5a8a18f56e8913cf4a201fbe287825b095693c21775a2646970667358221220f57c246cb9251df4b6f02385074f35ca31a8009c24f0254a46971c43a2c74ab464736f6c63430008090033",
  "devdoc": {
    "kind": "dev",
    "methods": {
      "DOMAIN_SEPARATOR()": {
        "details": "See {IERC20Permit-DOMAIN_SEPARATOR}."
      },
      "allowance(address,address)": {
        "details": "See {IERC20-allowance}."
      },
      "approve(address,uint256)": {
        "details": "See {IERC20-approve}. NOTE: If `amount` is the maximum `uint256`, the allowance is not updated on `transferFrom`. This is semantically equivalent to an infinite approval. Requirements: - `spender` cannot be the zero address."
      },
      "balanceOf(address)": {
        "details": "See {IERC20-balanceOf}."
      },
      "burn(uint256)": {
        "details": "Destroys `amount` tokens from the caller. See {ERC20-_burn}."
      },
      "burnFrom(address,uint256)": {
        "details": "Destroys `amount` tokens from `account`, deducting from the caller's allowance. See {ERC20-_burn} and {ERC20-allowance}. Requirements: - the caller must have allowance for ``accounts``'s tokens of at least `amount`."
      },
      "decimals()": {
        "details": "Returns the number of decimals used to get its user representation. For example, if `decimals` equals `2`, a balance of `505` tokens should be displayed to a user as `5.05` (`505 / 10 ** 2`). Tokens usually opt for a value of 18, imitating the relationship between Ether and Wei. This is the value {ERC20} uses, unless this function is overridden; NOTE: This information is only used for _display_ purposes: it in no way affects any of the arithmetic of the contract, including {IERC20-balanceOf} and {IERC20-transfer}."
      },
      "decreaseAllowance(address,uint256)": {
        "details": "Atomically decreases the allowance granted to `spender` by the caller. This is an alternative to {approve} that can be used as a mitigation for problems described in {IERC20-approve}. Emits an {Approval} event indicating the updated allowance. Requirements: - `spender` cannot be the zero address. - `spender` must have allowance for the caller of at least `subtractedValue`."
      },
      "getRoleAdmin(bytes32)": {
        "details": "Returns the admin role that controls `role`. See {grantRole} and {revokeRole}. To change a role's admin, use {_setRoleAdmin}."
      },
      "getRoleMember(bytes32,uint256)": {
        "details": "Returns one of the accounts that have `role`. `index` must be a value between 0 and {getRoleMemberCount}, non-inclusive. Role bearers are not sorted in any particular way, and their ordering may change at any point. WARNING: When using {getRoleMember} and {getRoleMemberCount}, make sure you perform all queries on the same block. See the following https://forum.openzeppelin.com/t/iterating-over-elements-on-enumerableset-in-openzeppelin-contracts/2296[forum post] for more information."
      },
      "getRoleMemberCount(bytes32)": {
        "details": "Returns the number of accounts that have `role`. Can be used together with {getRoleMember} to enumerate all bearers of a role."
      },
      "grantRole(bytes32,address)": {
        "details": "Grants `role` to `account`. If `account` had not been already granted `role`, emits a {RoleGranted} event. Requirements: - the caller must have ``role``'s admin role."
      },
      "hasRole(bytes32,address)": {
        "details": "Returns `true` if `account` has been granted `role`."
      },
      "increaseAllowance(address,uint256)": {
        "details": "Atomically increases the allowance granted to `spender` by the caller. This is an alternative to {approve} that can be used as a mitigation for problems described in {IERC20-approve}. Emits an {Approval} event indicating the updated allowance. Requirements: - `spender` cannot be the zero address."
      },
      "name()": {
        "details": "Returns the name of the token."
      },
      "nonces(address)": {
        "details": "See {IERC20Permit-nonces}."
      },
      "paused()": {
        "details": "Returns true if the contract is paused, and false otherwise."
      },
      "permit(address,address,uint256,uint256,uint8,bytes32,bytes32)": {
        "details": "See {IERC20Permit-permit}."
      },
      "renounceRole(bytes32,address)": {
        "details": "Revokes `role` from the calling account. Roles are often managed via {grantRole} and {revokeRole}: this function's purpose is to provide a mechanism for accounts to lose their privileges if they are compromised (such as when a trusted device is misplaced). If the calling account had been revoked `role`, emits a {RoleRevoked} event. Requirements: - the caller must be `account`."
      },
      "revokeRole(bytes32,address)": {
        "details": "Revokes `role` from `account`. If `account` had been granted `role`, emits a {RoleRevoked} event. Requirements: - the caller must have ``role``'s admin role."
      },
      "supportsInterface(bytes4)": {
        "details": "See {IERC165-supportsInterface}."
      },
      "symbol()": {
        "details": "Returns the symbol of the token, usually a shorter version of the name."
      },
      "totalSupply()": {
        "details": "See {IERC20-totalSupply}."
      },
      "transfer(address,uint256)": {
        "details": "See {IERC20-transfer}. Requirements: - `to` cannot be the zero address. - the caller must have a balance of at least `amount`."
      },
      "transferFrom(address,address,uint256)": {
        "details": "See {IERC20-transferFrom}. Emits an {Approval} event indicating the updated allowance. This is not required by the EIP. See the note at the beginning of {ERC20}. NOTE: Does not update the allowance if the current allowance is the maximum `uint256`. Requirements: - `from` and `to` cannot be the zero address. - `from` must have a balance of at least `amount`. - the caller must have allowance for ``from``'s tokens of at least `amount`."
      }
    },
    "version": 1
  },
  "userdoc": {
    "kind": "user",
    "methods": {},
    "version": 1
  },
  "storageLayout": {
    "storage": [
      {
        "astId": 549,
        "contract": "contracts/ERC20Token.sol:XToken",
        "label": "_paused",
        "offset": 0,
        "slot": "0",
        "type": "t_bool"
      },
      {
        "astId": 24,
        "contract": "contracts/ERC20Token.sol:XToken",
        "label": "_roles",
        "offset": 0,
        "slot": "1",
        "type": "t_mapping(t_bytes32,t_struct(RoleData)19_storage)"
      },
      {
        "astId": 327,
        "contract": "contracts/ERC20Token.sol:XToken",
        "label": "_roleMembers",
        "offset": 0,
        "slot": "2",
        "type": "t_mapping(t_bytes32,t_struct(AddressSet)3083_storage)"
      },
      {
        "astId": 639,
        "contract": "contracts/ERC20Token.sol:XToken",
        "label": "_balances",
        "offset": 0,
        "slot": "3",
        "type": "t_mapping(t_address,t_uint256)"
      },
      {
        "astId": 645,
        "contract": "contracts/ERC20Token.sol:XToken",
        "label": "_allowances",
        "offset": 0,
        "slot": "4",
        "type": "t_mapping(t_address,t_mapping(t_address,t_uint256))"
      },
      {
        "astId": 647,
        "contract": "contracts/ERC20Token.sol:XToken",
        "label": "_totalSupply",
        "offset": 0,
        "slot": "5",
        "type": "t_uint256"
      },
      {
        "astId": 649,
        "contract": "contracts/ERC20Token.sol:XToken",
        "label": "_name",
        "offset": 0,
        "slot": "6",
        "type": "t_string_storage"
      },
      {
        "astId": 651,
        "contract": "contracts/ERC20Token.sol:XToken",
        "label": "_symbol",
        "offset": 0,
        "slot": "7",
        "type": "t_string_storage"
      },
      {
        "astId": 1381,
        "contract": "contracts/ERC20Token.sol:XToken",
        "label": "_nonces",
        "offset": 0,
        "slot": "8",
        "type": "t_mapping(t_address,t_struct(Counter)1591_storage)"
      },
      {
        "astId": 3391,
        "contract": "contracts/ERC20Token.sol:XToken",
        "label": "_cap",
        "offset": 0,
        "slot": "9",
        "type": "t_uint256"
      },
      {
        "astId": 3395,
        "contract": "contracts/ERC20Token.sol:XToken",
        "label": "frozen",
        "offset": 0,
        "slot": "10",
        "type": "t_mapping(t_address,t_bool)"
      }
    ],
    "types": {
      "t_address": {
        "encoding": "inplace",
        "label": "address",
        "numberOfBytes": "20"
      },
      "t_array(t_bytes32)dyn_storage": {
        "base": "t_bytes32",
        "encoding": "dynamic_array",
        "label": "bytes32[]",
        "numberOfBytes": "32"
      },
      "t_bool": {
        "encoding": "inplace",
        "label": "bool",
        "numberOfBytes": "1"
      },
      "t_bytes32": {
        "encoding": "inplace",
        "label": "bytes32",
        "numberOfBytes": "32"
      },
      "t_mapping(t_address,t_bool)": {
        "encoding": "mapping",
        "key": "t_address",
        "label": "mapping(address => bool)",
        "numberOfBytes": "32",
        "value": "t_bool"
      },
      "t_mapping(t_address,t_mapping(t_address,t_uint256))": {
        "encoding": "mapping",
        "key": "t_address",
        "label": "mapping(address => mapping(address => uint256))",
        "numberOfBytes": "32",
        "value": "t_mapping(t_address,t_uint256)"
      },
      "t_mapping(t_address,t_struct(Counter)1591_storage)": {
        "encoding": "mapping",
        "key": "t_address",
        "label": "mapping(address => struct Counters.Counter)",
        "numberOfBytes": "32",
        "value": "t_struct(Counter)1591_storage"
      },
      "t_mapping(t_address,t_uint256)": {
        "encoding": "mapping",
        "key": "t_address",
        "label": "mapping(address => uint256)",
        "numberOfBytes": "32",
        "value": "t_uint256"
      },
      "t_mapping(t_bytes32,t_struct(AddressSet)3083_storage)": {
        "encoding": "mapping",
        "key": "t_bytes32",
        "label": "mapping(bytes32 => struct EnumerableSet.AddressSet)",
        "numberOfBytes": "32",
        "value": "t_struct(AddressSet)3083_storage"
      },
      "t_mapping(t_bytes32,t_struct(RoleData)19_storage)": {
        "encoding": "mapping",
        "key": "t_bytes32",
        "label": "mapping(bytes32 => struct AccessControl.RoleData)",
        "numberOfBytes": "32",
        "value": "t_struct(RoleData)19_storage"
      },
      "t_mapping(t_bytes32,t_uint256)": {
        "encoding": "mapping",
        "key": "t_bytes32",
        "label": "mapping(bytes32 => uint256)",
        "numberOfBytes": "32",
        "value": "t_uint256"
      },
      "t_string_storage": {
        "encoding": "bytes",
        "label": "string",
        "numberOfBytes": "32"
      },
      "t_struct(AddressSet)3083_storage": {
        "encoding": "inplace",
        "label": "struct EnumerableSet.AddressSet",
        "members": [
          {
            "astId": 3082,
            "contract": "contracts/ERC20Token.sol:XToken",
            "label": "_inner",
            "offset": 0,
            "slot": "0",
            "type": "t_struct(Set)2782_storage"
          }
        ],
        "numberOfBytes": "64"
      },
      "t_struct(Counter)1591_storage": {
        "encoding": "inplace",
        "label": "struct Counters.Counter",
        "members": [
          {
            "astId": 1590,
            "contract": "contracts/ERC20Token.sol:XToken",
            "label": "_value",
            "offset": 0,
            "slot": "0",
            "type": "t_uint256"
          }
        ],
        "numberOfBytes": "32"
      },
      "t_struct(RoleData)19_storage": {
        "encoding": "inplace",
        "label": "struct AccessControl.RoleData",
        "members": [
          {
            "astId": 16,
            "contract": "contracts/ERC20Token.sol:XToken",
            "label": "members",
            "offset": 0,
            "slot": "0",
            "type": "t_mapping(t_address,t_bool)"
          },
          {
            "astId": 18,
            "contract": "contracts/ERC20Token.sol:XToken",
            "label": "adminRole",
            "offset": 0,
            "slot": "1",
            "type": "t_bytes32"
          }
        ],
        "numberOfBytes": "64"
      },
      "t_struct(Set)2782_storage": {
        "encoding": "inplace",
        "label": "struct EnumerableSet.Set",
        "members": [
          {
            "astId": 2777,
            "contract": "contracts/ERC20Token.sol:XToken",
            "label": "_values",
            "offset": 0,
            "slot": "0",
            "type": "t_array(t_bytes32)dyn_storage"
          },
          {
            "astId": 2781,
            "contract": "contracts/ERC20Token.sol:XToken",
            "label": "_indexes",
            "offset": 0,
            "slot": "1",
            "type": "t_mapping(t_bytes32,t_uint256)"
          }
        ],
        "numberOfBytes": "64"
      },
      "t_uint256": {
        "encoding": "inplace",
        "label": "uint256",
        "numberOfBytes": "32"
      }
    }
  }
}