{
  "address": "0xe7f1725E7734CE288F8367e1Bb143E90bb3F0512",
  "abi": [
    {
      "inputs": [
        {
          "internalType": "address",
          "name": "token_",
          "type": "address"
        },
        {
          "internalType": "address",
          "name": "funding_",
          "type": "address"
        }
      ],
      "stateMutability": "nonpayable",
      "type": "constructor"
    },
    {
      "anonymous": false,
      "inputs": [
        {
          "indexed": true,
          "internalType": "address",
          "name": "funding",
          "type": "address"
        }
      ],
      "name": "Funding",
      "type": "event"
    },
    {
      "anonymous": false,
      "inputs": [
        {
          "indexed": true,
          "internalType": "uint256",
          "name": "vestingSchedID",
          "type": "uint256"
        },
        {
          "indexed": true,
          "internalType": "address",
          "name": "beneficiary",
          "type": "address"
        },
        {
          "indexed": true,
          "internalType": "uint256",
          "name": "amount",
          "type": "uint256"
        }
      ],
      "name": "Grant",
      "type": "event"
    },
    {
      "anonymous": false,
      "inputs": [
        {
          "indexed": true,
          "internalType": "bytes32",
          "name": "role",
          "type": "bytes32"
        },
        {
          "indexed": true,
          "internalType": "bytes32",
          "name": "previousAdminRole",
          "type": "bytes32"
        },
        {
          "indexed": true,
          "internalType": "bytes32",
          "name": "newAdminRole",
          "type": "bytes32"
        }
      ],
      "name": "RoleAdminChanged",
      "type": "event"
    },
    {
      "anonymous": false,
      "inputs": [
        {
          "indexed": true,
          "internalType": "bytes32",
          "name": "role",
          "type": "bytes32"
        },
        {
          "indexed": true,
          "internalType": "address",
          "name": "account",
          "type": "address"
        },
        {
          "indexed": true,
          "internalType": "address",
          "name": "sender",
          "type": "address"
        }
      ],
      "name": "RoleGranted",
      "type": "event"
    },
    {
      "anonymous": false,
      "inputs": [
        {
          "indexed": true,
          "internalType": "bytes32",
          "name": "role",
          "type": "bytes32"
        },
        {
          "indexed": true,
          "internalType": "address",
          "name": "account",
          "type": "address"
        },
        {
          "indexed": true,
          "internalType": "address",
          "name": "sender",
          "type": "address"
        }
      ],
      "name": "RoleRevoked",
      "type": "event"
    },
    {
      "anonymous": false,
      "inputs": [
        {
          "indexed": true,
          "internalType": "uint256",
          "name": "vestingSchedID",
          "type": "uint256"
        },
        {
          "indexed": true,
          "internalType": "address",
          "name": "from",
          "type": "address"
        },
        {
          "indexed": true,
          "internalType": "address",
          "name": "to",
          "type": "address"
        },
        {
          "indexed": false,
          "internalType": "uint256",
          "name": "amount",
          "type": "uint256"
        }
      ],
      "name": "Transfer",
      "type": "event"
    },
    {
      "anonymous": false,
      "inputs": [
        {
          "indexed": true,
          "internalType": "uint256",
          "name": "vestingSchedID",
          "type": "uint256"
        },
        {
          "indexed": false,
          "internalType": "string",
          "name": "name",
          "type": "string"
        },
        {
          "indexed": false,
          "internalType": "uint256",
          "name": "startTime",
          "type": "uint256"
        }
      ],
      "name": "Vesting",
      "type": "event"
    },
    {
      "anonymous": false,
      "inputs": [
        {
          "indexed": true,
          "internalType": "uint256",
          "name": "vestingSchedID",
          "type": "uint256"
        },
        {
          "indexed": true,
          "internalType": "address",
          "name": "from",
          "type": "address"
        },
        {
          "indexed": true,
          "internalType": "address",
          "name": "beneficiary",
          "type": "address"
        },
        {
          "indexed": false,
          "internalType": "uint256",
          "name": "amount",
          "type": "uint256"
        }
      ],
      "name": "Withdraw",
      "type": "event"
    },
    {
      "inputs": [],
      "name": "ADMIN_ROLE",
      "outputs": [
        {
          "internalType": "bytes32",
          "name": "",
          "type": "bytes32"
        }
      ],
      "stateMutability": "view",
      "type": "function"
    },
    {
      "inputs": [],
      "name": "BLACKLISTER_ROLE",
      "outputs": [
        {
          "internalType": "bytes32",
          "name": "",
          "type": "bytes32"
        }
      ],
      "stateMutability": "view",
      "type": "function"
    },
    {
      "inputs": [],
      "name": "BURNER_ROLE",
      "outputs": [
        {
          "internalType": "bytes32",
          "name": "",
          "type": "bytes32"
        }
      ],
      "stateMutability": "view",
      "type": "function"
    },
    {
      "inputs": [],
      "name": "DEFAULT_ADMIN_ROLE",
      "outputs": [
        {
          "internalType": "bytes32",
          "name": "",
          "type": "bytes32"
        }
      ],
      "stateMutability": "view",
      "type": "function"
    },
    {
      "inputs": [],
      "name": "GRANTER_ROLE",
      "outputs": [
        {
          "internalType": "bytes32",
          "name": "",
          "type": "bytes32"
        }
      ],
      "stateMutability": "view",
      "type": "function"
    },
    {
      "inputs": [],
      "name": "MINTER_ROLE",
      "outputs": [
        {
          "internalType": "bytes32",
          "name": "",
          "type": "bytes32"
        }
      ],
      "stateMutability": "view",
      "type": "function"
    },
    {
      "inputs": [
        {
          "internalType": "bytes32",
          "name": "role",
          "type": "bytes32"
        },
        {
          "internalType": "address",
          "name": "member",
          "type": "address"
        }
      ],
      "name": "addRoleMember",
      "outputs": [
        {
          "internalType": "bool",
          "name": "",
          "type": "bool"
        }
      ],
      "stateMutability": "nonpayable",
      "type": "function"
    },
    {
      "inputs": [
        {
          "internalType": "address",
          "name": "beneficiary",
          "type": "address"
        }
      ],
      "name": "allSoloVestings",
      "outputs": [
        {
          "components": [
            {
              "internalType": "uint256",
              "name": "vestingID",
              "type": "uint256"
            },
            {
              "internalType": "address",
              "name": "beneficiary",
              "type": "address"
            },
            {
              "internalType": "uint256",
              "name": "grantAmount",
              "type": "uint256"
            },
            {
              "internalType": "uint256",
              "name": "withdrawAmount",
              "type": "uint256"
            }
          ],
          "internalType": "struct TokenVesting.SoloVesting[]",
          "name": "",
          "type": "tuple[]"
        }
      ],
      "stateMutability": "view",
      "type": "function"
    },
    {
      "inputs": [],
      "name": "allVestingScheds",
      "outputs": [
        {
          "components": [
            {
              "internalType": "uint256",
              "name": "id",
              "type": "uint256"
            },
            {
              "internalType": "string",
              "name": "name",
              "type": "string"
            },
            {
              "internalType": "uint256",
              "name": "startTime",
              "type": "uint256"
            },
            {
              "internalType": "uint256",
              "name": "grantAmount",
              "type": "uint256"
            },
            {
              "internalType": "uint256",
              "name": "withdrawAmount",
              "type": "uint256"
            }
          ],
          "internalType": "struct TokenVesting.VestingSched[]",
          "name": "",
          "type": "tuple[]"
        }
      ],
      "stateMutability": "view",
      "type": "function"
    },
    {
      "inputs": [],
      "name": "funding",
      "outputs": [
        {
          "internalType": "address",
          "name": "",
          "type": "address"
        }
      ],
      "stateMutability": "view",
      "type": "function"
    },
    {
      "inputs": [
        {
          "internalType": "bytes32",
          "name": "role",
          "type": "bytes32"
        }
      ],
      "name": "getRoleAdmin",
      "outputs": [
        {
          "internalType": "bytes32",
          "name": "",
          "type": "bytes32"
        }
      ],
      "stateMutability": "view",
      "type": "function"
    },
    {
      "inputs": [
        {
          "internalType": "bytes32",
          "name": "role",
          "type": "bytes32"
        },
        {
          "internalType": "uint256",
          "name": "index",
          "type": "uint256"
        }
      ],
      "name": "getRoleMember",
      "outputs": [
        {
          "internalType": "address",
          "name": "",
          "type": "address"
        }
      ],
      "stateMutability": "view",
      "type": "function"
    },
    {
      "inputs": [
        {
          "internalType": "bytes32",
          "name": "role",
          "type": "bytes32"
        }
      ],
      "name": "getRoleMemberCount",
      "outputs": [
        {
          "internalType": "uint256",
          "name": "",
          "type": "uint256"
        }
      ],
      "stateMutability": "view",
      "type": "function"
    },
    {
      "inputs": [
        {
          "internalType": "bytes32",
          "name": "role",
          "type": "bytes32"
        }
      ],
      "name": "getRoleMembers",
      "outputs": [
        {
          "internalType": "address[]",
          "name": "",
          "type": "address[]"
        }
      ],
      "stateMutability": "view",
      "type": "function"
    },
    {
      "inputs": [],
      "name": "getRoles",
      "outputs": [
        {
          "components": [
            {
              "internalType": "bytes32",
              "name": "role",
              "type": "bytes32"
            },
            {
              "internalType": "string",
              "name": "describe",
              "type": "string"
            }
          ],
          "internalType": "struct RoleAccess.Role[]",
          "name": "",
          "type": "tuple[]"
        }
      ],
      "stateMutability": "pure",
      "type": "function"
    },
    {
      "inputs": [
        {
          "internalType": "uint256",
          "name": "vestingSchedID_",
          "type": "uint256"
        },
        {
          "internalType": "address[]",
          "name": "beneficiaries",
          "type": "address[]"
        },
        {
          "internalType": "uint256[]",
          "name": "grantAmounts",
          "type": "uint256[]"
        }
      ],
      "name": "grant",
      "outputs": [
        {
          "internalType": "bool",
          "name": "",
          "type": "bool"
        }
      ],
      "stateMutability": "nonpayable",
      "type": "function"
    },
    {
      "inputs": [
        {
          "internalType": "address",
          "name": "blacklister",
          "type": "address"
        }
      ],
      "name": "grantBlacklister",
      "outputs": [
        {
          "internalType": "bool",
          "name": "",
          "type": "bool"
        }
      ],
      "stateMutability": "nonpayable",
      "type": "function"
    },
    {
      "inputs": [
        {
          "internalType": "address",
          "name": "burner",
          "type": "address"
        }
      ],
      "name": "grantBurner",
      "outputs": [
        {
          "internalType": "bool",
          "name": "",
          "type": "bool"
        }
      ],
      "stateMutability": "nonpayable",
      "type": "function"
    },
    {
      "inputs": [
        {
          "internalType": "address",
          "name": "granter",
          "type": "address"
        }
      ],
      "name": "grantGranter",
      "outputs": [
        {
          "internalType": "bool",
          "name": "",
          "type": "bool"
        }
      ],
      "stateMutability": "nonpayable",
      "type": "function"
    },
    {
      "inputs": [
        {
          "internalType": "address",
          "name": "minter",
          "type": "address"
        }
      ],
      "name": "grantMinter",
      "outputs": [
        {
          "internalType": "bool",
          "name": "",
          "type": "bool"
        }
      ],
      "stateMutability": "nonpayable",
      "type": "function"
    },
    {
      "inputs": [
        {
          "internalType": "bytes32",
          "name": "role",
          "type": "bytes32"
        },
        {
          "internalType": "address",
          "name": "account",
          "type": "address"
        }
      ],
      "name": "grantRole",
      "outputs": [],
      "stateMutability": "nonpayable",
      "type": "function"
    },
    {
      "inputs": [
        {
          "internalType": "bytes32",
          "name": "role",
          "type": "bytes32"
        },
        {
          "internalType": "address",
          "name": "account",
          "type": "address"
        }
      ],
      "name": "hasRole",
      "outputs": [
        {
          "internalType": "bool",
          "name": "",
          "type": "bool"
        }
      ],
      "stateMutability": "view",
      "type": "function"
    },
    {
      "inputs": [
        {
          "internalType": "string",
          "name": "name",
          "type": "string"
        },
        {
          "internalType": "uint256",
          "name": "startTime",
          "type": "uint256"
        }
      ],
      "name": "newVestingSched",
      "outputs": [
        {
          "internalType": "uint256",
          "name": "",
          "type": "uint256"
        }
      ],
      "stateMutability": "nonpayable",
      "type": "function"
    },
    {
      "inputs": [
        {
          "internalType": "bytes32",
          "name": "role",
          "type": "bytes32"
        },
        {
          "internalType": "address",
          "name": "member",
          "type": "address"
        }
      ],
      "name": "removeRoleMember",
      "outputs": [
        {
          "internalType": "bool",
          "name": "",
          "type": "bool"
        }
      ],
      "stateMutability": "nonpayable",
      "type": "function"
    },
    {
      "inputs": [
        {
          "internalType": "bytes32",
          "name": "role",
          "type": "bytes32"
        },
        {
          "internalType": "address",
          "name": "account",
          "type": "address"
        }
      ],
      "name": "renounceRole",
      "outputs": [],
      "stateMutability": "nonpayable",
      "type": "function"
    },
    {
      "inputs": [
        {
          "internalType": "address",
          "name": "blacklister",
          "type": "address"
        }
      ],
      "name": "revokeBlacklister",
      "outputs": [
        {
          "internalType": "bool",
          "name": "",
          "type": "bool"
        }
      ],
      "stateMutability": "nonpayable",
      "type": "function"
    },
    {
      "inputs": [
        {
          "internalType": "address",
          "name": "burner",
          "type": "address"
        }
      ],
      "name": "revokeBurner",
      "outputs": [
        {
          "internalType": "bool",
          "name": "",
          "type": "bool"
        }
      ],
      "stateMutability": "nonpayable",
      "type": "function"
    },
    {
      "inputs": [
        {
          "internalType": "address",
          "name": "granter",
          "type": "address"
        }
      ],
      "name": "revokeGranter",
      "outputs": [
        {
          "internalType": "bool",
          "name": "",
          "type": "bool"
        }
      ],
      "stateMutability": "nonpayable",
      "type": "function"
    },
    {
      "inputs": [
        {
          "internalType": "address",
          "name": "minter",
          "type": "address"
        }
      ],
      "name": "revokeMinter",
      "outputs": [
        {
          "internalType": "bool",
          "name": "",
          "type": "bool"
        }
      ],
      "stateMutability": "nonpayable",
      "type": "function"
    },
    {
      "inputs": [
        {
          "internalType": "bytes32",
          "name": "role",
          "type": "bytes32"
        },
        {
          "internalType": "address",
          "name": "account",
          "type": "address"
        }
      ],
      "name": "revokeRole",
      "outputs": [],
      "stateMutability": "nonpayable",
      "type": "function"
    },
    {
      "inputs": [
        {
          "internalType": "uint256",
          "name": "vestingSchedID_",
          "type": "uint256"
        },
        {
          "internalType": "address",
          "name": "beneficiary",
          "type": "address"
        }
      ],
      "name": "soloVesting",
      "outputs": [
        {
          "components": [
            {
              "internalType": "uint256",
              "name": "vestingID",
              "type": "uint256"
            },
            {
              "internalType": "address",
              "name": "beneficiary",
              "type": "address"
            },
            {
              "internalType": "uint256",
              "name": "grantAmount",
              "type": "uint256"
            },
            {
              "internalType": "uint256",
              "name": "withdrawAmount",
              "type": "uint256"
            }
          ],
          "internalType": "struct TokenVesting.SoloVesting",
          "name": "",
          "type": "tuple"
        }
      ],
      "stateMutability": "view",
      "type": "function"
    },
    {
      "inputs": [
        {
          "internalType": "bytes4",
          "name": "interfaceId",
          "type": "bytes4"
        }
      ],
      "name": "supportsInterface",
      "outputs": [
        {
          "internalType": "bool",
          "name": "",
          "type": "bool"
        }
      ],
      "stateMutability": "view",
      "type": "function"
    },
    {
      "inputs": [],
      "name": "token",
      "outputs": [
        {
          "internalType": "address",
          "name": "",
          "type": "address"
        }
      ],
      "stateMutability": "view",
      "type": "function"
    },
    {
      "inputs": [
        {
          "internalType": "uint256",
          "name": "vestingSchedID_",
          "type": "uint256"
        },
        {
          "internalType": "address",
          "name": "beneficiary",
          "type": "address"
        },
        {
          "internalType": "uint256",
          "name": "amount",
          "type": "uint256"
        }
      ],
      "name": "transfer",
      "outputs": [
        {
          "internalType": "bool",
          "name": "",
          "type": "bool"
        }
      ],
      "stateMutability": "nonpayable",
      "type": "function"
    },
    {
      "inputs": [
        {
          "internalType": "address",
          "name": "newfunding",
          "type": "address"
        }
      ],
      "name": "updatefunding",
      "outputs": [],
      "stateMutability": "nonpayable",
      "type": "function"
    },
    {
      "inputs": [
        {
          "internalType": "uint256",
          "name": "vestingSchedID_",
          "type": "uint256"
        }
      ],
      "name": "vestingSched",
      "outputs": [
        {
          "components": [
            {
              "internalType": "uint256",
              "name": "id",
              "type": "uint256"
            },
            {
              "internalType": "string",
              "name": "name",
              "type": "string"
            },
            {
              "internalType": "uint256",
              "name": "startTime",
              "type": "uint256"
            },
            {
              "internalType": "uint256",
              "name": "grantAmount",
              "type": "uint256"
            },
            {
              "internalType": "uint256",
              "name": "withdrawAmount",
              "type": "uint256"
            }
          ],
          "internalType": "struct TokenVesting.VestingSched",
          "name": "",
          "type": "tuple"
        }
      ],
      "stateMutability": "view",
      "type": "function"
    },
    {
      "inputs": [],
      "name": "vestingSchedID",
      "outputs": [
        {
          "internalType": "uint256",
          "name": "_value",
          "type": "uint256"
        }
      ],
      "stateMutability": "view",
      "type": "function"
    },
    {
      "inputs": [
        {
          "internalType": "uint256",
          "name": "vestingSchedID_",
          "type": "uint256"
        },
        {
          "internalType": "uint256",
          "name": "amount",
          "type": "uint256"
        }
      ],
      "name": "withdraw",
      "outputs": [
        {
          "internalType": "bool",
          "name": "",
          "type": "bool"
        }
      ],
      "stateMutability": "nonpayable",
      "type": "function"
    },
    {
      "inputs": [
        {
          "internalType": "uint256",
          "name": "vestingSchedID_",
          "type": "uint256"
        },
        {
          "internalType": "uint256",
          "name": "amount",
          "type": "uint256"
        },
        {
          "internalType": "address",
          "name": "beneficiary",
          "type": "address"
        }
      ],
      "name": "withdrawTo",
      "outputs": [
        {
          "internalType": "bool",
          "name": "",
          "type": "bool"
        }
      ],
      "stateMutability": "nonpayable",
      "type": "function"
    }
  ],
  "transactionHash": "0x4c3513a9cf1881a8735715f6df05941aca1dfcb74d98a3ef9512b00a5274157d",
  "args": [
    "0x5FbDB2315678afecb367f032d93F642f64180aa3",
    "0x3C44CdDdB6a900fa2b585dd299e03d12FA4293BC"
  ],
  "numDeployments": 1,
  "solcInputHash": "9b1201b4a8fb35a435b0d34409abd76b",
  "bytecode": "0x60806040523480156200001157600080fd5b5060405162002e1738038062002e1783398101604081905262000034916200025a565b600280546001600160a01b038085166001600160a01b0319928316179092556003805492841692909116919091179055620000786000620000723390565b620000d8565b620000a47fa49807205ce4d355092ef5a8a18f56e8913cf4a201fbe287825b095693c2177533620000d8565b620000d07f2dee5dd865e09c7ce6788d674a03682994f0b44339403ca07ac129a9de4bed6a33620000d8565b505062000292565b620000e48282620000e8565b5050565b620000ff82826200012b60201b6200196f1760201c565b600082815260016020908152604090912062000126918390620019f3620001cb821b17901c565b505050565b6000828152602081815260408083206001600160a01b038516845290915290205460ff16620000e4576000828152602081815260408083206001600160a01b03851684529091529020805460ff19166001179055620001873390565b6001600160a01b0316816001600160a01b0316837f2f8788117e7eff1d82e926ec794901d17c78024a50270940304540a733656f0d60405160405180910390a45050565b6000620001e2836001600160a01b038416620001eb565b90505b92915050565b60008181526001830160205260408120546200023457508154600181810184556000848152602080822090930184905584548482528286019093526040902091909155620001e5565b506000620001e5565b80516001600160a01b03811681146200025557600080fd5b919050565b600080604083850312156200026e57600080fd5b62000279836200023d565b915062000289602084016200023d565b90509250929050565b612b7580620002a26000396000f3fe608060405234801561001057600080fd5b506004361061023d5760003560e01c80639010d07c1161013b578063d2c11f26116100b8578063ee76d7a91161007c578063ee76d7a914610532578063f515e6f214610552578063f8548e3614610567578063f94c0a111461057a578063fc0c546a1461058f57600080fd5b8063d2c11f26146104cf578063d37bb607146104e4578063d5391393146104f7578063d547741f1461050c578063e5071bc11461051f57600080fd5b8063b55467ae116100ff578063b55467ae14610470578063b6b5b72114610483578063ca15c87314610496578063cb4c86b7146104a9578063cfbd4885146104bc57600080fd5b80639010d07c146103ea57806391d14854146104155780639ba25fce14610428578063a217fddf14610448578063a3246ad31461045057600080fd5b8063261707fa116101c95780634dd8fac81161018d5780634dd8fac81461038757806357f0ebcd1461039a5780636568df03146103ad57806371061398146103c057806375b238fc146103d557600080fd5b8063261707fa14610324578063282c51f3146103375780632f2ff15d1461034c57806336568abe14610361578063441a3e701461037457600080fd5b806310511f961161021057806310511f96146102a857806314cd70e4146102bb5780631b65471f146102ce57806323739562146102e1578063248a9ca31461030157600080fd5b806301ffc9a71461024257806302587da21461026a5780630900cc33146102825780630ad0580914610295575b600080fd5b610255610250366004612371565b6105a2565b60405190151581526020015b60405180910390f35b6004546102749081565b604051908152602001610261565b6102556102903660046123b2565b6105cd565b6102556102a3366004612419565b61062d565b6102556102b63660046123b2565b61092c565b6102556102c9366004612493565b61097a565b6102556102dc3660046124c8565b61098f565b6102f46102ef3660046124f4565b6109d8565b60405161026191906125ae565b61027461030f3660046124f4565b60009081526020819052604090206001015490565b6102556103323660046123b2565b610ae9565b610274600080516020612aa083398151915281565b61035f61035a3660046124c8565b610b33565b005b61035f61036f3660046124c8565b610b5e565b6102556103823660046125c1565b610bdc565b6102556103953660046124c8565b610bf0565b6102746103a83660046125e3565b610c3f565b6102556103bb3660046123b2565b610d77565b6103c8610dc5565b604051610261919061265b565b610274600080516020612b2083398151915281565b6103fd6103f83660046125c1565b611048565b6040516001600160a01b039091168152602001610261565b6102556104233660046124c8565b611060565b61043b6104363660046123b2565b611089565b60405161026191906126cf565b610274600081565b61046361045e3660046124f4565b61127e565b6040516102619190612744565b61025561047e3660046123b2565b611325565b6102556104913660046123b2565b611373565b6102746104a43660046124f4565b6113c1565b6003546103fd906001600160a01b031681565b6102556104ca3660046123b2565b6113d8565b6104d7611426565b6040516102619190612785565b61035f6104f23660046123b2565b6115cc565b610274600080516020612ae083398151915281565b61035f61051a3660046124c8565b61164a565b61025561052d3660046123b2565b611670565b6105456105403660046124c8565b6116be565b60405161026191906127e7565b610274600080516020612b0083398151915281565b61025561057536600461281b565b611779565b610274600080516020612ac083398151915281565b6002546103fd906001600160a01b031681565b60006001600160e01b03198216635a05180f60e01b14806105c757506105c782611a08565b92915050565b60006105e7600080516020612b2083398151915233611060565b61060c5760405162461bcd60e51b815260040161060390612850565b60405180910390fd5b610624600080516020612aa08339815191528361164a565b5060015b919050565b6000610647600080516020612ac083398151915233611060565b6106935760405162461bcd60e51b815260206004820152601760248201527f43616c6c6572206973206e6f742061206772616e7465720000000000000000006044820152606401610603565b6000868152600560205260409020600201546106c15760405162461bcd60e51b81526004016106039061287f565b8382146107095760405162461bcd60e51b815260206004820152601660248201527508ee4c2dce840c2dadeeadce8e640dad2e6dac2e8c6d60531b6044820152606401610603565b6000805b85811015610869576000878783818110610729576107296128af565b905060200201602081019061073e91906123b2565b90506000868684818110610754576107546128af565b60200291909101359150506001600160a01b0382166107b55760405162461bcd60e51b815260206004820152601d60248201527f43616e206e6f74206772616e7420746f206e756c6c20616464726573730000006044820152606401610603565b600081116108055760405162461bcd60e51b815260206004820152601c60248201527f53686f756c64206772616e74206e6f6e2d7a65726f20616d6f756e74000000006044820152606401610603565b61080f81856128db565b935061081c8a8383611a3d565b80826001600160a01b03168b7f3e38a7272680c978d8255418e1729d3092ba064f5a3880c96e4827f94111bc8f60405160405180910390a450508080610861906128f3565b91505061070d565b506000878152600560205260408120600301805483929061088b9084906128db565b90915550506002546003546040516323b872dd60e01b81526001600160a01b039182166004820152306024820152604481018490529116906323b872dd90606401602060405180830381600087803b1580156108e657600080fd5b505af11580156108fa573d6000803e3d6000fd5b505050506040513d601f19601f8201168201806040525081019061091e919061290e565b506001979650505050505050565b6000610946600080516020612b2083398151915233611060565b6109625760405162461bcd60e51b815260040161060390612850565b610624600080516020612aa083398151915283610b33565b6000610987848385611b64565b949350505050565b60006109a9600080516020612b2083398151915233611060565b6109c55760405162461bcd60e51b815260040161060390612850565b6109cf8383610b33565b50600192915050565b610a0a6040518060a0016040528060008152602001606081526020016000815260200160008152602001600081525090565b600560008381526020019081526020016000206040518060a001604052908160008201548152602001600182018054610a4290612930565b80601f0160208091040260200160405190810160405280929190818152602001828054610a6e90612930565b8015610abb5780601f10610a9057610100808354040283529160200191610abb565b820191906000526020600020905b815481529060010190602001808311610a9e57829003601f168201915b5050505050815260200160028201548152602001600382015481526020016004820154815250509050919050565b6000610b03600080516020612b2083398151915233611060565b610b1f5760405162461bcd60e51b815260040161060390612850565b610624600080516020612ae0833981519152835b600082815260208190526040902060010154610b4f8133611e98565b610b598383611efc565b505050565b6001600160a01b0381163314610bce5760405162461bcd60e51b815260206004820152602f60248201527f416363657373436f6e74726f6c3a2063616e206f6e6c792072656e6f756e636560448201526e103937b632b9903337b91039b2b63360891b6064820152608401610603565b610bd88282611f1e565b5050565b6000610be9833384611b64565b9392505050565b6000610c0a600080516020612b2083398151915233611060565b610c265760405162461bcd60e51b815260040161060390612850565b610c308383611060565b156109cf576109cf838361164a565b6000610c59600080516020612b2083398151915233611060565b610c755760405162461bcd60e51b815260040161060390612850565b6000610c8060045490565b90506040518060a0016040528082815260200186868080601f016020809104026020016040519081016040528093929190818152602001838380828437600092018290525093855250505060208083018790526040808401839052606090930182905284825260058152919020825181558282015180519192610d0b926001850192909101906122d8565b50604082015160028201556060820151600382015560809091015160049182015580546001019055807f7557dda9604341e8e0878b722c2f0812b541f6856b778b89f71da8aea2ca997b868686604051610d6793929190612965565b60405180910390a2949350505050565b6000610d91600080516020612b2083398151915233611060565b610dad5760405162461bcd60e51b815260040161060390612850565b610624600080516020612ac083398151915283610b33565b60408051600580825260c0820190925260609160009190816020015b604080518082019091526000815260606020820152815260200190600190039081610de15790505090506040518060400160405280600080516020612b2083398151915281526020016040518060400160405280601681526020017518591b5a5b88199bdc881d1a194818dbdb9d1c9858dd60521b81525081525081600181518110610e6f57610e6f6128af565b60200260200101819052506040518060400160405280600080516020612ae083398151915281526020016040518060400160405280601981526020017f6d696e7465722063616e206d696e74206e657720636f696e730000000000000081525081525081600281518110610ee557610ee56128af565b60200260200101819052506040518060400160405280600080516020612aa08339815191528152602001604051806040016040528060158152602001746275726e65722063616e206275726e20636f696e7360581b81525081525081600381518110610f5357610f536128af565b60200260200101819052506040518060400160405280600080516020612ac08339815191528152602001604051806040016040528060168152602001756772616e7465722063616e206275726e20636f696e7360501b81525081525081600481518110610fc257610fc26128af565b60200260200101819052506040518060400160405280600080516020612b0083398151915281526020016040518060400160405280602081526020017f626c61636b6c69737465722063616e2075706461746520626c61636b6c69737481525081525081600581518110611038576110386128af565b6020908102919091010152919050565b6000828152600160205260408120610be99083611f40565b6000918252602082815260408084206001600160a01b0393909316845291905290205460ff1690565b60606000805b60045481101561111157600081856040516020016110c09291909182526001600160a01b0316602082015260400190565b60408051601f19818403018152918152815160209283012060008181526006909352912060020154909150156110fe576110fb6001846128db565b92505b5080611109816128f3565b91505061108f565b5060008167ffffffffffffffff81111561112d5761112d61299e565b60405190808252806020026020018201604052801561119257816020015b61117f60405180608001604052806000815260200160006001600160a01b0316815260200160008152602001600081525090565b81526020019060019003908161114b5790505b50905060005b60045481101561127657600081866040516020016111c99291909182526001600160a01b0316602082015260400190565b60408051601f19818403018152918152815160209283012060008181526006909352912060020154909150156112635760008181526006602090815260409182902082516080810184528154815260018201546001600160a01b03169281019290925260028101549282019290925260039091015460608201528351849084908110611257576112576128af565b60200260200101819052505b508061126e816128f3565b915050611198565b509392505050565b6060600061128b836113c1565b905060008167ffffffffffffffff8111156112a8576112a861299e565b6040519080825280602002602001820160405280156112d1578160200160208202803683370190505b50905060005b82811015611276576112e98582611048565b8282815181106112fb576112fb6128af565b6001600160a01b03909216602092830291909101909101528061131d816128f3565b9150506112d7565b600061133f600080516020612b2083398151915233611060565b61135b5760405162461bcd60e51b815260040161060390612850565b610624600080516020612b008339815191528361164a565b600061138d600080516020612b2083398151915233611060565b6113a95760405162461bcd60e51b815260040161060390612850565b610624600080516020612ac08339815191528361164a565b60008181526001602052604081206105c790611f4c565b60006113f2600080516020612b2083398151915233611060565b61140e5760405162461bcd60e51b815260040161060390612850565b610624600080516020612ae08339815191528361164a565b6060600061143360045490565b67ffffffffffffffff81111561144b5761144b61299e565b6040519080825280602002602001820160405280156114ae57816020015b61149b6040518060a0016040528060008152602001606081526020016000815260200160008152602001600081525090565b8152602001906001900390816114695790505b50905060005b6004548110156115c657600560008281526020019081526020016000206040518060a0016040529081600082015481526020016001820180546114f690612930565b80601f016020809104026020016040519081016040528092919081815260200182805461152290612930565b801561156f5780601f106115445761010080835404028352916020019161156f565b820191906000526020600020905b81548152906001019060200180831161155257829003601f168201915b5050505050815260200160028201548152602001600382015481526020016004820154815250508282815181106115a8576115a86128af565b602002602001018190525080806115be906128f3565b9150506114b4565b50919050565b6115e4600080516020612b2083398151915233611060565b6116005760405162461bcd60e51b815260040161060390612850565b600380546001600160a01b0319166001600160a01b0383169081179091556040517f74fd33b93b98017671fda1e0c45b783f7e31895388503a3959006c338043daf590600090a250565b6000828152602081905260409020600101546116668133611e98565b610b598383611f1e565b600061168a600080516020612b2083398151915233611060565b6116a65760405162461bcd60e51b815260040161060390612850565b610624600080516020612b0083398151915283610b33565b6116f260405180608001604052806000815260200160006001600160a01b0316815260200160008152602001600081525090565b600083836040516020016117199291909182526001600160a01b0316602082015260400190565b60408051808303601f1901815282825280516020918201206000908152600682528290206080840183528054845260018101546001600160a01b031691840191909152600281015491830191909152600301546060820152949350505050565b6000838152600560205260408120600201546117a75760405162461bcd60e51b81526004016106039061287f565b6001600160a01b0383166117fd5760405162461bcd60e51b815260206004820181905260248201527f43616e206e6f74207472616e7366657220746f206e756c6c20616464726573736044820152606401610603565b600082116118585760405162461bcd60e51b815260206004820152602260248201527f5472616e7366657220616d6f756e742073686f756c64206265206e6f6e2d7a65604482015261726f60f01b6064820152608401610603565b6040805160208082018790523382840152825180830384018152606083018085528151918301919091206000818152600690935284832060e085019095528454825260018501546001600160a01b03166080850152600285015460a0850181905260039095015460c09094018490529390926118d3916129b4565b9050848110156118e257600080fd5b600083815260066020526040812060020180548792906119039084906129b4565b909155506119149050878787611a3d565b856001600160a01b0316336001600160a01b0316887ff2dbd98d79f00f7aff338b824931d607bfcc63d47307162470f25a055102d3b08860405161195a91815260200190565b60405180910390a45060019695505050505050565b6119798282611060565b610bd8576000828152602081815260408083206001600160a01b03851684529091529020805460ff191660011790556119af3390565b6001600160a01b0316816001600160a01b0316837f2f8788117e7eff1d82e926ec794901d17c78024a50270940304540a733656f0d60405160405180910390a45050565b6000610be9836001600160a01b038416611f56565b60006001600160e01b03198216637965db0b60e01b14806105c757506301ffc9a760e01b6001600160e01b03198316146105c7565b600083815260056020526040902060020154611a6b5760405162461bcd60e51b81526004016106039061287f565b60008383604051602001611a929291909182526001600160a01b0316602082015260400190565b60408051601f198184030181529181528151602092830120600081815260069093529120600101549091506001600160a01b0316611b3757604080516080810182528581526001600160a01b0385811660208084019182528385018781526000606086018181528882526006909352959095209351845590516001840180546001600160a01b0319169190931617909155915160028201559051600390910155611b5e565b60008181526006602052604081206002018054849290611b589084906128db565b90915550505b50505050565b600083815260056020526040812060020154611b925760405162461bcd60e51b81526004016106039061287f565b6001600160a01b038316611be85760405162461bcd60e51b815260206004820181905260248201527f43616e206e6f7420776974686472617720746f206e756c6c20616464726573736044820152606401610603565b60008211611c435760405162461bcd60e51b815260206004820152602260248201527f576974686472617720616d6f756e742073686f756c64206265206e6f6e2d7a65604482015261726f60f01b6064820152608401610603565b6000848152600560205260409020600201544211611cb25760405162461bcd60e51b815260206004820152602660248201527f43616e206e6f74207769746864726177206265666f72652076657374696e672060448201526573746172747360d01b6064820152608401610603565b6040805160208082018790523382840152825180830384018152606083018085528151918301919091206000818152600690935284832060e085019095528454825260018501546001600160a01b03166080850152600285015460a0850181905260039095015460c0909401849052939092611d2d916129b4565b905084811015611d7f5760405162461bcd60e51b815260206004820152601f60248201527f4e6f7420737566666969656e742066756e6420666f72207769746864726177006044820152606401610603565b60008381526006602052604081206003018054879290611da09084906128db565b909155505060008781526005602052604081206004018054879290611dc69084906128db565b909155505060025460405163a9059cbb60e01b81526001600160a01b038881166004830152602482018890529091169063a9059cbb90604401602060405180830381600087803b158015611e1957600080fd5b505af1158015611e2d573d6000803e3d6000fd5b505050506040513d601f19601f82011682018060405250810190611e51919061290e565b50856001600160a01b0316336001600160a01b0316887ffeb2000dca3e617cd6f3a8bbb63014bb54a124aac6ccbf73ee7229b4cd01f1208860405161195a91815260200190565b611ea28282611060565b610bd857611eba816001600160a01b03166014611fa5565b611ec5836020611fa5565b604051602001611ed69291906129cb565b60408051601f198184030181529082905262461bcd60e51b825261060391600401612a40565b611f06828261196f565b6000828152600160205260409020610b5990826119f3565b611f288282612141565b6000828152600160205260409020610b5990826121a6565b6000610be983836121bb565b60006105c7825490565b6000818152600183016020526040812054611f9d575081546001818101845560008481526020808220909301849055845484825282860190935260409020919091556105c7565b5060006105c7565b60606000611fb4836002612a53565b611fbf9060026128db565b67ffffffffffffffff811115611fd757611fd761299e565b6040519080825280601f01601f191660200182016040528015612001576020820181803683370190505b509050600360fc1b8160008151811061201c5761201c6128af565b60200101906001600160f81b031916908160001a905350600f60fb1b8160018151811061204b5761204b6128af565b60200101906001600160f81b031916908160001a905350600061206f846002612a53565b61207a9060016128db565b90505b60018111156120f2576f181899199a1a9b1b9c1cb0b131b232b360811b85600f16601081106120ae576120ae6128af565b1a60f81b8282815181106120c4576120c46128af565b60200101906001600160f81b031916908160001a90535060049490941c936120eb81612a72565b905061207d565b508315610be95760405162461bcd60e51b815260206004820181905260248201527f537472696e67733a20686578206c656e67746820696e73756666696369656e746044820152606401610603565b61214b8282611060565b15610bd8576000828152602081815260408083206001600160a01b0385168085529252808320805460ff1916905551339285917ff6391f5c32d9c69d2a47ea670b442974b53935d1edc7fd64eb21e047a839171b9190a45050565b6000610be9836001600160a01b0384166121e5565b60008260000182815481106121d2576121d26128af565b9060005260206000200154905092915050565b600081815260018301602052604081205480156122ce5760006122096001836129b4565b855490915060009061221d906001906129b4565b905081811461228257600086600001828154811061223d5761223d6128af565b9060005260206000200154905080876000018481548110612260576122606128af565b6000918252602080832090910192909255918252600188019052604090208390555b855486908061229357612293612a89565b6001900381819060005260206000200160009055905585600101600086815260200190815260200160002060009055600193505050506105c7565b60009150506105c7565b8280546122e490612930565b90600052602060002090601f016020900481019282612306576000855561234c565b82601f1061231f57805160ff191683800117855561234c565b8280016001018555821561234c579182015b8281111561234c578251825591602001919060010190612331565b5061235892915061235c565b5090565b5b80821115612358576000815560010161235d565b60006020828403121561238357600080fd5b81356001600160e01b031981168114610be957600080fd5b80356001600160a01b038116811461062857600080fd5b6000602082840312156123c457600080fd5b610be98261239b565b60008083601f8401126123df57600080fd5b50813567ffffffffffffffff8111156123f757600080fd5b6020830191508360208260051b850101111561241257600080fd5b9250929050565b60008060008060006060868803121561243157600080fd5b85359450602086013567ffffffffffffffff8082111561245057600080fd5b61245c89838a016123cd565b9096509450604088013591508082111561247557600080fd5b50612482888289016123cd565b969995985093965092949392505050565b6000806000606084860312156124a857600080fd5b83359250602084013591506124bf6040850161239b565b90509250925092565b600080604083850312156124db57600080fd5b823591506124eb6020840161239b565b90509250929050565b60006020828403121561250657600080fd5b5035919050565b60005b83811015612528578181015183820152602001612510565b83811115611b5e5750506000910152565b6000815180845261255181602086016020860161250d565b601f01601f19169290920160200192915050565b805182526000602082015160a0602085015261258460a0850182612539565b90506040830151604085015260608301516060850152608083015160808501528091505092915050565b602081526000610be96020830184612565565b600080604083850312156125d457600080fd5b50508035926020909101359150565b6000806000604084860312156125f857600080fd5b833567ffffffffffffffff8082111561261057600080fd5b818601915086601f83011261262457600080fd5b81358181111561263357600080fd5b87602082850101111561264557600080fd5b6020928301989097509590910135949350505050565b60006020808301818452808551808352604092508286019150828160051b87010184880160005b838110156126c157888303603f190185528151805184528701518784018790526126ae87850182612539565b9588019593505090860190600101612682565b509098975050505050505050565b6020808252825182820181905260009190848201906040850190845b8181101561273857612725838551805182526020808201516001600160a01b03169083015260408082015190830152606090810151910152565b92840192608092909201916001016126eb565b50909695505050505050565b6020808252825182820181905260009190848201906040850190845b818110156127385783516001600160a01b031683529284019291840191600101612760565b6000602080830181845280855180835260408601915060408160051b870101925083870160005b828110156127da57603f198886030184526127c8858351612565565b945092850192908501906001016127ac565b5092979650505050505050565b815181526020808301516001600160a01b0316908201526040808301519082015260608083015190820152608081016105c7565b60008060006060848603121561283057600080fd5b833592506128406020850161239b565b9150604084013590509250925092565b60208082526015908201527421b0b63632b91034b9903737ba10309030b236b4b760591b604082015260600190565b60208082526016908201527515995cdd1a5b99c8191bd95cc81b9bdd08195e1a5cdd60521b604082015260600190565b634e487b7160e01b600052603260045260246000fd5b634e487b7160e01b600052601160045260246000fd5b600082198211156128ee576128ee6128c5565b500190565b6000600019821415612907576129076128c5565b5060010190565b60006020828403121561292057600080fd5b81518015158114610be957600080fd5b600181811c9082168061294457607f821691505b602082108114156115c657634e487b7160e01b600052602260045260246000fd5b604081528260408201528284606083013760006060848301015260006060601f19601f8601168301019050826020830152949350505050565b634e487b7160e01b600052604160045260246000fd5b6000828210156129c6576129c66128c5565b500390565b7f416363657373436f6e74726f6c3a206163636f756e7420000000000000000000815260008351612a0381601785016020880161250d565b7001034b99036b4b9b9b4b733903937b6329607d1b6017918401918201528351612a3481602884016020880161250d565b01602801949350505050565b602081526000610be96020830184612539565b6000816000190483118215151615612a6d57612a6d6128c5565b500290565b600081612a8157612a816128c5565b506000190190565b634e487b7160e01b600052603160045260246000fdfe3c11d16cbaffd01df69ce1c404f6340ee057498f5f00246190ea54220576a8482dee5dd865e09c7ce6788d674a03682994f0b44339403ca07ac129a9de4bed6a9f2df0fed2c77648de5860a4cc508cd0818c85b8b8a1ab4ceeef8d981c8956a698db8a220cd0f09badce9f22d0ba7e93edb3d404448cc3560d391ab096ad16e9a49807205ce4d355092ef5a8a18f56e8913cf4a201fbe287825b095693c21775a264697066735822122070a02419eed0c1a98519a5f5b4aecf0507ccb696817b8b232a47e9d49ca3846464736f6c63430008090033",
  "devdoc": {
    "kind": "dev",
    "methods": {
      "getRoleAdmin(bytes32)": {
        "details": "Returns the admin role that controls `role`. See {grantRole} and {revokeRole}. To change a role's admin, use {_setRoleAdmin}."
      },
      "getRoleMember(bytes32,uint256)": {
        "details": "Returns one of the accounts that have `role`. `index` must be a value between 0 and {getRoleMemberCount}, non-inclusive. Role bearers are not sorted in any particular way, and their ordering may change at any point. WARNING: When using {getRoleMember} and {getRoleMemberCount}, make sure you perform all queries on the same block. See the following https://forum.openzeppelin.com/t/iterating-over-elements-on-enumerableset-in-openzeppelin-contracts/2296[forum post] for more information."
      },
      "getRoleMemberCount(bytes32)": {
        "details": "Returns the number of accounts that have `role`. Can be used together with {getRoleMember} to enumerate all bearers of a role."
      },
      "grantRole(bytes32,address)": {
        "details": "Grants `role` to `account`. If `account` had not been already granted `role`, emits a {RoleGranted} event. Requirements: - the caller must have ``role``'s admin role."
      },
      "hasRole(bytes32,address)": {
        "details": "Returns `true` if `account` has been granted `role`."
      },
      "renounceRole(bytes32,address)": {
        "details": "Revokes `role` from the calling account. Roles are often managed via {grantRole} and {revokeRole}: this function's purpose is to provide a mechanism for accounts to lose their privileges if they are compromised (such as when a trusted device is misplaced). If the calling account had been revoked `role`, emits a {RoleRevoked} event. Requirements: - the caller must be `account`."
      },
      "revokeRole(bytes32,address)": {
        "details": "Revokes `role` from `account`. If `account` had been granted `role`, emits a {RoleRevoked} event. Requirements: - the caller must have ``role``'s admin role."
      },
      "supportsInterface(bytes4)": {
        "details": "See {IERC165-supportsInterface}."
      }
    },
    "version": 1
  },
  "userdoc": {
    "kind": "user",
    "methods": {},
    "version": 1
  },
  "storageLayout": {
    "storage": [
      {
        "astId": 24,
        "contract": "contracts/vesting.sol:TokenVesting",
        "label": "_roles",
        "offset": 0,
        "slot": "0",
        "type": "t_mapping(t_bytes32,t_struct(RoleData)19_storage)"
      },
      {
        "astId": 327,
        "contract": "contracts/vesting.sol:TokenVesting",
        "label": "_roleMembers",
        "offset": 0,
        "slot": "1",
        "type": "t_mapping(t_bytes32,t_struct(AddressSet)3083_storage)"
      },
      {
        "astId": 4121,
        "contract": "contracts/vesting.sol:TokenVesting",
        "label": "token",
        "offset": 0,
        "slot": "2",
        "type": "t_address"
      },
      {
        "astId": 4123,
        "contract": "contracts/vesting.sol:TokenVesting",
        "label": "funding",
        "offset": 0,
        "slot": "3",
        "type": "t_address"
      },
      {
        "astId": 4126,
        "contract": "contracts/vesting.sol:TokenVesting",
        "label": "vestingSchedID",
        "offset": 0,
        "slot": "4",
        "type": "t_struct(Counter)1591_storage"
      },
      {
        "astId": 4131,
        "contract": "contracts/vesting.sol:TokenVesting",
        "label": "vestingScheds",
        "offset": 0,
        "slot": "5",
        "type": "t_mapping(t_uint256,t_struct(VestingSched)4070_storage)"
      },
      {
        "astId": 4136,
        "contract": "contracts/vesting.sol:TokenVesting",
        "label": "soloVestings",
        "offset": 0,
        "slot": "6",
        "type": "t_mapping(t_bytes32,t_struct(SoloVesting)4079_storage)"
      }
    ],
    "types": {
      "t_address": {
        "encoding": "inplace",
        "label": "address",
        "numberOfBytes": "20"
      },
      "t_array(t_bytes32)dyn_storage": {
        "base": "t_bytes32",
        "encoding": "dynamic_array",
        "label": "bytes32[]",
        "numberOfBytes": "32"
      },
      "t_bool": {
        "encoding": "inplace",
        "label": "bool",
        "numberOfBytes": "1"
      },
      "t_bytes32": {
        "encoding": "inplace",
        "label": "bytes32",
        "numberOfBytes": "32"
      },
      "t_mapping(t_address,t_bool)": {
        "encoding": "mapping",
        "key": "t_address",
        "label": "mapping(address => bool)",
        "numberOfBytes": "32",
        "value": "t_bool"
      },
      "t_mapping(t_bytes32,t_struct(AddressSet)3083_storage)": {
        "encoding": "mapping",
        "key": "t_bytes32",
        "label": "mapping(bytes32 => struct EnumerableSet.AddressSet)",
        "numberOfBytes": "32",
        "value": "t_struct(AddressSet)3083_storage"
      },
      "t_mapping(t_bytes32,t_struct(RoleData)19_storage)": {
        "encoding": "mapping",
        "key": "t_bytes32",
        "label": "mapping(bytes32 => struct AccessControl.RoleData)",
        "numberOfBytes": "32",
        "value": "t_struct(RoleData)19_storage"
      },
      "t_mapping(t_bytes32,t_struct(SoloVesting)4079_storage)": {
        "encoding": "mapping",
        "key": "t_bytes32",
        "label": "mapping(bytes32 => struct TokenVesting.SoloVesting)",
        "numberOfBytes": "32",
        "value": "t_struct(SoloVesting)4079_storage"
      },
      "t_mapping(t_bytes32,t_uint256)": {
        "encoding": "mapping",
        "key": "t_bytes32",
        "label": "mapping(bytes32 => uint256)",
        "numberOfBytes": "32",
        "value": "t_uint256"
      },
      "t_mapping(t_uint256,t_struct(VestingSched)4070_storage)": {
        "encoding": "mapping",
        "key": "t_uint256",
        "label": "mapping(uint256 => struct TokenVesting.VestingSched)",
        "numberOfBytes": "32",
        "value": "t_struct(VestingSched)4070_storage"
      },
      "t_string_storage": {
        "encoding": "bytes",
        "label": "string",
        "numberOfBytes": "32"
      },
      "t_struct(AddressSet)3083_storage": {
        "encoding": "inplace",
        "label": "struct EnumerableSet.AddressSet",
        "members": [
          {
            "astId": 3082,
            "contract": "contracts/vesting.sol:TokenVesting",
            "label": "_inner",
            "offset": 0,
            "slot": "0",
            "type": "t_struct(Set)2782_storage"
          }
        ],
        "numberOfBytes": "64"
      },
      "t_struct(Counter)1591_storage": {
        "encoding": "inplace",
        "label": "struct Counters.Counter",
        "members": [
          {
            "astId": 1590,
            "contract": "contracts/vesting.sol:TokenVesting",
            "label": "_value",
            "offset": 0,
            "slot": "0",
            "type": "t_uint256"
          }
        ],
        "numberOfBytes": "32"
      },
      "t_struct(RoleData)19_storage": {
        "encoding": "inplace",
        "label": "struct AccessControl.RoleData",
        "members": [
          {
            "astId": 16,
            "contract": "contracts/vesting.sol:TokenVesting",
            "label": "members",
            "offset": 0,
            "slot": "0",
            "type": "t_mapping(t_address,t_bool)"
          },
          {
            "astId": 18,
            "contract": "contracts/vesting.sol:TokenVesting",
            "label": "adminRole",
            "offset": 0,
            "slot": "1",
            "type": "t_bytes32"
          }
        ],
        "numberOfBytes": "64"
      },
      "t_struct(Set)2782_storage": {
        "encoding": "inplace",
        "label": "struct EnumerableSet.Set",
        "members": [
          {
            "astId": 2777,
            "contract": "contracts/vesting.sol:TokenVesting",
            "label": "_values",
            "offset": 0,
            "slot": "0",
            "type": "t_array(t_bytes32)dyn_storage"
          },
          {
            "astId": 2781,
            "contract": "contracts/vesting.sol:TokenVesting",
            "label": "_indexes",
            "offset": 0,
            "slot": "1",
            "type": "t_mapping(t_bytes32,t_uint256)"
          }
        ],
        "numberOfBytes": "64"
      },
      "t_struct(SoloVesting)4079_storage": {
        "encoding": "inplace",
        "label": "struct TokenVesting.SoloVesting",
        "members": [
          {
            "astId": 4072,
            "contract": "contracts/vesting.sol:TokenVesting",
            "label": "vestingID",
            "offset": 0,
            "slot": "0",
            "type": "t_uint256"
          },
          {
            "astId": 4074,
            "contract": "contracts/vesting.sol:TokenVesting",
            "label": "beneficiary",
            "offset": 0,
            "slot": "1",
            "type": "t_address"
          },
          {
            "astId": 4076,
            "contract": "contracts/vesting.sol:TokenVesting",
            "label": "grantAmount",
            "offset": 0,
            "slot": "2",
            "type": "t_uint256"
          },
          {
            "astId": 4078,
            "contract": "contracts/vesting.sol:TokenVesting",
            "label": "withdrawAmount",
            "offset": 0,
            "slot": "3",
            "type": "t_uint256"
          }
        ],
        "numberOfBytes": "128"
      },
      "t_struct(VestingSched)4070_storage": {
        "encoding": "inplace",
        "label": "struct TokenVesting.VestingSched",
        "members": [
          {
            "astId": 4061,
            "contract": "contracts/vesting.sol:TokenVesting",
            "label": "id",
            "offset": 0,
            "slot": "0",
            "type": "t_uint256"
          },
          {
            "astId": 4063,
            "contract": "contracts/vesting.sol:TokenVesting",
            "label": "name",
            "offset": 0,
            "slot": "1",
            "type": "t_string_storage"
          },
          {
            "astId": 4065,
            "contract": "contracts/vesting.sol:TokenVesting",
            "label": "startTime",
            "offset": 0,
            "slot": "2",
            "type": "t_uint256"
          },
          {
            "astId": 4067,
            "contract": "contracts/vesting.sol:TokenVesting",
            "label": "grantAmount",
            "offset": 0,
            "slot": "3",
            "type": "t_uint256"
          },
          {
            "astId": 4069,
            "contract": "contracts/vesting.sol:TokenVesting",
            "label": "withdrawAmount",
            "offset": 0,
            "slot": "4",
            "type": "t_uint256"
          }
        ],
        "numberOfBytes": "160"
      },
      "t_uint256": {
        "encoding": "inplace",
        "label": "uint256",
        "numberOfBytes": "32"
      }
    }
  }
}